:100000000C94C7360C94F8360C94F8360C94F836E9
:100010000C94F8360D940C590C94F8360C94EEC6EA
:100020000D9497580C94F8360C94F8360C94F836D6
:100030000C94917E0C94F8360C9458F90C943E88EC
:100040000C94F8360C94E2FB0C94F8360C94F836C9
:100050000C94F8360C94F8360C94F8360C944F95B2
:100060000C94F8360C9431810C94F8360C94F836D4
:100070000C94F8360C94F8360C94F8360C94F83648
:100080000C94F8360C94F8360C94F8360C94F83638
:100090000C94ED800C94F8360C94F8360C94F836E9
:1000A0000C94F8360C94F8360C9454870C94F8366B
:1000B0000C94F8360C9436870C94F8360C94F83679
:1000C0000C94F8360C94F8360C94F8360C94A986F7
:1000D0000C94F8360C94F8360C94F8360C94F836E8
:1000E0000C94F8366B95799587959495A695AD9572
:1000F000CF95E595CDD3D0D3BFD3C3D3C9D307D440
:10010000D4D3D8D3DED3E2D3E6D3ECD3F0D3F4D335
:1001100007D4FAD3FED302D413D818D81DD827D8C1
:1001200031D8AAD83BD843D84BD855D85FD869D84E
:1001300078D882D8AAD88CD896D8A0D857E473E4B7
:1001400085E492E49CE4CEE441E4E4E4F8E4F2E4FF
:1001500041E4FBE418E52CE53EE5A6E6C2E892E8BA
:1001600087E87CE871E866E8E5E8D5E83FE811E86B
:10017000F5E71EEECFED1EEE21EE92EEADEE1EEE99
:100180001EEECCEE8D018D01A9018D01A901590151
:10019000F5022902F1014D0143022D03B9012B03A0
:1001A000C102BD028102750251012102F702A302C0
:1001B0000B0269019B02B30233033502DB023102F9
:1001C0009B019501084AD73B3BCE016E84BCBFFD25
:1001D000C12F3D6C74319ABD56833DDA3D00C77F17
:1001E00011BED9E4BB4C3E916BAAAABE00000080B0
:1001F0003F05A84CCDB2D44EB93836A9020C50B93F
:10020000918688083CA6AAAA2ABE000000803F0763
:10021000634236B79BD8A71A39685618AEBAAB55A1
:100220008C1D3CB7CC5763BD6DEDFD753EF6177266
:1002300031BF000000803F08000000BE9224491238
:100240003EABAAAA2ABECDCCCC4C3E00000080BE5C
:10025000ABAAAAAA3E00000000BF000000803F0039
:1002600000000000084178D3BB4387D1133D190E2D
:100270003CC3BD4282AD2B3E68EC8276BED98FE195
:10028000A93E4C80EFFFBE01C4FF7F3F000000008D
:1002900000000D94E0790C94F2E40D94F9620C9452
:1002A00088C80D9401660C94DED30D946F540C94A1
:1002B000D4D30D94DE530D947D520D946A370C9473
:1002C00036D20D9471390D94494F0C9464DF0D941E
:1002D000244D0D94376E0D943F540C94E5E80D9425
:1002E00058710C9421EE0D9427790C942DD50C9413
:1002F000C2E80C94E4D20C941DD80C944BD80C9406
:10030000E4E40D9461450D9437540C946FBC0C9447
:10031000D5E80C9432D50C94CF950D94CD530D9413
:10032000F4360C9471E80C9426C90D94786E0C94F4
:10033000E6D30C946DDD0D946F6E0C94E5950C94E2
:1003400031D80D946D4C0D947F410D9486380C94EA
:10035000117E0D94DB530D942F380C941ED30C9406
:10036000D8D30C94C9D30D94707C0C94038E0D9447
:1003700021790D945A660C94A6950C94FCE50C9486
:100380005FD80C943EDF0D94383A0C94CBE50C9476
:100390003CD50C94C3D30C944BD50D94E9360C94F6
:1003A00089810D94184D0C94ECD30C9428D50C94A1
:1003B00012D40D94134D0C943EE50C94A4C80C94E7
:1003C00032E60C9490940D94B67B0D94153A0D94EE
:1003D000A5510D94BB7A0C941BDF0C9485E40D940D
:1003E000AD390D9458630C9451E60C9437D50D94A7
:1003F0003D390D94677B0D94733D0C942CE50C9462
:1004000091900C9430CB0D948A410D9474760C9499
:10041000CDD30C9479950D941D6E0D94CA3D0C941A
:1004200002D40C9402E60D944F540C94EACE0D9431
:10043000BA1C0C94D4DC0D94617C0C94D0D30D9434
:1004400001390D94046E0C94CFED0C940ED40C94E1
:10045000AD950D944D630C9447D70D946E380C9464
:1004600092EE0D946C6E0D947F540D944F6E0C941F
:10047000F0D30C949AD50C94CDDF0D94813D0C945F
:10048000E2D30C94E5CF0D94C6620D942A760D94B8
:1004900052420D945D410C94FCDF0C9411E80D94D4
:1004A000D94D0C9492E80D9446520C946B950C9493
:1004B000E0CE0C9487950C948CE90C94E7C90C94CD
:1004C00078D80C9413D80C9451DF0D94F1510C94FE
:1004D00027D80D94B5420D9438770D9439380C9483
:1004E0009CE40C9457E40C9482D80D94C9650C9448
:1004F00094950C947CE80C94FED30C9486CC0C94CC
:1005000041D50D94AC650D940D370C942BDF0D94F3
:10051000C5380D94CC410C9417D40C94F5E70C9489
:10052000F87D0C9407D40C9441E40C94FAD30C9409
:100530006EDF0C9469D80D943A6E0C9420E20C9402
:1005400032DE0C9418D80D941A6E0D9443420C941C
:10055000F4CE0C94AED50D945F540C9446D50C9407
:10056000BFD30D94B83D0D943D6E0C9407CC0D9403
:1005700001770C9473E40D94554E0D9455650D94CC
:100580007C380D94BE640D9447540C94DFD20C94C7
:100590003BD80D9477540C941BC80D9414170C94ED
:1005A00096D80D949A4D0D9498380C944FD50D947F
:1005B000514F0D94834D0D94586E0C9443D80D9467
:1005C0006A410C9466E80D9444380D94F9B90C9482
:1005D0003FE80D948D4D0C94F4D30D94AA7A0C94AD
:1005E0008CD80C94AAD80D9467380D94E1530D94CF
:1005F0000D6E0C94CCEE0C9405D50D9484790D946D
:1006000067540D9473710C94F8E40C9406E60D9401
:1006100054110D9475380C94D6CE0C94ADEE0D9407
:10062000B7170C9408D40D94AB4D0D943C7A0C94F0
:1006300055D80C94A6E60C94FBE40C9487E80D9432
:1006400084AF0C941EEE0D94B37A0D9457540C9411
:10065000DAD20D947C4E0D9494630D9495620C94B3
:1006600018E50D942F540D94466E0C94CEE40D9421
:10067000BA4E0D94E1390C9492E40C94A0D86E61BA
:100680006E00696E66004E414E494E495459494EBE
:1006900046CDCCCC3D0AD7233C17B7D13877CC2BED
:1006A000329595E6241FB14F0A000020410000C892
:1006B0004200401C4620BCBE4CCA1B0E5AAEC59D13
:1006C0007400407A10F35A00A0724E18090010A569
:1006D000D4E80000E87648170000E40B540200005C
:1006E000CA9A3B000000E1F50500008096980000E2
:1006F0000040420F000000A086010000001027000B
:10070000000000E803000000006400000000000A90
:1007100000000000000100000000002C76D888DCFA
:10072000674F0823DFC1DFAE59E1B1B796E5E3E4D7
:1007300053C63AE651997696E8E6C28426EB898C50
:100740009B62ED407C6FFCEFBC9C9F40F2BAA56FB2
:10075000A5F490055A2AF75C936B6CF9676DC11B81
:10076000FCE0E40D47FEF520E6B500D0ED902E0349
:1007700000943577050080841E080000204E0A0092
:100780000000C80C333333330F986E12831141EFDE
:100790008D2114893BE65516CFFEE6DB18D1844B3C
:1007A000381BF77C1D901DA4BBE424203284725EAC
:1007B000228100C9F124ECA1E53D276364696E6FD5
:1007C00070737578585B0064756D7020636C65613B
:1007D0007265640A006E6F2064756D7020617661C9
:1007E000696C61626C650A00443231202D207265AB
:1007F00061642063726173682064756D700A006EB5
:100800006F2064756D7020617661696C61626C65E2
:100810000A0064756D7020636F6D706C657465643B
:1008200020696E20256C756D730A0058464C415343
:100830004800454550524F4D005352414D00442D04
:1008400031202D20456E646C657373206C6F6F7062
:100850000A005344207072696E74696E6720627971
:1008600074652000416374697665204578747275FB
:100870006465723A2000496E76616C69642065781F
:10088000747275646572005A204F666673657400F1
:10089000556E6B6E6F776E20636F6D6D616E643A2F
:1008A0002022004D32303020496E76616C69642020
:1008B000657874727564657220007A5F6D61783A4C
:1008C00020007A5F6D696E3A2000795F6D61783A39
:1008D0002000795F6D696E3A2000785F6D61783A2B
:1008E00020006F70656E0054524947474552454499
:1008F00000785F6D696E3A20005265706F7274699E
:100900006E6720656E6473746F70207374617475A4
:10091000730053494C454E54004E4F524D414C00CC
:100920002553204D4F44453A2050657263656E74DF
:1009300020646F6E653A20256868643B2070726998
:100940006E742074696D652072656D61696E696E83
:100950006720696E206D696E733A2025643B2043E1
:1009600068616E676520696E206D696E733A202537
:10097000640A00456E642066696C65206C69737456
:1009800000426567696E2066696C65206C697374E6
:1009900000556E6B6E6F776E20256320636F646504
:1009A0003A2025730A000A50494E44412074656D6F
:1009B00070657261747572653A20252E3166205A11
:1009C00020736869667420286D6D293A20252E33BE
:1009D00066000A537465703A2025642F360A000AAF
:1009E000537465703A2025642F362028736B697024
:1009F000706564290A50494E44412074656D7065E4
:100A00007261747572653A202564205A2073686992
:100A1000667420286D6D293A300A000A5A45524FF3
:100A20003A20252E33660A0073746172742074654F
:100A30006D70657261747572653A20252E31660A93
:100A40000025642020252E326600255320583A20A8
:100A5000252E356620593A20252E3566205A3A2013
:100A6000252E35660A00536C6565702E2E2E0045C6
:100A7000303A25642052504D0A50524E303A256487
:100A80002052504D0A00256400416476616E636512
:100A9000204B3D004B206F7574206F6620616C6C9D
:100AA0006F7765642072616E676521001B5B324A57
:100AB0001B5B313B324850727573612069332046AD
:100AC00061626D616E1B5B323B33485377697065C1
:100AD00020746F206C6F67696E001B5B324A1B5B72
:100AE000313B324850727573612069332046616230
:100AF0006D616E1B5B323B334853776970652074C0
:100B00006F206C6F67696E001B5B324A1B5B313B69
:100B100032485072757361206933204661626D619D
:100B20006E1B5B323B3348537769706520746F20CE
:100B30006C6F67696E001B5B324A1B5B313B32484E
:100B40005072757361206933204661626D616E1B5E
:100B50005B323B3348537769706520746F206C6F4C
:100B600067696E001B5B324A1B5B313B3248507237
:100B7000757361206933204661626D616E1B5B3263
:100B80003B3348537769706520746F206C6F6769D9
:100B90006E001F1F1F1F1F1F1F1F200A200A20007B
:100BA0004D3232302053256900255346696C616D02
:100BB000656E742073657474696E67733A20446956
:100BC0007361626C65640A00255346696C616D65EA
:100BD0006E742073657474696E67733A0A255320C6
:100BE00020204D3230302044252E32660A00255315
:100BF000526574726163743A20533D4C656E67743C
:100C00006820286D6D2920463A5370656564202858
:100C10006D6D2F6D29205A3A205A4C696674202830
:100C20006D6D290A25532020204D32303720532561
:100C30002E32662046252E3266205A252E32660A2E
:100C400025535265636F7665723A20533D4578743B
:100C50007261206C656E67746820286D6D2920466E
:100C60003A537065656420286D6D2F6D290A2553F0
:100C70002020204D3230382053252E326620462544
:100C80002E32660A25534175746F2D526574726158
:100C900063743A20533D3020746F2064697361623D
:100CA0006C652C203120746F20696E7465727072CF
:100CB000657420657874727564652D6F6E6C79202B
:100CC0006D6F7665732061732072657472616374F1
:100CD00073206F72207265636F7665726965730A3F
:100CE00025532020204D323039205325640A002519
:100CF000535049442068656174626564207365746B
:100D000074696E67733A0A25532020204D333034BE
:100D10002050252E32662049252E32662044252E6D
:100D200032660A0025535049442073657474696E15
:100D300067733A0A25532020204D33303120502547
:100D40002E32662049252E32662044252E32660A30
:100D500000255353746570732070657220756E6939
:100D6000743A0A255320204D39322058252E3266F8
:100D70002059252E3266205A252E32662045252EF2
:100D800032660A25535553746570207265736F6C13
:100D90007574696F6E3A200A2553204D3335302023
:100DA00058256420592564205A2564204525640A65
:100DB00025534D6178696D756D2066656564726156
:100DC000746573202D206E6F726D616C20286D6DBF
:100DD0002F73293A0A255320204D323033205825CD
:100DE0002E32662059252E3266205A252E32662054
:100DF00045252E32660A25534D6178696D756D2043
:100E0000666565647261746573202D207374656115
:100E10006C746820286D6D2F73293A0A25532020A1
:100E20004D3230332058252E32662059252E326619
:100E3000205A252E32662045252E32660A25534D2E
:100E40006178696D756D20616363656C657261744D
:100E5000696F6E202D206E6F726D616C20286D6D34
:100E60002F7332293A0A255320204D323031205831
:100E7000256C752059256C75205A256C75204525E3
:100E80006C750A25534D6178696D756D20616363DA
:100E9000656C65726174696F6E202D207374656175
:100EA0006C746820286D6D2F7332293A0A255320FF
:100EB000204D3230312058256C752059256C752015
:100EC0005A256C752045256C750A25534163636569
:100ED0006C65726174696F6E3A20503D7072696E14
:100EE000742C20523D726574726163742C20543DE1
:100EF00074726176656C0A255320204D323034209F
:100F000050252E32662052252E32662054252E3250
:100F1000660A2553416476616E636564207661726A
:100F20006961626C65733A20533D4D696E20666558
:100F300065647261746520286D6D2F73292C2054AF
:100F40003D4D696E2074726176656C2066656564DE
:100F50007261746520286D6D2F73292C20423D6DC0
:100F6000696E696D756D207365676D656E7420744B
:100F7000696D6520286D73292C20583D6D61786955
:100F80006D756D205859206A65726B20286D6D2F24
:100F900073292C20205A3D6D6178696D756D205A3A
:100FA000206A65726B20286D6D2F73292C202045D7
:100FB0003D6D6178696D756D2045206A65726B20A5
:100FC000286D6D2F73290A255320204D323035208E
:100FD00053252E32662054252E32662042252E328D
:100FE000662058252E32662059252E3266205A2535
:100FF0002E32662045252E32660A2553486F6D65D0
:10100000206F666673657420286D6D293A0A255332
:1010100020204D3230362058252E32662059252E7C
:101020003266205A252E32660A0046256420256441
:101030000A004D4D55203C3D20274625642025645F
:10104000270A004361703A25533A25630A00455840
:1010500054454E4445445F4D3230004155544F5243
:1010600045504F52545F504F534954494F4E0041E1
:1010700055544F5245504F52545F46414E530041D4
:1010800055544F5245504F52545F54454D500000F7
:101090005A30005A31005930005931005830005848
:1010A0003100456E642073746F70732064696167EA
:1010B0000044656C6574696F6E206661696C656477
:1010C0002C2046696C653A200046696C6520646591
:1010D0006C657465643A004E6F74205344207072DE
:1010E000696E74696E67005072696E742073617600
:1010F0006564005344207072696E7420706175736A
:101100006564004F4B004241440052414D426F2004
:1011100046414E200043524153485F43414E4345B0
:101120004C0043524153485F5245434F564552008D
:1011300043524153485F5245434F5645520022287F
:101140003229004475706C696361746520542D63A5
:101150006F64652069676E6F7265642E00496E76F4
:10116000616C6964205420636F64652E002C204DEF
:1011700039303720452069676E6F726564006E6F85
:101180002076616C696420636F6D6D616E64002C04
:1011900020002C20002C20006E2F61002C20002C21
:1011A00020002C20006E2F6100503A0057616974B6
:1011B00020666F722050494E444120746172676509
:1011C000742074656D70657261747572653A004162
:1011D00055544F004C414E472053454C20464F52EA
:1011E00043454400256925250A00256925250A006F
:1011F000222831290030303030303030302D30303E
:1012000030302D303030302D303030302D303030E7
:101210003030303030303030300020555549443A8D
:101220000031002045585452554445525F434F55B4
:101230004E543A005072757361206933204D4B3320
:101240005300204D414348494E455F545950453A5B
:1012500000312E3000206261736564206F6E204D76
:1012600061726C696E204649524D574152455F5537
:10127000524C3A68747470733A2F2F6769746875AA
:10128000622E636F6D2F707275736133642F5072AD
:101290007573612D4669726D776172652050524F8A
:1012A000544F434F4C5F56455253494F4E3A0046B8
:1012B00049524D574152455F4E414D453A50727526
:1012C00073612D4669726D7761726520004D313111
:1012D0003320530020423A0020453A00543A006F30
:1012E0006B20006E2F61003F546F7368696261204C
:1012F000466C617368416972204765744950206685
:1013000061696C65640A002569206D696E2C202571
:10131000692073656300496E76616C6964204D20B5
:10132000636F64653A2025730A004D657368206217
:101330006564206C6576656C696E67206E6F7420DD
:101340006163746976652E002020000A4D65617323
:101350007572656420706F696E74733A000A5A2062
:10136000736561726368206865696768743A200014
:101370004E756D20582C593A200050494E4441205A
:1013800070726F62652063616C6962726174696F0B
:101390006E20737461727400473238205730004EEB
:1013A0006F2050494E444120746865726D697374B2
:1013B0006F7200736574006E6F7A7A6C65004D42CF
:1013C0004C0046520042656174004C7A004C616EDC
:1013D00067005265760046697200534E20696E764A
:1013E000616C696400534E004D32380066760052DD
:1013F00045534554004D4D55524553004D32340030
:1014000075766C6F007468780046414E0046414E18
:1014100050494E5453540050524E0050696E67006C
:101420005052555341005345545F43484F505F005D
:101430005345545F535445505F005345545F5741E3
:1014400056455F00544D435F0043524153485F434C
:10145000414E43454C0043524153485F5245434F30
:101460005645520043524153485F44455445435406
:1014700045440043524153485F004D3120004D30F8
:10148000004D31313700472D636F646520736C69FF
:1014900063656420666F72206120646966666572A8
:1014A000656E74206C6576656C2E20436F6E746972
:1014B0006E75653F00472D636F646520736C6963CB
:1014C000656420666F722061206469666665726576
:1014D0006E74206C6576656C2E20506C656173654A
:1014E0002072652D736C69636520746865206D6F6B
:1014F00064656C20616761696E2E205072696E743C
:101500002063616E63656C6C65642E00472D636FAC
:10151000646520736C6963656420666F7220612066
:101520006E65776572206669726D776172652E20CF
:10153000506C6561736520757064617465207468B2
:1015400065206669726D776172652E205072696ED2
:10155000742063616E63656C6C65642E00472D6357
:101560006F646520736C6963656420666F722061C7
:10157000206E65776572206669726D776172652E7F
:1015800020436F6E74696E75653F00472D636F640D
:101590006520736C6963656420666F7220612064E6
:1015A0006966666572656E74207072696E746572C4
:1015B00020747970652E20436F6E74696E75653F77
:1015C00000472D636F646520736C696365642066F2
:1015D0006F72206120646966666572656E74207042
:1015E00072696E74657220747970652E20506C6516
:1015F0006173652072652D736C696365207468651D
:10160000206D6F64656C20616761696E2E20507279
:10161000696E742063616E63656C6C65642E005046
:1016200072696E746572206973206F7574206F66BD
:10163000206F726465722E00596F7520617265208B
:101640006E6F7420616C6C6F77656420746F2075A9
:1016500073652074686973207072696E7465722096
:101660006F757473696465206F70656E696E67204D
:10167000686F7572732E00596F7520646F206E6FDE
:101680007420686176652072657175697265642081
:10169000747261696E696E6720636F75727365211C
:1016A0002100596F7520646F206E6F742068617619
:1016B0006520616374697665207061636B6167653D
:1016C0002E20506C6561736520627579206F6E65A0
:1016D0002E00536F7272792C204920616D206E6F3D
:1016E00074206F6E6C696E65207269676874206E15
:1016F0006F772E20506C6561736520747279206D50
:1017000065206C617465722E005570646174696E39
:101710006720464D2066772E2E005072757361202B
:101720006933204661626D616E005072657373208B
:10173000746865206B6E6F6220746F2070726568CC
:10174000656174206E6F7A7A6C6520616E642063C7
:101750006F6E74696E75652E00506C6561736520DF
:10176000707265737320746865206B6E6F6220748D
:101770006F20756E6C6F61642066696C616D656E5B
:10178000740052656D6F7665206F6C642066696CBD
:10179000616D656E7420616E642070726573732074
:1017A000746865206B6E6F6220746F207374617251
:1017B00074206C6F6164696E67206E65772066695E
:1017C0006C616D656E742E00616E6420707265735D
:1017D0007320746865206B6E6F6200496E7365726A
:1017E000742066696C616D656E7400436F6C6F7216
:1017F000206E6F7420636F72726563740046696C4B
:10180000616D656E74206E6F74206C6F61646564C9
:10181000004368616E67656420636F72726563740C
:101820006C793F004C6F6164696E6720636F6C6F09
:1018300072004368616E67652073756363657373D7
:101840002100506C65617365206F70656E2069645E
:101850006C657220616E642072656D6F76652066BE
:10186000696C616D656E74206D616E75616C6C790B
:101870002E005761732066696C616D656E7420750A
:101880006E6C6F6164207375636365737366756CEA
:101890003F00506C656173652075706772616465A7
:1018A0002E004E6577206669726D776172652076CD
:1018B000657273696F6E20617661696C61626C65D7
:1018C0003A0057616974696E6720666F72205049EB
:1018D0004E44412070726F626520636F6F6C696E59
:1018E000670043726173682064657465637465643E
:1018F0002E20526573756D65207072696E743F009D
:1019000043726173682064657465637465642E0056
:1019100053656C6563742065787472756465723A9A
:10192000004E6F206D6F76652E00537461626C659A
:1019300020616D6269656E742074656D7065726199
:10194000747572652032312D323643206973206EF2
:1019500065656465642061207269676964207374D9
:10196000616E642069732072657175697265642E99
:1019700000506C656173652072756E2058595A204D
:1019800063616C6962726174696F6E2066697273FB
:10199000742E005761697420666F722075736572CA
:1019A0002E2E2E00435A5058003B53006164635F53
:1019B000696E6974000A204F726967696E616C20F4
:1019C00050727573612069330A202020507275733C
:1019D0006120526573656172636800200A200A20E5
:1019E0000A2000416C6C204461746100536572767A
:1019F0006963652070726570005368697070696E04
:101A000067207072657000537461746973746963E0
:101A100073004C616E6775616765004552415349BB
:101A20004E4720616C6C2064617461004661637490
:101A30006F72792052455345540044495341424CFA
:101A4000454400454E41424C454400202873656E94
:101A5000736F7220626F6172642072657669736958
:101A60006F6E3A2553290A004653656E736F7220D4
:101A7000255300494E5434004D4B33534D4D553290
:101A800053004E4F4D4B33530004004E4F435455BB
:101A90004100414C5446414E004170722032332087
:101AA0003230323200436F6D70696C65643A2000E9
:101AB000286E6F6E652C2064656661756C7420639A
:101AC0006F6E6669672900417072203233203230B0
:101AD00032322031363A33313A32330020332E312C
:101AE000312E302D343935350073746172740053E2
:101AF0004E20757064617465206661696C65640070
:101B0000534E207570646174656400435A505800E8
:101B1000416E206572726F72207768696C652077FC
:101B2000726974696E6720746F207468652053440D
:101B300020436172642E002055706C6F61642069CF
:101B40006E2070726F677265737300205A3A0020BE
:101B5000593A0020583A0043524153485F44455493
:101B6000454354454458590043524153485F444506
:101B7000544543544544590043524153485F4445FA
:101B800054454354454458004D32390045787465F6
:101B9000726E616C2053504920666C6173680A58FC
:101BA000464C415348206973206E6F7420726573F0
:101BB0002D0A706F6E64696E672E204C616E6775BA
:101BC0006167650A73776974636820756E61766111
:101BD000696C61626C652E004657206372617368A0
:101BE0002064657465637465642120596F75206392
:101BF000616E20636F6E74696E7565207072696EB8
:101C000074696E672E204465627567206461746133
:101C100020617661696C61626C6520666F7220611B
:101C20006E616C797369732E20436F6E7461637497
:101C300020737570706F727420746F207375626D8D
:101C400069742064657461696C732E002F2F2061A4
:101C50006374696F6E3A64756D705F617661696C0B
:101C600061626C65005072757361206933204D4B61
:101C70003353204F4B2E0043726173684465746583
:101C800063742044495341424C454400437261739C
:101C90006844657465637420454E41424C45442157
:101CA0000045787472756465722066616E2074797F
:101CB00070653A200058464C415348206E6F74209E
:101CC000726573706F6E64696E672E002020506CB1
:101CD000616E6E657242756666657242797465738F
:101CE0003A20002046726565204D656D6F72793A25
:101CF0002000207C20417574686F723A2000204CCF
:101D000061737420557064617465643A20002053D7
:101D10006F66747761726520526573657400205731
:101D200061746368646F6720526573657400204254
:101D3000726F776E206F7574205265736574002022
:101D400045787465726E616C2052657365740050DD
:101D50006F7765725570006572726F722077726965
:101D600074696E6720746F2066696C6500656E64C7
:101D700073746F7073206869743A2000446F6E65E5
:101D800020736176696E672066696C652E006F6BE3
:101D9000004D4B3353206669726D77617265206424
:101DA00065746563746564206F6E204D4B332070DD
:101DB00072696E74657200426C61636B6F7574203A
:101DC0006F636375727265642E205265636F76650A
:101DD00072207072696E743F0053656C667465732F
:101DE000742077696C6C2062652072756E20746F48
:101DF0002063616C696272617465206163637572EE
:101E00006174652073656E736F726C657373207295
:101E100065686F6D696E672E00546865726520692C
:101E200073207374696C6C2061206E656564207426
:101E30006F206D616B65205A2063616C696272610D
:101E400074696F6E2E20506C6561736520666F6CCF
:101E50006C6F7720746865206D616E75616C2C20E5
:101E6000636861707465722046697273742073745C
:101E70006570732C2073656374696F6E2043616CA9
:101E80006962726174696F6E20666C6F772E0050A4
:101E900072696E74657220686173206E6F7420625F
:101EA00065656E2063616C69627261746564207936
:101EB00065742E20506C6561736520666F6C6C6F65
:101EC0007720746865206D616E75616C2C20636885
:101ED00061707465722046697273742073746570E2
:101EE000732C2073656374696F6E2043616C696243
:101EF000726174696F6E20666C6F772E004F6C6430
:101F00002073657474696E677320666F756E642ED6
:101F10002044656661756C74205049442C204573DB
:101F200074657073206574632E2077696C6C206211
:101F300065207365742E005761726E696E673A2072
:101F4000626F7468207072696E7465722074797043
:101F50006520616E64206D6F74686572626F617276
:101F6000642074797065206368616E6765642E0013
:101F70005761726E696E673A207072696E7465722D
:101F80002074797065206368616E6765642E005700
:101F900061726E696E673A206D6F74686572626F08
:101FA0006172642074797065206368616E6765642E
:101FB0002E0058595A2063616C6962726174696FAE
:101FC0006E20616C6C2072696768742E20536B659B
:101FD000772077696C6C20626520636F727265632D
:101FE000746564206175746F6D61746963616C6C94
:101FF000792E0058595A2063616C69627261746964
:102000006F6E20616C6C2072696768742E20582F87
:102010005920617865732061726520736C69676807
:10202000746C7920736B657765642E20476F6F64DD
:10203000206A6F62210058595A2063616C6962728C
:102040006174696F6E206F6B2E20582F5920617854
:102050006573206172652070657270656E64696376
:10206000756C61722E20436F6E67726174756C615E
:1020700074696F6E73210058595A2063616C6962EC
:10208000726174696F6E206661696C65642E20529E
:10209000696768742066726F6E742063616C696230
:1020A000726174696F6E20706F696E74206E6F74E8
:1020B00020726561636861626C652E0058595A2010
:1020C00063616C6962726174696F6E206661696CCC
:1020D00065642E2046726F6E742063616C69627253
:1020E0006174696F6E20706F696E7473206E6F74A7
:1020F00020726561636861626C652E0058595A20D0
:1021000063616C6962726174696F6E206661696C8B
:1021100065642E20506C6561736520636F6E737506
:102120006C7420746865206D616E75616C2E00584A
:10213000595A2063616C6962726174696F6E2063C1
:102140006F6D70726F6D697365642E205269676878
:10215000742066726F6E742063616C696272617460
:10216000696F6E20706F696E74206E6F7420726577
:1021700061636861626C652E0058595A2063616C16
:102180006962726174696F6E20636F6D70726F6DDA
:10219000697365642E2046726F6E742063616C698A
:1021A00062726174696F6E20706F696E7473206EF5
:1021B0006F7420726561636861626C652E005859A6
:1021C0005A2063616C6962726174696F6E20666126
:1021D000696C65642E204265642063616C6962727B
:1021E0006174696F6E20706F696E742077617320FF
:1021F0006E6F7420666F756E642E00506C6561732F
:102200006520706C61636520737465656C2073680C
:10221000656574206F6E20686561746265642E0068
:1022200044697374616E6365206265747765656E79
:1022300020746970206F6620746865206E6F7A7AEA
:102240006C6520616E64207468652062656420732B
:1022500075726661636520686173206E6F742062B9
:1022600065656E20736574207965742E20506C65E9
:1022700061736520666F6C6C6F7720746865206D84
:10228000616E75616C2C20636861707465722046A4
:10229000697273742073746570732C207365637432
:1022A000696F6E204669727374206C617965722063
:1022B00063616C6962726174696F6E2E00506C614B
:1022C00063652061207368656574206F66207061A6
:1022D00070657220756E64657220746865206E6F1B
:1022E0007A7A6C6520647572696E672074686520FF
:1022F00063616C6962726174696F6E206F662066DB
:1023000069727374203420706F696E74732E204963
:102310006620746865206E6F7A7A6C6520636174DC
:1023200063686573207468652070617065722C2025
:10233000706F776572206F666620746865207072B2
:10234000696E74657220696D6D6564696174656C30
:10235000792E00506C656173652072656D6F7665CE
:1023600020737465656C2073686565742066726F90
:102370006D20686561746265642E00497320737412
:1023800065656C207368656574206F6E2068656193
:10239000746265643F00536561726368696E6720AB
:1023A0006265642063616C6962726174696F6E203A
:1023B000706F696E74004D6561737572696E672028
:1023C0007265666572656E636520686569676874C5
:1023D000206F662063616C6962726174696F6E2040
:1023E000706F696E7400506C6561736520636C6515
:1023F000616E20746865206E6F7A7A6C6520666FF6
:10240000722063616C6962726174696F6E2E204321
:102410006C69636B207768656E20646F6E652E0053
:102420004175746F20686F6D65004D6561737572DD
:10243000656420736B6577733A2025662025660AEC
:102440000046697474696E67206661696C65642012
:102450003D3E2063616C6962726174696F6E2066D3
:1024600061696C65642E0A0043616C696272617413
:10247000696F6E20737563636573732E0A00416C18
:102480006C20342063616C6962726174696F6E20C4
:10249000706F696E747320666F756E642E0A0031FA
:1024A0002F3400312F3400312F390078797A63616D
:1024B0006C5F6D656173737572655F656E7465726F
:1024C0000A0078797A63616C5F73706972616C3845
:1024D0002063783D25642063793D2564207A303D72
:1024E000256420647A3D2564207261646975733DBA
:1024F00025642061643D25640A0078797A63616C03
:102500005F7365617263685A206E6F207369676ECE
:10251000616C0A20783D256C6420793D256C64202F
:102520007A3D256C640A00204F4E2D5349474E4199
:102530004C20617420783D256420793D2564207A03
:102540003D25642061643D25640A0078797A6361E1
:102550006C5F7365617263685A20783D256C6420F6
:10256000793D256C64207A3D256C640A0025640A57
:10257000005363616E20636F756E74646F776E3A9B
:1025800020000A002530327800205B256620256671
:102590005D206D6D207061747465726E2063656E70
:1025A0007465720A00205B25662025665D5B2566E2
:1025B0005D206D6D20646976657267656E63650A7E
:1025C000000000F000F801FC03FE07FE07FE07FE16
:1025D00007FC03F801F000000000000000F000F824
:1025E00001FC03FC03FC03FC03F801F00000000005
:1025F0000078797A63616C5F6D656173737572657C
:102600005F6C656176650A00203C20005741524EA0
:10261000494E473A2046726F6E7420706F696E742F
:10262000206E6F7420726561636861626C652E2034
:102630005920636F6F7264696E6174653A000000BF
:102640000040410000C04000005C430000C040006A
:10265000005C430000464300004041000046432523
:10266000642F3400497465726174696F6E3A20009A
:1026700043616C6962726174696F6E206661696C36
:1026800065642120436865636B2074686520617808
:10269000657320616E642072756E20616761696E7A
:1026A0002E005553415254322072782046756C6C7E
:1026B0002121210053657474696E67732053746F10
:1026C0007265640053746F72656420736574746915
:1026D0006E6773207265747269657665640048611F
:1026E0007264636F6465642044656661756C742010
:1026F00053657474696E6773204C6F616465640020
:10270000563200000000C8420000C8420000C84322
:1027100000008C4300004843000048430000404153
:102720000000F042E8030000E8030000C8000000D9
:102730008813000000409C4400409C4400000000BE
:1027400000000000204E0000000020410000204159
:10275000CDCCCC3E00009040000000000000000006
:1027600000000000CDCCCC3E3D0A8141FF08433E35
:10277000B099AB438F42FC42E65A343F4C62B045BD
:102780000000000000404000003442000000000053
:1027900000000000000041000000E03F0000C842CF
:1027A0000000C842000040410000F042C0030000A9
:1027B000C0030000C80000008813000010101020A3
:1027C00000409C44627573793A207061757365644A
:1027D00020666F7220696E70757400627573793A45
:1027E0002070617573656420666F72207573657201
:1027F00000627573793A2070726F63657373696EE6
:102800006700537769706520746F206C6F67696E1D
:10281000005072757361206933204661626D616E8C
:1028200000256C7520627974657320777269747401
:10283000656E20746F20255320617420616464727A
:102840006573732030782530346C780A0044256431
:10285000202D20526561642F5772697465202553BD
:102860000A00756E6B6E6F776E207374617465000D
:1028700020302E34206F72206E6577657200203014
:102880002E33206F72206F6C646572006673656E04
:10289000736F722076302E3420696E206661756CFD
:1028A000742072616E676520342E362D3556202DCA
:1028B00020756E636F6E6E65637465640066736524
:1028C0006E736F7220696E20666F726269646465F0
:1028D0006E2072616E676520312E352D3356202DA6
:1028E00020636865636B2073656E736F7200312EB1
:1028F0003000312E3500554E4B4E4F574E004C4157
:102900003130433A204C696E6561722041647661D2
:102910006E6365206D6F64653A20004C4131304331
:102920003A2041646A757374656420452D4A657266
:102930006B3A2000000E1315110E0000000412095E
:1029400012040000001C1F11111F000000061918BE
:1029500003130C00040E1F041C000000040A0A0AE2
:102960000A11110E001F1511151F0000000103169A
:102970001C0800000000110A04110A040C12120CB9
:10298000000000002563252D31382E313853256392
:10299000005B25735D2563005B25535D2563002582
:1029A00063252D31382E31385300252E31305320F8
:1029B000002563252D31382E3138732563002563BA
:1029C000252D31382E3138732563002563252D2EB2
:1029D00031365320002563252E3135533A25732592
:1029E000336400252D32302E3230530A0022206607
:1029F00061696C65643A2042756666657220667529
:102A00006C6C21002200256920686F757273202587
:102A100069206D696E757465730052582074696D14
:102A2000656F7574004D3131300046756C6C205205
:102A3000582042756666657200437573746F6D0049
:102A4000536174696E200054657874757200536D1B
:102A50006F6F74680047312059252D2E326620454E
:102A6000252D2E3366004731205825642059252D09
:102A70002E32662045252D2E3366006673656E73F3
:102A80006F725F636865636B706F696E745F70729D
:102A9000696E7400656E717565696E672022004409
:102AA0006F6E65207072696E74696E672066696CFE
:102AB00065004D3131322063616C6C65642E2045B8
:102AC0006D657267656E63792053746F702E005068
:102AD00072696E7465722073746F707065642064BF
:102AE000756520746F206572726F72732E2046694F
:102AF0007820746865206572726F7220616E642040
:102B0000757365204D39393920746F20726573747F
:102B10006172742E202854656D70657261747572CF
:102B2000652069732072657365742E205365742067
:102B30006974206166746572207265737461727461
:102B4000696E6729004E6F204C696E65204E756D69
:102B5000626572207769746820636865636B73755A
:102B60006D2C204C617374204C696E653A20004EC8
:102B70006F20436865636B73756D20776974682097
:102B80006C696E65206E756D6265722C204C617388
:102B900074204C696E653A2000636865636B7375D9
:102BA0006D206D69736D617463682C204C61737462
:102BB000204C696E653A20004C696E65204E756D3B
:102BC000626572206973206E6F74204C617374208B
:102BD0004C696E65204E756D6265722B312C204CF0
:102BE000617374204C696E653A200053544F505005
:102BF00045442E00206661696C65642E0020737563
:102C0000636365656465642E004D4D552063616E98
:102C10005F6C6F61643A004164646974696F6E61EE
:102C20006C206C6F616420617474656D7074206ECB
:102C3000722E2025640A00773235783230636C5F5B
:102C400063666D0A00773235783230636C5F656E8B
:102C50007465720A0073746172740A004D4D5520D8
:102C60006C6F6164206661696C65640020746F6FCD
:102C7000206C6F6E6720657874727573696F6E2053
:102C800070726576656E7465640020636F6C642095
:102C9000657874727573696F6E2070726576656E93
:102CA000746564001000C90210012C01400122016A
:102CB00070011801B0010E01F00104015002FA0088
:102CC000B002F0003003E600D003DC009004D20034
:102CD0007005C800A006BE000008B400B009AA0034
:102CE000D00BA000600E960060118C0000158200D1
:102CF00020197800C01D6E00A0226400B0275A0081
:102D0000902C500000314600E0343C001038320076
:102D1000903A2800603C1E00A03D1400803E0A004E
:102D2000203F0000504944204175746F74756E65F2
:102D30002066696E6973686564212050757420741B
:102D40006865206C617374204B702C204B69206186
:102D50006E64204B6420636F6E7374616E747320B5
:102D600066726F6D2061626F766520696E746F2088
:102D7000436F6E66696775726174696F6E2E680065
:102D8000504944204175746F74756E6520666169A1
:102D90006C6564212074696D656F75740020403A1C
:102DA00000543A00423A00504944204175746F740F
:102DB000756E65206661696C6564212054656D706F
:102DC0006572617475726520746F6F2068696768D9
:102DD00000204B643A2000204B693A2000204B70C1
:102DE0003A200020436C617373696320504944208A
:102DF000002054753A2000204B753A2000206D6168
:102E0000783A2000206D696E3A200020643A200054
:102E100020626961733A2000457874727564657246
:102E20002066616E207370656564206973206C6F25
:102E3000776572207468616E20657870656374656B
:102E400064005072696E742066616E2073706565EF
:102E500064206973206C6F776572207468616E20DE
:102E60006578706563746564004D494E54454D50F6
:102E700020414D42004D415854454D50004D415860
:102E800054454D5020424544004D415854454D5005
:102E900020414D4200202D20496E76616C696420EE
:102EA0006578747275646572206E756D62657220E6
:102EB000210070012C0190012701B0012201C00105
:102EC0001D01F00118011002130130020E01600211
:102ED000090190020401C002FF000003FA00400350
:102EE000F5008003F000D003EB002004E60070043E
:102EF000E100E004DC004005D700C005D200400638
:102F0000CD00D006C8008007C3003008BE00F0081E
:102F1000B900C009B400B00AAF00B00BAA00D00CD1
:102F2000A500000EA000500F9B00C010960050128C
:102F3000910000148C00C0158700B0178200B019F2
:102F40007D00D01B7800001E730040206E00902290
:102F50006900F024640040275F0090295A00E02BAC
:102F60005500102E500020304B0010324600E03348
:102F7000410090353C001037370070383200A039DE
:102F80002D00B03A2800A03B2300603C1E00103DFD
:102F90001900903D1400103E0F00703E0A00C03E24
:102FA0000500003F000090137D00B0157800F01779
:102FB0007300601A6E00F01C6900A01F64005022AC
:102FC0005F0020255A00E0275500902A5000202D50
:102FD0004B00A02F4600F031410010343C00F0358A
:102FE0003700A037320020392D00603A2800703BAE
:102FF0002300603C1E00203D1900C03D1400403EEF
:103000000F00A03E0A00F03E0500403F0000703F68
:10301000FBFF903FF6FFB03FF1FFC03FECFFD03F1A
:10302000E7FFE03FE2FFF03FDDFFF03FD8FF204841
:103030004F54454E4420544845524D414C20525522
:103040004E4157415900204845415442454420547F
:103050004845524D414C2052554E4157415900541C
:103060004845524D414C2052554E4157415900421E
:10307000454420544845524D414C2052554E4157ED
:1030800041590020544845524D414C2052554E4123
:1030900057415920285052454845415420484F54E3
:1030A000454E44290020544845524D414C2052552C
:1030B0004E415741592028505245484541542048D7
:1030C0004541544245442900505245484541542009
:1030D0004552524F520042454420505245484541C6
:1030E00054204552524F52004572723A20002074CB
:1030F000726967676572656421004865617465720D
:1031000073207377697463686564206F66662E2028
:10311000003A20005072656865617420746865200B
:103120006E6F7A7A6C6521004552524F523A0046D2
:10313000696C616D656E7420657874727564696E12
:10314000672026207769746820636F7272656374E4
:1031500020636F6C6F723F004175746F6C6F6164B8
:10316000696E672066696C616D656E742069732095
:103170006163746976652C206A757374207072655A
:10318000737320746865206B6E6F6220616E6420BB
:10319000696E736572742066696C616D656E742EFC
:1031A0002E2E005072696E742074696D6500466938
:1031B0006C616D656E74207573656400546F746125
:1031C0006C207072696E742074696D6500546F7440
:1031D000616C2066696C616D656E74005269676828
:1031E00074004C65667400592064697374616E6381
:1031F000652066726F6D206D696E0053657665722D
:103200006520736B657700536C6967687420736B16
:103210006577004D6561737572656420736B6577C2
:10322000005B303B305D20706F696E74206F6666A6
:103230007365740041646A757374696E67205A3AE5
:1032400000526561722073696465205BE46D5D0006
:1032500046726F6E7420736964655BE46D5D005245
:103260006967687420736964655BE46D5D004C6533
:1032700066742073696465205BE46D5D005365745A
:103280002074656D70657261747572653A0050499D
:103290004E44412063616C6962726174696F6E2093
:1032A0006661696C65640050494E44412063616CFD
:1032B0006962726174696F6E2069732066696E69F4
:1032C0007368656420616E64206163746976652E3D
:1032D0002049742063616E206265206469736162B5
:1032E0006C656420696E206D656E7520536574741D
:1032F000696E67732D3E50494E44412063616C2EC8
:103300000046696C2E2073656E736F720025533A08
:103310000A2531382E32666D200A25533A0A2531A6
:10332000306C6468202530326868646D2025303246
:10333000686864730025533A0A2531382E32666D69
:10334000200A25533A0A2531306C64642025303236
:1033500068686468202530326868646D0025362E00
:1033600032666D6D0025530A25530A25533A0A2506
:10337000533A0025332E32660100252D31342E318B
:1033800034533A0A25530A252D31342E3134533A19
:1033900025332E3266010A252D31342E3134533A2D
:1033A00025332E32660100202030002020310046D7
:1033B000494E44410050494E444100252D31322EA2
:1033C000313253252B382E3166004578747275647E
:1033D00065723A006D6D0059005800583A00593A2C
:1033E000005A3A002563252D31332E313353252BD6
:1033F000352E33660050494E44412063616C69624A
:10340000726174696F6E206661696C65642E204319
:103410006F6E74696E756520776974682070726567
:103420007373696E6720746865206B6E6F622E001F
:1034300050494E44412063616C6962726174696FE6
:103440006E20646F6E652E20436F6E74696E7565B5
:103450002077697468207072657373696E67207471
:103460006865206B6E6F622E007B5B4552523A009E
:103470000000000000110A04435A5058496E76615A
:103480006C696453657269616C4E72006265746147
:1034900000616C706861006465760003000B0000D9
:1034A000005B1350525553413344465700000021EE
:1034B00000240027002A002D003000330001010005
:1034C00000040107010A0100002200250028002B4A
:1034D000002E003100340002010000050108010B3C
:1034E00001000020002300260029002C002F0032BC
:1034F000000001000003010601090105050505079B
:103500000508080808020202020A0A08080404045E
:10351000040101010101010101030303030303038A
:1035200003040707070C0C0C0C0C0C0C0C02020219
:103530000206060606060606060B0B0B0B0B0B0B0C
:103540000B07070A0A0A0A0A0A0505050404040803
:10355000080102102020080810204010204080029E
:1035600001020108040201010204081020408080C9
:10357000402010080402018004020180402010084D
:103580000402010804020101020408102040800125
:103590000204081020408010080408801020400415
:1035A0004080102040048000000A0B02090C0D0E20
:1035B00008070304010000000000000000000000F4
:1035C00000000000000000000000000000000000FB
:1035D00000000012111000000000000000000000B8
:1035E00000000000000000000000000000000000DB
:1035F0000000000000000000000000000053442014
:10360000636172642072656C656173656400466114
:103610006B652073657269616C206E756D62657291
:1036200000452D636F6F6C206D6F646500414C54D5
:1036300046414E206465742E0043617264207265B9
:103640006D6F766564004F6E004F66660042616381
:103650006B005072696E746572206E6F7A7A6C6559
:10366000206469616D65746572206469666665725F
:10367000732066726F6D2074686520472D636F64D8
:10368000652E20506C6561736520636865636B20EF
:103690007468652076616C756520696E2073657449
:1036A00074696E67732E205072696E742063616E48
:1036B00063656C6C65642E005072696E746572206F
:1036C0006E6F7A7A6C65206469616D6574657220CD
:1036D000646966666572732066726F6D20746865D2
:1036E00020472D636F64652E20436F6E74696E757D
:1036F000653F004C6F6164696E672066696C616D3F
:10370000656E7400506C6561736520696E736572D7
:10371000742066696C616D656E7420696E746F20CB
:103720007468652065787472756465722C2074689D
:10373000656E20707265737320746865206B6E6FA0
:103740006220746F206C6F61642069742E00506C6D
:103750006561736520696E736572742066696C615A
:103760006D656E7420696E746F207468652066697B
:103770007273742074756265206F662074686520AA
:103780004D4D552C207468656E20707265737320E2
:10379000746865206B6E6F6220746F206C6F61645B
:1037A0002069742E00546865207072696E746572A9
:1037B0002077696C6C207374617274207072696E0A
:1037C00074696E672061207A69672D7A6167206C61
:1037D000696E652E20526F7461746520746865206F
:1037E0006B6E6F6220756E74696C20796F752072D4
:1037F0006561636820746865206F7074696D616CC1
:10380000206865696768742E20436865636B20745F
:10381000686520706963747572657320696E2074C1
:1038200068652068616E64626F6F6B202843616C0D
:103830006962726174696F6E206368617074657229
:10384000292E0053656C6563742074656D70657214
:103850006174757265207768696368206D6174634F
:1038600068657320796F7572206D61746572696126
:103870006C2E0053656C65637420612066696C6111
:103880006D656E7420666F7220746865204669727B
:103890007374204C617965722043616C6962726156
:1038A00074696F6E20616E642073656C656374204B
:1038B000697420696E20746865206F6E2D73637261
:1038C00065656E206D656E752E004E6F7720492000
:1038D00077696C6C2063616C6962726174652064E5
:1038E000697374616E6365206265747765656E20C7
:1038F000746970206F6620746865206E6F7A7A6CC8
:103900006520616E6420686561746265642073750A
:1039100072666163652E00596F752063616E206168
:103920006C7761797320726573756D652074686555
:103930002057697A6172642066726F6D2043616CF2
:103940006962726174696F6E202D3E2057697A61D9
:1039500072642E00506C6561736520636865636BEB
:10396000206F75722068616E64626F6F6B20616E8C
:103970006420666978207468652070726F626C6577
:103980006D2E205468656E20726573756D652074A8
:1039900068652057697A6172642062792072656275
:1039A0006F6F74696E6720746865207072696E74D9
:1039B00065722E00416C6C20697320646F6E652EF9
:1039C000204861707079207072696E74696E672129
:1039D00000496620796F75206861766520616464AE
:1039E0006974696F6E616C20737465656C207368AF
:1039F000656574732C2063616C6962726174652003
:103A00007468656972207072657365747320696E7D
:103A10002053657474696E6773202D2048572053B6
:103A200065747570202D20537465656C207368650E
:103A30006574732E00506C6561736520636C6561FD
:103A40006E206865617462656420616E64207468CC
:103A5000656E20707265737320746865206B6E6F7D
:103A6000622E00446F20796F752077616E74207428
:103A70006F20726570656174206C6173742073745B
:103A8000657020746F20726561646A757374206458
:103A9000697374616E6365206265747765656E2015
:103AA0006E6F7A7A6C6520616E64206865617462FD
:103AB00065643F0053656C656374206E6F7A7A6C41
:103AC0006520707265686561742074656D706572DB
:103AD0006174757265207768696368206D617463CD
:103AE00068657320796F7572206D617465726961A4
:103AF0006C2E0049732066696C616D656E74206C74
:103B00006F616465643F004E6F7720492077696C70
:103B10006C2070726568656174206E6F7A7A6C656E
:103B200020666F7220504C412E00492077696C6CE2
:103B30002072756E207A2063616C696272617469AB
:103B40006F6E206E6F772E004E6F772072656D6FEF
:103B50007665207468652074657374207072696E70
:103B6000742066726F6D20737465656C2073686570
:103B700065742E00506C656173652072656D6F769B
:103B800065207368697070696E672068656C706520
:103B900072732066697273742E00492077696C6CA9
:103BA0002072756E2078797A2063616C6962726127
:103BB00074696F6E206E6F772E2049742077696C60
:103BC0006C2074616B6520617070726F782E20318B
:103BD00032206D696E732E0046697273742C204911
:103BE0002077696C6C2072756E207468652073652F
:103BF0006C667465737420746F20636865636B20F2
:103C00006D6F737420636F6D6D6F6E20617373657C
:103C10006D626C792070726F626C656D732E0048F6
:103C2000692C204920616D20796F7572204F72696F
:103C300067696E616C205072757361206933207002
:103C400072696E7465722E20576F756C6420796F7F
:103C500075206C696B65206D6520746F20677569D0
:103C6000646520796F75207468726F756768207459
:103C700068652073657475702070726F6365737307
:103C80003F0048692C204920616D20796F757220B2
:103C90004F726967696E616C20507275736120693B
:103CA00033207072696E7465722E20492077696CBA
:103CB0006C20677569646520796F75207468726F10
:103CC00075676820612073686F72742073657475FE
:103CD000702070726F636573732C20696E20776833
:103CE00069636820746865205A2D6178697320774C
:103CF000696C6C2062652063616C696272617465D5
:103D0000642E205468656E2C20796F752077696C5D
:103D10006C20626520726561647920746F20707216
:103D2000696E742E00452D636F72726563743A007C
:103D30005A2D636F72726563743A00592D636F7206
:103D4000726563743A00582D636F72726563743ADA
:103D500000437574746572004D6F64656C00537434
:103D600072696374005761726E00436865636B73B8
:103D7000004E6F7A7A6C6520642E004E6F6E65007F
:103D8000416C7068616265740054696D6500536FC1
:103D90007274005344206361726400525069207051
:103DA0006F7274004C696E2E20636F72726563745B
:103DB000696F6E00485720536574757000462E2059
:103DC0006175746F6C6F61640044697361626C65E6
:103DD000207374657070657273004D6F7665206135
:103DE0007869730054656D706572617475726500F1
:103DF00050494E44412063616C2E005265736574D6
:103E00002058595A2063616C6962722E00504944EF
:103E10002063616C6962726174696F6E00426564EF
:103E2000206C6576656C20636F7272656374004DFB
:103E300065736820426564204C6576656C696E67C1
:103E40000043616C696272617465205A0043616C61
:103E50006962726174652058595A0053656C6674C2
:103E60006573740042656C742074657374005769DF
:103E70007A6172640057697A61726420656E6420A9
:103E800073746174653A2025640A0053706F6F6C17
:103E90004A6F696E004669726D7761726500466CA3
:103EA0006173684169720057697A61726420737442
:103EB0006174653A2025640A004578706572696D01
:103EC000656E74616C004673656E736F7220446535
:103ED00074656374696F6E0044697361626C652018
:103EE0006661726D206D6F6465004D3834004D342D
:103EF0003400473238205700200A200A200047317A
:103F00002058352E302045342E3020463130303088
:103F10002E30004731205A302E323020463130309A
:103F2000302E30004731205835352E30204532357F
:103F30002046313430302E3000473120592D322E7A
:103F4000302046313030302E300047312058323466
:103F5000302E30204532352E30202046323230305F
:103F60002E30004739322045302E30004731205A5C
:103F7000302E332046313030302E3000473120583B
:103F800035352E302045382E302046323030302E18
:103F9000300047312058352E30204533322E302026
:103FA00046313830302E30004731205835352E30EC
:103FB000204533322E302046313037332E30004703
:103FC00031204634303030004D32303420533130DF
:103FD0003030004731205A352046373230302E30CD
:103FE000303000473120452D312E353030303020F3
:103FF00046323130302E3030303030004D383300E2
:1040000047393000473231004739322045302E30B1
:1040100000473120583530205935352045332E366C
:104020003237373300473120583230302059353558
:104030002045302E3439333836004731205832305D
:1040400030205937352045332E3632373733004745
:104050003120583530205937352045302E3439330A
:10406000383600473120583530205939352045330E
:104070002E3632373733004731205832303020590E
:1040800039352045302E3439333836004731205801
:1040900032303020593131352045332E36323737E2
:1040A00033004731205835302059313135204530E3
:1040B0002E343933383600473120583530205931C5
:1040C00033352045332E36323737330047312058C9
:1040D00032303020593133352045302E36363137A5
:1040E00034004731205832303020593135352045A1
:1040F000322E3632373733004731205831303020B6
:10410000593135352045320047312058373520594F
:104110003135352045322E35004731204631303893
:1041200030004731205A302E31353020463732307A
:10413000302E30303000473120583530205931355D
:1041400035004739322045302E3000473238004D97
:10415000313039004D313930004D31303700726522
:1041600073756C742076616C75653A2025640A005D
:1041700020693D25326420636E743D2532642076CB
:10418000616C3D2532640A00636C757374657273EB
:104190003A0020693D25326420737465703D2532F4
:1041A000640A00736F727465642073616D706C656E
:1041B000733A00252D3773003A2000252D31322E19
:1041C000313253252D642F3600203A2000252D3220
:1041D000307300542564004731205A302E34204675
:1041E000313030302E3000473120592D332E3020E1
:1041F00046313030302E30004D38330047312058B2
:104200003130302E30204531322E3520463130309D
:10421000302E30004731205836302E302045392E90
:10422000302046313030302E3000A83F923F7C3F66
:104230006C3F633F4A3F393F243F133FFE3E0840F7
:1042400004400040FC3FE33FD33FC83FBF3F4731FE
:1042500020583530205933352045252D2E33660022
:104260003641224119410841F840E240CC40B74074
:10427000A2408C40774063404F403A402540114077
:10428000496E76616C6964205049442063616C2EEC
:1042900020726573756C74732E204E6F7420737466
:1042A0006F72656420746F20454550524F4D2E004B
:1042B0004D353030004731205A31352046313530C8
:1042C00030004739310047312058353020593139D5
:1042D0003020453020463730303000473930004DEF
:1042E0003834004D373032204300473120583130C8
:1042F0002059313830204634303030004731205A90
:1043000031302046313330302E303030004D3134B2
:1043100030205330004D31303420533000473120AD
:10432000452D302E30373530302046323130302E6A
:104330003030303030004D31303700252D31362EC1
:10434000313653252D34640A252D31362E3136531E
:10435000252D34640A004D3131372046697273745B
:10436000206C617965722063616C2E0052657375F3
:104370006D696E67207072696E740050494E4441D9
:104380002048656174696E670043616C696272619F
:1043900074696F6E20646F6E650043616C69627250
:1043A0006174696E67205A0042656420646F6E65AF
:1043B000004265642048656174696E670048656104
:1043C00074696E6720646F6E652E0048656174695C
:1043D0006E67005049442063616C2E2066696E69E7
:1043E00073686564005049442063616C2E0050720C
:1043F000696E74207061757365640025632533648C
:104400002F25642563005A25362E32662563005A0F
:104410002020202D2D2D2000256325336425250007
:104420002D2D2D0025336868640025335325337303
:104430002525005553420020202000205344002011
:1044400025753E257500203F3E25750020462575C3
:104450000020463F002046524D200025632D2D3A76
:104460002D2D2020002563253375682025632563C5
:10447000002563253032753A253032752563256372
:10448000002F2F20616374696F6E3A7061757365D8
:1044900000506C656173652072657374617274009D
:1044A0004D494E54454D50004D494E54454D5020B8
:1044B00042454400452D6D6F746F722063757272B2
:1044C000656E74207363616C696E6720656E6162EE
:1044D0006C656400746D63323133305F686F6D6595
:1044E0005F656E74657228617865735F6D61736B6B
:1044F0003D307825303278290A00746D63323133CB
:10450000305F686F6D655F6578697420746D6332C4
:104510003133305F73675F686F6D696E675F6178B5
:1045200065735F6D61736B3D3078253032780A00BA
:10453000544D4320445249564552204F56455254FB
:10454000454D500024F4D43050C38E20C2A24017F1
:10455000828B7011127A910D816CD90AA861E108E1
:10456000C7586607615143061E4B5D05C145A70448
:104570001A411104093D9803713931034036DB02B9
:1045800065339102D4305402802E1D02632CEE015B
:10459000752AC501B028A001102781018F2564016B
:1045A0002B244B01E0223401AC211F018D200D0191
:1045B000801FFC00841EED00971DDF00B81CD20098
:1045C000E61BC600201BBC00641AB200B219A8008A
:1045D0000A19A0006A189900D117910040178B00A2
:1045E000B516840031167E00B31579003A157300B4
:1045F000C7146F0058146A00EE1366008813630036
:1046000025135E00C7125B006C1257001512540090
:10461000C111510070114F0021114B00D6104900FB
:104620008D1047004610440002104200C00F4000A9
:10463000800F3E00420F3C00060F3B00CB0E3800BF
:10464000930E37005C0E3500270E3400F30D320058
:10465000C10D3100900D3000600D2E00320D2D0087
:10466000050D2C00D90C2B00AE0C2900850C29005F
:104670005C0C2700350C27000E0C2600E80B2400EC
:10468000C40B2400A00B23007D0B23005A0B210038
:10469000390B2100180B2000F80A1F00D90A1E0050
:1046A000BB0A1E009D0A1D00800A1D00630A1C0033
:1046B000470A1B002C0A1B00110A1A00F7091A00EE
:1046C000DD091900C4091900AB0919009209170086
:1046D0007B091800630917004C09160036091600FB
:1046E000200916000A091500F5081500E008140055
:1046F000CC081400B8081400A40814009008130093
:104700007D0812006B0813005808120046081200BA
:1047100034081100230811001208110001081100CB
:10472000F0071000E0071000D0071000C0071000CD
:10473000B0070F00A107100091070E0083070F00BC
:1047400074070F0065070E0057070E0049070E009B
:104750003B070D002E070E0020070D0013070D006C
:1047600006070D00F9060C00ED060D00E0060C0032
:10477000D4060C00C8060C00BC060C00B0060C00E9
:10478000A4060B0099060C008D060B0082060B0098
:1047900077060B006C060B0061060A0057060B003B
:1047A0004C060A0042060A0038060A002E060A00D5
:1047B00024060A001A060A001006090007060A0065
:1047C000FD050900F4050900EB050900E2050900F3
:1047D000D9050900D0050900C7050900BE05090073
:1047E000B5050800AD050800A50509009C050800F1
:1047F000940508008C050800840508007C05080065
:10480000740508006C050700650508005D050700D4
:10481000560508004E05070047050700400508003B
:1048200038050700310507002A05070023050700A2
:104830001C050600160507000F0507000805060001
:1048400002050700FB040600F5040700EE0406005D
:10485000E8040600E2040700DB040600D5040600B5
:10486000CF040600C9040600C3040600BD04060008
:10487000B7040600B1040500AC040600A604060057
:10488000A00405009B0406009504050090040600A2
:104890008A04050085040500800406007A040500EA
:1048A00075040500700405006B040500660405002E
:1048B000610405005C04050057040500520405006E
:1048C0004D04050048040500430405003E040400AF
:1048D0003A04050035040500300404002C040500EA
:1048E00027040400230405001E0404001A04040025
:1048F00016040500110404000D0404000904050059
:104900000404040000040400FC030400F803040091
:10491000F4030400F0030400EC030400E8030400C3
:10492000E4030400E0030400DC030400D8030400F3
:10493000D4030400D0030400CC030400C803030024
:10494000C503030024F404D9201BC40C5C0E980496
:10495000C4095F0265077101F405F900FB04B300A7
:1049600048048700C103690058035500030345004C
:10497000BE023A008402310053022A0029022500B7
:1049800004022000E4011C00C8011900AF01170057
:1049900098011400840113007101100061011000DE
:1049A00051010E0043010D0036010B002B010B00DD
:1049B00020010B00150109000C010900030108008A
:1049C000FB000800F3000800EB000700E40006000D
:1049D000DE000600D8000600D2000600CC0005006C
:1049E000C7000500C2000500BD000400B9000400B6
:1049F000B5000400B1000400AD000400A9000400EB
:104A0000A5000300A20003009F0004009B00030018
:104A1000980003009500020093000300900003003B
:104A20008D0002008B000300880002008600020057
:104A300084000300810002007F0002007D0002006C
:104A40007B0002007900020077000100760002007E
:104A50007400020072000100710002006F00020089
:104A60006D0001006C0002006A0001006900020094
:104A7000670001006600010065000100640002009B
:104A80006200010061000100600001005F0002009F
:104A90005D0001005C0001005B0001005A000100A4
:104AA00059000100580001005700010056000100A4
:104AB00055000100540001005300000053000100A4
:104AC0005200010051000100500001004F000100A0
:104AD0004E0000004E0001004D0001004C0001009E
:104AE0004B0000004B0001004A000100490001009A
:104AF0004800000048000100470001004600000097
:104B0000460001004500000045000100440001008E
:104B10004300000043000100420000004200010089
:104B20004100000041000100400001003F00000082
:104B30003F0001003E0000003E0001003D0000007B
:104B40003D0001003C0000003C0000003C00010072
:104B50003B0000003B0001003A0000003A00010069
:104B60003900000039000100380000003800000062
:104B70003800010037000000370001003600000057
:104B8000360000003600010035000000350000004E
:104B90003500010034000000340000003400010042
:104BA0003300000033000000330001003200000039
:104BB000320000003200010031000000310000002E
:104BC0003100010030000000300000003000010022
:104BD0002F0000002F0000002F0000002F00010018
:104BE0002E0000002E0000002E0001002D0000000D
:104BF0002D0000002D0000002D0001002C00000001
:104C00002C0000002C0000002C0001002B000000F4
:104C10002B0000002B0000002B0001002A000000E8
:104C20002A0000002A0000002A00010029000000DC
:104C300029000000290000002900000029000100CF
:104C400028000000280000002800000028000000C4
:104C500028000100270000002700000027000000B6
:104C600027000000270001002600000026000000A9
:104C7000260000002600000026000100250000009C
:104C80002500000025000000250000002500000090
:104C90002500010024000000240000002400000082
:104CA0002400000024000100230000002300000075
:104CB0002300000023000000230000002300000068
:104CC000230001002200000022000000220000005A
:104CD000220000002200000022000100210000004C
:104CE0002100000021000000210000002100000040
:104CF0002100000021000100200000002000000031
:104D00002000000020000000200000002000000023
:104D100020000000200001001F0000001F00000014
:104D20001F0000001F0000001F0000001F00000007
:104D30001F0001001E0000001E0000001E000000F9
:104D40001E00000000007F430080544300005243D7
:104D500000000000000080C09A99193E0000000089
:104D6000000080C09A99193E0000A0400000A040B9
:104D70000000004025336420737465703D25326463
:104D8000206D73636E743D2534640A0000007F4318
:104D9000008058439AD95143FFFFFF20413A002039
:104DA000503A002042403A0020403A00202F002094
:104DB0005400202F0020423A00202F00543A0020B7
:104DC0006D6963726F6E730045786365737369769E
:104DD0006520626564206C6576656C696E6720632A
:104DE0006F7272656374696F6E3A20004265642069
:104DF0006C6576656C696E67206661696C65642EAA
:104E00002053656E736F722074726967676572658F
:104E10006420746F6F20686967682E0042656420A3
:104E20006C6576656C696E67206661696C65642E79
:104E30002053656E736F7220646973636F6E6E6565
:104E400063746564206F72206361626C65206272B6
:104E50006F6B656E2E00536F6D652070726F626CA4
:104E6000656D20656E636F756E74657265642C2068
:104E70005A2D6C6576656C696E6720656E666F721B
:104E8000636564202E2E2E00257500593A20257565
:104E9000202D3E202E2E2E00257500583A202575F7
:104EA000202D3E202E2E2E004D6561737572656497
:104EB0002066696C616D656E742073656E736F72C8
:104EC000206C6F77206C6576656C3A2025342E3225
:104ED00066560A004D656173757265642066696C7B
:104EE000616D656E742073656E736F72206869679B
:104EF00068206C6576656C3A2025342E3266560A39
:104F000000457874722066616E2073706565643A3E
:104F10002025640A005072696E742066616E2073E9
:104F2000706565643A2025640A0054657374203204
:104F30003A00457874722066616E2073706565640E
:104F40003A2025640A005072696E742066616E20F2
:104F500073706565643A2025640A00546573742093
:104F6000313A004D383400256320415849532053CD
:104F700047313D25640A00486F74656E64004265E0
:104F800064005A00590058002D2D2D2D2D2D2D2D4A
:104F90002D2D2D2D2D2D2D2D2D2D2D2D004F4B005B
:104FA000496E73657274207468652066696C616D02
:104FB000656E742028646F206E6F74206C6F61645E
:104FC0002069742920696E746F2074686520657883
:104FD00074727564657220616E64207468656E20F9
:104FE000707265737320746865206B6E6F622E003B
:104FF000566572696669636174696F6E206661697E
:105000006C65642C2072656D6F7665207468652010
:1050100066696C616D656E7420616E64207472796E
:1050200020616761696E2E0053656E736F72207622
:10503000657269666965642C2072656D6F7665209E
:105040007468652066696C616D656E74206E6F773B
:105050002E00506C6561736520636865636B207416
:1050600068652049522073656E736F7220636F6E9E
:105070006E656374696F6E2C20756E6C6F61642051
:1050800066696C616D656E74206966207072657307
:10509000656E742E00506C6561736520756E6C6F63
:1050A0006164207468652066696C616D656E74204A
:1050B00066697273742C207468656E207265706501
:1050C0006174207468697320616374696F6E2E0067
:1050D00057616974696E6720666F72206E6F7A7AA5
:1050E0006C6520616E642062656420636F6F6C691B
:1050F0006E670053656C662074657374204F4B00B7
:1051000053656C66207465737420737461727400E7
:105110005072696E742066616E3A004578747275DB
:105120006465722066616E3A0043616C6962726107
:1051300074696E6720686F6D6500416C6C20636FE9
:10514000727265637400436865636B696E67207390
:10515000656E736F727300436865636B696E672079
:10516000686F74656E6400436865636B696E672081
:1051700062656400436865636B696E67205A2061ED
:1051800078697300436865636B696E6720592061B5
:1051900078697300436865636B696E6720582061A6
:1051A00078697300436865636B696E6720656E6438
:1051B00073746F70730041786973206C656E6774E7
:1051C0006820646966666572656E63653A252E338C
:1051D000660A004D65617375726564206178697354
:1051E000206C656E6774683A252E33660A004C435E
:1051F0004420737461747573206368616E676564BD
:10520000004731205A252D302E33662046252D307B
:105210002E33660047312045252D302E336620463B
:1052200032373030004D3833000000211042206307
:10523000308440A550C660E770088129914AA16B6F
:10524000B18CC1ADD1CEE1EFF13112100273325207
:1052500022B5529442F772D662399318837BB35ABF
:10526000A3BDD39CC3FFF3DEE362244334200401D7
:1052700014E664C774A44485546AA54BB52885090F
:1052800095EEE5CFF5ACC58DD553367226111630A7
:1052900006D776F6669556B4465BB77AA71997385F
:1052A00087DFF7FEE79DD7BCC7C448E5588668A7E7
:1052B000784008611802282338CCC9EDD98EE9AFAF
:1052C000F9488969990AA92BB9F55AD44AB77A9647
:1052D0006A711A500A333A122AFDDBDCCBBFFB9EFF
:1052E000EB799B588B3BBB1AABA66C877CE44CC517
:1052F0005C222C033C600C411CAEED8FFDECCDCD4F
:10530000DD2AAD0BBD688D499D977EB66ED55EF4E6
:105310004E133E322E511E700E9FFFBEEFDDDFFC9E
:10532000CF1BBF3AAF599F788F8891A981CAB1EB43
:10533000A10CD12DC14EF16FE18010A100C230E36C
:10534000200450254046706760B9839893FBA3DA28
:10535000B33DC31CD37FE35EF3B1029012F322D2BC
:10536000323542145277625672EAB5CBA5A89589B8
:10537000856EF54FE52CD50DC5E234C324A014810C
:10538000046674476424540544DBA7FAB79987B8C8
:10539000975FE77EF71DC73CD7D326F2369106B05C
:1053A0001657667676154634564CD96DC90EF92FC8
:1053B000E9C899E9898AB9ABA944586548067827AC
:1053C00068C018E1088238A3287DCB5CDB3FEB1E68
:1053D000FBF98BD89BBBAB9ABB754A545A376A16FC
:1053E0007AF10AD01AB32A923A2EFD0FED6CDD4DF8
:1053F000CDAABD8BADE89DC98D267C076C645C454C
:105400004CA23C832CE01CC10C1FEF3EFF5DCF7C07
:10541000DF9BAFBABFD98FF89F176E367E554E749B
:105420005E932EB23ED10EF01E7C3C3E3F2F2A22D0
:105430005C00506C656173652077616974007879F0
:105440007A63616C5F73706972616C322063783D5E
:1054500025642063793D2564207A303D25642064ED
:105460007A3D2564207261646975733D256420610D
:10547000643D25640A005061747465726E20636532
:105480006E746572205B25662025665D2C206D613B
:1054900074636820256625250A00205B25662C207C
:1054A00025665D5B25665D2066696E616C206369BB
:1054B00072636C650A0057726974696E6720746F55
:1054C0002066696C653A200046696C6520616C72E3
:1054D00065616479206F70656E656400746D633218
:1054E0003133305F676F746F5F737465702025644C
:1054F000202564202564202564200A004E6F20307A
:105500007846462072656365697665640053656E0A
:1055100064696E6720307846460046696C65207382
:10552000656C6563746564002053697A653A200090
:1055300046696C65206F70656E65643A20004E6F39
:10554000772066726573682066696C653A20004E44
:105550006F7720646F696E672066696C653A20001A
:105560002220706F73002220706172656E743A227F
:1055700000535542524F5554494E452043414C4CDF
:10558000207461726765743A2200747279696E677B
:1055900020746F2063616C6C207375622D67636F7C
:1055A00064652066696C6573207769746820746F20
:1055B0006F206D616E79206C6576656C732E00537B
:1055C000442063617264206F6B006F70656E526F70
:1055D0006F74206661696C656400766F6C756D65CB
:1055E0002E696E6974206661696C6564005344209D
:1055F000696E6974206661696C006F70656E206603
:1056000061696C65642C2046696C653A2000332E14
:1056100031312E30005D5B4657523A005D5B544994
:105620004D3A005D5B464E4D3A005D5B46454D3A56
:10563000005D5B5043443A005B5446553A007B5B47
:1056400050524E3A39395D007B5B50524E3A355DCF
:10565000007B5B50524E3A305D007B5B50524E3ABD
:10566000395D007B5B50524E3A385D007B5B5245A2
:10567000533A305D5B46494C3A007B5B5245533AA6
:10568000315D5B46494C3A005B50524E3A005B50EC
:10569000464E3A305D005B4449413A005D5B4154FF
:1056A000423A005D5B4154303A005D5B5354423AEC
:1056B000005B5354303A00473830004D3435004DCC
:1056C0003435205A00473736004578747275646562
:1056D00072004D6F7665205A004D6F766520590037
:1056E0004D6F76652058004372617368206465745D
:1056F000656374696F6E2063616E0A6265207475FC
:10570000726E6564206F6E206F6E6C7920696E0A10
:105710004E6F726D616C206D6F6465005741524E23
:10572000494E473A0A437261736820646574656341
:1057300074696F6E0A64697361626C656420696E76
:105740000A537465616C7468206D6F6465004175FF
:10575000746F6C6F6164696E672066696C616D65FA
:105760006E7420617661696C61626C65206F6E6C2D
:1057700079207768656E2066696C616D656E74204E
:1057800073656E736F72206973207475726E6564D1
:10579000206F6E2E2E2E004552524F523A204669EF
:1057A0006C616D656E742073656E736F72206973C2
:1057B000206E6F7420726573706F6E64696E672CF3
:1057C00020706C6561736520636865636B20636F2F
:1057D0006E6E656374696F6E2E004D6F6465206335
:1057E00068616E676520696E2070726F677265739D
:1057F000732E2E2E00536865657420252E37730A8C
:105800005A206F66667365743A20252B312E3366F5
:105810006D6D0A2563436F6E74696E75650A256345
:10582000526573657400506C65617365206C6F61BF
:10583000642066696C616D656E742066697273744C
:105840002E003E43616E63656C0046696C616D6558
:105850006E740053656C6563742066696C616D6578
:105860006E743A0052756E6E696E672057697A6180
:1058700072642077696C6C2064656C657465206364
:10588000757272656E742063616C696272617469AD
:105890006F6E20726573756C747320616E64207313
:1058A000746172742066726F6D2074686520626521
:1058B00067696E6E696E672E20436F6E74696E75D0
:1058C000653F0050726568656174696E67206E6F30
:1058D0007A7A6C652E20506C6561736520776169FA
:1058E000742E0046696E697368696E67206D6F7605
:1058F000656D656E7473004272696768746E657376
:1059000073004173736973740053696C656E74003E
:105910004F6E6365004C6F756400536F756E640065
:105920004D4D55204D6F646500437261736820646E
:1059300065742E00537465616C7468004E6F726DEF
:10594000616C0046616E7320636865636B00506133
:1059500075736500436F6E742E0046532041637467
:10596000696F6E0046696C2E2073656E736F7200EE
:105970004368616E67652066696C616D656E740071
:10598000466C6F77005370656564004E2F41004D83
:1059900061676E65747320636F6D702E005A2D7091
:1059A000726F6265206E722E004D657368005469D7
:1059B0006D656F757400427269676874004D6F643D
:1059C00065004175746F0044696D004C6576656CC7
:1059D0002044696D6D6564004C6576656C2042728B
:1059E000696768740046616E207370656564004283
:1059F0006564004E6F7A7A6C650053657474696EE5
:105A00006773005072696E742061626F72746564AE
:105A10000053746F70207072696E74004368656320
:105A20006B696E672066696C650046696C65206904
:105A30006E636F6D706C6574652E20436F6E746954
:105A40006E756520616E797761793F0004526566F5
:105A500072657368004D61696E004D363030004DDF
:105A6000203834004D3834004D3234004D3233206C
:105A7000257300052E2E002F2F20616374696F6E31
:105A80003A63616E63656C004D3630300066736555
:105A90006E736F725F757064617465202D204D3672
:105AA00030300049522073656E736F72206E6F74D0
:105AB00020726573706F6E64696E67202825642993
:105AC000210A0020573A0020453A00543A005A2053
:105AD0006C6976652061646A757374206F757420D3
