:100000000C94F6350C9427360C9427360C9427362E
:100010000C9427360D94D4210C9427360C94273653
:100020000D945F210C9427360C94D3950C942736AD
:100030000C9427360C9427360D94F7050D94B0597F
:100040000C9427360D94FE410C9427360C942736D9
:100050000C9427360C9427360C9427360C9407956D
:100060000C9427360D9479540C9427360C9427362B
:100070000C9427360C9427360C9427360C9427368C
:100080000C9427360C9427360C9427360C9427367C
:100090000D9435540C9427360C9427360C9427363F
:1000A0000C9427360C9427360D9426590C94273639
:1000B0000C9427360D9408590C9427360C94273647
:1000C0000C9427360C9427360C9427360D945958E7
:1000D0000C9427360C9427360C9427360C9427362C
:1000E0000C942736239531953F954C955E956595F3
:1000F00087959D95DFBCEABC8BBC58BC27BC1BC058
:1001000026BD57BE1FBF76BF93BFCBBFDCCAF8CC9E
:10011000C8CCBDCCB2CCA7CC9CCC1BCD0BCD75CC68
:1001200047CC2BCC5ED20FD25ED261D2D2D201D3D9
:100130005ED25ED220D35AE776E788E795E79FE75D
:10014000D1E744E7E7E7FBE7F5E744E7FEE71BE82D
:100150002FE841E87701CD0153011902FB02A1020A
:10016000E1011102990281011903570255021B0393
:10017000A102F302D7018D020102ED0235020F0345
:100180007F02D7025D027101A302B30263028F01F5
:100190008F02B702D70299014F02E902B101B10102
:1001A0006F02B1016F0221037302AF019102A1013D
:1001B0000F02D1022303C701E301FB01CD024D0170
:1001C00003022903084AD73B3BCE016E84BCBFFD26
:1001D000C12F3D6C74319ABD56833DDA3D00C77F17
:1001E00011BED9E4BB4C3E916BAAAABE00000080B0
:1001F0003F05A84CCDB2D44EB93836A9020C50B93F
:10020000918688083CA6AAAA2ABE000000803F0763
:10021000634236B79BD8A71A39685618AEBAAB55A1
:100220008C1D3CB7CC5763BD6DEDFD753EF6177266
:1002300031BF000000803F08000000BE9224491238
:100240003EABAAAA2ABECDCCCC4C3E00000080BE5C
:10025000ABAAAAAA3E00000000BF000000803F0039
:1002600000000000084178D3BB4387D1133D190E2D
:100270003CC3BD4282AD2B3E68EC8276BED98FE195
:10028000A93E4C80EFFFBE01C4FF7F3F000000008D
:1002900000000C941BCD0C9493D60D94AD930C944C
:1002A000F78D0C943F950D94CE4D0C9444E70C942F
:1002B0002AE90C9459A80C946AAF0C94D5820C943A
:1002C0002BCC0C9401D30D94F7530C94A7CC0C9425
:1002D000B2CC0D941D4E0C9416D50C94C5E10C9423
:1002E000EABC0D94E44F0C94FBE70C940FD20D94F0
:1002F000DC4D0D943A750C9451F10C9458B20C9459
:1003000082DD0D94F14D0C9495E70C941AB50D9483
:10031000A44E0D9421700C9401B30C9470B70D94FD
:100320000A500C9445AE0D949AAA0D94BF6E0C948D
:10033000D7A70D942D500C9452B50C9419E00C9441
:100340008BAA0D945B930C947BDC0C94A8D60C9434
:10035000E7E70D94214E0C9459B50C9452D80D94A6
:1003600045930D94C6740C9462AB0D949F4E0C94FF
:10037000DFB30D94BD610C9470E20C947FC80C94B3
:1003800020B60C9460B50C94DFBC0C94F8B30D94BB
:100390007E930C9475A80C945BD50D94DF4D0C9452
:1003A0005CB60D9410540C9498B60C948FCA0D94AE
:1003B0000D4E0C9457BE0C942FE80C948BBC0C94EF
:1003C000CBBF0D94E34D0D9487930D9487720D94DC
:1003D000566E0C94F4DA0C9455B40C944C950C9421
:1003E0006A8D0C9461D20C9480DF0C94BDCC0C947B
:1003F00050DB0C9498DA0D9490930C944DD50C949A
:10040000F5E70D94B44F0D94B0930C9483B50D940F
:10041000174E0C9448940D940A770C9436A90D94B9
:100420005E930D94E74D0C943CB70D944A750C9473
:10043000FCB20D94D24D0D94B06F0C9426BD0D946A
:10044000AE4E0C947AAF0C9488E70D946D6E0C94BC
:1004500047CC0D94BD4E0C9406B30C94E1AB0C94B8
:1004600075CC0C9458BC0C94C7DB0D94BE4F0C9407
:100470003BDA0D946B750D94726F0C9465950C942A
:10048000DCCA0D9442750D94F76D0C94C2CD0D9499
:100490003D770C9441E20D94C64E0C9441E80D94C6
:1004A00037500C9462AF0D94ED6E0D94FF4D0D948A
:1004B000FB4D0C9431950D9494750D94DC4F0C9478
:1004C00042A90D9448700D9400500D94C3BA0C9439
:1004D0008EE80C945BBB0D942A750C945AE70D942E
:1004E000C9740D9463730D94D8740C944FAE0C942E
:1004F00010D50C94CADC0C9423950C9420D30D9445
:10050000D24F0C9440AF0D94AD730D9422750C94A2
:1005100086D60D941B6F0C9476E70D94114E0D94B6
:1005200019500D944E930C94F0820D942C730C94EE
:1005300052AF0D94ED4D0D947A6E0C94C8CC0D9481
:10054000B34E0D94164E0D94EC4F0C9493BF0C9437
:100550005AAF0C943BAE0C941BC00C945E950C945B
:100560002FB50C94F3B50D94F64F0D94264E0D94C3
:1005700023500C94C1EC0C94BEDB0C944AAF0C9449
:10058000F8CC0C94B3D60C9423E50D9420770C94FE
:100590000BCD0C9476BF0D94D7720D9499930C9457
:1005A0009CCC0D9478930C9440D80C9471B50D9418
:1005B0004B500C94208D0C9424B50C9473DD0C944A
:1005C000DCB80C9440B30C9467B50C949FE70C9482
:1005D00087950D9441500D94CB760D94B94F0C94A2
:1005E000CCB60C94D2D20D94094E0C941BE80C940A
:1005F0008BCA0C94ACD50D94D84D0D94C24E0D946D
:10060000A94E0C941FBF0C940FD60C9431AE0D94D0
:1006100086750D9432750D9482720C9408B70D9402
:10062000C84F0C949D950C94FEE70C94DEE00C945E
:10063000B2E10D94F54D0D94034E0C94A9B50C94B4
:100640005ED20D94D5740D947B930C949DD50D942E
:10065000B84E0D94B9930C94D8E10C9427BC0C942B
:10066000D1E70C94E2E10C9472AF0C949FE10C94EE
:10067000D4B30C94CFDB6E616E00696E66004E41A0
:100680004E494E495459494E46CDCCCC3D0AD7230C
:100690003C17B7D13877CC2B329595E6241FB14F54
:1006A0000A000020410000C84200401C4620BCBE99
:1006B0004CCA1B0E5AAEC59D7400407A10F35A0006
:1006C000A0724E18090010A5D4E80000E87648177B
:1006D0000000E40B54020000CA9A3B000000E1F560
:1006E00005000080969800000040420F000000A026
:1006F0008601000000102700000000E80300000051
:10070000006400000000000A00000000000100007A
:100710000000002C76D888DC674F0823DFC1DFAEED
:1007200059E1B1B796E5E3E453C63AE651997696B6
:10073000E8E6C28426EB898C9B62ED407C6FFCEF7F
:10074000BC9C9F40F2BAA56FA5F490055A2AF75CAD
:10075000936B6CF9676DC11BFCE0E40D47FEF5205F
:10076000E6B500D0ED902E03009435770500808427
:100770001E080000204E0A000000C80C333333333B
:100780000F986E12831141EF8D2114893BE65516A7
:10079000CFFEE6DB18D1844B381BF77C1D901DA4DF
:1007A000BBE424203284725E228100C9F124ECA1D2
:1007B000E53D276364696E6F70737578585B00253B
:1007C00064206279746573207772697474656E2031
:1007D000746F20454550524F4D2061742061646410
:1007E0007265737320307825303478004433202DBF
:1007F00020526561642F57726974652045455052D7
:100800004F4D0A00442D31202D20456E646C6573D8
:1008100073206C6F6F700A005344207072696E749D
:10082000696E67206279746520004163746976653A
:100830002045787472756465723A2000496E76615D
:100840006C6964206578747275646572005A204F13
:10085000666673657400556E6B6E6F776E20636F9E
:100860006D6D616E643A2022004D32303020496E49
:1008700076616C69642065787472756465722000B5
:100880007A5F6D61783A20007A5F6D696E3A200078
:10089000795F6D61783A2000795F6D696E3A20006A
:1008A000785F6D61783A20006F70656E0054524930
:1008B00047474552454400785F6D696E3A200052C3
:1008C00065706F7274696E6720656E6473746F70A3
:1008D000207374617475730053494C454E54004E37
:1008E0004F524D414C002553204D4F44453A205026
:1008F000657263656E7420646F6E653A2025686862
:10090000643B207072696E742074696D6520726535
:100910006D61696E696E6720696E206D696E733AEC
:100920002025643B204368616E676520696E206DF9
:10093000696E733A2025640A00456E642066696C0E
:1009400065206C69737400426567696E2066696C26
:1009500065206C697374000A50494E4441207465E7
:100960006D70657261747572653A20252E3166204E
:100970005A20736869667420286D6D293A20252EE7
:100980003366000A537465703A2025642F360A00D6
:100990000A537465703A2025642F362028736B69DA
:1009A00070706564290A50494E44412074656D7029
:1009B000657261747572653A202564205A207368E7
:1009C00069667420286D6D293A300A000A5A45522A
:1009D0004F3A20252E33660A0073746172742074B6
:1009E000656D70657261747572653A20252E316689
:1009F0000A0025642020252E326600255320583A0F
:100A000020252E356620593A20252E3566205A3A63
:100A100020252E35660A00536C6565702E2E2E003B
:100A200045303A25642052504D0A50524E303A25F6
:100A3000642052504D0A00256400416476616E6363
:100A400065204B3D004B206F7574206F6620616CF4
:100A50006C6F7765642072616E676521001B5B3285
:100A60004A1B5B313B3248507275736120693320F9
:100A70004661626D616E1B5B323B33485377697030
:100A80006520746F206C6F67696E001B5B324A1BB8
:100A90005B313B3248507275736120693320466187
:100AA000626D616E1B5B323B334853776970652022
:100AB000746F206C6F67696E001B5B324A1B5B3181
:100AC0003B32485072757361206933204661626D14
:100AD000616E1B5B323B3348537769706520746FDE
:100AE000206C6F67696E001B5B324A1B5B313B32C7
:100AF000485072757361206933204661626D616E82
:100B00001B5B323B3348537769706520746F206CF0
:100B10006F67696E001B5B324A1B5B313B3248508A
:100B200072757361206933204661626D616E1B5B73
:100B3000323B3348537769706520746F206C6F6760
:100B4000696E001F1F1F1F1F1F1F1F200A200A2062
:100B5000004D3232302053256900255346696C61BF
:100B60006D656E742073657474696E67733A2044A2
:100B7000697361626C65640A00255346696C616D36
:100B8000656E742073657474696E67733A0A2553D1
:100B90002020204D3230302044252E32660A002598
:100BA00053526574726163743A20533D4C656E67AD
:100BB000746820286D6D2920463A5370656564205D
:100BC000286D6D2F6D29205A3A205A4C6966742081
:100BD000286D6D290A25532020204D3230372053AF
:100BE000252E32662046252E3266205A252E326664
:100BF0000A25535265636F7665723A20533D4578F6
:100C0000747261206C656E67746820286D6D292090
:100C1000463A537065656420286D6D2F6D290A254D
:100C2000532020204D3230382053252E3266204666
:100C3000252E32660A25534175746F2D52657472E4
:100C40006163743A20533D3020746F20646973618E
:100C5000626C652C203120746F20696E746572702F
:100C600072657420657874727564652D6F6E6C7929
:100C7000206D6F7665732061732072657472616395
:100C80007473206F72207265636F76657269657325
:100C90000A25532020204D323039205325640A0084
:100CA000255350494420686561746265642073650A
:100CB0007474696E67733A0A25532020204D3330CF
:100CC000342050252E32662049252E3266204425B8
:100CD0002E32660A002553504944207365747469A6
:100CE0006E67733A0A25532020204D33303120504F
:100CF000252E32662049252E32662044252E326666
:100D00000A00255353746570732070657220756EE8
:100D100069743A0A255320204D39322058252E3245
:100D2000662059252E3266205A252E32662045250A
:100D30002E32660A25535553746570207265736FA1
:100D40006C7574696F6E3A200A2553204D33353027
:100D50002058256420592564205A2564204525649F
:100D60000A25534D6178696D756D206665656472FD
:100D700061746573202D206E6F726D616C20286D1B
:100D80006D2F73293A0A255320204D3230332058D5
:100D9000252E32662059252E3266205A252E32669F
:100DA0002045252E32660A25534D6178696D756D93
:100DB00020666565647261746573202D20737465A7
:100DC000616C746820286D6D2F73293A0A255320B1
:100DD000204D3230332058252E32662059252E32B0
:100DE00066205A252E32662045252E32660A255366
:100DF0004D6178696D756D20616363656C657261C5
:100E000074696F6E202D206E6F726D616C20286D7D
:100E10006D2F7332293A0A255320204D323031206C
:100E200058256C752059256C75205A256C75204500
:100E3000256C750A25534D6178696D756D20616368
:100E400063656C65726174696F6E202D20737465C3
:100E5000616C746820286D6D2F7332293A0A25530E
:100E600020204D3230312058256C752059256C7565
:100E7000205A256C752045256C750A2553416363FE
:100E8000656C65726174696F6E3A20503D7072696D
:100E90006E742C20523D726574726163742C205400
:100EA0003D74726176656C0A255320204D323034D2
:100EB0002050252E32662052252E32662054252EB3
:100EC00032660A2553416476616E636564207661FB
:100ED000726961626C65733A20533D4D696E20669C
:100EE0006565647261746520286D6D2F73292C20EF
:100EF000543D4D696E2074726176656C206665653F
:100F0000647261746520286D6D2F73292C20423D19
:100F10006D696E696D756D207365676D656E7420A2
:100F200074696D6520286D73292C20583D6D61789A
:100F3000696D756D205859206A65726B20286D6D3A
:100F40002F73292C20205A3D6D6178696D756D20B5
:100F50005A206A65726B20286D6D2F73292C202012
:100F6000453D6D6178696D756D2045206A65726BD0
:100F700020286D6D2F73290A255320204D323035DE
:100F80002053252E32662054252E32662042252EEF
:100F900032662058252E32662059252E3266205A78
:100FA000252E32662045252E32660A2553486F6D60
:100FB00065206F666673657420286D6D293A0A2571
:100FC0005320204D3230362058252E3266205925A8
:100FD0002E3266205A252E32660A004625642025C8
:100FE000640A004D4D55203C3D20274625642025B0
:100FF00064270A00504944204175746F74756E650A
:101000002066696E69736865642120507574207468
:101010006865206C617374204B702C204B692061D3
:101020006E64204B6420636F6E7374616E74732002
:1010300066726F6D2061626F766520696E746F20D5
:10104000436F6E66696775726174696F6E2E6800B2
:10105000504944204175746F74756E6520666169EE
:101060006C6564212074696D656F75740020403A69
:1010700000543A00423A00504944204175746F745C
:10108000756E65206661696C6564212054656D70BC
:101090006572617475726520746F6F206869676826
:1010A00000204B643A2000204B693A2000204B700E
:1010B0003A200020436C61737369632050494420D7
:1010C000002054753A2000204B753A2000206D61B5
:1010D000783A2000206D696E3A200020643A2000A2
:1010E00020626961733A20004361703A25533A25C2
:1010F000630A00455854454E4445445F4D32300024
:101100004155544F5245504F52545F504F534954DC
:10111000494F4E004155544F5245504F52545F462F
:10112000414E53004155544F5245504F52545F5415
:10113000454D5000005A30005A31005930005931A5
:1011400000583000583100456E642073746F70731E
:1011500020646961670044656C6574696F6E206620
:1011600061696C65642C2046696C653A20004669AB
:101170006C652064656C657465643A004E6F74201C
:101180005344207072696E74696E67005072696EA4
:1011900074207361766564005344207072696E74C4
:1011A00020706175736564004F4B004241440052EA
:1011B000414D426F2046414E200043524153485F0B
:1011C00043414E43454C0043524153485F524543CF
:1011D0004F5645520043524153485F5245434F5684
:1011E00045520022283229004475706C696361748D
:1011F0006520542D636F64652069676E6F72656446
:101200002E00496E76616C6964205420636F6465BA
:101210002E00556E6B6E6F776E204D20636F646588
:101220003A202573200A002C204D393037204520E4
:1012300069676E6F726564006E6F2076616C6964B9
:1012400020636F6D6D616E64002C20002C20002CDB
:1012500020006E2F61002C20002C20002C20006E1E
:101260002F6100503A005761697420666F722050F8
:10127000494E4441207461726765742074656D70D5
:10128000657261747572653A004155544F004C4166
:101290004E472053454C20464F5243454400256954
:1012A00025250A00256925250A0022283129003034
:1012B000303030303030302D303030302D30303034
:1012C000302D303030302D30303030303030303024
:1012D0003030300020555549443A003100204558FF
:1012E0005452554445525F434F554E543A00507244
:1012F000757361206933204D4B3300204D414348C5
:10130000494E455F545950453A00312E3000206215
:1013100061736564206F6E204D61726C696E20464A
:1013200049524D574152455F55524C3A687474705A
:10133000733A2F2F6769746875622E636F6D2F7013
:101340007275736133642F50727573612D466972C3
:101350006D776172652050524F544F434F4C5F562A
:10136000455253494F4E3A004649524D5741524516
:101370005F4E414D453A50727573612D4669726DED
:101380007761726520004D31313320530020423A9D
:101390000020453A00543A006F6B20006E2F610028
:1013A0003F546F736869626120466C61736841697C
:1013B00072204765744950206661696C65640A0053
:1013C0002569206D696E2C202569207365630049AD
:1013D0006E76616C6964204D20636F64653A2025E8
:1013E00073200A00556E6B6E6F776E204720636F17
:1013F00064653A202573200A004D65736820626594
:1014000064206C6576656C696E67206E6F74206110
:1014100063746976652E002020000A4D656173753E
:1014200072656420706F696E74733A000A5A207393
:101430006561726368206865696768743A20004E68
:10144000756D20582C593A200050494E4441207067
:10145000726F62652063616C6962726174696F6E3C
:1014600020737461727400473238205730004E6F19
:101470002050494E444120746865726D6973746FE1
:101480007200736574006E6F7A7A6C65004D424C21
:101490000046520042656174004C7A004C616E67F0
:1014A000005265760046697200534E20696E76617F
:1014B0006C696400534E004D323800524553455418
:1014C000004D4D55524553004D32340075766C6FCA
:1014D000007468780046414E0046414E50494E54D3
:1014E00053540050524E0050696E6700505255538D
:1014F00041005345545F43484F505F005345545F8C
:10150000535445505F005345545F574156455F0063
:10151000544D435F0043524153485F43414E43455E
:101520004C0043524153485F5245434F5645520089
:1015300043524153485F4445544543544544004356
:10154000524153485F004D3120004D30004D313144
:101550003700472D636F646520736C696365642091
:10156000666F72206120646966666572656E7420BC
:101570006C6576656C2E20436F6E74696E75653F81
:1015800000472D636F646520736C69636564206632
:101590006F72206120646966666572656E74206C86
:1015A0006576656C2E20506C656173652072652DC3
:1015B000736C69636520746865206D6F64656C2069
:1015C000616761696E2E205072696E742063616E6E
:1015D00063656C6C65642E00472D636F64652073D2
:1015E0006C6963656420666F722061206E65776543
:1015F00072206669726D776172652E20506C65612C
:10160000736520757064617465207468652066690F
:10161000726D776172652E205072696E74206361FD
:101620006E63656C6C65642E00472D636F64652086
:10163000736C6963656420666F722061206E6577E4
:101640006572206669726D776172652E20436F6ED8
:1016500074696E75653F00472D636F646520736C18
:101660006963656420666F722061206469666665DF
:1016700072656E74207072696E7465722074797010
:10168000652E20436F6E74696E75653F00472D634C
:101690006F646520736C6963656420666F72206196
:1016A00020646966666572656E74207072696E7416
:1016B000657220747970652E20506C6561736520A9
:1016C00072652D736C69636520746865206D6F6445
:1016D000656C20616761696E2E205072696E74209E
:1016E00063616E63656C6C65642E005072696E7424
:1016F0006572206973206F7574206F66206F726445
:1017000065722E00596F7520617265206E6F7420AE
:10171000616C6C6F77656420746F207573652074DD
:10172000686973207072696E746572206F75747366
:10173000696465206F70656E696E6720686F757289
:10174000732E00596F7520646F206E6F742068616E
:10175000766520726571756972656420747261695D
:101760006E696E6720636F75727365212100596F12
:101770007520646F206E6F742068617665206163E8
:1017800074697665207061636B6167652E20506CAB
:101790006561736520627579206F6E652E00536FE9
:1017A0007272792C204920616D206E6F74206F6EEB
:1017B0006C696E65207269676874206E6F772E2081
:1017C000506C6561736520747279206D65206C6161
:1017D0007465722E005570646174696E6720464DA1
:1017E0002066772E2E005072757361206933204673
:1017F00061626D616E00507265737320746865205C
:101800006B6E6F6220746F20707265686561742002
:101810006E6F7A7A6C6520616E6420636F6E746996
:101820006E75652E00506C6561736520707265730E
:101830007320746865206B6E6F6220746F20756E04
:101840006C6F61642066696C616D656E74005265D1
:101850006D6F7665206F6C642066696C616D656E76
:101860007420616E642070726573732074686520E3
:101870006B6E6F6220746F207374617274206C6F72
:101880006164696E67206E65772066696C616D655D
:101890006E742E00616E64207072657373207468BC
:1018A00065206B6E6F6200496E73657274206669A5
:1018B0006C616D656E7400436F6C6F72206E6F7437
:1018C00020636F72726563740046696C616D656E4A
:1018D00074206E6F74206C6F61646564004368618E
:1018E0006E67656420636F72726563746C793F0024
:1018F0004C6F6164696E6720636F6C6F7200436840
:10190000616E676520737563636573732100506C46
:1019100065617365206F70656E2069646C65722007
:10192000616E642072656D6F76652066696C616DAD
:10193000656E74206D616E75616C6C792E005761F7
:10194000732066696C616D656E7420756E6C6F6175
:1019500064207375636365737366756C3F00506CC8
:101960006561736520757067726164652E004E65F0
:1019700077206669726D776172652076657273692A
:101980006F6E20617661696C61626C653A005761C7
:101990006974696E6720666F722050494E44412019
:1019A00070726F626520636F6F6C696E670043725F
:1019B0006173682064657465637465642E20526584
:1019C00073756D65207072696E743F004372617348
:1019D000682064657465637465642E0043686F6F86
:1019E00073652065787472756465723A0043686F38
:1019F0006F73652066696C616D656E743A004E6F39
:101A0000206D6F76652E00537461626C6520616D88
:101A10006269656E742074656D706572617475724B
:101A2000652032312D323643206973206E6565643E
:101A300065642061207269676964207374616E64F3
:101A40002069732072657175697265642E00506C2F
:101A5000656173652072756E2058595A2063616CF8
:101A60006962726174696F6E2066697273742E00A8
:101A70005761697420666F7220757365722E2E2E01
:101A8000003B53006164635F696E6974000A204F14
:101A9000726967696E616C20507275736120693379
:101AA0000A2020205072757361205265736561723F
:101AB000636800200A200A200A2000416C6C204440
:101AC0006174610053657276696365207072657038
:101AD000005368697070696E67207072657000539A
:101AE000746174697374696373004C616E677561C6
:101AF00067650045524153494E4720616C6C206434
:101B000061746100466163746F7279205245534578
:101B10005400494E5434004D4B334D4D5532004C1A
:101B20004F4D4B330003004A616E2031322032307A
:101B3000323200436F6D70696C65643A2000286E24
:101B40006F6E652C2064656661756C7420636F6EC2
:101B500066696729004A616E2031322032303232A4
:101B60002032313A31383A35310020332E31302E9F
:101B7000302D3434383100737461727400534E2048
:101B8000757064617465206661696C656400534EAC
:101B9000207570646174656400416E206572726FB7
:101BA00072207768696C652077726974696E672046
:101BB000746F2074686520534420436172642E0062
:101BC0002055706C6F616420696E2070726F67724F
:101BD00065737300205A3A0020593A0020583A00A1
:101BE00043524153485F4445544543544544585932
:101BF0000043524153485F4445544543544544597A
:101C00000043524153485F4445544543544544586A
:101C1000004D32390045787465726E616C20535006
:101C20004920666C6173680A58464C4153482069E4
:101C300073206E6F74207265732D0A706F6E646905
:101C40006E672E204C616E67756167650A737769F0
:101C500074636820756E617661696C61626C652E73
:101C6000005072757361206933204D4B33204F4B08
:101C70002E0043726173684465746563742044493F
:101C80005341424C45440043726173684465746536
:101C9000637420454E41424C4544210058464C4116
:101CA0005348206E6F7420726573706F6E64696E36
:101CB000672E002020506C616E6E657242756666FC
:101CC000657242797465733A20002046726565201A
:101CD0004D656D6F72793A2000207C2041757468E3
:101CE0006F723A2000204C617374205570646174E7
:101CF00065643A200020536F6674776172652052E4
:101D00006573657400205761746368646F6720525F
:101D100065736574002042726F776E206F75742052
:101D20005265736574002045787465726E616C202D
:101D3000526573657400506F7765725570006572F7
:101D4000726F722077726974696E6720746F206693
:101D5000696C6500656E6473746F70732068697474
:101D60003A2000446F6E6520736176696E67206665
:101D7000696C652E006F6B004D4B33206669726D88
:101D800077617265206465746563746564206F6E45
:101D9000204D4B3353207072696E74657200426C33
:101DA00061636B6F7574206F636375727265642E07
:101DB000205265636F766572207072696E743F00A1
:101DC00053656C66746573742077696C6C2062650A
:101DD0002072756E20746F2063616C696272617429
:101DE000652061636375726174652073656E736FDE
:101DF000726C657373207265686F6D696E672E0013
:101E00005468657265206973207374696C6C206115
:101E1000206E65656420746F206D616B65205A20AB
:101E200063616C6962726174696F6E2E20506C65BB
:101E300061736520666F6C6C6F7720746865206DC8
:101E4000616E75616C2C20636861707465722046E8
:101E5000697273742073746570732C207365637476
:101E6000696F6E2043616C6962726174696F6E2084
:101E7000666C6F772E005072696E746572206861AF
:101E800073206E6F74206265656E2063616C696299
:101E90007261746564207965742E20506C6561737D
:101EA0006520666F6C6C6F7720746865206D616E5D
:101EB00075616C2C2063686170746572204669726C
:101EC00073742073746570732C2073656374696F09
:101ED0006E2043616C6962726174696F6E20666C1A
:101EE0006F772E004F6C642073657474696E67732E
:101EF00020666F756E642E2044656661756C742073
:101F00005049442C20457374657073206574632EAA
:101F10002077696C6C206265207365742E005761B0
:101F2000726E696E673A20626F7468207072696EB3
:101F3000746572207479706520616E64206D6F74B1
:101F4000686572626F61726420747970652063687D
:101F5000616E6765642E005761726E696E673A2024
:101F60007072696E7465722074797065206368613F
:101F70006E6765642E005761726E696E673A206DF8
:101F80006F74686572626F61726420747970652025
:101F90006368616E6765642E0058595A2063616CEE
:101FA0006962726174696F6E20616C6C207269671E
:101FB00068742E20536B65772077696C6C2062659E
:101FC00020636F72726563746564206175746F6DF0
:101FD00061746963616C6C792E0058595A20636191
:101FE0006C6962726174696F6E20616C6C207269D9
:101FF0006768742E20582F592061786573206172AC
:102000006520736C696768746C7920736B6577659C
:10201000642E20476F6F64206A6F62210058595AFE
:102020002063616C6962726174696F6E206F6B2EE0
:1020300020582F5920617865732061726520706582
:102040007270656E646963756C61722E20436F6E89
:1020500067726174756C6174696F6E732100585991
:102060005A2063616C6962726174696F6E20666187
:10207000696C65642E2052696768742066726F6EA1
:10208000742063616C6962726174696F6E20706F35
:10209000696E74206E6F7420726561636861626C32
:1020A000652E0058595A2063616C696272617469C7
:1020B0006F6E206661696C65642E2046726F6E7467
:1020C0002063616C6962726174696F6E20706F6900
:1020D0006E7473206E6F7420726561636861626CE8
:1020E000652E0058595A2063616C69627261746987
:1020F0006F6E206661696C65642E20506C6561733B
:102100006520636F6E73756C7420746865206D61F3
:102110006E75616C2E0058595A2063616C69627249
:102120006174696F6E20636F6D70726F6D69736536
:10213000642E2052696768742066726F6E74206323
:10214000616C6962726174696F6E20706F696E7420
:10215000206E6F7420726561636861626C652E0029
:1021600058595A2063616C6962726174696F6E209C
:10217000636F6D70726F6D697365642E2046726F48
:102180006E742063616C6962726174696F6E207035
:102190006F696E7473206E6F74207265616368611D
:1021A000626C652E0058595A2063616C69627261D5
:1021B00074696F6E206661696C65642E2042656487
:1021C0002063616C6962726174696F6E20706F69FF
:1021D0006E7420776173206E6F7420666F756E6405
:1021E0002E00506C6561736520706C6163652073AF
:1021F0007465656C207368656574206F6E20686512
:1022000061746265642E0044697374616E63652055
:102210006265747765656E20746970206F662074DE
:102220006865206E6F7A7A6C6520616E64207468D0
:1022300065206265642073757266616365206861FC
:1022400073206E6F74206265656E207365742079EB
:1022500065742E20506C6561736520666F6C6C6FC1
:102260007720746865206D616E75616C2C206368E1
:10227000617074657220466972737420737465703E
:10228000732C2073656374696F6E20466972737472
:10229000206C617965722063616C69627261746936
:1022A0006F6E2E00506C61636520612073686565F8
:1022B00074206F6620706170657220756E6465723F
:1022C00020746865206E6F7A7A6C65206475726917
:1022D0006E67207468652063616C696272617469FD
:1022E0006F6E206F66206669727374203420706F81
:1022F000696E74732E20496620746865206E6F7A4B
:102300007A6C652063617463686573207468652006
:1023100070617065722C20706F776572206F6666D1
:1023200020746865207072696E74657220696D6DC5
:102330006564696174656C792E00506C65617365C4
:102340002072656D6F766520737465656C207368A7
:102350006565742066726F6D20686561746265647E
:102360002E00497320737465656C2073686565740D
:10237000206F6E20686561746265643F005365611B
:10238000726368696E67206265642063616C69626C
:10239000726174696F6E20706F696E74004D656153
:1023A000737572696E67207265666572656E6365C6
:1023B00020686569676874206F662063616C696274
:1023C000726174696F6E20706F696E7400506C6515
:1023D00061736520636C65616E20746865206E6F43
:1023E0007A7A6C6520666F722063616C69627261D3
:1023F00074696F6E2E20436C69636B207768656E1D
:1024000020646F6E652E004175746F20686F6D6576
:10241000004D6561737572656420736B6577733AFF
:102420002025662025660A0046697474696E672057
:102430006661696C6564203D3E2063616C6962720F
:102440006174696F6E206661696C65642E0A004371
:10245000616C6962726174696F6E20737563636524
:1024600073732E0A00416C6C20342063616C6962C6
:10247000726174696F6E20706F696E747320666F1D
:10248000756E642E0A00312F3400312F3400312F45
:10249000390078797A63616C5F6D65617373757209
:1024A000655F656E7465720A0078797A63616C5F46
:1024B00073706972616C382063783D25642063799C
:1024C0003D2564207A303D256420647A3D256420D2
:1024D0007261646975733D25642061643D25640AF9
:1024E0000078797A63616C5F7365617263685A2002
:1024F0006E6F207369676E616C0A20783D256C648D
:1025000020793D256C64207A3D256C640A00204FBB
:102510004E2D5349474E414C20617420783D25642F
:1025200020793D2564207A3D25642061643D256441
:102530000A0078797A63616C5F7365617263685AC7
:1025400020783D256C6420793D256C64207A3D25FA
:102550006C640A0025640A005363616E20636F7522
:102560006E74646F776E3A20000A0025303278006E
:10257000205B25662025665D206D6D20706174747A
:1025800065726E2063656E7465720A00205B256655
:102590002025665D5B25665D206D6D20646976652E
:1025A0007267656E63650A000000F000F801FC03C5
:1025B000FE07FE07FE07FE07FC03F801F00000001F
:1025C00000000000F000F801FC03FC03FC03FC0326
:1025D000F801F0000000000078797A63616C5F6DAB
:1025E000656173737572655F6C656176650A00205D
:1025F0003C20005741524E494E473A2046726F6E7A
:102600007420706F696E74206E6F742072656163E0
:102610006861626C652E205920636F6F7264696E09
:102620006174653A0000000040410000C0400000B5
:102630005C430000C04000005C43000046430000D3
:1026400040410000464325642F340049746572619F
:1026500074696F6E3A200043616C696272617469DB
:102660006F6E206661696C65642120436865636BE9
:1026700020746865206178657320616E64207275CE
:102680006E20616761696E2E006572726F723A200A
:10269000756E6B6E6F776E206D6F7665006E6F2056
:1026A0006D6F766500542D636F646500756E6C6F99
:1026B0006164006C6F6164006D6D755F6765745F68
:1026C000726573706F6E7365202D20626567696E29
:1026D000206D6F76653A20006D6D755F6765745F7C
:1026E000726573706F6E73652829207265747572D8
:1026F0006E696E673A2025640A00556E6C6F6164DE
:10270000696E672066696E6973686564203200557A
:102710006E6C6F6164203200556E6C6F6164696E1F
:10272000672066696E6973686564203100556E6C58
:102730006F61642031004D4D552073746172747364
:1027400020726573706F6E64696E67004D4D552021
:102750006E6F7420726573706F6E64696E67004689
:10276000696C616D656E74206F7574206F66207280
:10277000616E6765202564200A000000803F555582
:1027800085410000803F0000C841000000405555D1
:1027900005420000C03F000048420000204055555F
:1027A0008542000070C1ABAAA642000060C10000D3
:1027B000A0410000C0C00000204100002041ABAAA1
:1027C0003A41000020C15555D540000048C255553A
:1027D00005424D373031204534004D3730312045EA
:1027E00033004D373031204532004D3730312045F0
:1027F00031004D3730312045300046696C616D65E0
:102800006E74206E72206F7574206F662072616E18
:1028100067652100206661696C65642E0020737510
:10282000636365656465642E004D4D552063616E7C
:102830005F6C6F61643A004164646974696F6E61D2
:102840006C206C6F616420617474656D7074206EAF
:10285000722E2025640A00773235783230636C5F3F
:1028600063666D0A00773235783230636C5F656E6F
:102870007465720A0073746172740A004D4D5520BC
:102880004F4B2E20526573756D696E672E2E2E008C
:102890004D4D55204F4B2E20526573756D696E67F7
:1028A00020706F736974696F6E2E2E2E004D4D551A
:1028B000204F4B2E20526573756D696E67207465CD
:1028C0006D70657261747572652E2E2E0046697882
:1028D0002074686520697373756520616E64207467
:1028E00068656E20707265737320627574746F6EA4
:1028F000206F6E204D4D5520756E69742E005072FC
:1029000065737320746865206B6E6F6220746F202E
:10291000726573756D65206E6F7A7A6C652074656B
:102920006D70657261747572652E004D4D55206E27
:1029300065656473207573657220617474656E7467
:10294000696F6E2E0043757474696E672066696CDA
:10295000616D656E7400506C656173652072656DA4
:102960006F76652066696C616D656E7420616E645A
:10297000207468656E2070726573732074686520BA
:102980006B6E6F622E00456A656374696E672066C0
:10299000696C616D656E74004D4D55206C6F61649E
:1029A000206661696C65640025632533642F2564A6
:1029B000256300437573746F6D00536174696E20F5
:1029C0000054657874757200536D6F6F74680047BA
:1029D000312059252D2E32662045252D2E336600B7
:1029E0004731205825642059252D2E326620452553
:1029F0002D2E33660044495341424C454400454E18
:102A000041424C4544004653656E736F7220255316
:102A100000504154393132355F696E69743A256826
:102A200068750A00504154393132355F696E6974F6
:102A30003A256868750A0050415439313235206EA4
:102A40006F7420726573706F6E64696E67202825DD
:102A50006429210A00312E3000312E3500554E4BAD
:102A60004E4F574E004C413130433A204C696E6511
:102A7000617220416476616E6365206D6F64653AB2
:102A800020004C413130433A2041646A75737465CB
:102A90006420452D4A65726B3A2000000E13151113
:102AA0000E00000004120912040000001C1F111186
:102AB0001F00000006191803130C00040E1F041C4D
:102AC000000000040A0A0A0A11110E001F15111550
:102AD0001F0000000103161C0800000000110A047A
:102AE000110A040C12120C000000002563252D3180
:102AF000382E3138532563005B25735D2563005BF9
:102B000025535D2563002563252D31382E3138533B
:102B100000252E31305320002563252D31382E31EC
:102B200038732563002563252D31382E3138732500
:102B300063006673656E736F725F6175746F6C6F3F
:102B400061645F636865636B5F7374617274202D89
:102B5000206175746F6C6F616420454E41424C4535
:102B600044006673656E736F725F6175746F6C6F2E
:102B700061645F636865636B5F73746F70202D20A1
:102B80006175746F6C6F61642044495341424C45D8
:102B9000440022206661696C65643A20427566666D
:102BA00065722066756C6C21002200256920686FB3
:102BB000757273202569206D696E75746573005494
:102BC000494D454F55543A004D3131300046756CF2
:102BD0006C2052582042756666657200656E71758C
:102BE00065696E67202200446F6E65207072696EA1
:102BF00074696E672066696C65004D3131322063FF
:102C0000616C6C65642E20456D657267656E6379D5
:102C10002053746F702E005072696E746572207349
:102C2000746F707065642064756520746F206572C0
:102C3000726F72732E204669782074686520657201
:102C4000726F7220616E6420757365204D39393959
:102C500020746F20726573746172742E202854651D
:102C60006D70657261747572652069732072657329
:102C700065742E20536574206974206166746572D2
:102C80002072657374617274696E6729004E6F20DB
:102C90004C696E65204E756D626572207769746847
:102CA00020636865636B73756D2C204C61737420B1
:102CB0004C696E653A20004E6F20436865636B7304
:102CC000756D2077697468206C696E65206E756D0E
:102CD0006265722C204C617374204C696E653A20D9
:102CE00000636865636B73756D206D69736D6174E6
:102CF00063682C204C617374204C696E653A200027
:102D00004C696E65204E756D626572206973206E28
:102D10006F74204C617374204C696E65204E756D24
:102D20006265722B312C204C617374204C696E6586
:102D30003A200053544F505045442E00436F6F6C5F
:102D4000646F776E005072656865617420746865A1
:102D5000206E6F7A7A6C6521004552524F523A00CC
:102D600046696C616D656E7420657874727564690E
:102D70006E672026207769746820636F72726563BE
:102D80007420636F6C6F723F004175746F6C6F617C
:102D900064696E672066696C616D656E7420697325
:102DA000206163746976652C206A75737420707273
:102DB00065737320746865206B6E6F6220616E644A
:102DC00020696E736572742066696C616D656E74DE
:102DD0002E2E2E005072696E742074696D65004647
:102DE000696C616D656E74207573656400546F74F1
:102DF000616C207072696E742074696D6500546F27
:102E000074616C2066696C616D656E7400526967EF
:102E10006874004C65667400592064697374616E4F
:102E200063652066726F6D206D696E00536576650F
:102E3000726520736B657700536C696768742073E3
:102E40006B6577004D6561737572656420736B65A2
:102E500077005B303B305D20706F696E74206F6669
:102E6000667365740041646A757374696E67205A8D
:102E70003A00526561722073696465205B756D5D0F
:102E80000046726F6E7420736964655B756D5D00DA
:102E9000526967687420736964655B756D5D004C89
:102EA0006566742073696465205B756D5D005365AC
:102EB000742074656D70657261747572653A004650
:102EC0004C4558202D20203234302F3530005050C2
:102ED0002020202D20203235342F31303000484939
:102EE0005053202D20203232302F313030004142DB
:102EF0005320202D20203235352F313030005056D0
:102F00004220202D20203231352F373500504320EC
:102F100020202D20203237352F31313000415341D0
:102F200020202D20203236302F31303500504554AE
:102F300020202D20203233302F383500504C4120B6
:102F4000202D20203231352F3630006E6F7A7A6C8A
:102F500065202D20203235302F30006661726D20C3
:102F600020202D20203235302F383000252D3132D1
:102F70002E313253252B382E316600457874727508
:102F80006465723A006D6D0059005800583A005956
:102F90003A005A3A002563252D31332E313353251B
:102FA0002B352E33660025533A0A2531382E3266EA
:102FB0006D200A25533A0A2531306C64682025308B
:102FC000326868646D202530326868647300255368
:102FD0003A0A2531382E32666D200A25533A0A25E1
:102FE00031306C6464202530326868646820253094
:102FF000326868646D0025362E32666D6D0025538B
:103000000A25530A25533A0A25533A0025332E320E
:10301000660100252D31342E3134533A0A25530AE6
:10302000252D31342E3134533A25332E3266010AA0
:10303000252D31342E3134533A25332E326601009A
:1030400054656D70657261747572652063616C6939
:1030500062726174696F6E206661696C65640054A8
:10306000656D70657261747572652063616C69620B
:10307000726174696F6E2069732066696E69736826
:10308000656420616E64206163746976652E2054E6
:10309000656D702E2063616C6962726174696F6E18
:1030A0002063616E2062652064697361626C65648F
:1030B00020696E206D656E752053657474696E6746
:1030C000732D3E54656D702E2063616C2E00466931
:1030D0006C2E2073656E736F720045787472756420
:1030E0006572004D6F7665205A004D6F76652059E8
:1030F000004D6F76652058004372617368206465E7
:1031000074656374696F6E2063616E0A6265207412
:1031100075726E6564206F6E206F6E6C7920696EBB
:103120000A4E6F726D616C206D6F6465005741527D
:103130004E494E473A0A437261736820646574656C
:103140006374696F6E0A64697361626C6564206997
:103150006E0A537465616C7468206D6F646500411C
:1031600075746F6C6F6164696E672066696C616D00
:10317000656E7420617661696C61626C65206F6E4A
:103180006C79207768656E2066696C616D656E7418
:103190002073656E736F72206973207475726E652B
:1031A00064206F6E2E2E2E004552524F523A20460A
:1031B000696C616D656E742073656E736F722069E2
:1031C00073206E6F7420726573706F6E64696E67C2
:1031D0002C20706C6561736520636865636B206388
:1031E0006F6E6E656374696F6E2E004D6F6465203F
:1031F0006368616E676520696E2070726F677265C3
:1032000073732E2E2E0043616C69627261746500C7
:10321000536865657420252E37730A5A206F6666D9
:103220007365743A20252B312E3366206D6D0A2587
:1032300063436F6E74696E75650A256353746172BA
:10324000742066726F6D207A65726F00506C6561D4
:103250007365206C6F61642066696C616D656E7466
:103260002066697273742E003E43616E63656C0064
:1032700046696C616D656E740053656C656374209E
:1032800066696C616D656E743A0052756E6E696E3A
:10329000672057697A6172642077696C6C20646575
:1032A0006C6574652063757272656E742063616C01
:1032B0006962726174696F6E20726573756C747384
:1032C00020616E642073746172742066726F6D2069
:1032D00074686520626567696E6E696E672E20434B
:1032E0006F6E74696E75653F0054656D70657261CF
:1032F000747572652063616C6962726174696F6E66
:10330000206661696C65642E20436F6E74696E750A
:10331000652077697468207072657373696E6720C1
:10332000746865206B6E6F622E0054656D706572F7
:1033300061747572652063616C6962726174696F32
:103340006E20646F6E652E20436F6E74696E7565B6
:103350002077697468207072657373696E67207472
:103360006865206B6E6F622E007B5B4552523A009F
:103370005D5B4657523A005D5B54494D3A005D5BD8
:10338000464E4D3A005D5B46454D3A005D5B50430D
:10339000443A005B5446553A007B5B50524E3A39F2
:1033A000395D007B5B50524E3A355D007B5B50527D
:1033B0004E3A305D007B5B50524E3A395D007B5B8C
:1033C00050524E3A385D007B5B5245533A305D5B5C
:1033D00046494C3A007B5B5245533A315D5B464966
:1033E0004C3A005B50524E3A005B50464E3A305DCC
:1033F000005B4449413A005D5B4154423A005D5BE9
:103400004154303A005D5B5354423A005B535430B0
:103410003A00473830004D3435004D3435205A00DD
:1034200047373600202030002020310058643A20F1
:1034300020253364202059643A20202533640A492A
:103440006E743A202533642020536875743A202026
:103450002533640046494E44410050494E444100E2
:103460002563252D2E31365320002563252E313539
:10347000533A257325336400252D32302E323053D4
:103480000A00457872656D65207370616E206F6605
:1034900020746865205A2076616C7565732100255B
:1034A000642F39006F6B0A0073746172740A004DE7
:1034B0004D5532206669726D77617265207665724E
:1034C00073696F6E20696E76616C69642E20526537
:1034D0007175697265642076657273696F6E3A20E2
:1034E0006275696C64206E756D626572202564205A
:1034F0006F72206869676865722E006673656E7307
:103500006F725F636865636B706F696E745F707212
:10351000696E74004D4D55203D3E20276F6B270A84
:10352000004D4D55203D3E20276F6B270A00256436
:10353000004D4D55203D3E20276F6B272C20726596
:1035400073756D65207072696E740A004D4D55205B
:10355000726574727920617474656D7074206E7216
:103560002E2025640A004D4D55203D3E20276F6BCF
:10357000270A00410A004D4D55203C3D2027412798
:103580000A004D363030004D363030204155544F12
:10359000002568687500410A004D4D55203C3D20CE
:1035A0002741270A0050300A004D25640A004D4D7E
:1035B00055203C3D20274D2564270A0057300A003E
:1035C0004D4D55203C3D20275730270A0053330AE4
:1035D000004D4D55203C3D20275333270A005230E3
:1035E0000A004D4D55203C3D20275230270A004B04
:1035F00025640A004D4D55203C3D20274B2564276E
:103600000A004525640A004D4D55203C3D202745C4
:103610002564270A0055300A004D4D55203C3D20B9
:10362000275530270A0043300A004D4D55203C3DB8
:1036300020274330270A004C25640A004D4D5520B1
:103640003C3D20274C2564270A005425640A004D80
:103650004D55203C3D2027542564270A004D4D55EB
:10366000202D20454E41424C454400256868750098
:1036700050300A004D310A004D4D55203C3D202769
:103680004D31270050300A004D4D5520766572733C
:10369000696F6E2076616C6964004D4D55203D3E2A
:1036A000202725646F6B270A0025750053320A0016
:1036B0004D4D55203C3D2027533227004D4D552080
:1036C0003D3E202725646F6B270A002575004D4D70
:1036D00055206E6F7420726573706F6E64696E67CB
:1036E000202D2044495341424C45440053310A00A7
:1036F0004D4D55203C3D2027533127004D4D552041
:103700003D3E202773746172742700426564206C0B
:103710006576656C696E67206661696C65642E20EC
:1037200053656E736F72206469646E2774207472BF
:1037300069676765722E20446562726973206F6ED7
:10374000206E6F7A7A6C653F2057616974696E6785
:1037500020666F722072657365742E00506C65610F
:10376000736520757064617465206669726D776138
:10377000726520696E20796F7572204D4D55322E1D
:103780002057616974696E6720666F722072657375
:1037900065742E00312F390047312058352E3020E6
:1037A00045342E302046313030302E300047312025
:1037B0005A302E32302046313030302E30004731F2
:1037C000205835352E3020453235204631343030C2
:1037D0002E3000473120592D322E302046313030E6
:1037E000302E3000473120583234302E30204532D0
:1037F000352E30202046323230302E3000473932DC
:103800002045302E30004731205A302E33204631AB
:103810003030302E30004731205835352E3020459D
:10382000382E302046323030302E3000473120588C
:10383000352E30204533322E302046313830302E70
:1038400030004731205835352E30204533322E3068
:103850002046313037332E30004731204634303067
:1038600030004D3230342053313030300047312079
:103870005A352046373230302E3030300047312034
:10388000452D312E35303030302046323130302E1B
:103890003030303030004D38330047393000473257
:1038A00031004739322045302E300047312058351D
:1038B00030205935352045332E36323737330047DF
:1038C000312058323030205935352045302E3439AA
:1038D00033383600473120583230302059373520C0
:1038E00045332E36323737330047312058353020B4
:1038F0005937352045302E3439333836004731209A
:10390000583530205939352045332E363237373344
:103910000047312058323030205939352045302E7B
:10392000343933383600473120583230302059315D
:1039300031352045332E3632373733004731205862
:10394000353020593131352045302E343933383631
:103950000047312058353020593133352045332E3A
:103960003632373733004731205832303020593122
:1039700033352045302E3636313734004731205824
:1039800032303020593135352045322E36323737F6
:1039900033004731205831303020593135352045FA
:1039A00032004731205837352059313535204532DE
:1039B0002E35004731204631303830004731205A0B
:1039C000302E3135302046373230302E3030300016
:1039D00047312058353020593135350047393220AC
:1039E00045302E3000473238004D313039004D31EE
:1039F0003930004D31303700726573756C74207644
:103A0000616C75653A2025640A0020693D253264A1
:103A100020636E743D2532642076616C3D253264EE
:103A20000A00636C7573746572733A0020693D25F2
:103A3000326420737465703D2532640A00736F72BE
:103A40007465642073616D706C65733A00252D3761
:103A500073003A200025642F3600252D32305300A4
:103A6000203A2000252D3230730054256400473160
:103A7000205A302E342046313030302E300047313D
:103A800020592D332E302046313030302E30004D2D
:103A9000383300473120583130302E302045313214
:103AA0002E352046313030302E3000473120583608
:103AB000302E302045392E302046313030302E30F7
:103AC0000042382C3816380638FD37E437D337BE75
:103AD00037AD379837A2389E389A3896387D386D8A
:103AE000386238593847312058353020593335201D
:103AF00045252D2E336600D039BC39B339A2399211
:103B0000397C39663951393C3926391139FD38E962
:103B100038D438BF38AB38496E76616C6964205050
:103B200049442063616C2E20726573756C74732E2A
:103B3000204E6F742073746F72656420746F20451B
:103B40004550524F4D2E004D353030004731205AF0
:103B5000313520463135303000473931004731208A
:103B600058353020593139302045302046373030F3
:103B70003000473930004D3834004D373032204363
:103B80000047312058313020593138302046343008
:103B90003030004731205A31302046313330302E1A
:103BA000303030004D313430205330004D3130341E
:103BB00020533000473120452D302E3037353030FE
:103BC0002046323130302E3030303030004D313000
:103BD00037004D313137204669727374206C61793A
:103BE00065722063616C2E00526573756D696E6736
:103BF000207072696E740050494E444120486561DE
:103C000074696E670043616C6962726174696F6E9A
:103C100020646F6E650043616C6962726174696EE5
:103C200067205A0042656420646F6E6500426564D7
:103C30002048656174696E670048656174696E67E4
:103C400020646F6E652E0048656174696E67005070
:103C500049442063616C2E2066696E6973686564EF
:103C6000005049442063616C2E005072696E7420CC
:103C70007061757365640025632533642F256425A1
:103C800063005A25362E32662563005A2020202DE7
:103C90002D2D200025632533642525002D2D2D0095
:103CA0002533686864002533532533732525005573
:103CB00053420020202000205344002025753E253B
:103CC0007500203F3E257500204625750020463FA3
:103CD000002046524D200025632D2D3A2D2D202009
:103CE000002563253375682025632563002563253A
:103CF0003032753A253032752563256300473939EE
:103D00000044697361626C65206661726D206D6F3D
:103D100064653F004D363030004C6F616420616C4B
:103D20006C00506C656173652070756C6C206F75EC
:103D3000742066696C616D656E7420696D6D656473
:103D4000696174656C7900556E6C6F6164696E674A
:103D50002066696C616D656E7400526573657400F0
:103D600052656E616D65004669727374206C61798D
:103D700065722063616C2E0053656C65637400533B
:103D80007465656C20736865657473005375707035
:103D90006F7274004661696C207374617473204D96
:103DA0004D55004661696C207374617473005374DF
:103DB00061746973746963730043616C69627261F1
:103DC00074696F6E004175746F4C6F616420666931
:103DD0006C616D656E74004375742066696C616D0D
:103DE000656E7400456A6563742066696C616D6513
:103DF0006E7400556E6C6F61642066696C616D65F0
:103E00006E74004C6F616420746F206E6F7A7A6CF0
:103E100065004C6F61642066696C616D656E74004D
:103E20004E6F2053442063617264005072696E7457
:103E30002066726F6D20534400526573756D652066
:103E40007072696E74005061757365207072696E6E
:103E50007400507265686561740054756E65004C3D
:103E60006976652061646A757374205A00496E66CC
:103E70006F2073637265656E0046696E6973686969
:103E80006E67206D6F76656D656E74730042726942
:103E90006768746E6573730041737369737400535C
:103EA000696C656E74004F6E6365004C6F756400DD
:103EB000536F756E64004D4D55204D6F6465004322
:103EC00072617368206465742E00537465616C744C
:103ED00068004E6F726D616C0046616E732063689E
:103EE00065636B0046696C2E2073656E736F72009C
:103EF0004368616E67652066696C616D656E74000C
:103F0000466C6F77005370656564004E2F41004D1D
:103F100061676E65747320636F6D702E005A2D702B
:103F2000726F6265206E722E004D65736800546971
:103F30006D656F757400427269676874004D6F64D7
:103F400065004175746F0044696D004C6576656C61
:103F50002044696D6D6564004C6576656C20427225
:103F6000696768740046616E20737065656400421D
:103F70006564004E6F7A7A6C650053657474696E7F
:103F80006773005072696E742061626F7274656449
:103F9000004572723A205052494E542046414E20FC
:103FA0004552524F52004572723A20455854522E93
:103FB0002046414E204552524F52002F2F20616320
:103FC00074696F6E3A706175736564002F2F20619C
:103FD0006374696F6E3A726573756D6564002F2F37
:103FE00020616374696F6E3A726573756D65002F39
:103FF0002F20616374696F6E3A63616E63656C0054
:1040000050726568656174696E67206E6F7A7A6C4C
:10401000652E20506C6561736520776169742E0090
:104020004C6F6164696E672066696C616D656E7462
:1040300000506C6561736520696E736572742066EB
:10404000696C616D656E7420696E746F207468654B
:104050002065787472756465722C207468656E20B2
:10406000707265737320746865206B6E6F62207464
:104070006F206C6F61642069742E00506C656173F1
:104080006520696E736572742066696C616D656E1A
:104090007420696E746F2074686520666972737429
:1040A0002074756265206F6620746865204D4D55DB
:1040B0002C207468656E2070726573732074686557
:1040C000206B6E6F6220746F206C6F616420697466
:1040D0002E00546865207072696E7465722077696D
:1040E0006C6C207374617274207072696E74696E86
:1040F000672061207A69672D7A6167206C696E6537
:104100002E20526F7461746520746865206B6E6F29
:104110006220756E74696C20796F752072656163B9
:104120006820746865206F7074696D616C206865C3
:10413000696768742E20436865636B207468652026
:10414000706963747572657320696E207468652088
:1041500068616E64626F6F6B202843616C69627284
:104160006174696F6E2063686170746572292E00D6
:1041700053656C6563742074656D706572617475E8
:104180007265207768696368206D61746368657320
:1041900020796F7572206D6174657269616C2E0093
:1041A00043686F6F736520612066696C616D656E31
:1041B0007420666F7220746865204669727374207B
:1041C0004C617965722043616C6962726174696FD8
:1041D0006E20616E642073656C6563742069742061
:1041E000696E20746865206F6E2D73637265656EED
:1041F000206D656E752E004E6F7720492077696CB3
:104200006C2063616C6962726174652064697374A7
:10421000616E6365206265747765656E2074697090
:10422000206F6620746865206E6F7A7A6C652061F5
:104230006E6420686561746265642073757266617E
:1042400063652E00596F752063616E20616C776124
:10425000797320726573756D652074686520576980
:104260007A6172642066726F6D2043616C6962725C
:104270006174696F6E202D3E2057697A6172642ED9
:1042800000506C6561736520636865636B206F75B2
:10429000722068616E64626F6F6B20616E6420666D
:1042A0006978207468652070726F626C656D2E206D
:1042B0005468656E20726573756D6520746865203D
:1042C00057697A617264206279207265626F6F74D7
:1042D000696E6720746865207072696E7465722EED
:1042E00000416C6C20697320646F6E652E204861FC
:1042F000707079207072696E74696E67210049660A
:1043000020796F75206861766520616464697469DD
:104310006F6E616C20737465656C2073686565747D
:10432000732C2063616C69627261746520746865C6
:104330006972207072657365747320696E205365AD
:104340007474696E6773202D204857205365747507
:1043500070202D20537465656C20736865657473D7
:104360002E00506C6561736520636C65616E20681A
:1043700065617462656420616E64207468656E2096
:10438000707265737320746865206B6E6F622E00A7
:10439000446F20796F752077616E7420746F20727E
:1043A0006570656174206C6173742073746570202E
:1043B000746F20726561646A7573742064697374C4
:1043C000616E6365206265747765656E206E6F7AD5
:1043D0007A6C6520616E6420686561746265643F13
:1043E0000053656C656374206E6F7A7A6C6520701B
:1043F0007265686561742074656D7065726174754D
:104400007265207768696368206D6174636865739D
:1044100020796F7572206D6174657269616C2E0010
:1044200049732066696C616D656E74206C6F6164A0
:1044300065643F004E6F7720492077696C6C20706F
:10444000726568656174206E6F7A7A6C6520666F3C
:104450007220504C412E00492077696C6C20727597
:104460006E207A2063616C6962726174696F6E207C
:104470006E6F772E004E6F772072656D6F766520B8
:104480007468652074657374207072696E74206638
:10449000726F6D20737465656C2073686565742E2A
:1044A00000506C656173652072656D6F7665207371
:1044B00068697070696E672068656C7065727320DA
:1044C00066697273742E00492077696C6C2072756E
:1044D0006E2078797A2063616C6962726174696FA9
:1044E0006E206E6F772E2049742077696C6C207473
:1044F000616B6520617070726F782E203132206D93
:10450000696E732E0046697273742C204920776996
:104510006C6C2072756E207468652073656C6674AF
:1045200065737420746F20636865636B206D6F73AF
:104530007420636F6D6D6F6E20617373656D626C57
:10454000792070726F626C656D732E0048692C2043
:104550004920616D20796F7572204F726967696EAD
:10456000616C205072757361206933207072696EBE
:104570007465722E20576F756C6420796F75206C8E
:10458000696B65206D6520746F20677569646520AF
:10459000796F75207468726F75676820746865201C
:1045A00073657475702070726F636573733F004834
:1045B000692C204920616D20796F7572204F7269D6
:1045C00067696E616C205072757361206933207069
:1045D00072696E7465722E20492077696C6C206751
:1045E0007569646520796F75207468726F75676886
:1045F00020612073686F7274207365747570207009
:10460000726F636573732C20696E207768696368C5
:1046100020746865205A2D617869732077696C6C05
:104620002062652063616C696272617465642E202A
:104630005468656E2C20796F752077696C6C2062E8
:104640006520726561647920746F207072696E7480
:104650002E00452D636F72726563743A005A2D63A4
:104660006F72726563743A00592D636F727265637D
:10467000743A00582D636F72726563743A00437523
:1046800074746572004D6F64656C00537472696375
:1046900074005761726E00436865636B73004E6F00
:1046A0007A7A6C6520642E004E6F6E6500416C70E6
:1046B00068616265740054696D6500536F727400BF
:1046C000534420636172640052506920706F7274A9
:1046D0000054656D702E2063616C2E004C696E2E47
:1046E00020636F7272656374696F6E004857205360
:1046F0006574757000462E206175746F6C6F61640F
:104700000044697361626C652073746570706572D2
:1047100073004D6F766520617869730054656D7024
:10472000657261747572650054656D702E206361E9
:104730006C6962726174696F6E0052657365742092
:1047400058595A2063616C6962722E0050494420A6
:1047500063616C6962726174696F6E0042656420A6
:104760006C6576656C20636F7272656374004D656D
:10477000736820426564204C6576656C696E6700DD
:1047800043616C696272617465205A0043616C69AF
:1047900062726174652058595A0053656C6674657D
:1047A00073740042656C7420746573740057697A81
:1047B0006172640057697A61726420656E64207367
:1047C000746174653A2025640A0053706F6F6C4AF7
:1047D0006F696E004669726D7761726500466C6143
:1047E00073684169720057697A61726420737461F9
:1047F00074653A2025640A004578706572696D65B4
:104800006E74616C0044697361626C6520666172EC
:104810006D206D6F6465004D3834004D34340047B1
:104820003238205700200A200A200053746F70206D
:104830007072696E7400436865636B696E672066A9
:10484000696C650046696C6520696E636F6D706C9C
:104850006574652E20436F6E74696E756520616E98
:10486000797761793F000452656672657368004D1F
:1048700061696E0057616974696E6720666F7220A6
:104880006E6F7A7A6C6520616E6420626564206365
:104890006F6F6C696E670053656C66207465737426
:1048A000204F4B0053656C662074657374207374DD
:1048B000617274004D203834004D3834004D32346C
:1048C000004D323320257300052E2E00257500592A
:1048D0003A202575202D3E202E2E2E0025750058BD
:1048E0003A202575202D3E202E2E2E0045787472FC
:1048F0002066616E2073706565643A2025640A0045
:104900005072696E742066616E2073706565643ADA
:104910002025640A005465737420323A0045787487
:10492000722066616E2073706565643A2025640AA2
:10493000005072696E742066616E207370656564E4
:104940003A2025640A005465737420313A004D38CA
:1049500034004E6F20307846462072656365697674
:1049600065640053656E64696E6720307846460062
:1049700046696C652073656C6563746564002053DB
:10498000697A653A200046696C65206F70656E65CE
:10499000643A20004E6F77206672657368206669FE
:1049A0006C653A20004E6F7720646F696E672066F1
:1049B000696C653A20002220706F730022207061BC
:1049C00072656E743A2200535542524F5554494E07
:1049D000452043414C4C207461726765743A220053
:1049E000747279696E6720746F2063616C6C2073D8
:1049F00075622D67636F64652066696C65732077E7
:104A000069746820746F6F206D616E79206C6576B3
:104A1000656C732E002022257322002025236C78DC
:104A2000004449525F45584954004449525F454E3D
:104A30005445523A20257320222573220A005344FC
:104A40002063617264206F6B006F70656E526F6FD0
:104A500074206661696C656400766F6C756D652E97
:104A6000696E6974206661696C65640053442069ED
:104A70006E6974206661696C006F70656E20666196
:104A8000696C65642C2046696C653A200043616E50
:104A90006E6F7420656E74657220737562646972DE
:104AA0003A2000536F7274696E672066696C657393
:104AB00000536F6D652066696C65732077696C6C57
:104AC000206E6F7420626520736F727465642E208F
:104AD0004D61782E204E6F2E206F662066696C65C2
:104AE0007320696E203120666F6C64657220666F7A
:104AF0007220736F7274696E672069732031303071
:104B00002E00506C656173652072657374617274F8
:104B1000004D494E54454D50004D494E54454D5061
:104B20002042454400452D6D6F746F72206375728D
:104B300072656E74207363616C696E6720656E6167
:104B4000626C656400746D63323133305F686F6D21
:104B5000655F656E74657228617865735F6D6173FA
:104B60006B3D307825303278290A00746D6332311C
:104B700033305F686F6D655F6578697420746D634D
:104B8000323133305F73675F686F6D696E675F6185
:104B90007865735F6D61736B3D3078253032780ACC
:104BA00000544D4320445249564552204F564552D9
:104BB00054454D500020746F6F206C6F6E672065F8
:104BC0007874727573696F6E2070726576656E7435
:104BD00065640020636F6C64206578747275736916
:104BE0006F6E2070726576656E7465640020573A4A
:104BF0000020453A00543A005A206C6976652061DD
:104C0000646A757374206F7574206F662072616EAC
:104C100067652E2053657474696E6720746F203049
:104C20002E20436C69636B20746F20636F6E746910
:104C30006E75652E005A206C6976652061646A7510
:104C40007374206F7574206F662072616E67652EB5
:104C50002053657474696E6720746F2030002042A1
:104C60003A0020453A00543A00494E5434007265E7
:104C7000636F7665725F6D616368696E655F73749B
:104C80006174655F61667465725F706F7765725F8E
:104C900070616E69632C20696E697469616C2000B3
:104CA00050525553412075766C6F00473420533075
:104CB000004D32362053256C75004D31303620536F
:104CC000004D3232302053256400473120462564A0
:104CD000004D383200473932204500473120452504
:104CE000302E3366204632373030004D323034209B
:104CF0005025662052256620542566004731205AEB
:104D00002566005052555341204D424C20563100EB
:104D100047312058256620592566204633303030EB
:104D200000506F736974696F6E20726561642066EC
:104D3000726F6D20656570726F6D3A004D32332071
:104D40002573002E67636F002C20666565646D75A2
:104D50006C7469706C793A0046656564726174655B
:104D60003A0047312045252D302E33662046323714
:104D700030300047312045352046313230004D3843
:104D800033004D31303920532564004D3139302006
:104D9000532564004D3130342053256400473238A8
:104DA00020582059004731205A252E336620463896
:104DB000303000504F5745522050414E4943204417
:104DC000455445435445440055564C4F202D2065CD
:104DD0006E642025640A0055564C4F5F54494E5965
:104DE000202D20656E642025640A00776F726C6444
:104DF00020636F6F7264696E617465733A20282551
:104E00002E33662C20252E33662C20252E33662942
:104E10000A0043757272656E7420706F73205A5F5A
:104E2000415849533A252E33660A43757272656EAE
:104E30007420706F7320455F415849533A252E33D3
:104E4000660A0041667465722077616974696E67ED
:104E500020666F722074656D703A0A4375727265D0
:104E60006E7420706F7320585F415849533A252E55
:104E700033660A43757272656E7420706F732059C1
:104E80005F415849533A252E33660A005265636FD5
:104E9000766572696E67207072696E7400473120A2
:104EA0005A252D302E33662046252D302E336600B0
:104EB00047312045252D302E33662046323730309D
:104EC000004D38330000002110422063308440A59B
:104ED00050C660E770088129914AA16BB18CC1ADC1
:104EE000D1CEE1EFF13112100273325222B5529459
:104EF00042F772D662399318837BB35AA3BDD39C11
:104F0000C3FFF3DEE36224433420040114E664C7E4
:104F100074A44485546AA54BB528850995EEE5CF60
:104F2000F5ACC58DD55336722611163006D776F6F8
:104F3000669556B4465BB77AA719973887DFF7FEB0
:104F4000E79DD7BCC7C448E5588668A77840086184
:104F50001802282338CCC9EDD98EE9AFF948896900
:104F6000990AA92BB9F55AD44AB77A966A711A5098
:104F70000A333A122AFDDBDCCBBFFB9EEB799B5850
:104F80008B3BBB1AABA66C877CE44CC55C222C0324
:104F90003C600C411CAEED8FFDECCDCDDD2AAD0BA0
:104FA000BD688D499D977EB66ED55EF44E133E3238
:104FB0002E511E700E9FFFBEEFDDDFFCCF1BBF3AF0
:104FC000AF599F788F8891A981CAB1EBA10CD12DDF
:104FD000C14EF16FE18010A100C230E320045025E2
:104FE0004046706760B9839893FBA3DAB33DC31C56
:104FF000D37FE35EF3B1029012F322D23235421432
:105000005277625672EAB5CBA5A89589856EF54FA1
:10501000E52CD50DC5E234C324A014810466744781
:105020006424540544DBA7FAB79987B8975FE77EF5
:10503000F71DC73CD7D326F2369106B016576676D1
:1050400076154634564CD96DC90EF92FE9C899E941
:10505000898AB9ABA94458654806782768C018E121
:10506000088238A3287DCB5CDB3FEB1EFBF98BD895
:105070009BBBAB9ABB754A545A376A167AF10AD071
:105080001AB32A923A2EFD0FED6CDD4DCDAABD8BE1
:10509000ADE89DC98D267C076C645C454CA23C83C1
:1050A0002CE01CC10C1FEF3EFF5DCF7CDF9BAFBA35
:1050B000BFD98FF89F176E367E554E745E932EB211
:1050C0003ED10EF01E7C3C3E3F2F2A225C00506CED
:1050D000656173652077616974001000C902100171
:1050E0002C014001220170011801B0010E01F001F4
:1050F00004015002FA00B002F0003003E600D003D1
:10510000DC009004D2007005C800A006BE000008B4
:10511000B400B009AA00D00BA000600E9600601188
:105120008C000015820020197800C01D6E00A0229E
:105130006400B0275A00902C500000314600E03443
:105140003C0010383200903A2800603C1E00A03D20
:105150001400803E0A00203F000045787472756498
:1051600065722066616E20737065656420697320C6
:105170006C6F776572207468616E20657870656306
:10518000746564005072696E742066616E2073707D
:10519000656564206973206C6F776572207468613F
:1051A0006E206578706563746564004D494E5445A2
:1051B0004D5020414D42004D415854454D50004DF9
:1051C000415854454D5020424544004D41585445A6
:1051D0004D5020414D4200202D20496E76616C6972
:1051E00064206578747275646572206E756D626591
:1051F0007220210070012C0190012701B0012201D1
:10520000C0011D01F00118011002130130020E014E
:105210006002090190020401C002FF000003FA00CD
:105220004003F5008003F000D003EB002004E6000B
:105230007004E100E004DC004005D700C005D200A6
:105240004006CD00D006C8008007C3003008BE006D
:10525000F008B900C009B400B00AAF00B00BAA0052
:10526000D00CA500000EA000500F9B00C0109600AF
:105270005012910000148C00C0158700B0178200F6
:10528000B0197D00D01B7800001E730040206E0016
:1052900090226900F024640040275F0090295A00A2
:1052A000E02B5500102E500020304B0010324600ED
:1052B000E033410090353C00103737007038320041
:1052C000A0392D00B03A2800A03B2300603C1E000E
:1052D000103D1900903D1400103E0F00703E0A0072
:1052E000C03E0500003F000090137D00B01578001F
:1052F000F0177300601A6E00F01C6900A01F6400B4
:1053000050225F0020255A00E0275500902A5000C7
:10531000202D4B00A02F4600F031410010343C00FE
:10532000F0353700A037320020392D00603A2800D0
:10533000703B2300603C1E00203D1900C03D14005E
:10534000403E0F00A03E0A00F03E0500403F000036
:10535000703FFBFF903FF6FFB03FF1FFC03FECFF17
:10536000D03FE7FFE03FE2FFF03FDDFFF03FD8FF37
:1053700020484F54454E4420544845524D414C20FE
:1053800052554E41574159002048454154424544E9
:1053900020544845524D414C2052554E4157415999
:1053A00000544845524D414C2052554E41574159A9
:1053B0000042454420544845524D414C2052554EE0
:1053C000415741590020544845524D414C205255B7
:1053D0004E415741592028205052454845415420BC
:1053E000484F54454E44290020544845524D414CA5
:1053F0002052554E4157415920282050524548458A
:1054000041542048454154424544290050524548A2
:10541000454154204552524F52004245442050527B
:105420004548454154204552524F52004572723A08
:1054300020002074726967676572656421004865A1
:105440006174657273207377697463686564206F33
:1054500066662E20003A200024F4D43050C38E20FB
:10546000C2A24017828B7011127A910D816CD90AF9
:10547000A861E108C7586607615143061E4B5D05E8
:10548000C145A7041A411104093D9803713931033C
:105490004036DB0265339102D4305402802E1D0267
:1054A000632CEE01752AC501B028A00110278101E7
:1054B0008F2564012B244B01E0223401AC211F0114
:1054C0008D200D01801FFC00841EED00971DDF0064
:1054D000B81CD200E61BC600201BBC00641AB20038
:1054E000B219A8000A19A0006A189900D1179100F2
:1054F00040178B00B516840031167E00B315790075
:105500003A157300C7146F0058146A00EE13660052
:105510008813630025135E00C7125B006C125700EE
:1055200015125400C111510070114F0021114B0090
:10553000D61049008D10470046104400021042006A
:10554000C00F4000800F3E00420F3C00060F3B00A2
:10555000CB0E3800930E37005C0E3500270E34005A
:10556000F30D3200C10D3100900D3000600D2E00A2
:10557000320D2D00050D2C00D90C2B00AE0C29008E
:10558000850C29005C0C2700350C27000E0C26002A
:10559000E80B2400C40B2400A00B23007D0B230088
:1055A0005A0B2100390B2100180B2000F80A1F00AC
:1055B000D90A1E00BB0A1E009D0A1D00800A1D009C
:1055C000630A1C00470A1B002C0A1B00110A1A0060
:1055D000F7091A00DD091900C4091900AB091900FF
:1055E000920917007B091800630917004C0916007F
:1055F00036091600200916000A091500F5081500DD
:10560000E0081400CC081400B8081400A408140022
:10561000900813007D0812006B0813005808120050
:105620004608120034081100230811001208110066
:1056300001081100F0071000E0071000D00710006B
:10564000C0071000B0070F00A107100091070E005F
:1056500083070F0074070F0065070E0057070E0041
:1056600049070E003B070D002E070E0020070D0016
:1056700013070D0006070D00F9060C00ED060D00DE
:10568000E0060C00D4060C00C8060C00BC060C009A
:10569000B0060C00A4060B0099060C008D060B004A
:1056A00082060B0077060B006C060B0061060A00F1
:1056B00057060B004C060A0042060A0038060A008C
:1056C0002E060A0024060A001A060A00100609001F
:1056D00007060A00FD050900F4050900EB050900AD
:1056E000E2050900D9050900D0050900C705090030
:1056F000BE050900B5050800AD050800A5050900AF
:105700009C050800940508008C0508008405080025
:105710007C050800740508006C0507006505080095
:105720005D050700560508004E0507004705070000
:105730004005080038050700310507002A05070065
:10574000230507001C050600160507000F050700C6
:105750000805060002050700FB040600F504070023
:10576000EE040600E8040600E2040700DB0406007D
:10577000D5040600CF040600C9040600C3040600D1
:10578000BD040600B7040600B1040500AC04060021
:10579000A6040600A00405009B040600950405006D
:1057A000900406008A0405008504050080040600B4
:1057B0007A04050075040500700405006B040500FB
:1057C00066040500610405005C040500570405003B
:1057D000520405004D04050048040500430405007B
:1057E0003E0404003A0405003504050030040400BA
:1057F0002C04050027040400230405001E040400F3
:105800001A04040016040500110404000D04040029
:10581000090405000404040000040400FC0304005F
:10582000F8030400F4030400F0030400EC03040094
:10583000E8030400E4030400E0030400DC030400C4
:10584000D8030400D4030400D0030400CC030400F4
:10585000C8030300C503030024F404D9201BC40CAF
:105860005C0E9804C4095F0265077101F405F90034
:10587000FB04B30048048700C103690058035500C6
:1058800003034500BE023A008402310053022A009D
:105890002902250004022000E4011C00C8011900AF
:1058A000AF0117009801140084011300710110006A
:1058B0006101100051010E0043010D0036010B0083
:1058C0002B010B0020010B00150109000C01090040
:1058D00003010800FB000800F3000800EB000700CC
:1058E000E4000600DE000600D8000600D200060034
:1058F000CC000500C7000500C2000500BD00040083
:10590000B9000400B5000400B1000400AD000400BB
:10591000A9000400A5000300A20003009F000400EA
:105920009B00030098000300950002009300030011
:10593000900003008D0002008B000300880002002D
:105940008600020084000300810002007F00020044
:105950007D0002007B000200790002007700010058
:105960007600020074000200720001007100020063
:105970006F0002006D0001006C0002006A0001006F
:105980006900020067000100660001006500010077
:10599000640002006200010061000100600001007B
:1059A0005F0002005D0001005C0001005B0001007F
:1059B0005A00010059000100580001005700010081
:1059C0005600010055000100540001005300000082
:1059D000530001005200010051000100500001007D
:1059E0004F0001004E0000004E0001004D0001007C
:1059F0004C0001004B0000004B0001004A00010078
:105A00004900010048000000480001004700010073
:105A1000460000004600010045000000450001006E
:105A20004400010043000000430001004200000068
:105A3000420001004100000041000100400001005F
:105A40003F0000003F0001003E0000003E0001005A
:105A50003D0000003D0001003C0000003C00000053
:105A60003C0001003B0000003B0001003A00000048
:105A70003A00010039000000390001003800000040
:105A80003800000038000100370000003700010036
:105A9000360000003600000036000100350000002E
:105AA0003500000035000100340000003400000023
:105AB0003400010033000000330000003300010017
:105AC000320000003200000032000100310000000E
:105AD0003100000031000100300000003000000003
