:100000000C9417360C9448360C9448360C944836A9
:100010000C9448360D94B62A0C9448360C947ACD3C
:100020000D94442A0C9448360C9448360C94483667
:100030000C94D46C0C9448360C94B9C70C944CAE08
:100040000C9448360C9403CE0C9448360C944836E5
:100050000C9448360C9448360C9448360D94B017DE
:100060000C9448360C941A730C9448360C94483609
:100070000C9448360C9448360C9448360C94483608
:100080000C9448360C9448360C9448360C944836F8
:100090000C94D6720C9448360C9448360C9448361E
:1000A0000C9448360C9448360C947C7A0C94483660
:1000B0000C9448360C945E7A0C9448360C9448366E
:1000C0000C9448360C9448360C9448360C94D579E8
:1000D0000C9448360C9448360C9448360C944836A8
:1000E0000C944836084AD73B3BCE016E84BCBFFD1A
:1000F000C12F3D6C74319ABD56833DDA3D00C77FF8
:1001000011BED9E4BB4C3E916BAAAABE0000008090
:100110003F05A84CCDB2D44EB93836A9020C50B91F
:10012000918688083CA6AAAA2ABE000000803F0744
:10013000634236B79BD8A71A39685618AEBAAB5582
:100140008C1D3CB7CC5763BD6DEDFD753EF6177247
:1001500031BF000000803F08000000BE9224491219
:100160003EABAAAA2ABECDCCCC4C3E00000080BE3D
:10017000ABAAAAAA3E00000000BF000000803F001A
:1001800000000000084178D3BB4387D1133D190E0E
:100190003CC3BD4282AD2B3E68EC8276BED98FE176
:1001A000A93E4C80EFFFBE01C4FF7F3F000000006E
:1001B00000000C9435B40C94BA390C940CDC0D94FA
:1001C00018180C94D4E70D9459860C94E4DB0D9424
:1001D00087420D941B4B0C9435630C94A0ED0C944A
:1001E000B3DB0C94B84C0C94DAED0C94D43D0C9425
:1001F0001F630C9462380C94FE460C94C93B0C941B
:10020000ADB80D946C020C94FA630C94D93D0D9426
:1002100021180C94B8370C941E4C0C94B2AF0C946B
:100220008A370C941A4A0D94E9170C9476360C947C
:10023000CA3D0C94A4550D9474860C9495360D9477
:1002400076020C94E33D0C9492550C94C7690C947F
:10025000BCAF0D9462860C94CF3D0C94D1690C9484
:10026000DA680C9477370C949D3A0D9408450C94F9
:10027000AC6A0C94F4DB0C9433370D94E1410C948C
:10028000BB3C0C94136A0D94D6860C94883A0C945B
:1002900090380C94B1360C94C1500C9460BB0C9403
:1002A000EFEC0C94ACB30C94774C0D94444A0C9442
:1002B000B1B80D9456180C9404DC0C949A370D9434
:1002C000F4170C947A360C94634C0C9472360D949B
:1002D000C3420C94A6490D94CC160C94E83D0D94A1
:1002E000F8B10C94026A0D94F3160C9475E70C9413
:1002F000234A0C9456370D94891A0C943B5D0D9447
:10030000C4860C94B4B40C942B3F0C94C85B0C942E
:10031000ECDB0C9485DB0D94EE430C946D4C0C944B
:1003200018B60C942B480C9417690C9483360C94D3
:10033000354C0C949A4C0D9498440C940E410C94AA
:10034000AD360C94A3360C94276A0C941DC00D9402
:10035000CD860C94C0360C94A4370C9451B80C94F0
:10036000864C0C9427E80C94EAEC0C943F4C0C94CB
:1003700095B70C94BDDB0C942B690C9406380C9447
:10038000FF5C0C9437690C94FCDB0C949B360C944A
:10039000A4B60C9493480C944CB80C9479510C94DA
:1003A0004EE70C94A1690C9416B30D945D450C9422
:1003B000E03E0C94A8360D94BB860C943EED0C9454
:1003C0009DB00C945F480C9443B20C94DE3D0C94A9
:1003D000DAC00C9424DC0C94B9690C94264C0C946F
:1003E0009F360C94BBED0C94B5B00C9488DB0C9448
:1003F0007D360C940F3B0C94C2DB0C943B570C9451
:10040000CD690C941F530C9450410C94B8DB0C94A0
:10041000985D0C94DFE70C949F680D94E4180C949D
:1004200020E70D9444180C94CCDB0C94F0480C9409
:100430001A550C94195A0C94A7B70C94BA460C94FC
:100440005F470C94494C0C94D23E0C94514C0C9444
:10045000A2380C94CC370C94A44C0C946DB60C942C
:1004600068360C948F3A0C94BB360D9468130C9438
:10047000DCAF0C940FE80C9414DC0D9416B20D94C0
:100480007F420D9402180C946E690C94BEE70C9494
:10049000963A0D94A0000C943FDB0D94E2860C94E8
:1004A000904C0C94114A0C94AE4C0C94C9E70C94EB
:1004B000E7390C9491360C9496AF0C94DCDB0C94D9
:1004C0001CDC0C94EE690C9485E70C948C5F0C9406
:1004D000594C0C94C4B80C941B380C94043D0C94E7
:1004E000883E0C949ABF0C944B490C948DDB0C9471
:1004F0003E370C94D4DB0D94C2410C942B4C0C94DD
:1005000087360C9472730C946EB30C94ED3D0C947E
:10051000A9B00C94FB680C94CDAF0C94F13D0C94F5
:1005200004E70D94BE860C94946A0C9416BB0C944C
:1005300023480D94D9860D94B2860C943CC00C943B
:1005400047B30D94DE100C94A43A0D948E4A0D948A
:10055000C1860C94E0370C948DE50D94F6410C9413
:1005600026380C9473410C948D360C94C8460C9428
:10057000B3E70D9425450C947FB80C946E360D941A
:1005800028420C94FA370C94A9360D9462020C940C
:10059000D0B50C9412390D94CF176E616E00696E50
:1005A00066004E414E494E495459494E46CDCCCC39
:1005B0003D0AD7233C17B7D13877CC2B329595E637
:1005C000241FB14F0A000020410000C84200401C17
:1005D0004620BCBE4CCA1B0E5AAEC59D7400407A64
:1005E00010F35A00A0724E18090010A5D4E80000BC
:1005F000E87648170000E40B54020000CA9A3B005A
:100600000000E1F505000080969800000040420FD0
:10061000000000A08601000000102700000000E894
:1006200003000000006400000000000A0000000059
:10063000000100000000002C76D888DC674F0823FA
:10064000DFC1DFAE59E1B1B796E5E3E453C63AE660
:1006500051997696E8E6C28426EB898C9B62ED4040
:100660007C6FFCEFBC9C9F40F2BAA56FA5F490058F
:100670005A2AF75C936B6CF9676DC11BFCE0E40DC3
:1006800047FEF520E6B500D0ED902E0300943577B7
:10069000050080841E080000204E0A000000C80CDF
:1006A000333333330F986E12831141EF8D21148948
:1006B0003BE65516CFFEE6DB18D1844B381BF77CA2
:1006C0001D901DA4BBE424203284725E228100C9E7
:1006D000F124ECA1E53D276364696E6F7073757852
:1006E000585B0050494E44412063616C69627261FD
:1006F00074696F6E206661696C65640050494E4490
:10070000412063616C6962726174696F6E20697304
:100710002066696E697368656420616E6420616338
:10072000746976652E2049742063616E20626520AD
:1007300064697361626C656420696E206D656E75B5
:100740002053657474696E67732D3E50494E444161
:100750002063616C2E0046696C2E2073656E736F8A
:1007600072004578747275646572004D6F7665200D
:100770005A004D6F76652059004D6F766520580000
:10078000437261736820646574656374696F6E2079
:1007900063616E0A6265207475726E6564206F6EA7
:1007A000206F6E6C7920696E0A4E6F726D616C20DD
:1007B0006D6F6465005741524E494E473A0A437285
:1007C00061736820646574656374696F6E0A646937
:1007D0007361626C656420696E0A537465616C7440
:1007E00068206D6F6465004175746F6C6F6164693A
:1007F0006E672066696C616D656E742061766169F3
:100800006C61626C65206F6E6C79207768656E2014
:1008100066696C616D656E742073656E736F7220AE
:100820006973207475726E6564206F6E2E2E2E00B3
:100830004552524F523A2046696C616D656E742084
:1008400073656E736F72206973206E6F74207265AA
:1008500073706F6E64696E672C20706C6561736570
:1008600020636865636B20636F6E6E656374696F88
:100870006E2E004D6F6465206368616E6765206948
:100880006E2070726F67726573732E2E2E00536820
:1008900065657420252E37730A5A206F6666736566
:1008A000743A20252B312E33666D6D0A2563436F14
:1008B0006E74696E75650A256352657365740050C0
:1008C0006C65617365206C6F61642066696C616D35
:1008D000656E742066697273742E003E43616E63A8
:1008E000656C0046696C616D656E740053656C657E
:1008F00063742066696C616D656E743A0052756E42
:100900006E696E672057697A6172642077696C6CD2
:100910002064656C6574652063757272656E742001
:1009200063616C6962726174696F6E207265737560
:100930006C747320616E64207374617274206672CB
:100940006F6D2074686520626567696E6E696E6799
:100950002E20436F6E74696E75653F005072656836
:10096000656174696E67206E6F7A7A6C652E2050AF
:100970006C6561736520776169742E004C6F6164EA
:10098000696E672066696C616D656E7400506C6598
:1009900061736520696E736572742066696C616D40
:1009A000656E7420696E746F207468652065787454
:1009B00072756465722C207468656E207072657340
:1009C0007320746865206B6E6F6220746F206C6F8B
:1009D00061642069742E00506C6561736520696ED6
:1009E000736572742066696C616D656E7420696EE2
:1009F000746F207468652066697273742074756200
:100A000065206F6620746865204D4D552C207468F4
:100A1000656E20707265737320746865206B6E6FED
:100A20006220746F206C6F61642069742E005468BA
:100A300065207072696E7465722077696C6C2073C2
:100A400074617274207072696E74696E67206120BF
:100A50007A69672D7A6167206C696E652E20526F06
:100A60007461746520746865206B6E6F6220756EAA
:100A700074696C20796F7520726561636820746891
:100A800065206F7074696D616C2068656967687452
:100A90002E20436865636B207468652070696374F9
:100AA0007572657320696E207468652068616E6474
:100AB000626F6F6B202843616C6962726174696F49
:100AC0006E2063686170746572292E0053656C65D1
:100AD00063742074656D70657261747572652077DA
:100AE00068696368206D61746368657320796F75E8
:100AF00072206D6174657269616C2E0053656C655E
:100B0000637420612066696C616D656E7420666F28
:100B10007220746865204669727374204C6179652F
:100B2000722043616C6962726174696F6E20616EDC
:100B3000642073656C65637420697420696E207429
:100B40006865206F6E2D73637265656E206D656ECE
:100B5000752E004E6F7720492077696C6C20636199
:100B60006C6962726174652064697374616E636537
:100B7000206265747765656E20746970206F6620E9
:100B8000746865206E6F7A7A6C6520616E64206887
:100B900065617462656420737572666163652E00B9
:100BA000596F752063616E20616C77617973207273
:100BB0006573756D65207468652057697A61726424
:100BC0002066726F6D2043616C6962726174696F37
:100BD0006E202D3E2057697A6172642E00506C653C
:100BE00061736520636865636B206F75722068614F
:100BF0006E64626F6F6B20616E642066697820742A
:100C000068652070726F626C656D2E205468656E29
:100C100020726573756D65207468652057697A6107
:100C20007264206279207265626F6F74696E6720EA
:100C3000746865207072696E7465722E00416C6C08
:100C400020697320646F6E652E2048617070792072
:100C50007072696E74696E672100496620796F75DC
:100C60002068617665206164646974696F6E616C87
:100C700020737465656C207368656574732C2063DC
:100C8000616C696272617465207468656972207054
:100C900072657365747320696E2053657474696E30
:100CA0006773202D204857205365747570202D20C0
:100CB000537465656C207368656574732E00506CA1
:100CC0006561736520636C65616E2068656174623F
:100CD000656420616E64207468656E20707265734F
:100CE0007320746865206B6E6F622E00446F2079EC
:100CF0006F752077616E7420746F20726570656106
:100D000074206C617374207374657020746F20722A
:100D10006561646A7573742064697374616E636578
:100D2000206265747765656E206E6F7A7A6C6520D7
:100D3000616E6420686561746265643F0053656C30
:100D4000656374206E6F7A7A6C6520707265686571
:100D500061742074656D7065726174757265207759
:100D600068696368206D61746368657320796F7565
:100D700072206D6174657269616C2E004973206622
:100D8000696C616D656E74206C6F616465643F00B1
:100D90004E6F7720492077696C6C207072656865AA
:100DA0006174206E6F7A7A6C6520666F7220504C89
:100DB000412E00492077696C6C2072756E207A2074
:100DC00063616C6962726174696F6E206E6F772EF9
:100DD000004E6F772072656D6F76652074686520B0
:100DE00074657374207072696E742066726F6D2002
:100DF000737465656C2073686565742E00506C654E
:100E00006173652072656D6F7665207368697070B7
:100E1000696E672068656C706572732066697273AD
:100E2000742E00492077696C6C2072756E20787979
:100E30007A2063616C6962726174696F6E206E6F93
:100E4000772E2049742077696C6C2074616B652063
:100E5000617070726F782E203132206D696E732E42
:100E60000046697273742C20492077696C6C20727B
:100E7000756E207468652073656C66746573742084
:100E8000746F20636865636B206D6F737420636F8C
:100E90006D6D6F6E20617373656D626C7920707219
:100EA0006F626C656D732E0048692C204920616D5E
:100EB00020796F7572204F726967696E616C20507E
:100EC00072757361206933207072696E7465722E59
:100ED00020576F756C6420796F75206C696B652085
:100EE0006D6520746F20677569646520796F752062
:100EF0007468726F756768207468652073657475AF
:100F0000702070726F636573733F0048692C2049CD
:100F100020616D20796F7572204F726967696E610B
:100F20006C205072757361206933207072696E7421
:100F300065722E20492077696C6C2067756964653D
:100F400020796F75207468726F75676820612073EF
:100F5000686F72742073657475702070726F63654A
:100F600073732C20696E20776869636820746865E4
:100F7000205A2D617869732077696C6C2062652036
:100F800063616C696272617465642E205468656E79
:100F90002C20796F752077696C6C206265207265F2
:100FA00061647920746F207072696E742E00452D13
:100FB000636F72726563743A005A2D636F72726563
:100FC00063743A00592D636F72726563743A005806
:100FD0002D636F72726563743A0043757474657241
:100FE000004D6F64656C00537472696374005761DF
:100FF000726E00436865636B73004E6F7A7A6C653E
:1010000020642E004E6F6E6500416C7068616265F1
:10101000740054696D6500536F727400534420630B
:101020006172640052506920706F7274004C696E76
:101030002E20636F7272656374696F6E004857206B
:10104000536574757000462E206175746F6C6F6106
:10105000640044697361626C6520737465707065C7
:101060007273004D6F766520617869730054656D09
:1010700070657261747572650050494E4441206319
:10108000616C2E0052657365742058595A20636153
:101090006C6962722E005049442063616C6962720F
:1010A0006174696F6E00426564206C6576656C20C2
:1010B000636F7272656374004D6573682042656486
:1010C000204C6576656C696E670043616C6962727D
:1010D000617465205A0043616C69627261746520B5
:1010E00058595A0053656C66746573740042656C98
:1010F0007420746573740057697A617264004C6F70
:10110000616420616C6C00506C6561736520707562
:101110006C6C206F75742066696C616D656E7420EF
:10112000696D6D6564696174656C7900556E6C6F8D
:101130006164696E672066696C616D656E740052EA
:10114000657365740052656E616D65004669727302
:1011500074206C617965722063616C2E0053656C3C
:1011600065637400537465656C207368656574739A
:1011700000537570706F7274004661696C207374EF
:10118000617473204D4D55004661696C2073746124
:101190007473005374617469737469637300436199
:1011A0006C6962726174696F6E004175746F4C6F27
:1011B00061642066696C616D656E740043757420AE
:1011C00066696C616D656E7400456A65637420665E
:1011D000696C616D656E7400556E6C6F616420663C
:1011E000696C616D656E74004C6F616420746F2072
:1011F0006E6F7A7A6C65004C6F61642066696C6111
:101200006D656E74004E6F205344206361726400FC
:101210005072696E742066726F6D2053440052657F
:1012200073756D65207072696E74005061757365B9
:10123000207072696E740054756E65005072656836
:10124000656174004C6976652061646A7573742009
:101250005A00496E666F2073637265656E00466959
:101260006E697368696E67206D6F76656D656E7403
:1012700073004272696768746E65737300417373BB
:101280006973740053696C656E74004F6E6365001A
:101290004C6F756400536F756E64004D4D55204D55
:1012A0006F6465004372617368206465742E005337
:1012B0007465616C7468004E6F726D616C0046619C
:1012C0006E7320636865636B0050617573650043DE
:1012D0006F6E742E00465320416374696F6E004632
:1012E000696C2E2073656E736F72004368616E6760
:1012F000652066696C616D656E7400466C6F770081
:101300005370656564004E2F41004D61676E6574D2
:101310007320636F6D702E005A2D70726F6265209E
:101320006E722E004D6573680054696D656F75743B
:101330000044696D00427269676874004175746F9A
:10134000004D6F6465004C6576656C2044696D6D79
:101350006564004C6576656C20427269676874004C
:1013600046616E20737065656400426564004E6F6F
:101370007A7A6C650053657474696E677300507295
:10138000696E742061626F727465640053746F706B
:10139000207072696E7400436865636B696E6720C4
:1013A00066696C650046696C6520696E636F6D7077
:1013B0006C6574652E20436F6E74696E756520616F
:1013C0006E797761793F00045265667265736800D3
:1013D0004D61696E00496E73657274207468652092
:1013E00066696C616D656E742028646F206E6F7421
:1013F000206C6F61642069742920696E746F207499
:10140000686520657874727564657220616E642009
:101410007468656E20707265737320746865206BE4
:101420006E6F622E00566572696669636174696FDA
:101430006E206661696C65642C2072656D6F7665DF
:10144000207468652066696C616D656E7420616EDC
:10145000642074727920616761696E2E0053656E35
:10146000736F722076657269666965642C20726597
:101470006D6F7665207468652066696C616D656E58
:1014800074206E6F772E00506C6561736520636801
:1014900065636B207468652049522073656E736FB5
:1014A0007220636F6E6E656374696F6E2C20756E4B
:1014B0006C6F61642066696C616D656E742069662D
:1014C0002070726573656E742E00506C6561736573
:1014D00020756E6C6F6164207468652066696C614C
:1014E0006D656E742066697273742C207468656E05
:1014F000207265706561742074686973206163741B
:10150000696F6E2E0057616974696E6720666F722D
:10151000206E6F7A7A6C6520616E6420626564204B
:10152000636F6F6C696E670053656C6620746573DA
:1015300074204F4B0053656C662074657374207380
:1015400074617274005072696E742066616E3A0044
:1015500045787472756465722066616E3A00436105
:101560006C6962726174696E6720686F6D650041B5
:101570006C6C20636F727265637400436865636BA3
:10158000696E672073656E736F727300436865637D
:101590006B696E6720686F74656E6400436865638D
:1015A0006B696E672062656400436865636B696E92
:1015B00067205A206178697300436865636B696EC0
:1015C000672059206178697300436865636B696EB1
:1015D000672058206178697300436865636B696EA2
:1015E0006720656E6473746F70730043617264206A
:1015F00072656D6F766564004F6E004F66660042DF
:1016000061636B005072696E746572206E6F7A7AD6
:101610006C65206469616D657465722064696666D5
:101620006572732066726F6D2074686520472D6344
:101630006F64652E20506C65617365206368656317
:101640006B207468652076616C756520696E207307
:10165000657474696E67732E205072696E742063AE
:10166000616E63656C6C65642E005072696E7465A2
:1016700072206E6F7A7A6C65206469616D6574653D
:101680007220646966666572732066726F6D20747D
:10169000686520472D636F64652E20436F6E746903
:1016A0006E75653F004D4B3353206669726D7761EF
:1016B0007265206465746563746564206F6E204D87
:1016C0004B33207072696E74657200426C61636B9B
:1016D0006F7574206F636375727265642E20526536
:1016E000636F766572207072696E743F0053656C2B
:1016F00066746573742077696C6C206265207275FE
:101700006E20746F2063616C696272617465206120
:10171000636375726174652073656E736F726C6557
:101720007373207265686F6D696E672E005468650B
:101730007265206973207374696C6C2061206E651A
:10174000656420746F206D616B65205A2063616C45
:101750006962726174696F6E2E20506C6561736589
:1017600020666F6C6C6F7720746865206D616E7594
:10177000616C2C20636861707465722046697273B5
:10178000742073746570732C2073656374696F6E55
:101790002043616C6962726174696F6E20666C6F60
:1017A000772E005072696E74657220686173206EC6
:1017B0006F74206265656E2063616C69627261742A
:1017C0006564207965742E20506C656173652066B0
:1017D0006F6C6C6F7720746865206D616E75616CDD
:1017E0002C2063686170746572204669727374207E
:1017F00073746570732C2073656374696F6E204316
:10180000616C6962726174696F6E20666C6F772EAD
:10181000004F6C642073657474696E677320666F23
:10182000756E642E2044656661756C742050494461
:101830002C20457374657073206574632E2077695E
:101840006C6C206265207365742E005761726E693E
:101850006E673A20626F7468207072696E74657288
:10186000207479706520616E64206D6F7468657294
:10187000626F6172642074797065206368616E675D
:1018800065642E005761726E696E673A20707269E6
:101890006E7465722074797065206368616E676527
:1018A000642E005761726E696E673A206D6F7468BE
:1018B0006572626F6172642074797065206368611B
:1018C0006E6765642E0050494E44412063616C6927
:1018D00062726174696F6E206661696C65642E2046
:1018E000436F6E74696E75652077697468207072D5
:1018F000657373696E6720746865206B6E6F622E06
:101900000050494E44412063616C696272617469A0
:101910006F6E20646F6E652E20436F6E74696E75F6
:10192000652077697468207072657373696E6720CB
:10193000746865206B6E6F622E007B5B4552523A75
:1019400000332E31312E30005D5B4657523A005D38
:101950005B54494D3A005D5B464E4D3A005D5B4637
:10196000454D3A005D5B5043443A005B5446553A5E
:10197000007B5B50524E3A39395D007B5B50524ED2
:101980003A355D007B5B50524E3A305D007B5B50D8
:10199000524E3A395D007B5B50524E3A385D007BC7
:1019A0005B5245533A305D5B46494C3A007B5B5293
:1019B00045533A315D5B46494C3A005B50524E3AD2
:1019C000005B50464E3A305D005B4449413A005D51
:1019D0005B4154423A005D5B4154303A005D5B53D9
:1019E00054423A005B5354303A00473830004D348B
:1019F00035004D3435205A004737360057697A6133
:101A000072642073746174653A2025640A00457815
:101A1000706572696D656E74616C004673656E7396
:101A20006F7220446574656374696F6E00446973F6
:101A300061626C65206661726D206D6F6465004D3A
:101A40003834004D343400473238205700200A2003
:101A50000A20004739390044697361626C65206669
:101A600061726D206D6F64653F004D363030004D02
:101A7000203834004D3834004D3234004D3233209C
:101A8000257300052E2E00257500593A2025752056
:101A90002D3E202E2E2E00257500583A202575202B
:101AA0002D3E202E2E2E004D6561737572656420CB
:101AB00066696C616D656E742073656E736F7220FC
:101AC0006C6F77206C6576656C3A2025342E326613
:101AD000560A004D656173757265642066696C61B4
:101AE0006D656E742073656E736F722068696768C8
:101AF000206C6576656C3A2025342E3266560A00D5
:101B0000457874722066616E2073706565643A2052
:101B100025640A005072696E742066616E207370CD
:101B20006565643A2025640A005465737420323A6E
:101B300000457874722066616E2073706565643A42
:101B40002025640A005072696E742066616E2073ED
:101B5000706565643A2025640A0054657374203109
:101B60003A004D38340025632041584953205347EB
:101B7000313D25640A00486F74656E6400426564F7
:101B8000005A00590058002D2D2D2D2D2D2D2D2DB5
:101B90002D2D2D2D2D2D2D2D2D2D2D004F4B0000BC
:101BA00000000000110A04435A5058496E76616CD7
:101BB000696453657269616C4E720062657461009C
:101BC000616C706861006465760003000B000000C2
:101BD0005B135052555341334446570000002100D7
:101BE000240027002A002D003000330001010000EE
:101BF000040107010A0100002200250028002B0033
:101C00002E003100340002010000050108010B0123
:101C1000000020002300260029002C002F003200A5
:101C2000000100000301060109010505050507057E
:101C300008080808020202020A0A08080404040448
:101C40000101010101010101030303030303030374
:101C5000040707070C0C0C0C0C0C0C0C0202020203
:101C600006060606060606060B0B0B0B0B0B0B0BEC
:101C700007070A0A0A0A0A0A0505050404040808EF
:101C8000010210202008081020401020408002018E
:101C90000201080402010102040810204080804073
:101CA0002010080402018004020180402010080472
:101CB0000201080402010102040810204080010210
:101CC00004081020408010080408801020400440C0
:101CD00080102040048000000A0B02090C0D0E0841
:101CE00007030401000000000000000000000000E5
:101CF00000000000000000000000000000000000E4
:101D000000001211100000000000000000000000A0
:101D100000000000000000000000000000000000C3
:101D2000000000000000000000000000435A50586E
:101D3000003B53006164635F696E6974000A204F61
:101D4000726967696E616C205072757361206933C6
:101D50000A2020205072757361205265736561728C
:101D6000636800200A200A200A2000416C6C20448D
:101D70006174610053657276696365207072657085
:101D8000005368697070696E6720707265700053E7
:101D9000746174697374696373004C616E67756113
:101DA00067650045524153494E4720616C6C206481
:101DB00061746100466163746F72792052455345C6
:101DC000540044495341424C454400454E41424C25
:101DD000454400202873656E736F7220626F6172D4
:101DE00064207265766973696F6E3A2553290A001B
:101DF0004653656E736F7220255300494E5434006C
:101E00004D4B33534D4D553253004E4F4D4B335385
:101E10000004004E4F4354554100414C5446414E3E
:101E2000004D6179203138203230323200436F6DFD
:101E300070696C65643A2000286E6F6E652C2064B2
:101E4000656661756C7420636F6E66696729004D05
:101E5000617920313820323032322032313A343810
:101E60003A32310020332E31312E302D3439353590
:101E700000737461727400534E20757064617465F0
:101E8000206661696C656400534E207570646174EE
:101E9000656400435A505800416E206572726F723B
:101EA000207768696C652077726974696E67207441
:101EB0006F2074686520534420436172642E0020B3
:101EC00055706C6F616420696E2070726F67726507
:101ED000737300205A3A0020593A0020583A0043C0
:101EE000524153485F444554454354454458590072
:101EF00043524153485F4445544543544544590077
:101F000043524153485F4445544543544544580067
:101F10004D323900202030002020310046494E4407
:101F2000410050494E44410057697A61726420650E
:101F30006E642073746174653A2025640A005370DE
:101F40006F6F6C4A6F696E004669726D776172657A
:101F500000466C617368416972004572723A2050A4
:101F600052494E542046414E204552524F52004550
:101F700072723A20455854522E2046414E20455206
:101F8000524F52002F2F20616374696F6E3A706157
:101F900075736564002F2F20616374696F6E3A72E8
:101FA0006573756D6564002F2F20616374696F6EB2
:101FB0003A726573756D65002F2F20616374696FC8
:101FC0006E3A63616E63656C0041786973206C657D
:101FD0006E67746820646966666572656E63653AEB
:101FE000252E33660A004D65617375726564206144
:101FF000786973206C656E6774683A252E33660ABB
:10200000004C434420737461747573206368616E7F
:1020100067656400534420636172642072656C6577
:10202000617365640046616B652073657269616CFC
:10203000206E756D62657200452D636F6F6C206D4B
:102040006F646500414C5446414E206465742E0017
:1020500045787465726E616C2053504920666C61DE
:1020600073680A58464C415348206973206E6F7458
:10207000207265732D0A706F6E64696E672E204C36
:10208000616E67756167650A737769746368207547
:102090006E617661696C61626C652E0046572063E3
:1020A0007261736820646574656374656421205986
:1020B0006F752063616E20636F6E74696E75652045
:1020C0007072696E74696E672E2044656275672050
:1020D0006461746120617661696C61626C6520661F
:1020E0006F7220616E616C797369732E20436F6E1D
:1020F0007461637420737570706F727420746F20D4
:102100007375626D69742064657461696C732E0007
:102110002F2F20616374696F6E3A64756D705F6113
:102120007661696C61626C650050727573612069DB
:1021300033204D4B3353204F4B2E00437261736855
:1021400044657465637420454E41424C454421000A
:1021500043726173684465746563742044495341F4
:10216000424C45440045787472756465722066611E
:102170006E20747970653A200058464C41534820CF
:102180006E6F7420726573706F6E64696E672E0077
:102190002020506C616E6E65724275666665724293
:1021A000797465733A20002046726565204D656D2F
:1021B0006F72793A2000207C20417574686F723A02
:1021C0002000204C61737420557064617465643A1A
:1021D000200020536F6674776172652052657365C5
:1021E0007400205761746368646F6720526573657B
:1021F00074002042726F776E206F75742052657381
:102200006574002045787465726E616C2052657348
:10221000657400506F7765725570006572726F72E9
:102220002077726974696E6720746F2066696C65C7
:1022300000656E6473746F7073206869743A20006F
:10224000446F6E6520736176696E672066696C65A0
:102250002E006F6B00555341525432207278204645
:10226000756C6C2121210053657474696E6773204D
:1022700053746F7265640053746F72656420736584
:102280007474696E677320726574726965766564CB
:102290000048617264636F646564204465666175BB
:1022A0006C742053657474696E6773204C6F61643D
:1022B000656400563200000000C8420000C84200B9
:1022C00000C84300008C430000484300004843001E
:1022D0000040410000F042E8030000E8030000C8AD
:1022E0000000008813000000409C4400409C440013
:1022F00000000000000000204E000000002041000F
:10230000002041CDCCCC3E000090400000000000F9
:1023100000000000000000CDCCCC3E3D0A8141FF12
:1023200008433EB099AB438F42FC42E65A343F4CDF
:1023300062B0450000000000404000003442000050
:1023400000000000000000000041000000E03F002D
:1023500000C8420000C842000040410000F042C0F6
:10236000030000C0030000C8000000881300001034
:1023700010102000409C44454550524F4D2045725E
:10238000726F7200627573793A207061757365645B
:1023900020666F7220696E70757400627573793A89
:1023A0002070617573656420666F72207573657245
:1023B00000627573793A2070726F63657373696E2A
:1023C000670000007F430080544300005243000038
:1023D0000000000080C09A99193E00000000000033
:1023E00080C09A99193E0000A0400000A040000063
:1023F000004025336420737465703D253264206D80
:1024000073636E743D2534640A0000007F430080CE
:1024100058439AD95143FFFFFF20413A0020503AD8
:10242000002042403A0020403A00202F0020540073
:10243000202F0020423A00202F00543A00206D69DE
:1024400063726F6E73004578636573736976652098
:10245000626564206C6576656C696E6720636F7277
:1024600072656374696F6E3A2000426564206C6522
:1024700076656C696E67206661696C65642E2053B1
:10248000656E736F72207472696767657265642028
:10249000746F6F20686967682E00426564206C6500
:1024A00076656C696E67206661696C65642E205381
:1024B000656E736F7220646973636F6E6E656374AB
:1024C0006564206F72206361626C652062726F6B5D
:1024D000656E2E0020453A00205A3A0020593A00F5
:1024E00020453A00205A3A0020593A00583A0067ED
:1024F000636F64655F4D37303120626567696E0ACE
:1025000000416476616E6365204B3D004B206F7522
:1025100074206F6620616C6C6F7765642072616EE9
:10252000676521001F1F1F1F1F1F1F1F200A200A72
:1025300020004D3232302053256900255346696C06
:10254000616D656E742073657474696E67733A208B
:1025500044697361626C65640A00255346696C6165
:102560006D656E742073657474696E67733A0A25BD
:10257000532020204D3230302044252E32660A0070
:102580002553526574726163743A20533D4C656EF5
:1025900067746820286D6D2920463A53706565641C
:1025A00020286D6D2F6D29205A3A205A4C69667487
:1025B00020286D6D290A25532020204D32303720E8
:1025C00053252E32662046252E3266205A252E327D
:1025D000660A25535265636F7665723A20533D450E
:1025E00078747261206C656E67746820286D6D293F
:1025F00020463A537065656420286D6D2F6D290A59
:1026000025532020204D3230382053252E3266208D
:1026100046252E32660A25534175746F2D52657416
:10262000726163743A20533D3020746F2064697383
:1026300061626C652C203120746F20696E74657244
:102640007072657420657874727564652D6F6E6C38
:1026500079206D6F76657320617320726574726185
:10266000637473206F72207265636F76657269653B
:10267000730A25532020204D323039205325640A17
:102680000025535049442068656174626564207375
:10269000657474696E67733A0A25532020204D33A0
:1026A00030342050252E32662049252E32662044B3
:1026B000252E32660A0025535049442073657474F0
:1026C000696E67733A0A25532020204D333031203C
:1026D00050252E32662049252E32662044252E3282
:1026E000660A0025535374657073207065722075F7
:1026F0006E69743A0A255320204D39322058252E10
:1027000032662059252E3266205A252E3266204503
:10271000252E32660A2553555374657020726573F1
:102720006F6C7574696F6E3A200A2553204D3335EE
:10273000302058256420592564205A2564204525D9
:10274000640A25534D6178696D756D206665656411
:102750007261746573202D206E6F726D616C20281C
:102760006D6D2F73293A0A255320204D32303320C6
:1027700058252E32662059252E3266205A252E32B3
:10278000662045252E32660A25534D6178696D75A0
:102790006D20666565647261746573202D207374A5
:1027A00065616C746820286D6D2F73293A0A255372
:1027B00020204D3230332058252E32662059252EC8
:1027C0003266205A252E32662045252E32660A258D
:1027D000534D6178696D756D20616363656C6572D9
:1027E0006174696F6E202D206E6F726D616C202890
:1027F0006D6D2F7332293A0A255320204D32303126
:102800002058256C752059256C75205A256C75202B
:1028100045256C750A25534D6178696D756D20618C
:102820006363656C65726174696F6E202D207374CB
:1028300065616C746820286D6D2F7332293A0A2502
:102840005320204D3230312058256C752059256C8D
:1028500075205A256C752045256C750A25534163F2
:1028600063656C65726174696F6E3A20503D707279
:10287000696E742C20523D726574726163742C20F1
:10288000543D74726176656C0A255320204D3230B8
:10289000342050252E32662052252E3266205425B3
:1028A0002E32660A2553416476616E636564207634
:1028B00061726961626C65733A20533D4D696E20A7
:1028C000666565647261746520286D6D2F73292CAF
:1028D00020543D4D696E2074726176656C2066658A
:1028E00065647261746520286D6D2F73292C2042F8
:1028F0003D6D696E696D756D207365676D656E748C
:102900002074696D6520286D73292C20583D6D61F8
:1029100078696D756D205859206A65726B20286D35
:102920006D2F73292C20205A3D6D6178696D756D6E
:10293000205A206A65726B20286D6D2F73292C2018
:1029400020453D6D6178696D756D2045206A657221
:102950006B20286D6D2F73290A255320204D3230AE
:10296000352053252E32662054252E3266204225EE
:102970002E32662058252E32662059252E326620AA
:102980005A252E32662045252E32660A2553486F79
:102990006D65206F666673657420286D6D293A0A2F
:1029A000255320204D3230362058252E32662059AE
:1029B000252E3266205A252E32660A0046256420CE
:1029C00025640A004D4D55203C3D202746256420B6
:1029D0002564270A004361703A25533A25630A00AB
:1029E000455854454E4445445F4D3230004155549E
:1029F0004F5245504F52545F504F534954494F4ED8
:102A0000004155544F5245504F52545F46414E532A
:102A1000004155544F5245504F52545F54454D500C
:102A200000005A30005A31005930005931005830F6
:102A300000583100456E642073746F7073206469B0
:102A400061670044656C6574696F6E206661696CCE
:102A500065642C2046696C653A200046696C6520E7
:102A600064656C657465643A004E6F74205344204D
:102A70007072696E74696E67005072696E7420734B
:102A800061766564005344207072696E74207061D1
:102A900075736564004F4B004241440052414D4202
:102AA0006F2046414E200043524153485F43414E00
:102AB00043454C0043524153485F5245434F5645AE
:102AC000520043524153485F5245434F56455200CE
:102AD00022283229004475706C6963617465205442
:102AE0002D636F64652069676E6F7265642E00499F
:102AF0006E76616C6964205420636F64652E002CCF
:102B0000204D39303720452069676E6F726564004B
:102B10006E6F2076616C696420636F6D6D616E64A9
:102B2000002C20002C20002C20006E2F61002C2077
:102B3000002C20002C20006E2F6100503A005761BD
:102B4000697420666F722050494E4441207461724E
:102B50006765742074656D70657261747572653A2D
:102B6000004155544F004C414E472053454C2046A0
:102B70004F5243454400256925250A00256925252E
:102B80000A00222831290030303030303030302DEA
:102B9000303030302D303030302D303030302D303E
:102BA0003030303030303030303030002055554902
:102BB000443A0031002045585452554445525F4331
:102BC0004F554E543A005072757361206933204D51
:102BD0004B335300204D414348494E455F545950B3
:102BE000453A00312E3000206261736564206F6EBB
:102BF000204D61726C696E204649524D57415245D5
:102C00005F55524C3A68747470733A2F2F67697429
:102C10006875622E636F6D2F707275736133642FE8
:102C200050727573612D4669726D776172652050BF
:102C3000524F544F434F4C5F56455253494F4E3AB3
:102C4000004649524D574152455F4E414D453A501D
:102C5000727573612D4669726D7761726520004DE2
:102C600031313320530020423A0020453A00543A93
:102C7000006F6B20006E2F61003F546F73686962B4
:102C80006120466C617368416972204765744950E0
:102C9000206661696C65640A002569206D696E2C87
:102CA0002025692073656300496E76616C69642034
:102CB0004D20636F64653A2025730A004D65736883
:102CC00020626564206C6576656C696E67206E6F46
:102CD00074206163746976652E002020000A4D65BA
:102CE00061737572656420706F696E74733A000A5F
:102CF0005A20736561726368206865696768743A11
:102D000020004E756D20582C593A200050494E44F1
:102D1000412070726F62652063616C6962726174D8
:102D2000696F6E20737461727400473238205730B7
:102D3000004E6F2050494E444120746865726D69A1
:102D400073746F7200736574006E6F7A7A6C6500CD
:102D50004D424C0046520042656174004C7A004C72
:102D6000616E67005265760046697200534E2069B5
:102D70006E76616C696400534E004D3238006676A1
:102D8000005245534554004D4D55524553004D3268
:102D9000340075766C6F007468780046414E0046CA
:102DA000414E50494E5453540050524E0050696E9B
:102DB00067005052555341005345545F43484F50AC
:102DC0005F005345545F535445505F005345545F73
:102DD000574156455F00544D435F004352415348AD
:102DE0005F43414E43454C0043524153485F524577
:102DF000434F5645520043524153485F4445544562
:102E0000435445440043524153485F004D31200034
:102E10004D30004D31313700537769706520746F44
:102E2000206C6F67696E0050727573612069332082
:102E30004661626D616E00536F6D652070726F62E6
:102E40006C656D20656E636F756E74657265642C5C
:102E5000205A2D6C6576656C696E6720656E666FAD
:102E600072636564202E2E2E00472D636F646520EB
:102E7000736C6963656420666F72206120646966A3
:102E8000666572656E74206C6576656C2E20436F86
:102E90006E74696E75653F00472D636F64652073BE
:102EA0006C6963656420666F722061206469666680
:102EB0006572656E74206C6576656C2E20506C654D
:102EC0006173652072652D736C6963652074686534
:102ED000206D6F64656C20616761696E2E20507291
:102EE000696E742063616E63656C6C65642E004767
:102EF0002D636F646520736C6963656420666F720F
:102F00002061206E65776572206669726D776172E7
:102F1000652E20506C656173652075706461746501
:102F200020746865206669726D776172652E205025
:102F300072696E742063616E63656C6C65642E00EB
:102F4000472D636F646520736C6963656420666FE9
:102F5000722061206E65776572206669726D776197
:102F600072652E20436F6E74696E75653F00472D44
:102F7000636F646520736C6963656420666F72209B
:102F80006120646966666572656E74207072696E30
:102F900074657220747970652E20436F6E74696E4B
:102FA00075653F00472D636F646520736C696365C9
:102FB0006420666F72206120646966666572656E62
:102FC00074207072696E74657220747970652E2039
:102FD000506C656173652072652D736C6963652043
:102FE000746865206D6F64656C20616761696E2E21
:102FF000205072696E742063616E63656C6C6564E9
:103000002E00537769706520746F206C6F67696E4E
:10301000005072757361206933204661626D616E84
:10302000005072696E746572206973206F75742028
:103030006F66206F726465722E0053776970652029
:10304000746F206C6F67696E0050727573612069D0
:1030500033204661626D616E00596F752061726543
:10306000206E6F7420616C6C6F77656420746F20C4
:103070007573652074686973207072696E74657207
:10308000206F757473696465206F70656E696E6713
:1030900020686F7572732E00537769706520746FA6
:1030A000206C6F67696E0050727573612069332000
:1030B0004661626D616E00596F7520646F206E6F9E
:1030C0007420686176652072657175697265642027
:1030D000747261696E696E6720636F7572736521C2
:1030E0002100537769706520746F206C6F67696E7B
:1030F000005072757361206933204661626D616EA4
:1031000000596F7520646F206E6F7420686176655A
:1031100020616374697665207061636B6167652EF9
:1031200020506C6561736520627579206F6E652E25
:1031300000537769706520746F206C6F67696E004B
:103140005072757361206933204661626D616E0053
:10315000536F7272792C204920616D206E6F74203C
:103160006F6E6C696E65207269676874206E6F7728
:103170002E20506C6561736520747279206D652016
:103180006C617465722E005570646174696E67209D
:10319000464D2066772E2E0050727573612069337C
:1031A000204661626D616E005072657373207468B1
:1031B00065206B6E6F6220746F2070726568656148
:1031C00074206E6F7A7A6C6520616E6420636F6E16
:1031D00074696E75652E00506C6561736520707240
:1031E00065737320746865206B6E6F6220746F2046
:1031F000756E6C6F61642066696C616D656E7400DC
:1032000052656D6F7665206F6C642066696C616DC8
:10321000656E7420616E64207072657373207468CB
:1032200065206B6E6F6220746F20737461727420FE
:103230006C6F6164696E67206E65772066696C618A
:103240006D656E742E00616E6420707265737320FC
:10325000746865206B6E6F6200496E7365727420CE
:1032600066696C616D656E7400436F6C6F72206E81
:103270006F7420636F72726563740046696C616D70
:10328000656E74206E6F74206C6F616465640043BA
:1032900068616E67656420636F72726563746C79D0
:1032A0003F004C6F6164696E6720636F6C6F7200E2
:1032B0004368616E6765207375636365737321008E
:1032C000506C65617365206F70656E2069646C6514
:1032D0007220616E642072656D6F76652066696C20
:1032E000616D656E74206D616E75616C6C792E0018
:1032F0005761732066696C616D656E7420756E6CC4
:103300006F6164207375636365737366756C3F00EA
:10331000506C6561736520757067726164652E001D
:103320004E6577206669726D776172652076657289
:1033300073696F6E20617661696C61626C653A00D9
:1033400057616974696E6720666F722050494E44F8
:10335000412070726F626520636F6F6C696E6700E9
:1033600043726173682064657465637465642E20BC
:10337000526573756D65207072696E743F0043729B
:103380006173682064657465637465642E005365B9
:103390006C6563742065787472756465723A004E6A
:1033A0006F206D6F76652E00537461626C652061CD
:1033B0006D6269656E742074656D70657261747597
:1033C00072652032312D323643206973206E656577
:1033D0006465642061207269676964207374616E3A
:1033E000642069732072657175697265642E00507E
:1033F0006C656173652072756E2058595A2063613F
:103400006C6962726174696F6E2066697273742E82
:10341000005761697420666F7220757365722E2E75
:103420002E00256C7520627974657320777269743B
:1034300074656E20746F202553206174206164646C
:10344000726573732030782530346C780A00442517
:1034500064202D20526561642F57726974652025A0
:10346000530A0020436F756E7420583A200045308F
:103470003A25642052504D2050524E313A25642056
:1034800052504D204530403A25752050524E314023
:103490003A25640A0064756D7020636C656172651D
:1034A000640A006E6F2064756D7020617661696CCE
:1034B00061626C650A00443231202D2072656164BE
:1034C0002063726173682064756D700A006E6F20EE
:1034D00064756D7020617661696C61626C650A006B
:1034E00064756D7020636F6D706C657465642069C0
:1034F0006E20256C756D730A0058464C4153480088
:10350000454550524F4D005352414D00442D3120FE
:103510002D20456E646C657373206C6F6F700A00AC
:103520005344207072696E74696E672062797465A5
:10353000200041637469766520457874727564650E
:10354000723A2000496E76616C6964206578747205
:1035500075646572005A204F666673657400556E17
:103560006B6E6F776E20636F6D6D616E643A2022B3
:10357000004D32303020496E76616C696420657888
:1035800074727564657220007A5F6D61783A20000C
:103590007A5F6D696E3A2000795F6D61783A20003C
:1035A000795F6D696E3A2000785F6D61783A20002E
:1035B000545249474745524544006F70656E007844
:1035C0005F6D696E3A20005265706F7274696E6744
:1035D00020656E6473746F7020737461747573000A
:1035E00053494C454E54004E4F524D414C002553CB
:1035F000204D4F44453A2050657263656E742064D7
:103600006F6E653A20256868643B207072696E743D
:103610002074696D652072656D61696E696E6720E1
:10362000696E206D696E733A2025643B20436861A2
:103630006E676520696E206D696E733A2025640A95
:1036400000456E642066696C65206C697374004285
:103650006567696E2066696C65206C6973740055D6
:103660006E6B6E6F776E20256320636F64653A2002
:1036700025730A000A50494E44412074656D7065F7
:103680007261747572653A20252E3166205A207356
:103690006869667420286D6D293A20252E336600EE
:1036A0000A537465703A2025642F360A000A537451
:1036B00065703A2025642F362028736B6970706519
:1036C00064290A50494E44412074656D70657261E9
:1036D000747572653A202564205A2073686966748F
:1036E00020286D6D293A300A000A5A45524F3A2077
:1036F000252E33660A0073746172742074656D70D0
:10370000657261747572653A20252E31660A00254E
:10371000642020252E326600255320583A20252E7D
:10372000356620593A20252E3566205A3A20252E16
:1037300035660A00536C6565702E2E2E0045303AB2
:1037400025642052504D0A50524E303A2564205282
:10375000504D0A00256400526573656E6400255360
:103760003A20256C640A25530A0047312058352E2B
:10377000302045342E302046313030302E30004756
:1037800031205A302E32302046313030302E300049
:103790004731205835352E302045323520463134DA
:1037A00030302E3000473120592D322E3020463116
:1037B0003030302E3000473120583234302E302017
:1037C0004532352E30202046323230302E30004700
:1037D00039322045302E30004731205A302E3320E8
:1037E00046313030302E30004731205835352E30BC
:1037F0002045382E302046323030302E30004731D0
:103800002058352E30204533322E30204631383086
:10381000302E30004731205835352E302045333298
:103820002E302046313037332E3000473120463499
:10383000303030004D32303420533130303000479A
:1038400031205A352046373230302E303030004764
:103850003120452D312E3530303030204632313058
:10386000302E3030303030004D38330047393000A2
:10387000473231004739322045302E300047312061
:10388000583530205935352045332E3632373733C9
:103890000047312058323030205935352045302E00
:1038A00034393338360047312058323030205937D8
:1038B000352045332E3632373733004731205835DF
:1038C00030205937352045302E34393338360047CB
:1038D0003120583530205939352045332E3632378E
:1038E00037330047312058323030205939352045A0
:1038F000302E3439333836004731205832303020BA
:10390000593131352045332E363237373300473180
:103910002058353020593131352045302E34393357
:10392000383600473120583530205931333520455D
:10393000332E36323737330047312058323030207B
:10394000593133352045302E363631373400473142
:10395000205832303020593135352045322E36321C
:103960003737330047312058313030205931353521
:103970002045320047312058373520593135352020
:1039800045322E350047312046313038300047313E
:10399000205A302E3135302046373230302E3030FC
:1039A00030004731205835302059313535004739FE
:1039B000322045302E3000473238004D313039004A
:1039C0004D313930004D3130370077323578323073
:1039D000636C5F63666D0A00773235783230636CF2
:1039E0005F656E7465720A0073746172740A0024F4
:1039F000F4D43050C38E20C2A24017828B701112B3
:103A00007A910D816CD90AA861E108C758660761EF
:103A10005143061E4B5D05C145A7041A4111040917
:103A20003D9803713931034036DB0265339102D48E
:103A3000305402802E1D02632CEE01752AC501B0A0
:103A400028A001102781018F2564012B244B01E060
:103A5000223401AC211F018D200D01801FFC008448
:103A60001EED00971DDF00B81CD200E61BC600202B
:103A70001BBC00641AB200B219A8000A19A0006A9F
:103A8000189900D117910040178B00B516840031AA
:103A9000167E00B31579003A157300C7146F0058ED
:103AA000146A00EE1366008813630025135E00C7D6
:103AB000125B006C12570015125400C111510070B6
:103AC000114F0021114B00D61049008D10470046C0
:103AD00010440002104200C00F4000800F3E004220
:103AE0000F3C00060F3B00CB0E3800930E37005CF6
:103AF0000E3500270E3400F30D3200C10D31009059
:103B00000D3000600D2E00320D2D00050D2C00D95A
:103B10000C2B00AE0C2900850C29005C0C2700350D
:103B20000C27000E0C2600E80B2400C40B2400A078
:103B30000B23007D0B23005A0B2100390B210018A9
:103B40000B2000F80A1F00D90A1E00BB0A1E009DA8
:103B50000A1D00800A1D00630A1C00470A1B002C76
:103B60000A1B00110A1A00F7091A00DD091900C41E
:103B7000091900AB091900920917007B09180063A5
:103B80000917004C09160036091600200916000A0C
:103B9000091500F5081500E0081400CC081400B859
:103BA000081400A4081400900813007D0812006B8C
:103BB00008130058081200460812003408110023A8
:103BC0000811001208110001081100F0071000E0B0
:103BD000071000D0071000C0071000B0070F00A1A9
:103BE00007100091070E0083070F0074070F006590
:103BF000070E0057070E0049070E003B070D002E69
:103C0000070E0020070D0013070D0006070D00F931
:103C1000060C00ED060D00E0060C00D4060C00C8F2
:103C2000060C00BC060C00B0060C00A4060B0099A4
:103C3000060C008D060B0082060B0077060B006C4D
:103C4000060B0061060A0057060B004C060A0042EC
:103C5000060A0038060A002E060A0024060A001A80
:103C6000060A001006090007060A00FD050900F40F
:103C7000050900EB050900E2050900D9050900D096
:103C8000050900C7050900BE050900B5050800AD16
:103C9000050800A50509009C050800940508008C8E
:103CA000050800840508007C050800740508006C00
:103CB000050700650508005D050700560508004E6C
:103CC00005070047050700400508003805070031D3
:103CD0000507002A050700230507001C0506001636
:103CE0000507000F0507000805060002050700FB91
:103CF000040600F5040700EE040600E8040600E2EE
:103D0000040700DB040600D5040600CF040600C942
:103D1000040600C3040600BD040600B7040600B193
:103D2000040500AC040600A6040600A00405009BE0
:103D300004060095040500900406008A0405008529
:103D4000040500800406007A04050075040500706F
:103D50000405006B04050066040500610405005CB1
:103D600004050057040500520405004D04050048F1
:103D7000040500430405003E0404003A0405003530
:103D8000040500300404002C04050027040400236B
:103D90000405001E0404001A0404001604050011A2
:103DA0000404000D040400090405000404040000D8
:103DB000040400FC030400F8030400F4030400F00E
:103DC000030400EC030400E8030400E4030400E03F
:103DD000030400DC030400D8030400D4030400D06F
:103DE000030400CC030400C8030300C5030300243C
:103DF000F404D9201BC40C5C0E9804C4095F02654E
:103E0000077101F405F900FB04B30048048700C101
:103E10000369005803550003034500BE023A0084BD
:103E200002310053022A002902250004022000E486
:103E3000011C00C8011900AF01170098011400848B
:103E4000011300710110006101100051010E0043C7
:103E5000010D0036010B002B010B0020010B00159A
:103E60000109000C01090003010800FB000800F330
:103E7000000800EB000700E4000600DE000600D8A2
:103E8000000600D2000600CC000500C7000500C2F5
:103E9000000500BD000400B9000400B5000400B135
:103EA000000400AD000400A9000400A5000300A266
:103EB0000003009F0004009B00030098000300958E
:103EC00000020093000300900003008D0002008BAD
:103ED00000030088000200860002008400030081C5
:103EE0000002007F0002007D0002007B00020079DA
:103EF00000020077000100760002007400020072E8
:103F0000000100710002006F0002006D0001006CF2
:103F10000002006A000100690002006700010066FB
:103F20000001006500010064000200620001006100
:103F3000000100600001005F0002005D0001005C04
:103F40000001005B0001005A000100590001005807
:103F50000001005700010056000100550001005407
:103F60000001005300000053000100520001005105
:103F7000000100500001004F0001004E0000004E03
:103F80000001004D0001004C0001004B0000004BFF
:103F90000001004A000100490001004800000048FB
:103FA00000010047000100460000004600010045F6
:103FB00000000045000100440001004300000043F0
:103FC00000010042000000420001004100000041E9
:103FD000000100400001003F0000003F0001003EE2
:103FE0000000003E0001003D0000003D0001003CDB
:103FF0000000003C0000003C0001003B0000003BD2
:104000000001003A0000003A0001003900000039C8
:1040100000010038000000380000003800010037BF
:1040200000000037000100360000003600000036B6
:1040300000010035000000350000003500010034AB
:1040400000000034000000340001003300000033A1
:104050000000003300010032000000320000003296
:10406000000100310000003100000031000100308B
:1040700000000030000000300001002F0000002F81
:104080000000002F0000002F0001002E0000002E75
:104090000000002E0001002D0000002D0000002D6A
:1040A0000000002D0001002C0000002C0000002C5E
:1040B0000000002C0001002B0000002B0000002B52
:1040C0000000002B0001002A0000002A0000002A46
:1040D0000000002A0001002900000029000000293A
:1040E000000000290000002900010028000000282D
:1040F0000000002800000028000000280001002720
:104100000000002700000027000000270000002713
:104110000001002600000026000000260000002606
:1041200000000026000100250000002500000025F9
:1041300000000025000000250000002500010024EB
:1041400000000024000000240000002400000024DF
:1041500000010023000000230000002300000023D2
:1041600000000023000000230000002300010022C3
:1041700000000022000000220000002200000022B7
:1041800000000022000100210000002100000021A9
:10419000000000210000002100000021000000219B
:1041A000000100200000002000000020000000208E
:1041B000000000200000002000000020000000207F
:1041C0000001001F0000001F0000001F0000001F72
:1041D0000000001F0000001F0000001F0001001E63
:1041E0000000001E0000001E0000001E0000005025
:1041F0004944204175746F74756E652066696E69F7
:1042000073686564212050757420746865206C6142
:104210007374204B702C204B6920616E64204B64BA
:1042200020636F6E7374616E74732066726F6D209D
:1042300061626F766520696E746F20436F6E666988
:104240006775726174696F6E2E6800504944204131
:1042500075746F74756E65206661696C6564212084
:1042600074696D656F75740020403A00543A0042DD
:104270003A00504944204175746F74756E6520662C
:1042800061696C6564212054656D70657261747537
:10429000726520746F6F206869676800204B643A0C
:1042A0002000204B693A2000204B703A2000204328
:1042B0006C61737369632050494420002054753A3F
:1042C0002000204B753A2000206D61783A200020B4
:1042D0006D696E3A200020643A20002062696173A3
:1042E0003A200045787472756465722066616E20AC
:1042F0007370656564206973206C6F7765722074D4
:1043000068616E20657870656374656400507269D9
:104310006E742066616E2073706565642069732019
:104320006C6F776572207468616E20657870656364
:10433000746564004D494E54454D5020414D420036
:104340004D415854454D50004D415854454D502015
:10435000424544004D415854454D5020414D420086
:1043600070012C0190012701B0012201C0011D0143
:10437000F00118011002130130020E016002090160
:1043800090020401C002FF000003FA004003F500A0
:104390008003F000D003EB002004E6007004E1008D
:1043A000E004DC004005D700C005D2004006CD0087
:1043B000D006C8008007C3003008BE00F008B9006E
:1043C000C009B400B00AAF00B00BAA00D00CA50021
:1043D000000EA000500F9B00C010960050129100DC
:1043E00000148C00C0158700B0178200B0197D0042
:1043F000D01B7800001E730040206E0090226900E0
:10440000F024640040275F0090295A00E02B5500FB
:10441000102E500020304B0010324600E033410097
:1044200090353C001037370070383200A0392D002D
:10443000B03A2800A03B2300603C1E00103D19004C
:10444000903D1400103E0F00703E0A00C03E050073
:10445000003F000090137D00B0157800F017730046
:10446000601A6E00F01C6900A01F640050225F00FB
:1044700020255A00E0275500902A5000202D4B009F
:10448000A02F4600F031410010343C00F0353700D9
:10449000A037320020392D00603A2800703B2300FD
:1044A000603C1E00203D1900C03D1400403E0F003E
:1044B000A03E0A00F03E0500403F0000703FFBFFB9
:1044C000903FF6FFB03FF1FFC03FECFFD03FE7FF6A
:1044D000E03FE2FFF03FDDFFF03FD8FF20484F54C0
:1044E000454E4420544845524D414C2052554E4172
:1044F00057415900204845415442454420544845BD
:10450000524D414C2052554E415741590054484557
:10451000524D414C2052554E41574159004245445D
:1045200020544845524D414C2052554E4157415917
:104530000020544845524D414C2052554E41574160
:104540005920285052454845415420484F54454E23
:1045500044290020544845524D414C2052554E416B
:10456000574159202850524548454154204845411B
:104570005442454429005052454845415420455233
:10458000524F520042454420505245484541542024
:104590004552524F52004572723A2000207472699F
:1045A0006767657265642100486561746572732090
:1045B0007377697463686564206F66662E20003ABD
:1045C0002000506C6561736520726573746172744C
:1045D000004D494E54454D50004D494E54454D50A7
:1045E0002042454400452D6D6F746F7220637572D3
:1045F00072656E74207363616C696E6720656E61AD
:10460000626C656400746D63323133305F686F6D66
:10461000655F656E74657228617865735F6D61733F
:104620006B3D307825303278290A00746D63323161
:1046300033305F686F6D655F6578697420746D6392
:10464000323133305F73675F686F6D696E675F61CA
:104650007865735F6D61736B3D3078253032780A11
:1046600000726573756C742076616C75653A2025EF
:10467000640A0020693D25326420636E743D253252
:10468000642076616C3D2532640A00636C75737436
:104690006572733A0020693D253264207374657039
:1046A0003D2532640A00736F727465642073616D16
:1046B000706C65733A00252D3773003A2000252D64
:1046C00031322E313253252D642F3600203A20000E
:1046D000252D32307300542564004731205A302E86
:1046E000342046313030302E3000473120592D33C0
:1046F0002E302046313030302E30004D38330047D8
:104700003120583130302E30204531322E35204680
:10471000313030302E30004731205836302E3020A6
:1047200045392E302046313030302E30001438FEDE
:1047300037E837D837CF37B637A53790377F376A5E
:1047400037743870386C3868384F383F3834382B05
:1047500038473120583530205933352045252D2E06
:10476000336600A2398E398539743964394E393847
:104770003923390E39F838E338CF38BB38A63891A9
:10478000387D38496E76616C6964205049442063F5
:10479000616C2E20726573756C74732E204E6F746D
:1047A0002073746F72656420746F20454550524FBA
:1047B0004D2E004D353030004731205A31352046DE
:1047C00031353030004739310047312058353020FD
:1047D00059313930204530204637303030004739A4
:1047E00030004D3834004D373032204300473120FF
:1047F000583130205931383020463430303000477D
:1048000031205A31302046313330302E30303000B4
:104810004D313430205330004D313034205330008E
:10482000473120452D302E3037353030204632315B
:1048300030302E3030303030004D31303700252DC3
:1048400031362E313653252D34640A252D31362E3E
:10485000313653252D34640A0025530A20252D3185
:10486000362E313653252D33640A20252D31362E30
:10487000313653252D33640025530A20252D31363A
:104880002E313653252D33640A20252D31362E3115
:104890003653252D33640A20252D31362E313653DB
:1048A000252D33640025530A20252D31362E31362F
:1048B00053252D33640A20252D31362E31365325CC
:1048C0002D33640A20252D372E37535820252D33BC
:1048D0006420205920252D3364002025732533645E
:1048E00001200A000A204952203A202020202020BE
:1048F0002025332E31665600205057523A20202072
:1049000020202025342E3166560A204245443A2084
:10491000202020202025342E3166560025530A20E1
:10492000582025640A20592025640025752E2575F8
:104930002E25752E25750025730020005072696E96
:1049400074657220495020416464723A00257300F6
:104950002000466C617368416972204950204164AF
:1049600064723A004D4D5532202020202020204EE8
:104970002F410025642E25642E25642D25640020FA
:1049800046573A0046696C2E2073656E736F72202D
:10499000762E3A004D6179203138203230323200A3
:1049A000453344763666756C6C0045494E53795FE5
:1049B00031306100315F37356D6D5F4D4B33002D08
:1049C0002D2D2D2D2D2D2D2D2D2D2D002072657091
:1049D0006F20556E6B6E6F776E0020332E31312E47
:1049E000302D34393535004669726D776172653A1C
:1049F00000464D2076657273696F6E3A2000464D11
:104A00002049503A20004D373032004D37303100C8
:104A10004D373032004D37303100464C4558202D4F
:104A200020203234302F35300050502020202D20CF
:104A3000203235342F3130300048495053202D205A
:104A4000203232302F3130300041425320202D208F
:104A5000203235352F3130300050564220202D2065
:104A6000203231352F37350050432020202D202093
:104A70003237352F3131300041534120202D202055
:104A80003236302F3130350050455420202D202033
:104A90003233302F383500504C4120202D20203229
:104AA00031352F3630006E6F7A7A6C65202D2020DC
:104AB0003235302F30006661726D2020202D20208D
:104AC0003235302F383000252D31322E31325325FA
:104AD0002B382E31660045787472756465723A0021
:104AE0006D6D0059005800583A00593A005A3A0082
:104AF0002563252D31332E313353252B352E336647
:104B0000004D313137204669727374206C617965CC
:104B1000722063616C2E00526573756D696E67203B
:104B20007072696E740050494E444120486561744A
:104B3000696E670043616C6962726174696F6E20AF
:104B4000646F6E650043616C6962726174696E675F
:104B5000205A0042656420646F6E650042656420DF
:104B600048656174696E670048656174696E6720A5
:104B7000646F6E652E0048656174696E6700504908
:104B8000442063616C2E2066696E697368656400F9
:104B90005049442063616C2E005072696E7420701D
:104BA0006175736564004D4D5520706F7765722097
:104BB0006661696C73004D4D55206C6F61642066B1
:104BC00061696C73004D4D55206661696C730054CA
:104BD0006F74616C206661696C75726573004372F5
:104BE0006173680046696C2E2072756E6F75747300
:104BF00000506F776572206661696C75726573002D
:104C00004C617374207072696E74206661696C7592
:104C100072657300546F74616C004C617374207022
:104C200072696E7400416D6269656E7400566F6CD6
:104C300074616765730054656D7065726174757237
:104C400065730042656C74207374617475730053EE
:104C5000656E736F7220696E666F00457874727549
:104C600064657220696E666F0058595A2063616CE2
:104C70002E2064657461696C7300756E6B6E6F775E
:104C80006E004D4D553220636F6E6E6563746564C2
:104C900000446174653A0055706461746520464D46
:104CA00020465700464D2046572074797065205B9A
:104CB00064656275675D00464D20465720747970C3
:104CC00065205B737461626C655D00746F20756E46
:104CD0006C6F61642066696C616D656E7400746FE1
:104CE000206C6F61642066696C616D656E74005044
:104CF0007265737320746865206B6E6F620050720A
:104D00006568656174696E6720746F2063757400EF
:104D100050726568656174696E6720746F20656A9A
:104D20006563740050726568656174696E672074AC
:104D30006F20756E6C6F6164005072656865617498
:104D4000696E6720746F206C6F616400436F6F6CD5
:104D5000646F776E00507265686561742074686571
:104D6000206E6F7A7A6C6521004552524F523A009C
:104D700046696C616D656E742065787472756469DE
:104D80006E672026207769746820636F727265638E
:104D90007420636F6C6F723F004175746F6C6F614C
:104DA00064696E672066696C616D656E74206973F5
:104DB000206163746976652C206A75737420707243
:104DC00065737320746865206B6E6F6220616E641A
:104DD00020696E736572742066696C616D656E74AE
:104DE0002E2E2E005072696E742074696D65004617
:104DF000696C616D656E74207573656400546F74C1
:104E0000616C207072696E742074696D6500546FF6
:104E100074616C2066696C616D656E7400526967BF
:104E20006874004C65667400592064697374616E1F
:104E300063652066726F6D206D696E0053657665DF
:104E4000726520736B657700536C696768742073B3
:104E50006B6577004D6561737572656420736B6572
:104E600077005B303B305D20706F696E74206F6639
:104E7000667365740041646A757374696E67205A5D
:104E80003A00526561722073696465205BE46D5D70
:104E90000046726F6E7420736964655BE46D5D003B
:104EA000526967687420736964655BE46D5D004CEA
:104EB0006566742073696465205BE46D5D0053650D
:104EC000742074656D70657261747572653A002046
:104ED000746F6F206C6F6E6720657874727573697C
:104EE0006F6E2070726576656E7465640020636F06
:104EF0006C6420657874727573696F6E207072656A
:104F000076656E74656400544D432044524956459D
:104F100052204F56455254454D5000256325336469
:104F20002F25642563005A25362E32662563005AE4
:104F30002020202D2D2D20002563253364252500DC
:104F40002D2D2D00253368686400253353253373D8
:104F500025250020534400202020005553420020E6
:104F600025753E257500203F3E2575002046257598
:104F70000020463F002046524D200025632D2D3A4B
:104F80002D2D20200025632533756820256325639A
:104F9000002563253032753A253032752563256347
:104FA000002F2F20616374696F6E3A7061757365AD
:104FB0000044756D70206D656D6F727900686F7754
:104FC000746F2E707275736133642E636F6D00663B
:104FD0006F72756D2E707275736133642E636F6DB1
:104FE00000707275736133642E636F6D0025533AE0
:104FF0000A2531382E32666D200A25533A0A2531AA
:10500000306C6468202530326868646D2025303249
:10501000686864730025533A0A2531382E32666D6C
:10502000200A25533A0A2531306C64642025303239
:1050300068686468202530326868646D0025362E03
:1050400032666D6D0025530A25530A25533A0A2509
:10505000533A0025332E32660100252D31342E318E
:1050600034533A0A25530A252D31342E3134533A1C
:1050700025332E3266010A252D31342E3134533A30
:1050800025332E326601004D363030006673656E72
:10509000736F725F757064617465202D204D3630BA
:1050A000300049522073656E736F72206E6F7420EA
:1050B000726573706F6E64696E672028256429219C
:1050C0000A0020573A0020453A00543A005A206C12
:1050D0006976652061646A757374206F7574206FDA
:1050E000662072616E67652E2053657474696E6701
:1050F00020746F20302E20436C69636B20746F2006
:10510000636F6E74696E75652E005A206C697665E2
:105110002061646A757374206F7574206F662072E5
:10512000616E67652E2053657474696E6720746FB5
:1051300020300020423A0020453A00543A00494EBF
:105140005434007265636F7665725F6D6163686980
:105150006E655F73746174655F61667465725F70BC
:105160006F7765725F70616E69632C20696E697418
:1051700069616C200050525553412075766C6F0068
:105180004734205330004D32362053256C75004D86
:105190003130362053004D323230205325640047E1
:1051A0003120462564004D38320047393220450011
:1051B0004731204525302E336620463237303000C7
:1051C0004D32303420502566205225662054256605
:1051D000004731205A2566005052555341204D4218
:1051E0004C2056310047312058256620592566202D
:1051F000463330303000506F736974696F6E2072BF
:105200006561642066726F6D20656570726F6D3ABE
:10521000004D3233202573002E67636F002C20660B
:105220006565646D756C7469706C793A0046656586
:1052300064726174653A0047312045252D302E3364
:105240006620463237303000473120453520463120
:105250003230004D3833004D313039205325640051
:105260004D31393020532564004D313034205325E1
:10527000640047323820582059004731205A252EE3
:1052800033662046383030004731205A252D302EE5
:1052900033662046252D302E3366004731204525C4
:1052A0002D302E3366204632373030004D383300F3
:1052B00000002110422063308440A550C660E77092
:1052C000088129914AA16BB18CC1ADD1CEE1EFF13A
:1052D0003112100273325222B5529442F772D662E2
:1052E000399318837BB35AA3BDD39CC3FFF3DEE38A
:1052F0006224433420040114E664C774A444855432
:105300006AA54BB528850995EEE5CFF5ACC58DD5D9
:105310005336722611163006D776F6669556B44681
:105320005BB77AA719973887DFF7FEE79DD7BCC729
:10533000C448E5588668A7784008611802282338D1
:10534000CCC9EDD98EE9AFF9488969990AA92BB979
:10535000F55AD44AB77A966A711A500A333A122A21
:10536000FDDBDCCBBFFB9EEB799B588B3BBB1AABC9
:10537000A66C877CE44CC55C222C033C600C411C71
:10538000AEED8FFDECCDCDDD2AAD0BBD688D499D19
:10539000977EB66ED55EF44E133E322E511E700EC1
:1053A0009FFFBEEFDDDFFCCF1BBF3AAF599F788F69
:1053B0008891A981CAB1EBA10CD12DC14EF16FE149
:1053C0008010A100C230E320045025404670676081
:1053D000B9839893FBA3DAB33DC31CD37FE35EF399
:1053E000B1029012F322D2323542145277625672D1
:1053F000EAB5CBA5A89589856EF54FE52CD50DC5E9
:10540000E234C324A0148104667447642454054420
:10541000DBA7FAB79987B8975FE77EF71DC73CD738
:10542000D326F2369106B016576676761546345670
:105430004CD96DC90EF92FE9C899E9898AB9ABA988
:105440004458654806782768C018E1088238A328C0
:105450007DCB5CDB3FEB1EFBF98BD89BBBAB9ABBD8
:10546000754A545A376A167AF10AD01AB32A923A10
:105470002EFD0FED6CDD4DCDAABD8BADE89DC98D28
:10548000267C076C645C454CA23C832CE01CC10C60
:105490001FEF3EFF5DCF7CDF9BAFBABFD98FF89F78
:1054A000176E367E554E745E932EB23ED10EF01EB0
:1054B0007C3C3E3F2F2A225C0022206661696C659D
:1054C000643A204275666665722066756C6C2100D0
:1054D0002200256920686F757273202569206D6927
:1054E0006E757465730052582074696D656F7574BC
:1054F000004D3131300046756C6C20525820427599
:105500006666657200437573746F6D0053617469EC
:105510006E200054657874757200536D6F6F7468F7
:105520000047312059252D2E32662045252D2E335A
:1055300066004731205825642059252D2E326620DB
:1055400045252D2E3366006673656E736F725F633B
:105550006865636B706F696E745F7072696E7400FA
:105560006673656E736F722076302E3420696E20FC
:105570006661756C742072616E676520342E362DFD
:105580003556202D20756E636F6E6E65637465648D
:10559000006673656E736F7220696E20666F72624B
:1055A000696464656E2072616E676520312E352DE9
:1055B0003356202D20636865636B2073656E736FAF
:1055C0007200312E3000312E3500554E4B4E4F5764
:1055D0004E004C413130433A204C696E6561722077
:1055E000416476616E6365206D6F64653A20004C9E
:1055F000413130433A2041646A75737465642045D3
:105600002D4A65726B3A2000000E1315110E000032
:105610000004120912040000001C1F11111F0000D9
:105620000006191803130C00040E1F041C000000D0
:10563000040A0A0A0A11110E001F1511151F000095
:10564000000103161C0800000000110A04110A04DE
:105650000C12120C000000002563252D31382E316C
:1056600038532563005B25735D2563005B25535D1F
:105670002563002563252D31382E31385300252E22
:1056800031305320002563252D31382E31387325D4
:1056900063002563252D31382E31387325630025AD
:1056A00063252D2E31365320002563252E313553A9
:1056B0003A257325336400252D32302E3230530ABB
:1056C00000457872656D65207370616E206F66208D
:1056D000746865205A2076616C75657321002564B5
:1056E0002F39006F6B0A0073746172740A004D4D9C
:1056F0005532206669726D776172652076657273C6
:10570000696F6E20696E76616C69642E20526571D6
:1057100075697265642076657273696F6E3A20628E
:1057200075696C64206E756D626572202564206FEA
:1057300072206869676865722E004D4D55203D3EA8
:1057400020276F6B270A004D4D55203D3E20276FC7
:105750006B270A002564004D4D55203D3E20276FE4
:105760006B272C20726573756D65207072696E747D
:105770000A004D4D5520726574727920617474650C
:105780006D7074206E722E2025640A004D4D5520D8
:105790003D3E20276F6B270A00410A004D4D5520E2
:1057A0003C3D202741270A004D36303020415554DA
:1057B0004F004D363030002568687500410A004DB5
:1057C0004D55203C3D202741270A0050300A004D0E
:1057D00025640A004D4D55203C3D20274D2564276A
:1057E0000A0057300A004D4D55203C3D20275730C8
:1057F000270A0053330A004D4D55203C3D202753C6
:1058000033270A0052300A004D4D55203C3D2027D9
:105810005230270A004B25640A004D4D55203C3D6F
:1058200020274B2564270A004525640A004D4D5565
:10583000203C3D2027452564270A0055300A004DAD
:105840004D55203C3D20275530270A0043300A00A3
:105850004D4D55203C3D20274330270A004C256400
:105860000A004D4D55203C3D20274C2564270A0059
:105870005425640A004D4D55203C3D202754256495
:10588000270A004D4D55202D20454E41424C4544A0
:1058900000256868750050300A004D310A004D4DF2
:1058A00055203C3D20274D31270050300A004D4DFA
:1058B000552076657273696F6E2076616C6964003D
:1058C0004D4D55203D3E202725646F6B270A00254E
:1058D000750053320A004D4D55203C3D2027533270
:1058E00027004D4D55203D3E202725646F6B270A2C
:1058F000002575004D4D55206E6F742072657370D4
:105900006F6E64696E67202D2044495341424C45B7
:10591000440053310A004D4D55203C3D2027533162
:1059200027004D4D55203D3E20277374617274272A
:10593000006E6F206D6F766500542D636F64650097
:10594000756E6C6F6164006C6F6164006D6D755F86
:105950006765745F726573706F6E7365202D20626A
:105960006567696E206D6F76653A20006D6D755FB5
:105970006765745F726573706F6E73652829207236
:10598000657475726E696E673A2025640A00556EFB
:105990006C6F6164696E672066696E6973686564BF
:1059A000203200556E6C6F6164203200556E6C6F52
:1059B0006164696E672066696E6973686564203129
:1059C00000556E6C6F61642031004D4D552073742D
:1059D0006172747320726573706F6E64696E6700B4
:1059E0004D4D55206E6F7420726573706F6E6469D3
:1059F0006E670046696C616D656E74206F7574200A
:105A00006F662072616E6765202564200A000000C1
:105A1000803F555585410000803F0000C84100008F
:105A20000040555505420000C03F000048420000BC
:105A3000204055558542000070C1ABAAA642000027
:105A400060C10000A0410000C0C000002041000073
:105A50002041ABAA3A41000020C15555D540000075
:105A600048C2555505424D373031204534004D3739
:105A70003031204533004D373031204532004D372D
:105A80003031204531004D373031204530004669F6
:105A90006C616D656E74206E72206F7574206F6618
:105AA0002072616E67652100206661696C65642EF5
:105AB00000207375636365656465642E004D4D5504
:105AC0002063616E5F6C6F61643A00416464697465
:105AD000696F6E616C206C6F616420617474656DB8
