:100000000C947D360C94AE360C94AE360C94AE3611
:100010000C94AE360D946C170C94AE360C94469D31
:100020000D94F7160C94AE360C94AE360C94AE3696
:100030000C94AE360C94AE360C949CB70D94626B57
:100040000C94AE360C94569E0C94AE360C94AE3690
:100050000C94AE360C94AE360C94AE360C9499AE2D
:100060000C94AE360D9446650C94AE360C94AE36B8
:100070000C94AE360C94AE360C94AE360C94AE3670
:100080000C94AE360C94AE360C94AE360C94AE3660
:100090000D9402650C94AE360C94AE360C94AE36CC
:1000A0000C94AE360C94AE360D94D86A0C94AE36E1
:1000B0000C94AE360D94BA6A0C94AE360C94AE36EF
:1000C0000C94AE360C94AE360C94AE360D942D6A6C
:1000D0000C94AE360C94AE360C94AE360C94AE3610
:1000E0000C94AE3604990F99B0987D984C98119C59
:1000F0004B99759A0C9B639B809BB89BB5AEC3AE26
:10010000D1AEDEAEF0AEF7AE19AF2FAF5D022D036C
:100110005701B9013B027B01CD012503850107028F
:10012000590119020D02E5020D024F016501DB01C3
:100130000D020D02F1014D01AB019B02FB025B01BF
:100140003F039501C301F102FD02DF022103AD016E
:10015000EB013F0391027D02B7027B02F902DD024F
:100160009902BF022F0215034F0281028701CB02C1
:10017000D3018B0213022F02E301A901C7029302EC
:1001800093029502930295027901D901A102F3022B
:100190000F03E9025902C501D502D902D302670152
:1001A000D5023B0315020103FD01B301BB010502AA
:1001B000FF01A502D70217036D014B02770233033B
:1001C000FF023D02084AD73B3BCE016E84BCBFFD17
:1001D000C12F3D6C74319ABD56833DDA3D00C77F17
:1001E00011BED9E4BB4C3E916BAAAABE00000080B0
:1001F0003F05A84CCDB2D44EB93836A9020C50B93F
:10020000918688083CA6AAAA2ABE000000803F0763
:10021000634236B79BD8A71A39685618AEBAAB55A1
:100220008C1D3CB7CC5763BD6DEDFD753EF6177266
:1002300031BF000000803F08000000BE9224491238
:100240003EABAAAA2ABECDCCCC4C3E00000080BE5C
:10025000ABAAAAAA3E00000000BF000000803F0039
:1002600000000000084178D3BB4387D1133D190E2D
:100270003CC3BD4282AD2B3E68EC8276BED98FE195
:10028000A93E4C80EFFFBE01C4FF7F3F000000008D
:1002900000000D94E9390C944C980D9487410D940D
:1002A000AE230D94BC1B0D947C720C949FC70D94CF
:1002B000361E0D94B51D0D9483410D94064E0C947D
:1002C000B89B0D9406500C945CEA0D941F240D9479
:1002D0000D750D9489540C9408CD0D94AE910C9429
:1002E000F7AE0D94654D0C94F0AE0C945CCB0D9470
:1002F0006D3D0D94974F0D94151E0C9444C60D94AE
:10030000A6750D94254A0D94CE490D94791E0D9431
:1003100071430D9459720D94C26F0D940B730C942C
:10032000AAC70D942D490C9452C60D948E410C947D
:100330006AC90D94DD640D941E500D94956F0D9453
:10034000634A0D947B730D94FA090D9464360D94F1
:10035000893B0D94B2430D948A410D94AA410D94AA
:10036000D1410D947D3A0D946C910C9410CC0D9468
:1003700026500D942B1E0D9475910C94F4970D94AA
:10038000B4320C9419AF0D9492410D94E9740D940C
:10039000FB860D9400480D94194B0D940A1E0D9484
:1003A0009F6F0D94D9510D9485430C94C0E90D9421
:1003B000CF720D949A4F0D944E240D94CC410D9410
:1003C000EE4F0C947DC70D94A8430C94C3AE0D94CE
:1003D0006C490C945A910D94AE410D9420490D94A2
:1003E000E5860D946D240C942FAF0D941F740D941D
:1003F0004B720D9471850D946A720D9459750D941C
:1004000085910D946B310D9452720D9482910D94DF
:10041000E31D0D948B6F0C940C9B0D94AB230D94EA
:100420004E3C0D94806F0D949E430D9433750D9446
:1004300054420D94991D0D94FE4F0D94E44F0C946D
:10044000D1AE0D9478360C940F990D946E360D94B0
:10045000B7480C94639B0C94DEAE0D9470700D94B1
:10046000C6430C947D980D944A420D94F51B0C9450
:100470002ECE0D94473D0D94201E0D94E0910D94C9
:100480000C300D940F1F0D9463420D94AF390D94F1
:10049000EB730C94D2CD0D94B7910D94DA3A0D9480
:1004A0005F430C94119C0D94C8410C94759A0D9463
:1004B00036500D94B7740C9406C70D944A1C0D94D5
:1004C0007A470D9485850C94A3C60D94A2720D9461
:1004D0004F420D94B7730D9486710D943D4E0C945C
:1004E000B0980D94A6480C94B5AE0D941DAA0D9429
:1004F000C0910D946D420D942F430D94B8410D940D
:1005000093850D9467430D94A5390D94B14D0D94C9
:1005100001390C941DE90D9494430D94EC5D0D94F8
:100520003E500D94B4410D94884F0D948B4F0D9413
:100530005A360D9443430D9479410C9476CD0D9425
:1005400060720D9472740D94C4640D949F910D9417
:100550000E500D94AB480D94803D0C945FCC0C94E0
:1005600000F20D94D41B0D9416500D94DF3D0D94A4
:10057000BC410D945E420C9464CB0D94F03A0D9402
:100580004D430D94653F0C944E9C0D9447730D9410
:10059000BC430D9468420D947B430D9446500C94DB
:1005A00094C60C9467970D9413750D945C740D9418
:1005B000A2910D94FF740D940A340D9439430D9457
:1005C000A0410D94C2410D94AA390D945C230C9462
:1005D000DAAD0D94AD740D94F64F0D948E300D94EC
:1005E0007B700D9498410D948E740C9436CF0D94BD
:1005F00061010D9434430D947D410D949C410D9403
:10060000D7910D9447750D94E85D0C944B990D941A
:100610008B330D9418870D943E490C9458C90D9452
:10062000A0740C9407C60D9416490D9457430D946D
:10063000A5910C9404990C941D970D9459420C9417
:1006400053CB0D94A6410D94373D0D94891E0C9407
:10065000809B0D942E500C9475910D94661E0D94F4
:10066000E3B90D94F24A0D94D4910C940DC60C94F8
:100670008AC70D94AA300D9416750D945A3D0D94A9
:10068000C1416E616E00696E66004E414E494E4931
:100690005459494E46CDCCCC3D0AD7233C17B7D14F
:1006A0003877CC2B329595E6241FB14F0A000020F5
:1006B000410000C84200401C4620BCBE4CCA1B0E74
:1006C0005AAEC59D7400407A10F35A00A0724E18BD
:1006D000090010A5D4E80000E87648170000E40BF4
:1006E00054020000CA9A3B000000E1F505000080BA
:1006F000969800000040420F000000A08601000014
:1007000000102700000000E8030000000064000063
:100710000000000A00000000000100000000002CA2
:1007200076D888DC674F0823DFC1DFAE59E1B1B767
:1007300096E5E3E453C63AE651997696E8E6C28434
:1007400026EB898C9B62ED407C6FFCEFBC9C9F404C
:10075000F2BAA56FA5F490055A2AF75C936B6CF971
:10076000676DC11BFCE0E40D47FEF520E6B500D047
:10077000ED902E0300943577050080841E0800005C
:10078000204E0A000000C80C333333330F986E122A
:10079000831141EF8D2114893BE65516CFFEE6DB30
:1007A00018D1844B381BF77C1D901DA4BBE424207A
:1007B0003284725E228100C9F124ECA1E53D2763F9
:1007C00064696E6F70737578585B00256420627978
:1007D000746573207772697474656E20746F204538
:1007E0004550524F4D20617420616464726573738B
:1007F00020307825303478004433202D2052656134
:10080000642F577269746520454550524F4D0A0058
:10081000442D31202D20456E646C657373206C6F00
:100820006F700A005344207072696E74696E67209D
:100830006279746520004163746976652045787437
:1008400072756465723A2000496E76616C69642045
:100850006578747275646572005A204F66667365B8
:100860007400556E6B6E6F776E20636F6D6D616E89
:10087000643A2022004D32303020496E76616C6936
:100880006420657874727564657220007A5F6D61AA
:10089000783A20007A5F6D696E3A2000795F6D6169
:1008A000783A2000795F6D696E3A2000785F6D615B
:1008B000783A20006F70656E0054524947474552A0
:1008C000454400785F6D696E3A20005265706F7222
:1008D00074696E6720656E6473746F7020737461E1
:1008E0007475730053494C454E54004E4F524D4160
:1008F0004C002553204D4F44453A205065726365A6
:100900006E7420646F6E653A20256868643B2070C1
:1009100072696E742074696D652072656D61696EAF
:10092000696E6720696E206D696E733A2025643B9D
:10093000204368616E676520696E206D696E733A49
:100940002025640A00456E642066696C65206C6928
:10095000737400426567696E2066696C65206C6916
:100960007374000A50494E44412074656D7065727D
:1009700061747572653A20252E3166205A2073689D
:1009800069667420286D6D293A20252E3366000A89
:10099000537465703A2025642F360A000A53746533
:1009A000703A2025642F362028736B697070656457
:1009B000290A50494E44412074656D706572617416
:1009C0007572653A202564205A2073686966742020
:1009D000286D6D293A300A000A5A45524F3A2025AF
:1009E0002E33660A0073746172742074656D7065CD
:1009F0007261747572653A20252E31660A0025648D
:100A00002020252E326600255320583A20252E35E9
:100A10006620593A20252E3566205A3A20252E3553
:100A2000660A00536C6565702E2E2E0045303A25FF
:100A3000642052504D0A50524E303A256420525094
:100A40004D0A00256400416476616E6365204B3D6C
:100A5000004B206F7574206F6620616C6C6F77653A
:100A6000642072616E676521001B5B324A1B5B313B
:100A70003B32485072757361206933204661626D64
:100A8000616E1B5B323B3348537769706520746F2E
:100A9000206C6F67696E001B5B324A1B5B313B3217
:100AA000485072757361206933204661626D616ED2
:100AB0001B5B323B3348537769706520746F206C41
:100AC0006F67696E001B5B324A1B5B313B324850DB
:100AD00072757361206933204661626D616E1B5BC4
:100AE000323B3348537769706520746F206C6F67B1
:100AF000696E001B5B324A1B5B313B32485072759A
:100B00007361206933204661626D616E1B5B323B0D
:100B10003348537769706520746F206C6F67696E16
:100B2000001B5B324A1B5B313B324850727573616C
:100B3000206933204661626D616E1B5B323B334836
:100B4000537769706520746F206C6F67696E001F42
:100B50001F1F1F1F1F1F1F200A200A20004D323297
:100B6000302053256900255346696C616D656E74AC
:100B70002073657474696E67733A204469736162A7
:100B80006C65640A00255346696C616D656E74205E
:100B900073657474696E67733A0A25532020204D7B
:100BA0003230302044252E32660A002553526574B7
:100BB000726163743A20533D4C656E6774682028F7
:100BC0006D6D2920463A537065656420286D6D2F40
:100BD0006D29205A3A205A4C69667420286D6D2977
:100BE0000A25532020204D3230372053252E3266DF
:100BF0002046252E3266205A252E32660A2553526B
:100C000065636F7665723A20533D45787472612052
:100C10006C656E67746820286D6D2920463A5370A4
:100C200065656420286D6D2F6D290A2553202020CD
:100C30004D3230382053252E32662046252E32661E
:100C40000A25534175746F2D526574726163743A4D
:100C500020533D3020746F2064697361626C652C91
:100C6000203120746F20696E746572707265742013
:100C7000657874727564652D6F6E6C79206D6F7612
:100C80006573206173207265747261637473206F81
:100C900072207265636F7665726965730A255320E9
:100CA00020204D323039205325640A002553504905
:100CB0004420686561746265642073657474696E4C
:100CC00067733A0A25532020204D333034205025B5
:100CD0002E32662049252E32662044252E32660AA1
:100CE0000025535049442073657474696E67733AE4
:100CF0000A25532020204D3330312050252E3266D6
:100D00002049252E32662044252E32660A002553BE
:100D100053746570732070657220756E69743A0A39
:100D2000255320204D39322058252E326620592552
:100D30002E3266205A252E32662045252E32660A2E
:100D400025535553746570207265736F6C757469A3
:100D50006F6E3A200A2553204D33353020582564D4
:100D600020592564205A2564204525640A25534DC1
:100D70006178696D756D206665656472617465730F
:100D8000202D206E6F726D616C20286D6D2F732980
:100D90003A0A255320204D3230332058252E326612
:100DA0002059252E3266205A252E32662045252EC2
:100DB00032660A25534D6178696D756D20666565EB
:100DC000647261746573202D20737465616C74683E
:100DD00020286D6D2F73293A0A255320204D32307B
:100DE000332058252E32662059252E3266205A256A
:100DF0002E32662045252E32660A25534D617869CC
:100E00006D756D20616363656C65726174696F6E89
:100E1000202D206E6F726D616C20286D6D2F7332E6
:100E2000293A0A255320204D3230312058256C753F
:100E30002059256C75205A256C752045256C750A3E
:100E400025534D6178696D756D20616363656C65CF
:100E5000726174696F6E202D20737465616C7468A3
:100E600020286D6D2F7332293A0A255320204D32E8
:100E700030312058256C752059256C75205A256C09
:100E8000752045256C750A2553416363656C657251
:100E90006174696F6E3A20503D7072696E742C20D7
:100EA000523D726574726163742C20543D7472619A
:100EB00076656C0A255320204D3230342050252E83
:100EC00032662052252E32662054252E32660A259F
:100ED00053416476616E6365642076617269616214
:100EE0006C65733A20533D4D696E2066656564728A
:100EF00061746520286D6D2F73292C20543D4D6938
:100F00006E2074726176656C2066656564726174CA
:100F10006520286D6D2F73292C20423D6D696E6907
:100F20006D756D207365676D656E742074696D6590
:100F300020286D73292C20583D6D6178696D756D81
:100F4000205859206A65726B20286D6D2F73292CEB
:100F500020205A3D6D6178696D756D205A206A6553
:100F6000726B20286D6D2F73292C2020453D6D61FB
:100F700078696D756D2045206A65726B20286D6DEE
:100F80002F73290A255320204D3230352053252E2A
:100F900032662054252E32662042252E3266205895
:100FA000252E32662059252E3266205A252E32668D
:100FB0002045252E32660A2553486F6D65206F66E1
:100FC0006673657420286D6D293A0A255320204DDB
:100FD0003230362058252E32662059252E32662092
:100FE0005A252E32660A004625642025640A004DE3
:100FF0004D55203C3D2027462564202564270A00C6
:10100000504944204175746F74756E652066696E31
:101010006973686564212050757420746865206C5C
:10102000617374204B702C204B6920616E64204BDF
:101030006420636F6E7374616E74732066726F6D7B
:101040002061626F766520696E746F20436F6E66F3
:10105000696775726174696F6E2E6800504944202B
:101060004175746F74756E65206661696C65642185
:101070002074696D656F75740020403A00543A0021
:10108000423A00504944204175746F74756E652072
:101090006661696C6564212054656D706572617468
:1010A00075726520746F6F206869676800204B64F3
:1010B0003A2000204B693A2000204B703A20002053
:1010C000436C617373696320504944200020547558
:1010D0003A2000204B753A2000206D61783A2000BC
:1010E000206D696E3A200020643A20002062696118
:1010F000733A20004361703A25533A25630A00454C
:101100005854454E4445445F4D3230004155544F8C
:101110005245504F52545F504F534954494F4E001F
:101120004155544F5245504F52545F46414E530023
:101130004155544F5245504F52545F54454D500005
:10114000005A30005A3100593000593100583000EF
:10115000583100456E642073746F70732064696148
:10116000670044656C6574696F6E206661696C65C3
:10117000642C2046696C653A200046696C652064E1
:10118000656C657465643A004E6F7420534420703A
:1011900072696E74696E67005072696E7420736153
:1011A000766564005344207072696E7420706175B6
:1011B000736564004F4B004241440052414D426F01
:1011C0002046414E200043524153485F43414E4325
:1011D000454C0043524153485F5245434F56455298
:1011E0000043524153485F5245434F5645520022F7
:1011F000283229004475706C696361746520542D30
:10120000636F64652069676E6F7265642E00496E56
:1012100076616C6964205420636F64652E00556E9E
:101220006B6E6F776E204D20636F64653A20257377
:10123000200A002C204D39303720452069676E6F19
:10124000726564006E6F2076616C696420636F6DF7
:101250006D616E64002C20002C20002C20006E2F6D
:1012600061002C20002C20002C20006E2F610050EB
:101270003A005761697420666F722050494E4441AC
:10128000207461726765742074656D706572617435
:101290007572653A004155544F004C414E472053FA
:1012A000454C20464F5243454400256925250A00F8
:1012B000256925250A0022283129003030303030B8
:1012C0003030302D303030302D303030302D303027
:1012D00030302D3030303030303030303030300041
:1012E00020555549443A0031002045585452554440
:1012F00045525F434F554E543A005072757361200A
:101300006933204D4B335300204D414348494E45EE
:101310005F545950453A00312E30002062617365A8
:1013200064206F6E204D61726C696E204649524D8B
:10133000574152455F55524C3A68747470733A2F56
:101340002F6769746875622E636F6D2F7072757385
:101350006133642F50727573612D4669726D7761C8
:1013600072652050524F544F434F4C5F5645525375
:10137000494F4E3A004649524D574152455F4E4102
:101380004D453A50727573612D4669726D77617281
:101390006520004D31313320530020423A00204572
:1013A0003A00543A006F6B20006E2F61003F546F7B
:1013B000736869626120466C617368416972204795
:1013C00065744950206661696C65640A002569206E
:1013D0006D696E2C2025692073656300496E766106
:1013E0006C6964204D20636F64653A202573200A80
:1013F00000556E6B6E6F776E204720636F64653AA1
:10140000202573200A004D65736820626564206C96
:101410006576656C696E67206E6F742061637469B0
:1014200076652E002020000A4D6561737572656433
:1014300020706F696E74733A000A5A207365617286
:101440006368206865696768743A20004E756D208E
:10145000582C593A200050494E44412070726F6216
:10146000652063616C6962726174696F6E20737468
:1014700061727400473238205730004E6F20504957
:101480004E444120746865726D6973746F720073A5
:101490006574006E6F7A7A6C65004D424C0046525E
:1014A0000042656174004C7A004C616E67005265C1
:1014B000760046697200534E20696E76616C6964ED
:1014C00000534E004D3238005245534554004D4DA7
:1014D00055524553004D32340075766C6F00746878
:1014E000780046414E0046414E50494E54535400F8
:1014F00050524E0050696E67005052555341005390
:1015000045545F43484F505F005345545F53544523
:10151000505F005345545F574156455F00544D435B
:101520005F0043524153485F43414E43454C0043A3
:10153000524153485F5245434F5645520043524132
:1015400053485F4445544543544544004352415336
:10155000485F004D3120004D30004D31313700479C
:101560002D636F646520736C6963656420666F72B8
:10157000206120646966666572656E74206C6576AC
:10158000656C2E20436F6E74696E75653F00472D44
:10159000636F646520736C6963656420666F722095
:1015A0006120646966666572656E74206C65766537
:1015B0006C2E20506C656173652072652D736C69AB
:1015C000636520746865206D6F64656C2061676178
:1015D000696E2E205072696E742063616E63656C53
:1015E0006C65642E00472D636F646520736C6963BE
:1015F000656420666F722061206E65776572206673
:1016000069726D776172652E20506C65617365201B
:1016100075706461746520746865206669726D77A1
:101620006172652E205072696E742063616E63650D
:101630006C6C65642E00472D636F646520736C6964
:1016400063656420666F722061206E657765722025
:101650006669726D776172652E20436F6E74696E74
:1016600075653F00472D636F646520736C69636522
:101670006420666F72206120646966666572656EBB
:1016800074207072696E74657220747970652E2092
:10169000436F6E74696E75653F00472D636F6465B7
:1016A00020736C6963656420666F722061206469D1
:1016B00066666572656E74207072696E74657220FC
:1016C000747970652E20506C656173652072652D8C
:1016D000736C69636520746865206D6F64656C2048
:1016E000616761696E2E205072696E742063616E4D
:1016F00063656C6C65642E005072696E746572204F
:101700006973206F7574206F66206F726465722E26
:1017100000596F7520617265206E6F7420616C6C6A
:101720006F77656420746F207573652074686973C2
:10173000207072696E746572206F75747369646568
:10174000206F70656E696E6720686F7572732E000A
:10175000596F7520646F206E6F7420686176652004
:10176000726571756972656420747261696E696E03
:101770006720636F75727365212100596F7520644E
:101780006F206E6F7420686176652061637469767E
:1017900065207061636B6167652E20506C656173B5
:1017A0006520627579206F6E652E00536F727279B5
:1017B0002C204920616D206E6F74206F6E6C696EF5
:1017C00065207269676874206E6F772E20506C6593
:1017D00061736520747279206D65206C6174657227
:1017E0002E005570646174696E6720464D206677DF
:1017F0002E2E005072757361206933204661626D30
:10180000616E00507265737320746865206B6E6F33
:101810006220746F2070726568656174206E6F7AE3
:101820007A6C6520616E6420636F6E74696E756595
:101830002E00506C6561736520707265737320743F
:101840006865206B6E6F6220746F20756E6C6F61BF
:10185000642066696C616D656E740052656D6F76AB
:1018600065206F6C642066696C616D656E742061C3
:101870006E6420707265737320746865206B6E6F80
:101880006220746F207374617274206C6F6164697C
:101890006E67206E65772066696C616D656E742E6B
:1018A00000616E6420707265737320746865206BCC
:1018B0006E6F6200496E736572742066696C616D4B
:1018C000656E7400436F6C6F72206E6F7420636F6F
:1018D00072726563740046696C616D656E74206E2A
:1018E0006F74206C6F61646564004368616E676546
:1018F0006420636F72726563746C793F004C6F6132
:1019000064696E6720636F6C6F72004368616E6715
:101910006520737563636573732100506C65617333
:1019200065206F70656E2069646C657220616E64FD
:101930002072656D6F76652066696C616D656E7489
:10194000206D616E75616C6C792E00576173206635
:10195000696C616D656E7420756E6C6F6164207367
:1019600075636365737366756C3F00506C65617376
:101970006520757067726164652E004E657720661C
:1019800069726D776172652076657273696F6E201A
:10199000617661696C61626C653A0057616974696E
:1019A0006E6720666F722050494E44412070726FFE
:1019B000626520636F6F6C696E6700437261736864
:1019C0002064657465637465642E20526573756D5B
:1019D00065207072696E743F0043726173682064A1
:1019E000657465637465642E0043686F6F7365206A
:1019F00065787472756465723A0043686F6F7365D9
:101A00002066696C616D656E743A004E6F206D6F73
:101A100076652E00537461626C6520616D62696544
:101A20006E742074656D70657261747572652032B4
:101A3000312D323643206973206E656564656420FC
:101A400061207269676964207374616E64206973D0
:101A50002072657175697265642E00506C656173E2
:101A6000652072756E2058595A2063616C696272E4
:101A70006174696F6E2066697273742E00576169B4
:101A80007420666F7220757365722E2E2E003B5384
:101A9000006164635F696E6974000A204F72696750
:101AA000696E616C2050727573612069330A202061
:101AB00020507275736120526573656172636800AE
:101AC000200A200A200A2000416C6C2044617461C5
:101AD00000536572766963652070726570005368A3
:101AE000697070696E6720707265700053746174FC
:101AF000697374696373004C616E67756167650033
:101B000045524153494E4720616C6C2064617461B9
:101B100000466163746F7279205245534554004406
:101B2000495341424C454400454E41424C454400D6
:101B3000202873656E736F7220626F617264207209
:101B400065766973696F6E3A2553290A00465365B5
:101B50006E736F7220255300494E5434004D4B3341
:101B6000534D4D553253004E4F4D4B3353000400EF
:101B70004E4F4354554100414C5446414E004A613A
:101B80006E203132203230323200436F6D70696C1A
:101B900065643A2000286E6F6E652C20646566616E
:101BA000756C7420636F6E66696729004A616E20E8
:101BB000313220323032322032303A34353A313913
:101BC0000020332E31302E302D34343831007374F0
:101BD00061727400534E2075706461746520666193
:101BE000696C656400534E207570646174656400AF
:101BF000416E206572726F72207768696C6520771C
:101C0000726974696E6720746F207468652053442C
:101C100020436172642E002055706C6F61642069EE
:101C20006E2070726F677265737300205A3A0020DD
:101C3000593A0020583A0043524153485F444554B2
:101C4000454354454458590043524153485F444525
:101C5000544543544544590043524153485F444519
:101C600054454354454458004D3239004578746515
:101C7000726E616C2053504920666C6173680A581B
:101C8000464C415348206973206E6F74207265730F
:101C90002D0A706F6E64696E672E204C616E6775D9
:101CA0006167650A73776974636820756E61766130
:101CB000696C61626C652E005072757361206933C6
:101CC000204D4B3353204F4B2E00437261736844B9
:101CD00065746563742044495341424C4544004354
:101CE0007261736844657465637420454E41424C6B
:101CF0004544210045787472756465722066616E92
:101D000020747970653A200058464C415348206E43
:101D10006F7420726573706F6E64696E672E002039
:101D200020506C616E6E65724275666665724279AE
:101D30007465733A20002046726565204D656D6FAD
:101D400072793A2000207C20417574686F723A20C5
:101D500000204C61737420557064617465643A208E
:101D60000020536F667477617265205265736574E5
:101D700000205761746368646F67205265736574EF
:101D8000002042726F776E206F7574205265736504
:101D900074002045787465726E616C2052657365BD
:101DA0007400506F7765725570006572726F7220A3
:101DB00077726974696E6720746F2066696C65005C
:101DC000656E6473746F7073206869743A200044A0
:101DD0006F6E6520736176696E672066696C652E2B
:101DE000006F6B004D4B3353206669726D776172E3
:101DF00065206465746563746564206F6E204D4B67
:101E000033207072696E74657200426C61636B6F2F
:101E10007574206F636375727265642E20526563FA
:101E20006F766572207072696E743F0053656C66E0
:101E3000746573742077696C6C2062652072756EAE
:101E400020746F2063616C696272617465206163E4
:101E50006375726174652073656E736F726C657300
:101E600073207265686F6D696E672E0054686572C5
:101E700065206973207374696C6C2061206E6565E0
:101E80006420746F206D616B65205A2063616C69FA
:101E900062726174696F6E2E20506C65617365208B
:101EA000666F6C6C6F7720746865206D616E75610C
:101EB0006C2C20636861707465722046697273745B
:101EC0002073746570732C2073656374696F6E2062
:101ED00043616C6962726174696F6E20666C6F77C2
:101EE0002E005072696E74657220686173206E6F87
:101EF00074206265656E2063616C696272617465ED
:101F000064207965742E20506C6561736520666F5E
:101F10006C6C6F7720746865206D616E75616C2CD8
:101F200020636861707465722046697273742073EF
:101F3000746570732C2073656374696F6E204361E0
:101F40006C6962726174696F6E20666C6F772E00C7
:101F50004F6C642073657474696E677320666F7567
:101F60006E642E2044656661756C74205049442C63
:101F700020457374657073206574632E2077696CD7
:101F80006C206265207365742E005761726E696EF5
:101F9000673A20626F7468207072696E746572208F
:101FA0007479706520616E64206D6F74686572620B
:101FB0006F6172642074797065206368616E676513
:101FC000642E005761726E696E673A207072696E96
:101FD0007465722074797065206368616E676564EA
:101FE0002E005761726E696E673A206D6F74686576
:101FF00072626F6172642074797065206368616ECB
:102000006765642E0058595A2063616C6962726179
:1020100074696F6E20616C6C2072696768742E2021
:10202000536B65772077696C6C20626520636F72F3
:10203000726563746564206175746F6D6174696342
:10204000616C6C792E0058595A2063616C69627218
:102050006174696F6E20616C6C2072696768742EA0
:1020600020582F5920617865732061726520736C48
:10207000696768746C7920736B657765642E204797
:102080006F6F64206A6F62210058595A2063616C37
:102090006962726174696F6E206F6B2E20582F59C0
:1020A0002061786573206172652070657270656E5D
:1020B000646963756C61722E20436F6E6772617420
:1020C000756C6174696F6E73210058595A20636191
:1020D0006C6962726174696F6E206661696C6564B7
:1020E0002E2052696768742066726F6E7420636177
:1020F0006C6962726174696F6E20706F696E7420B2
:102100006E6F7420726561636861626C652E005841
:10211000595A2063616C6962726174696F6E2066DE
:1021200061696C65642E2046726F6E742063616C09
:102130006962726174696F6E20706F696E7473206A
:102140006E6F7420726561636861626C652E005801
:10215000595A2063616C6962726174696F6E20669E
:1021600061696C65642E20506C6561736520636FD6
:102170006E73756C7420746865206D616E75616C2A
:102180002E0058595A2063616C6962726174696FDC
:102190006E20636F6D70726F6D697365642E20526F
:1021A000696768742066726F6E742063616C69621F
:1021B000726174696F6E20706F696E74206E6F74D7
:1021C00020726561636861626C652E0058595A20FF
:1021D00063616C6962726174696F6E20636F6D70A8
:1021E000726F6D697365642E2046726F6E74206322
:1021F000616C6962726174696F6E20706F696E7470
:1022000073206E6F7420726561636861626C652E05
:102210000058595A2063616C6962726174696F6E0B
:10222000206661696C65642E204265642063616C80
:102230006962726174696F6E20706F696E74207765
:102240006173206E6F7420666F756E642E00506C23
:102250006561736520706C61636520737465656C7E
:10226000207368656574206F6E20686561746265AF
:10227000642E0044697374616E63652062657477CF
:1022800065656E20746970206F6620746865206EC5
:102290006F7A7A6C6520616E64207468652062656F
:1022A00064207375726661636520686173206E6F68
:1022B00074206265656E20736574207965742E20C4
:1022C000506C6561736520666F6C6C6F7720746805
:1022D00065206D616E75616C2C206368617074653A
:1022E000722046697273742073746570732C207346
:1022F000656374696F6E204669727374206C6179CE
:1023000065722063616C6962726174696F6E2E0020
:10231000506C6163652061207368656574206F6629
:1023200020706170657220756E64657220746865D6
:10233000206E6F7A7A6C6520647572696E6720749E
:1023400068652063616C6962726174696F6E206F89
:1023500066206669727374203420706F696E7473BE
:102360002E20496620746865206E6F7A7A6C65202D
:10237000636174636865732074686520706170655B
:10238000722C20706F776572206F666620746865A6
:10239000207072696E74657220696D6D6564696123
:1023A00074656C792E00506C656173652072656D83
:1023B0006F766520737465656C207368656574203D
:1023C00066726F6D20686561746265642E00497382
:1023D00020737465656C207368656574206F6E206A
:1023E000686561746265643F005365617263686922
:1023F0006E67206265642063616C696272617469F2
:102400006F6E20706F696E74004D656173757269CF
:102410006E67207265666572656E636520686569C2
:10242000676874206F662063616C696272617469A9
:102430006F6E20706F696E7400506C6561736520FB
:10244000636C65616E20746865206E6F7A7A6C6566
:1024500020666F722063616C6962726174696F6E6D
:102460002E20436C69636B207768656E20646F6E05
:10247000652E004175746F20686F6D65004D656154
:10248000737572656420736B6577733A20256620D7
:1024900025660A0046697474696E67206661696C16
:1024A0006564203D3E2063616C6962726174696F8E
:1024B0006E206661696C65642E0A0043616C696216
:1024C000726174696F6E20737563636573732E0A2E
:1024D00000416C6C20342063616C696272617469C4
:1024E0006F6E20706F696E747320666F756E642EE8
:1024F0000A00312F3400312F3400312F3900787920
:102500007A63616C5F6D656173737572655F656E2B
:102510007465720A0078797A63616C5F73706972AE
:10252000616C382063783D25642063793D25642003
:102530007A303D256420647A3D25642072616469A7
:1025400075733D25642061643D25640A0078797ABD
:1025500063616C5F7365617263685A206E6F20738C
:1025600069676E616C0A20783D256C6420793D2591
:102570006C64207A3D256C640A00204F4E2D53492F
:10258000474E414C20617420783D256420793D25DB
:1025900064207A3D25642061643D25640A007879D1
:1025A0007A63616C5F7365617263685A20783D2558
:1025B0006C6420793D256C64207A3D256C640A00AA
:1025C00025640A005363616E20636F756E74646FD7
:1025D000776E3A20000A002530327800205B2566AD
:1025E0002025665D206D6D207061747465726E20AB
:1025F00063656E7465720A00205B25662025665D42
:102600005B25665D206D6D20646976657267656E19
:1026100063650A000000F000F801FC03FE07FE07F6
:10262000FE07FE07FC03F801F000000000000000B8
:10263000F000F801FC03FC03FC03FC03F801F000CC
:102640000000000078797A63616C5F6D6561737377
:102650007572655F6C656176650A00203C200057E5
:1026600041524E494E473A2046726F6E7420706F49
:10267000696E74206E6F7420726561636861626C4C
:10268000652E205920636F6F7264696E6174653ABC
:102690000000000040410000C04000005C4300001A
:1026A000C04000005C430000464300004041000081
:1026B000464325642F3400497465726174696F6EF6
:1026C0003A200043616C6962726174696F6E2066C2
:1026D00061696C65642120436865636B207468657B
:1026E000206178657320616E642072756E20616769
:1026F00061696E2E0000002110422063308440A5E5
:1027000050C660E770088129914AA16BB18CC1ADB8
:10271000D1CEE1EFF13112100273325222B5529450
:1027200042F772D662399318837BB35AA3BDD39C08
:10273000C3FFF3DEE36224433420040114E664C7DC
:1027400074A44485546AA54BB528850995EEE5CF58
:10275000F5ACC58DD55336722611163006D776F6F0
:10276000669556B4465BB77AA719973887DFF7FEA8
:10277000E79DD7BCC7C448E5588668A7784008617C
:102780001802282338CCC9EDD98EE9AFF9488969F8
:10279000990AA92BB9F55AD44AB77A966A711A5090
:1027A0000A333A122AFDDBDCCBBFFB9EEB799B5848
:1027B0008B3BBB1AABA66C877CE44CC55C222C031C
:1027C0003C600C411CAEED8FFDECCDCDDD2AAD0B98
:1027D000BD688D499D977EB66ED55EF44E133E3230
:1027E0002E511E700E9FFFBEEFDDDFFCCF1BBF3AE8
:1027F000AF599F788F8891A981CAB1EBA10CD12DD7
:10280000C14EF16FE18010A100C230E320045025D9
:102810004046706760B9839893FBA3DAB33DC31C4D
:10282000D37FE35EF3B1029012F322D23235421429
:102830005277625672EAB5CBA5A89589856EF54F99
:10284000E52CD50DC5E234C324A014810466744779
:102850006424540544DBA7FAB79987B8975FE77EED
:10286000F71DC73CD7D326F2369106B016576676C9
:1028700076154634564CD96DC90EF92FE9C899E939
:10288000898AB9ABA94458654806782768C018E119
:10289000088238A3287DCB5CDB3FEB1EFBF98BD88D
:1028A0009BBBAB9ABB754A545A376A167AF10AD069
:1028B0001AB32A923A2EFD0FED6CDD4DCDAABD8BD9
:1028C000ADE89DC98D267C076C645C454CA23C83B9
:1028D0002CE01CC10C1FEF3EFF5DCF7CDF9BAFBA2D
:1028E000BFD98FF89F176E367E554E745E932EB209
:1028F0003ED10EF01E7C3C3E3F2F2A225C0022205F
:102900006661696C65643A20427566666572206628
:10291000756C6C21002200656E717565696E6720AB
:10292000220073746172740A004D4D55322066693D
:10293000726D776172652076657273696F6E20695A
:102940006E76616C69642E2052657175697265647A
:102950002076657273696F6E3A206275696C6420C7
:102960006E756D626572202564206F7220686967DC
:102970006865722E004D4D55203D3E20276F6B2718
:102980000A004D4D55203D3E20276F6B270A00253C
:1029900064004D4D55203D3E20276F6B272C207243
:1029A0006573756D65207072696E740A004D4D55C2
:1029B00020726574727920617474656D7074206E14
:1029C000722E2025640A004D4D55203D3E20276F74
:1029D0006B270A00410A004D4D55203C3D20274100
:1029E000270A004D363030004D36303020415554E6
:1029F0004F002568687500410A004D4D55203C3D4B
:102A0000202741270A0050300A004D25640A004D56
:102A10004D55203C3D20274D2564270A0057300A9C
:102A2000004D4D55203C3D20275730270A00533399
:102A30000A004D4D55203C3D20275333270A0052B4
:102A4000300A004D4D55203C3D20275230270A00CA
:102A50004B25640A004D4D55203C3D20274B2564F5
:102A6000270A004525640A004D4D55203C3D20278E
:102A7000452564270A0055300A004D4D55203C3D40
:102A800020275530270A0043300A004D4D55203C81
:102A90003D20274330270A004C25640A004D4D5540
:102AA000203C3D20274C2564270A005425640A0059
:102AB0004D4D55203C3D2027542564270A004D4D9F
:102AC00055202D20454E41424C45440025686875EF
:102AD0000050300A004D310A004D4D55203C3D203C
:102AE000274D31270050300A004D4D552076657234
:102AF00073696F6E2076616C6964004D4D55203DA1
:102B00003E202725646F6B270A0025750053320A83
:102B1000004D4D55203C3D2027533227004D4D554B
:102B2000203D3E202725646F6B270A002575004D48
:102B30004D55206E6F7420726573706F6E64696E90
:102B400067202D2044495341424C45440053310AEB
:102B5000004D4D55203C3D2027533127004D4D550C
:102B6000203D3E2027737461727427006572726F76
:102B7000723A20756E6B6E6F776E206D6F766500A2
:102B80006E6F206D6F766500542D636F6465007500
:102B90006E6C6F6164006C6F6164006D6D755F6772
:102BA00065745F726573706F6E7365202D2062654A
:102BB00067696E206D6F76653A20006D6D755F6791
:102BC00065745F726573706F6E7365282920726516
:102BD0007475726E696E673A2025640A00556E6CD2
:102BE0006F6164696E672066696E697368656420E9
:102BF0003200556E6C6F6164203200556E6C6F61EF
:102C000064696E672066696E697368656420310067
:102C1000556E6C6F61642031004D4D5520737461A9
:102C200072747320726573706F6E64696E67004DA5
:102C30004D55206E6F7420726573706F6E64696E8F
:102C4000670046696C616D656E74206F7574206FE6
:102C5000662072616E6765202564200A000000808E
:102C60003F555585410000803F0000C841000000ED
:102C700040555505420000C03F000048420000207A
:102C80004055558542000070C1ABAAA642000060C5
:102C9000C10000A0410000C0C00000204100002091
:102CA00041ABAA3A41000020C15555D5400000482B
:102CB000C2555505424D373031204534004D37302F
:102CC00031204533004D373031204532004D37300B
:102CD00031204531004D3730312045300046696C98
:102CE000616D656E74206E72206F7574206F662042
:102CF00072616E67652100206661696C65642E00F3
:102D0000207375636365656465642E004D4D5520C1
:102D100063616E5F6C6F61643A00416464697469F9
:102D20006F6E616C206C6F616420617474656D708E
:102D300074206E722E2025640A00506C65617365E4
:102D400020757064617465206669726D7761726563
:102D500020696E20796F7572204D4D55322E2057A7
:102D6000616974696E6720666F722072657365743D
:102D70002E004D4D55204F4B2E20526573756D69B9
:102D80006E672E2E2E004D4D55204F4B2E20526536
:102D900073756D696E6720706F736974696F6E2EDD
:102DA0002E2E004D4D55204F4B2E20526573756DC4
:102DB000696E672074656D70657261747572652ED9
:102DC0002E2E0046697820746865206973737565D6
:102DD00020616E64207468656E2070726573732064
:102DE000627574746F6E206F6E204D4D5520756E38
:102DF00069742E00507265737320746865206B6E61
:102E00006F6220746F20726573756D65206E6F7AC6
:102E10007A6C652074656D70657261747572652E6B
:102E2000004D4D55206E6565647320757365722085
:102E3000617474656E74696F6E2E00437574746985
:102E40006E672066696C616D656E7400506C6561BB
:102E500073652072656D6F76652066696C616D655E
:102E60006E7420616E64207468656E207072657384
:102E70007320746865206B6E6F622E00456A65630F
:102E800074696E672066696C616D656E74004D4D86
:102E900055206C6F6164206661696C656400256310
:102EA0002533642F256425630024F4D43050C38E69
:102EB00020C2A24017828B7011127A910D816CD9B9
:102EC0000AA861E108C7586607615143061E4B5DB9
:102ED00005C145A7041A411104093D980371393110
:102EE000034036DB0265339102D4305402802E1D3C
:102EF00002632CEE01752AC501B028A001102781BC
:102F0000018F2564012B244B01E0223401AC211FE9
:102F1000018D200D01801FFC00841EED00971DDF38
:102F200000B81CD200E61BC600201BBC00641AB20D
:102F300000B219A8000A19A0006A189900D11791C7
:102F40000040178B00B516840031167E00B315794A
:102F5000003A157300C7146F0058146A00EE136628
:102F6000008813630025135E00C7125B006C1257C4
:102F70000015125400C111510070114F0021114B66
:102F800000D61049008D1047004610440002104240
:102F900000C00F4000800F3E00420F3C00060F3B78
:102FA00000CB0E3800930E37005C0E3500270E3430
:102FB00000F30D3200C10D3100900D3000600D2E78
:102FC00000320D2D00050D2C00D90C2B00AE0C2964
:102FD00000850C29005C0C2700350C27000E0C2600
:102FE00000E80B2400C40B2400A00B23007D0B235E
:102FF000005A0B2100390B2100180B2000F80A1F82
:1030000000D90A1E00BB0A1E009D0A1D00800A1D71
:1030100000630A1C00470A1B002C0A1B00110A1A35
:1030200000F7091A00DD091900C4091900AB0919D4
:1030300000920917007B091800630917004C091654
:103040000036091600200916000A091500F50815B2
:1030500000E0081400CC081400B8081400A40814F8
:1030600000900813007D0812006B08130058081226
:10307000004608120034081100230811001208113C
:103080000001081100F0071000E0071000D0071041
:1030900000C0071000B0070F00A107100091070E35
:1030A0000083070F0074070F0065070E0057070E17
:1030B0000049070E003B070D002E070E0020070DEC
:1030C0000013070D0006070D00F9060C00ED060DB4
:1030D00000E0060C00D4060C00C8060C00BC060C70
:1030E00000B0060C00A4060B0099060C008D060B20
:1030F0000082060B0077060B006C060B0061060AC7
:103100000057060B004C060A0042060A0038060A61
:10311000002E060A0024060A001A060A00100609F4
:103120000007060A00FD050900F4050900EB050982
:1031300000E2050900D9050900D0050900C7050905
:1031400000BE050900B5050800AD050800A5050984
:10315000009C050800940508008C050800840508FB
:10316000007C050800740508006C0507006505086B
:10317000005D050700560508004E050700470507D6
:10318000004005080038050700310507002A05073B
:1031900000230507001C050600160507000F05079C
:1031A000000805060002050700FB040600F50407F9
:1031B00000EE040600E8040600E2040700DB040653
:1031C00000D5040600CF040600C9040600C30406A7
:1031D00000BD040600B7040600B1040500AC0406F7
:1031E00000A6040600A00405009B04060095040543
:1031F00000900406008A040500850405008004068A
:10320000007A04050075040500700405006B0405D0
:103210000066040500610405005C04050057040510
:1032200000520405004D0405004804050043040550
:10323000003E0404003A040500350405003004048F
:10324000002C04050027040400230405001E0404C8
:10325000001A04040016040500110404000D0404FF
:1032600000090405000404040000040400FC030435
:1032700000F8030400F4030400F0030400EC03046A
:1032800000E8030400E4030400E0030400DC03049A
:1032900000D8030400D4030400D0030400CC0304CA
:1032A00000C8030300C503030024F404D9201BC491
:1032B0000C5C0E9804C4095F0265077101F405F9FE
:1032C00000FB04B30048048700C10369005803559C
:1032D0000003034500BE023A008402310053022A73
:1032E000002902250004022000E4011C00C8011985
:1032F00000AF011700980114008401130071011040
:10330000006101100051010E0043010D0036010B58
:10331000002B010B0020010B00150109000C010915
:103320000003010800FB000800F3000800EB0007A1
:1033300000E4000600DE000600D8000600D2000609
:1033400000CC000500C7000500C2000500BD000458
:1033500000B9000400B5000400B1000400AD000491
:1033600000A9000400A5000300A20003009F0004C0
:10337000009B0003009800030095000200930003E7
:1033800000900003008D0002008B00030088000203
:10339000008600020084000300810002007F00021A
:1033A000007D0002007B000200790002007700012E
:1033B0000076000200740002007200010071000239
:1033C000006F0002006D0001006C0002006A000145
:1033D000006900020067000100660001006500014D
:1033E0000064000200620001006100010060000151
:1033F000005F0002005D0001005C0001005B000155
:10340000005A000100590001005800010057000156
:103410000056000100550001005400010053000057
:103420000053000100520001005100010050000152
:10343000004F0001004E0000004E0001004D000151
:10344000004C0001004B0000004B0001004A00014D
:103450000049000100480000004800010047000149
:103460000046000000460001004500000045000144
:10347000004400010043000000430001004200003E
:103480000042000100410000004100010040000135
:10349000003F0000003F0001003E0000003E000130
:1034A000003D0000003D0001003C0000003C000029
:1034B000003C0001003B0000003B0001003A00001E
:1034C000003A000100390000003900010038000016
:1034D000003800000038000100370000003700010C
:1034E0000036000000360000003600010035000004
:1034F00000350000003500010034000000340000F9
:1035000000340001003300000033000000330001EC
:1035100000320000003200000032000100310000E3
:1035200000310000003100010030000000300000D8
:1035300000300001002F0000002F0000002F0000CD
:10354000002F0001002E0000002E0000002E0001C0
:10355000002D0000002D0000002D0000002D0001B6
:10356000002C0000002C0000002C0000002C0001AA
:10357000002B0000002B0000002B0000002B00019E
:10358000002A0000002A0000002A0000002A000192
:103590000029000000290000002900000029000087
:1035A0000029000100280000002800000028000079
:1035B000002800000028000100270000002700006C
:1035C000002700000027000000270001002600005F
:1035D0000026000000260000002600000026000152
:1035E0000025000000250000002500000025000047
:1035F0000025000000250001002400000024000038
:10360000002400000024000000240001002300002A
:10361000002300000023000000230000002300001E
:10362000002300000023000100220000002200000F
:103630000022000000220000002200000022000101
:1036400000210000002100000021000000210000F6
:1036500000210000002100000021000100200000E6
:1036600000200000002000000020000000200000DA
:10367000002000000020000000200001001F0000CA
:10368000001F0000001F0000001F0000001F0000BE
:10369000001F0000001F0001001E0000001E0000AF
:1036A000001E0000001E000000256920686F757272
:1036B00073202569206D696E757465730054494DDA
:1036C000454F55543A004D3131300046756C6C20F1
:1036D00052582042756666657200437573746F6D4B
:1036E00000536174696E20005465787475720053DC
:1036F0006D6F6F74680047312059252D2E3266207A
:1037000045252D2E33660047312058256420592544
:103710002D2E32662045252D2E3366006673656E8C
:10372000736F725F636865636B706F696E745F70EF
:1037300072696E74006673656E736F722076302ED8
:103740003420696E206661756C742072616E6765E5
:1037500020342E362D3556202D20756E636F6E6EFB
:103760006563746564006673656E736F7220696E5D
:1037700020666F7262696464656E2072616E67654F
:1037800020312E352D3356202D20636865636B2044
:1037900073656E736F7200312E3000312E35005517
:1037A0004E4B4E4F574E004C413130433A204C69FE
:1037B0006E65617220416476616E6365206D6F6431
:1037C000653A20004C413130433A2041646A7573B8
:1037D00074656420452D4A65726B3A2000000E1313
:1037E00015110E00000004120912040000001C1F35
:1037F00011111F00000006191803130C00040E1FFE
:10380000041C000000040A0A0A0A11110E001F1508
:1038100011151F0000000103161C08000000001114
:103820000A04110A040C12120C00000000446F6E0E
:1038300065207072696E74696E672066696C6500D8
:103840004D3131322063616C6C65642E20456D65AD
:103850007267656E63792053746F702E00507269C1
:103860006E7465722073746F707065642064756522
:1038700020746F206572726F72732E2046697820F3
:10388000746865206572726F7220616E6420757352
:1038900065204D39393920746F20726573746172F7
:1038A000742E202854656D70657261747572652080
:1038B00069732072657365742E2053657420697472
:1038C0002061667465722072657374617274696ECA
:1038D0006729004E6F204C696E65204E756D6265DC
:1038E00072207769746820636865636B73756D2CEB
:1038F000204C617374204C696E653A20004E6F2035
:10390000436865636B73756D2077697468206C69B3
:103910006E65206E756D6265722C204C617374202B
:103920004C696E653A2000636865636B73756D2042
:103930006D69736D617463682C204C617374204CE5
:10394000696E653A20004C696E65204E756D626542
:1039500072206973206E6F74204C617374204C69FF
:103960006E65204E756D6265722B312C204C617333
:1039700074204C696E653A200053544F50504544B2
:103980002E00756E6B6E6F776E20737461746500B8
:1039900020302E34206F72206E65776572002030E3
:1039A0002E33206F72206F6C646572001000C902A4
:1039B00010012C014001220170011801B0010E011B
:1039C000F00104015002FA00B002F0003003E600FA
:1039D000D003DC009004D2007005C800A006BE0031
:1039E0000008B400B009AA00D00BA000600E960039
:1039F00060118C000015820020197800C01D6E0037
:103A0000A0226400B0275A00902C500000314600DC
:103A1000E0343C0010383200903A2800603C1E0030
:103A2000A03D1400803E0A00203F000045787472DB
:103A3000756465722066616E2073706565642069C7
:103A400073206C6F776572207468616E2065787082
:103A50006563746564005072696E742066616E20DF
:103A60007370656564206973206C6F77657220746C
:103A700068616E206578706563746564004D494EB9
:103A800054454D5020414D42004D415854454D50F4
:103A9000004D415854454D5020424544004D415839
:103AA00054454D5020414D4200202D20496E7661F5
:103AB0006C6964206578747275646572206E756DCA
:103AC00062657220210070012C0190012701B00174
:103AD0002201C0011D01F001180110021301300282
:103AE0000E016002090190020401C002FF00000300
:103AF000FA004003F5008003F000D003EB0020043F
:103B0000E6007004E100E004DC004005D700C005D9
:103B1000D2004006CD00D006C8008007C3003008A0
:103B2000BE00F008B900C009B400B00AAF00B00B85
:103B3000AA00D00CA500000EA000500F9B00C010E2
:103B400096005012910000148C00C0158700B01729
:103B50008200B0197D00D01B7800001E7300402049
:103B60006E0090226900F024640040275F009029D5
:103B70005A00E02B5500102E500020304B00103220
:103B80004600E033410090353C0010373700703874
:103B90003200A0392D00B03A2800A03B2300603C41
:103BA0001E00103D1900903D1400103E0F00703EA5
:103BB0000A00C03E0500003F000090137D00B015D4
:103BC0007800F0177300601A6E00F01C6900A01FE7
:103BD000640050225F0020255A00E0275500902AFB
:103BE0005000202D4B00A02F4600F0314100103432
:103BF0003C00F0353700A037320020392D00603A04
:103C00002800703B2300603C1E00203D1900C03D91
:103C10001400403E0F00A03E0A00F03E0500403F69
:103C20000000703FFBFF903FF6FFB03FF1FFC03F49
:103C3000ECFFD03FE7FFE03FE2FFF03FDDFFF03F6A
:103C4000D8FF20484F54454E4420544845524D41DA
:103C50004C2052554E41574159002048454154424D
:103C6000454420544845524D414C2052554E4157F1
:103C7000415900544845524D414C2052554E4157F0
:103C800041590042454420544845524D414C205230
:103C9000554E415741590020544845524D414C2002
:103CA00052554E41574159202820505245484541D0
:103CB0005420484F54454E44290020544845524D05
:103CC000414C2052554E41574159202820505245D1
:103CD00048454154204845415442454429005052EA
:103CE0004548454154204552524F520042454420D8
:103CF00050524548454154204552524F520045725A
:103D0000723A2000207472696767657265642100E9
:103D1000486561746572732073776974636865645C
:103D2000206F66662E20003A2000506C6561736536
:103D30002072657374617274004D494E54454D5044
:103D4000004D494E54454D502042454400506C654D
:103D50006173652070756C6C206F75742066696C7A
:103D6000616D656E7420696D6D6564696174656C03
:103D70007900556E6C6F6164696E672066696C616D
:103D80006D656E740052657365740052656E616D89
:103D900065004669727374206C6179657220636195
:103DA0006C2E0053656C65637400537465656C20FC
:103DB00073686565747300537570706F7274004634
:103DC00061696C207374617473204D4D55004661B8
:103DD000696C2073746174730053746174697374D3
:103DE0006963730043616C6962726174696F6E002C
:103DF0004175746F4C6F61642066696C616D656EAE
:103E000074004375742066696C616D656E7400455D
:103E10006A6563742066696C616D656E7400556EC9
:103E20006C6F61642066696C616D656E74004C6FC7
:103E3000616420746F206E6F7A7A6C65004C6F61DC
:103E4000642066696C616D656E74004E6F2053442A
:103E50002063617264005072696E742066726F6DC7
:103E600020534400526573756D65207072696E74DD
:103E7000005061757365207072696E7400507265D0
:103E8000686561740054756E65004C6976652061E3
:103E9000646A757374205A00496E666F207363728A
:103EA00065656E0046696E697368696E67206D6F3F
:103EB00076656D656E7473004272696768746E65CD
:103EC0007373004173736973740053696C656E7426
:103ED000004F6E6365004C6F756400536F756E64C0
:103EE000004D4D55204D6F6465004372617368202D
:103EF0006465742E00537465616C7468004E6F7253
:103F00006D616C0046616E7320636865636B005081
:103F10006175736500436F6E742E004653204163D4
:103F200074696F6E0046696C2E2073656E736F72D4
:103F3000004368616E67652066696C616D656E74CB
:103F400000466C6F77005370656564004E2F41002A
:103F50004D61676E65747320636F6D702E005A2D0E
:103F600070726F6265206E722E004D65736800542A
:103F7000696D656F757400427269676874004D6F92
:103F80006465004175746F0044696D004C65766529
:103F90006C2044696D6D6564004C6576656C2042EB
:103FA00072696768740046616E20737065656400AD
:103FB000426564004E6F7A7A6C650053657474696B
:103FC0006E6773005072696E742061626F727465FF
:103FD000640053746F70207072696E740045727261
:103FE0003A205052494E542046414E204552524F9D
:103FF00052004572723A20455854522E2046414E86
:10400000204552524F52002F2F20616374696F6E0A
:104010003A706175736564002F2F20616374696F56
:104020006E3A726573756D6564002F2F206163743D
:10403000696F6E3A726573756D65002F2F2061632D
:1040400074696F6E3A63616E63656C004D36303033
:1040500000773235783230636C5F63666D0A0077C3
:104060003235783230636C5F656E7465720A007346
:10407000746172740A0020746F6F206C6F6E672019
:10408000657874727573696F6E2070726576656E8F
:104090007465640020636F6C642065787472757356
:1040A000696F6E2070726576656E746564004D2070
:1040B0003834004D3834004D3234004D3233202531
:1040C0007300052E2E00257500593A202575202DE8
:1040D0003E202E2E2E00257500583A202575202DC5
:1040E0003E202E2E2E004D6561737572656420662C
:1040F000696C616D656E742073656E736F72206C90
:104100006F77206C6576656C3A2025342E326656C2
:104110000A004D656173757265642066696C616D36
:10412000656E742073656E736F72206869676820AE
:104130006C6576656C3A2025342E3266560A004549
:104140007874722066616E2073706565643A20250C
:10415000640A005072696E742066616E2073706527
:1041600065643A2025640A005465737420323A006D
:10417000457874722066616E2073706565643A20BC
:1041800025640A005072696E742066616E20737037
:104190006565643A2025640A005465737420313AD9
:1041A000004D383400436865636B696E672066694B
:1041B0006C650046696C6520696E636F6D706C6537
:1041C00074652E20436F6E74696E756520616E791B
:1041D0007761793F000452656672657368004D61CE
:1041E000696E00496E736572742074686520666933
:1041F0006C616D656E742028646F206E6F74206C26
:104200006F61642069742920696E746F2074686519
:1042100020657874727564657220616E64207468BC
:10422000656E20707265737320746865206B6E6FA5
:10423000622E00566572696669636174696F6E20EB
:104240006661696C65642C2072656D6F766520749B
:1042500068652066696C616D656E7420616E6420AE
:1042600074727920616761696E2E0053656E736F99
:10427000722076657269666965642C2072656D6F5F
:104280007665207468652066696C616D656E742062
:104290006E6F772E00506C6561736520636865638F
:1042A0006B207468652049522073656E736F7220AD
:1042B000636F6E6E656374696F6E2C20756E6C6FC4
:1042C00061642066696C616D656E7420696620703A
:1042D000726573656E742E00506C65617365207530
:1042E0006E6C6F6164207468652066696C616D65D1
:1042F0006E742066697273742C207468656E207207
:104300006570656174207468697320616374696F96
:104310006E2E0057616974696E6720666F72206E39
:104320006F7A7A6C6520616E642062656420636FC9
:104330006F6C696E670053656C66207465737420DA
:104340004F4B0053656C6620746573742073746101
:1043500072740078797A63616C5F73706972616CF2
:10436000322063783D25642063793D2564207A30CE
:104370003D256420647A3D2564207261646975730B
:104380003D25642061643D25640A005061747465B4
:10439000726E2063656E746572205B2566202566EB
:1043A0005D2C206D6174636820256625250A002038
:1043B0005B25662C2025665D5B25665D2066696E43
:1043C000616C20636972636C650A00577269746975
:1043D0006E6720746F2066696C653A200046696CD0
:1043E0006520616C7265616479206F70656E6564CB
:1043F00000746D63323133305F676F746F5F737455
:104400006570202564202564202564202564200A09
:10441000004E6F2030784646207265636569766588
:10442000640053656E64696E6720307846460046C6
:10443000696C652073656C656374656400205369FD
:104440007A653A200046696C65206F70656E656418
:104450003A20004E6F772066726573682066696C3B
:10446000653A20004E6F7720646F696E6720666939
:104470006C653A20002220706F73002220706172F8
:10448000656E743A2200535542524F5554494E4579
:104490002043414C4C207461726765743A22007469
:1044A0007279696E6720746F2063616C6C2073751C
:1044B000622D67636F64652066696C657320776938
:1044C000746820746F6F206D616E79206C657665FD
:1044D0006C732E0053442063617264206F6B006F15
:1044E00070656E526F6F74206661696C65640076EA
:1044F0006F6C756D652E696E6974206661696C6597
:104500006400534420696E6974206661696C006FB1
:1045100070656E206661696C65642C2046696C6507
:104520003A20002563252D31382E3138532563007C
:104530005B25735D2563005B25535D256300256363
:10454000252D31382E31385300252E31305320009F
:104550002563252D31382E313873256300256325D9
:104560002D31382E3138732563002563252D2E31EA
:10457000365320002563252E3135533A25732533D4
:104580006400252D32302E3230530A004578726592
:104590006D65207370616E206F6620746865205AA7
:1045A0002076616C756573210025642F39006F6B6F
:1045B0000A00426564206C6576656C696E672066EA
:1045C00061696C65642E2053656E736F7220646937
:1045D000646E277420747269676765722E20446563
:1045E00062726973206F6E206E6F7A7A6C653F20FD
:1045F00057616974696E6720666F722072657365B2
:10460000742E00312F3900504F5745522050414EE3
:1046100049432044455445435445440055564C4F66
:10462000202D20656E642025640A0055564C4F5F8E
:1046300054494E59202D20656E642025640A007768
:104640006F726C6420636F6F7264696E61746573FE
:104650003A2028252E33662C20252E33662C202543
:104660002E3366290A0043757272656E7420706F6E
:1046700073205A5F415849533A252E33660A4375D1
:104680007272656E7420706F7320455F4158495394
:104690003A252E33660A0041667465722077616997
:1046A00074696E6720666F722074656D703A0A4394
:1046B000757272656E7420706F7320585F4158492F
:1046C000533A252E33660A43757272656E742070F4
:1046D0006F7320595F415849533A252E33660A00BB
:1046E000494E5434007265636F7665725F6D616325
:1046F00068696E655F73746174655F616674657225
:104700005F706F7765725F70616E69632C20696E90
:10471000697469616C200050525553412075766C64
:104720006F004734205330004D32362053256C75CE
:10473000004D3130362053004D3232302053256445
:1047400000473120462564004D3832004739322079
:1047500045004731204525302E336620463237301C
:1047600030004D32303420502566205225662054CA
:104770002566004731205A25660050525553412086
:104780004D424C205631004731205825662059258E
:104790006620463330303000506F736974696F6E35
:1047A00020726561642066726F6D20656570726F3E
:1047B0006D3A004D3233202573002E67636F002C55
:1047C00020666565646D756C7469706C793A004635
:1047D000656564726174653A0047312045252D3066
:1047E0002E336620463237303000473120453520A1
:1047F00046313230004D3833004D313039205325A9
:1048000064004D31393020532564004D313034205F
:104810005325640047323820582059004731205A28
:10482000252E33662046383030004731205A252D5A
:10483000302E33662046252D302E3366004731203A
:1048400045252D302E3366204632373030004D3826
:1048500033005265636F766572696E6720707269A6
:104860006E7400506C6561736520776169740047F0
:10487000312058352E302045342E3020463130300E
:10488000302E30004731205A302E32302046313021
:1048900030302E30004731205835352E302045320B
:1048A000352046313430302E3000473120592D32FA
:1048B0002E302046313030302E30004731205832F3
:1048C00034302E30204532352E30202046323230E2
:1048D000302E30004739322045302E30004731200D
:1048E0005A302E332046313030302E3000473120C0
:1048F0005835352E302045382E3020463230303075
:104900002E300047312058352E30204533322E309E
:104910002046313830302E30004731205835352E82
:1049200030204533322E302046313037332E3000A0
:104930004731204634303030004D3230342053314E
:10494000303030004731205A352046373230302E53
:1049500030303000473120452D312E353030303069
:104960002046323130302E3030303030004D383348
:104970000047393000473231004739322045302E68
:104980003000473120583530205935352045332EF9
:1049900036323737330047312058323030205935DE
:1049A000352045302E3439333836004731205832DF
:1049B0003030205937352045332E363237373300E3
:1049C000473120583530205937352045302E34397D
:1049D0003338360047312058353020593935204595
:1049E000332E3632373733004731205832303020BB
:1049F0005939352045302E34393338360047312087
:104A00005832303020593131352045332E36323747
:104A10003733004731205835302059313135204562
:104A2000302E34393338360047312058353020594C
:104A30003133352045332E36323737330047312076
:104A40005832303020593133352045302E3636310A
:104A50003734004731205832303020593135352035
:104A600045322E3632373733004731205831303017
:104A7000205931353520453200473120583735200F
:104A8000593135352045322E3500473120463130F9
:104A90003830004731205A302E31353020463732F9
:104AA00030302E30303000473120583530205931E9
:104AB0003535004739322045302E30004732380036
:104AC0004D313039004D313930004D31303700250E
:104AD0002D3773003A200025642F3600252D323003
:104AE0005300203A2000252D3230730054256400F5
:104AF0004731205A302E342046313030302E3000AD
:104B0000473120592D332E302046313030302E3071
:104B1000004D383300473120583130302E30204599
:104B200031322E352046313030302E3000473120A2
:104B30005836302E302045392E3020463130303036
:104B40002E300019490349ED48DD48D448BB48AA36
:104B500048954884486F487949754971496D495469
:104B60004944493949304947312058353020593373
:104B7000352045252D2E336600A74A934A8A4A7967
:104B80004A694A534A3D4A284A134AFD49E849D4EA
:104B900049C049AB4996498249496E76616C69645E
:104BA000205049442063616C2E20726573756C74CB
:104BB000732E204E6F742073746F72656420746F4F
:104BC00020454550524F4D2E004D35303000473175
:104BD000205A3135204631353030004739310047D1
:104BE0003120583530205931393020453020463772
:104BF00030303000473930004D3834004D373032D6
:104C00002043004731205831302059313830204678
:104C100034303030004731205A3130204631333083
:104C2000302E303030004D313430205330004D3193
:104C3000303420533000473120452D302E30373569
:104C400030302046323130302E3030303030004D70
:104C5000313037004D313137204669727374206C22
:104C6000617965722063616C2E00526573756D69A0
:104C70006E67207072696E740050494E444120483E
:104C8000656174696E670043616C69627261746921
:104C90006F6E20646F6E650043616C69627261744F
:104CA000696E67205A0042656420646F6E65004239
:104CB00065642048656174696E6700486561746960
:104CC0006E6720646F6E652E0048656174696E675B
:104CD000005049442063616C2E2066696E697368D8
:104CE0006564005049442063616C2E005072696E07
:104CF0007420706175736564005A25362E326625FE
:104D000063005A2020202D2D2D200025632533649B
:104D10002525002D2D2D002533686864002533538B
:104D200025337325250055534200202020002053B1
:104D300044002025753E257500203F3E2575002046
:104D40004625750020463F002046524D2000256331
:104D50002D2D3A2D2D202000256325337568202523
:104D6000632563002563253032753A253032752579
:104D7000632563002F2F20616374696F6E3A706141
:104D8000757365004D363030006673656E736F72F3
:104D90005F757064617465202D204D363030004998
:104DA000522073656E736F72206E6F74207265731C
:104DB000706F6E64696E672028256429210A0020BF
:104DC000573A0020453A00543A005A206C697665FB
:104DD0002061646A757374206F7574206F66207229
:104DE000616E67652E2053657474696E6720746FF9
:104DF00020302E20436C69636B20746F20636F6ECC
:104E000074696E75652E005A206C69766520616440
:104E10006A757374206F7574206F662072616E6797
:104E2000652E2053657474696E6720746F2030009E
:104E300020423A0020453A00543A004865617469BE
:104E40006E672064697361626C65642062792073A7
:104E500061666574792074696D65722E0046532011
:104E600076302E33206F72206F6C6465720046536B
:104E70002076302E34206F72206E6577657200497F
:104E80006E61637469766974792053687574646FB0
:104E9000776E004B494C4C45442E20005072696E91
:104EA0007465722068616C7465642E206B696C6C2B
:104EB00028292063616C6C656421004B494C4C3A95
:104EC0002025640A004D32323120496E76616C69CA
:104ED0006420657874727564657220004D323138D3
:104EE00020496E76616C69642065787472756465BA
:104EF0007220004D31303920496E76616C69642032
:104F0000657874727564657220004D3130352049C2
:104F10006E76616C69642065787472756465722060
:104F2000004D31303420496E76616C6964206578BB
:104F300074727564657220005072656865617420D2
:104F4000746865206E6F7A7A6C6521004552524F05
:104F5000523A0046696C616D656E742065787472B2
:104F60007564696E672026207769746820636F72A4
:104F70007265637420636F6C6F723F004175746F6C
:104F80006C6F6164696E672066696C616D656E74D3
:104F9000206973206163746976652C206A75737467
:104FA00020707265737320746865206B6E6F622069
:104FB000616E6420696E736572742066696C616DE0
:104FC000656E742E2E2E005072696E742074696D99
:104FD000650046696C616D656E742075736564006B
:104FE000546F74616C207072696E742074696D65A1
:104FF00000546F74616C2066696C616D656E74003D
:105000005269676874004C6566740059206469735E
:1050100074616E63652066726F6D206D696E0053FA
:10502000657665726520736B657700536C69676898
:105030007420736B6577004D6561737572656420CC
:10504000736B6577005B303B305D20706F696E7409
:10505000206F66667365740041646A757374696E67
:1050600067205A3A00526561722073696465205B5B
:10507000756D5D0046726F6E7420736964655B7553
:105080006D5D00526967687420736964655B756D56
:105090005D004C6566742073696465205B756D5DA9
:1050A000005365742074656D706572617475726506
:1050B0003A0025533A0A2531382E32666D200A25EA
:1050C000533A0A2531306C646820253032686864B0
:1050D0006D20253032686864730025533A0A253103
:1050E000382E32666D200A25533A0A2531306C6419
:1050F000642025303268686468202530326868642E
:105100006D0025362E32666D6D0025530A25530A33
:1051100025533A0A25533A0025332E3266010025DD
:105120002D31342E3134533A0A25530A252D31348A
:105130002E3134533A25332E3266010A252D31346F
:105140002E3134533A25332E32660100252D31326B
:105150002E313253252B382E316600457874727506
:105160006465723A006D6D0059005800583A005954
:105170003A005A3A002563252D31332E3133532519
:105180002B352E33660053706F6F6C4A6F696E005B
:105190004669726D7761726500466C61736841693A
:1051A0007200437574746572004D6F64656C0053D2
:1051B0007472696374005761726E00436865636B53
:1051C00073004E6F7A7A6C6520642E004E6F6E65A8
:1051D00000416C7068616265740054696D650053CC
:1051E0006F727400534420636172640052506920EE
:1051F000706F72740054656D702E2063616C2E00A8
:105200004C696E2E20636F7272656374696F6E00F5
:10521000485720536574757000462E206175746F71
:105220006C6F61640044697361626C6520737465BE
:105230007070657273004D6F7665206178697300D8
:1052400054656D70657261747572650054656D703A
:105250002E2063616C6962726174696F6E005265C1
:105260007365742058595A2063616C6962722E000C
:105270005049442063616C6962726174696F6E00A9
:10528000426564206C6576656C20636F727265633D
:1052900074004D65736820426564204C6576656CCA
:1052A000696E670043616C696272617465205A00BF
:1052B00043616C6962726174652058595A00536584
:1052C0006C66746573740042656C742074657374E5
:1052D0000057697A617264004C6F616420616C6C84
:1052E000004578706572696D656E74616C00467317
:1052F000656E736F7220446574656374696F6E00C8
:1053000044697361626C65206661726D206D6F64C3
:1053100065004D3834004D34340047323820570092
:10532000200A200A20004739390044697361626C01
:1053300065206661726D206D6F64653F00452D6369
:105340006F6F6C206D6F646500414C5446414E2078
:105350006465742E004F6E004F6666004261636B99
:10536000005072696E746572206E6F7A7A6C652077
:105370006469616D657465722064696666657273DF
:105380002066726F6D2074686520472D636F6465B9
:105390002E20506C6561736520636865636B2074B3
:1053A00068652076616C756520696E20736574741C
:1053B000696E67732E205072696E742063616E632C
:1053C000656C6C65642E005072696E746572206E37
:1053D0006F7A7A6C65206469616D657465722064AA
:1053E0006966666572732066726F6D2074686520E9
:1053F000472D636F64652E20436F6E74696E75650B
:105400003F0050525553413344465700000021009D
:10541000240027002A002D00300033000101000085
:10542000040107010A0100002200250028002B00CA
:105430002E003100340002010000050108010B01BB
:10544000000020002300260029002C002F0032003D
:105450000001000003010601090105050505070516
:1054600008080808020202020A0A080804040404E0
:10547000010101010101010103030303030303030C
:10548000040707070C0C0C0C0C0C0C0C020202029B
:1054900006060606060606060B0B0B0B0B0B0B0B84
:1054A00007070A0A0A0A0A0A050505040404080887
:1054B0000102102020080810204010204080020126
:1054C000020108040201010204081020408080400B
:1054D000201008040201800402018040201008040A
:1054E00002010804020101020408102040800102A8
:1054F0000408102040801008040880102040044058
:1055000080102040048000000A0B02090C0D0E08D8
:10551000070304010000000000000000000000007C
:10552000000000000000000000000000000000007B
:105530000000121110000000000000000000000038
:10554000000000000000000000000000000000005B
:10555000000000000000000000000000257320256E
:1055600034642052504D0A25732025346420525053
:105570004D0A00686F77746F2E70727573613364B3
:105580002E636F6D00666F72756D2E70727573612C
:1055900033642E636F6D00707275736133642E63B4
:1055A0006F6D005072696E742046414E004E6F7AE6
:1055B0007A6C652046414E004D4D5520706F7765E1
:1055C00072206661696C73004D4D55206C6F61648B
:1055D000206661696C73004D4D55206661696C737E
:1055E00000546F74616C206661696C75726573003C
:1055F00043726173680046696C2E2072756E6F7518
:10560000747300506F776572206661696C7572659E
:1056100073004C617374207072696E7420666169E6
:105620006C7572657300546F74616C004C617374B7
:10563000207072696E7400416D6269656E74005607
:105640006F6C74616765730054656D706572617429
:10565000757265730042656C742073746174757340
:105660000053656E736F7220696E666F00457874C3
:10567000727564657220696E666F0058595A2063AE
:10568000616C2E2064657461696C7300756E6B6E5D
:105690006F776E004D4D553220636F6E6E6563748B
:1056A000656400446174653A0055706461746520F6
:1056B000464D20465700464D204657207479706568
:1056C000205B64656275675D00464D204657207417
:1056D000797065205B737461626C655D00746F2026
:1056E000756E6C6F61642066696C616D656E7400C7
:1056F000746F206C6F61642066696C616D656E7497
:1057000000507265737320746865206B6E6F620061
:1057100050726568656174696E6720746F20637587
:10572000740050726568656174696E6720746F20DB
:10573000656A6563740050726568656174696E6757
:1057400020746F20756E6C6F6164005072656865BF
:105750006174696E6720746F206C6F616400436FC1
:105760006F6C646F776E0025530A20252D31362E1D
:10577000313653252D33640A20252D31362E31360E
:1057800053252D33640025530A20252D31362E3123
:105790003653252D33640A20252D31362E313653CC
:1057A000252D33640A20252D31362E313653252DF3
:1057B00033640025530A20252D31362E31365325EA
:1057C0002D33640A20252D31362E313653252D33C5
:1057D000640A20252D372E37535820252D33642079
:1057E000205920252D3364002025732533640120A2
:1057F0000A000A204952203A20202020202020257B
:10580000332E31665600205057523A202020202057
:105810002025342E3166560A204245443A20202065
:1058200020202025342E3166560025530A2058208A
:1058300025640A20592025640025752E25752E25FE
:10584000752E25750025730020005072696E7465F1
:105850007220495020416464723A00257300200090
:10586000466C6173684169722049502041646472DA
:105870003A004D4D5532202020202020204E2F412F
:105880000025642E25642E25642D256400204657AE
:105890003A0046696C2E2073656E736F7220762E07
:1058A0003A004A616E2031322032303232004533C4
:1058B00044763666756C6C0045494E53795F3130DD
:1058C0006100315F37356D6D5F4D4B33002D2D2DF0
:1058D0002D2D2D2D2D2D2D2D2D00207265706F203D
:1058E000556E6B6E6F776E0020332E31302E302D5B
:1058F00034343831004669726D776172653A00461A
:105900004D2076657273696F6E3A2000464D2049CE
:10591000503A20004D373032004D373031004D378E
:105920003032004D37303100464C4558202D202074
:105930003234302F35300050502020202D2020329E
:1059400035342F3130300048495053202D2020323B
:1059500032302F3130300041425320202D20203270
:1059600035352F3130300050564220202D20203246
:1059700031352F37350050432020202D202032375D
:10598000352F3131300041534120202D2020323637
:10599000302F3130350050455420202D2020323317
:1059A000302F383500504C4120202D202032313509
:1059B0002F3630006E6F7A7A6C65202D20203235BC
:1059C000302F30006661726D2020202D202032356E
:1059D000302F38300054656D706572617475726572
:1059E0002063616C6962726174696F6E20666169BF
:1059F0006C65640054656D706572617475726520C4
:105A000063616C6962726174696F6E20697320668C
:105A1000696E697368656420616E6420616374698E
:105A200076652E2054656D702E2063616C696272FC
:105A30006174696F6E2063616E20626520646973B2
:105A400061626C656420696E206D656E75205365BA
:105A50007474696E67732D3E54656D702E2063619A
:105A60006C2E0046696C2E2073656E736F72004554
:105A700078747275646572004D6F7665205A004DBA
:105A80006F76652059004D6F766520580054656D1E
:105A900070657261747572652063616C69627261B0
:105AA00074696F6E206661696C65642E20436F6E49
:105AB00074696E7565207769746820707265737398
:105AC000696E6720746865206B6E6F622E00546586
:105AD0006D70657261747572652063616C69627264
