:100000000C9440360C9471360C9471360C94713605
:100010000C9471360C9454E50C9471360C94713632
:100020000C94DFE40C9471360C9431740C9471369A
:100030000C9474770C9471360C946CF60C94438188
:100040000C9471360D9460470C9471360C94713693
:100050000C9471360C9471360C9471360C94657353
:100060000C9471360C94147A0C9471360C9471368D
:100070000C9471360C9471360C9471360C94713664
:100080000C9471360C9471360C9471360C94713654
:100090000C94D0790C9471360C9471360C947136A2
:1000A0000C9471360C9471360C9459800C94713602
:1000B0000C9471360C943B800C9471360C94713610
:1000C0000C9471360C9471360C9471360C948C7FB0
:1000D0000C9471360C9471360C9471360C94713604
:1000E0000C94713681738F739D73AA73BC73C37341
:1000F000E573FB736ACB86CD56CD4BCD40CD35CD68
:100100002ACDA9CD99CD03CDD5CCB9CCE2D293D20D
:10011000E2D2E5D256D371D3E2D2E2D290D38701B4
:100120006B022D021903B502D702FB028F02650292
:1001300029023502B10253028501D7029D02E10175
:100140009501B9028D02D902FF026702A702C3011D
:10015000EB01F902F7026102DD017702CD01A7028E
:10016000C10189028B010703650129031503C5013C
:10017000B501CD029301D5013D020D026B010F02C5
:10018000A70171016D025F014F023503CF010B0220
:10019000BD0135033103B702DB01AD026701550133
:1001A0007D01AB0139027F025901F301F70111030F
:1001B0000D035301A102A301A301D502A301D5029E
:1001C00023028102084AD73B3BCE016E84BCBFFDAF
:1001D000C12F3D6C74319ABD56833DDA3D00C77F17
:1001E00011BED9E4BB4C3E916BAAAABE00000080B0
:1001F0003F05A84CCDB2D44EB93836A9020C50B93F
:10020000918688083CA6AAAA2ABE000000803F0763
:10021000634236B79BD8A71A39685618AEBAAB55A1
:100220008C1D3CB7CC5763BD6DEDFD753EF6177266
:1002300031BF000000803F08000000BE9224491238
:100240003EABAAAA2ABECDCCCC4C3E00000080BE5C
:10025000ABAAAAAA3E00000000BF000000803F0039
:1002600000000000084178D3BB4387D1133D190E2D
:100270003CC3BD4282AD2B3E68EC8276BED98FE195
:10028000A93E4C80EFFFBE01C4FF7F3F000000008D
:1002900000000C944BCD0C947AF10C94C3B40C94E4
:1002A00049BD0C9499CD0D94CE610D946C610C9464
:1002B000D5CC0D949C610D9402880D941D560D941F
:1002C00058460C947EB60C94D1F10D94FD270D94F4
:1002D00063610D9456690D94DE2A0C9444BC0C9411
:1002E00032C10D9441460D9468020D9402550C9450
:1002F0003ABC0C942DC10C9473BD0D9479610C948F
:10030000E2D20C94A9CD0D941E430D944A020D9493
:1003100023020C948F730D943C050C94AA730D94D6
:100320002B530C9407CB0D946A290D9458020C940E
:1003300071D30C94196C0C945BBD0D944A650D94AB
:10034000B2400D945B690D94C76B0C9456D30D9419
:100350002F460D94A1030D947C610C9462B60C940D
:10036000A76E0C9494B80C9493D20D942E2B0D94EC
:1003700090420D9477410C9458BC0D94AE460D9468
:100380006C3E0D9428050D94D7040D943A270C94D7
:1003900093BD0C9481730D94723C0D941E050D94C5
:1003A000A0460C9453BD0D94B0410D94322A0C9488
:1003B0004DF10D94CC430D94E8460D9405050C9435
:1003C0006ACB0D9454020C9490D30D94DD030C94DD
:1003D0009AB50D94C4410D94DF040C94D5F00D949E
:1003E000A06A0D947BA70D94A5610C946BB90D9434
:1003F000AE610C949BBD0C94EAB90D9411550D940B
:1004000036660C94ABBD0C94C0F00D945B3E0C941E
:10041000E4A80D94CC390D94B4460D94A62A0D94FD
:1004200013460D9489B10C9434C60C94FB730D944F
:1004300088030C9498F20D9494450C94D5760C9402
:100440004BB70D94EF420D94D86B0D948A410D94E7
:100450006D390D9438020C940BCB0D9415020C944D
:10046000C5CA0D943D650C9450CE0D943C020D947C
:10047000A66A0D9496610C94E0B50D94892A0D94AA
:10048000C1440C943FB70D94603C0C9475F20D94EC
:1004900084550D94C83A0D94006A0D94376A0D94F2
:1004A0008A460D947B390D9446020D945B030C949F
:1004B00035CD0D94BD390C942ACD0C9403CD0C94FC
:1004C0000DB50D94FB040D9405660D9434020D9446
:1004D000CD040C94A6720D9426020D944E460C94F5
:1004E00041F20D94A63A0C949DF10C946BBD0D94C1
:1004F00014050C94B9CC0D94B33A0C944EBC0D94E5
:1005000099610D94DB6B0D946E550C9471C10D9433
:10051000DC530D9432050D94D33A0D94B4040D942C
:100520002E020D9485420C9411F10D9426650D94C4
:1005300064020C94E5D20D948D450D9450020D94F7
:10054000AB690D94D7610C942BF40D940C670D944A
:1005500046050D94A6540C9440CD0D94FA460D9486
:10056000A5030D9442020C94A1C20D941F020D9498
:10057000D4460D94AF040D94A9650D94D7650C94E1
:1005800005C20C940DF20C946C7A0C94FFA80D9497
:10059000E5660D94643E0C9456CD0D9439280D9467
:1005A0007D860D944A540D946D020D94D56B0D9477
:1005B0005D020D94B9040C949D730D9483030D9406
:1005C00092030C94E5730D9474660D94BA410C94E7
:1005D000CBF00C948BBD0D94816A0D9486450D94DF
:1005E00047470D94183F0C94C3730C9489C00D9425
:1005F000F1040D94E7040D942A020C94BC730D943D
:10060000C3040D94C7640D948D030D949B450D9404
:10061000F2270C9463BD0D949C030D94CB610D9453
:100620009D410D94B7610C94EE760D946B270D945B
:100630002F3A0D9419020C9437C10D9436390D944C
:1006400097030C94A3BD0C9483BD0C9486CD0D949C
:100650005E020D949E270D948B860D947E030C9460
:100660007BBD0D94B7460D9414670D94FD450D9414
:1006700031536E616E00696E66004E414E494E49BF
:100680005459494E46CDCCCC3D0AD7233C17B7D15F
:100690003877CC2B329595E6241FB14F0A00002005
:1006A000410000C84200401C4620BCBE4CCA1B0E84
:1006B0005AAEC59D7400407A10F35A00A0724E18CD
:1006C000090010A5D4E80000E87648170000E40B04
:1006D00054020000CA9A3B000000E1F505000080CA
:1006E000969800000040420F000000A08601000024
:1006F00000102700000000E8030000000064000074
:100700000000000A00000000000100000000002CB2
:1007100076D888DC674F0823DFC1DFAE59E1B1B777
:1007200096E5E3E453C63AE651997696E8E6C28444
:1007300026EB898C9B62ED407C6FFCEFBC9C9F405C
:10074000F2BAA56FA5F490055A2AF75C936B6CF981
:10075000676DC11BFCE0E40D47FEF520E6B500D057
:10076000ED902E0300943577050080841E0800006C
:10077000204E0A000000C80C333333330F986E123A
:10078000831141EF8D2114893BE65516CFFEE6DB40
:1007900018D1844B381BF77C1D901DA4BBE424208A
:1007A0003284725E228100C9F124ECA1E53D276309
:1007B00064696E6F70737578585B0064756D702036
:1007C000636C65617265640A006E6F2064756D709C
:1007D00020617661696C61626C650A004432312087
:1007E0002D20726561642063726173682064756D89
:1007F000700A006E6F2064756D7020617661696C9F
:1008000061626C650A0064756D7020636F6D706C59
:100810006574656420696E20256C756D730A0058D7
:10082000464C41534800454550524F4D00535241AC
:100830004D00442D31202D20456E646C657373206E
:100840006C6F6F700A005344207072696E74696E29
:10085000672062797465200041637469766520457C
:10086000787472756465723A2000496E76616C69BD
:1008700064206578747275646572005A204F6666EC
:1008800073657400556E6B6E6F776E20636F6D6D60
:10089000616E643A2022004D32303020496E76611C
:1008A0006C696420657874727564657220007A5F83
:1008B0006D61783A20007A5F6D696E3A2000795F49
:1008C0006D61783A2000795F6D696E3A2000785F3B
:1008D0006D61783A20006F70656E00545249474749
:1008E0004552454400785F6D696E3A20005265704C
:1008F0006F7274696E6720656E6473746F702073B5
:1009000074617475730053494C454E54004E4F52F8
:100910004D414C002553204D4F44453A20506572BF
:1009200063656E7420646F6E653A20256868643B69
:10093000207072696E742074696D652072656D61D6
:10094000696E696E6720696E206D696E733A202545
:10095000643B204368616E676520696E206D696E37
:10096000733A2025640A00456E642066696C652030
:100970006C69737400426567696E2066696C6520F6
:100980006C69737400556E6B6E6F776E20256320F3
:10099000636F64653A2025730A000A50494E44414A
:1009A0002074656D70657261747572653A20252ECC
:1009B0003166205A20736869667420286D6D293A63
:1009C00020252E3366000A537465703A2025642F63
:1009D000360A000A537465703A2025642F362028A1
:1009E000736B6970706564290A50494E44412074E4
:1009F000656D70657261747572653A202564205A60
:100A000020736869667420286D6D293A300A000ADF
:100A10005A45524F3A20252E33660A00737461728C
:100A2000742074656D70657261747572653A202505
:100A30002E31660A0025642020252E3266002553BB
:100A400020583A20252E356620593A20252E356625
:100A5000205A3A20252E35660A00536C6565702EA3
:100A60002E2E0045303A25642052504D0A50524EE9
:100A7000303A25642052504D0A00256400416476C6
:100A8000616E6365204B3D004B206F7574206F666F
:100A900020616C6C6F7765642072616E6765210000
:100AA0001B5B324A1B5B313B3248507275736120CD
:100AB0006933204661626D616E1B5B323B33485384
:100AC0007769706520746F206C6F67696E001B5BBF
:100AD000324A1B5B313B3248507275736120693377
:100AE000204661626D616E1B5B323B334853776910
:100AF000706520746F206C6F67696E001B5B324AF3
:100B00001B5B313B3248507275736120693320465C
:100B100061626D616E1B5B323B3348537769706570
:100B200020746F206C6F67696E001B5B324A1B5B21
:100B3000313B3248507275736120693320466162DF
:100B40006D616E1B5B323B3348537769706520746F
:100B50006F206C6F67696E001B5B324A1B5B313B19
:100B600032485072757361206933204661626D614D
:100B70006E1B5B323B3348537769706520746F207E
:100B80006C6F67696E001F1F1F1F1F1F1F1F200A2A
:100B9000200A20004D32323020532569002553466B
:100BA000696C616D656E742073657474696E6773CA
:100BB0003A2044697361626C65640A002553466992
:100BC0006C616D656E742073657474696E67733AD9
:100BD0000A25532020204D3230302044252E326605
:100BE0000A002553526574726163743A20533D4C78
:100BF000656E67746820286D6D2920463A537065CC
:100C0000656420286D6D2F6D29205A3A205A4C6951
:100C1000667420286D6D290A25532020204D32301E
:100C2000372053252E32662046252E3266205A253F
:100C30002E32660A25535265636F7665723A2053E9
:100C40003D4578747261206C656E67746820286D0C
:100C50006D2920463A537065656420286D6D2F6DAF
:100C6000290A25532020204D3230382053252E329A
:100C7000662046252E32660A25534175746F2D5223
:100C80006574726163743A20533D3020746F206440
:100C9000697361626C652C203120746F20696E74F9
:100CA00065727072657420657874727564652D6FF5
:100CB0006E6C79206D6F7665732061732072657438
:100CC0007261637473206F72207265636F766572F0
:100CD0006965730A25532020204D32303920532571
:100CE000640A002553504944206865617462656454
:100CF0002073657474696E67733A0A255320202047
:100D00004D3330342050252E32662049252E326650
:100D10002044252E32660A0025535049442073652D
:100D20007474696E67733A0A25532020204D33305E
:100D3000312050252E32662049252E32662044254A
:100D40002E32660A002553537465707320706572E5
:100D500020756E69743A0A255320204D3932205887
:100D6000252E32662059252E3266205A252E3266CF
:100D70002045252E32660A2553555374657020721E
:100D800065736F6C7574696F6E3A200A2553204D38
:100D90003335302058256420592564205A25642095
:100DA0004525640A25534D6178696D756D2066652A
:100DB00065647261746573202D206E6F726D616C55
:100DC00020286D6D2F73293A0A255320204D32308B
:100DD000332058252E32662059252E3266205A257A
:100DE0002E32662045252E32660A25534D617869DC
:100DF0006D756D20666565647261746573202D2064
:100E0000737465616C746820286D6D2F73293A0ABC
:100E1000255320204D3230332058252E326620595C
:100E2000252E3266205A252E32662045252E326622
:100E30000A25534D6178696D756D20616363656C3A
:100E400065726174696F6E202D206E6F726D616CBA
:100E500020286D6D2F7332293A0A255320204D32F8
:100E600030312058256C752059256C75205A256C19
:100E7000752045256C750A25534D6178696D756D32
:100E800020616363656C65726174696F6E202D20EB
:100E9000737465616C746820286D6D2F7332293A04
:100EA0000A255320204D3230312058256C752059A9
:100EB000256C75205A256C752045256C750A2553BF
:100EC000416363656C65726174696F6E3A20503D71
:100ED0007072696E742C20523D7265747261637415
:100EE0002C20543D74726176656C0A255320204D88
:100EF0003230342050252E32662052252E32662084
:100F000054252E32660A2553416476616E6365640A
:100F1000207661726961626C65733A20533D4D6958
:100F20006E20666565647261746520286D6D2F732F
:100F3000292C20543D4D696E2074726176656C20B9
:100F4000666565647261746520286D6D2F73292C48
:100F500020423D6D696E696D756D207365676D65C5
:100F60006E742074696D6520286D73292C20583D9E
:100F70006D6178696D756D205859206A65726B20B6
:100F8000286D6D2F73292C20205A3D6D6178696D75
:100F9000756D205A206A65726B20286D6D2F73293C
:100FA0002C2020453D6D6178696D756D2045206A66
:100FB00065726B20286D6D2F73290A255320204DF3
:100FC0003230352053252E32662054252E326620AD
:100FD00042252E32662058252E32662059252E3283
:100FE00066205A252E32662045252E32660A255364
:100FF000486F6D65206F666673657420286D6D2976
:101000003A0A255320204D3230362058252E32669C
:101010002059252E3266205A252E32660A00462592
:10102000642025640A004D4D55203C3D202746256F
:1010300064202564270A004361703A25533A2563EA
:101040000A00455854454E4445445F4D32300041F6
:1010500055544F5245504F52545F504F5349544985
:101060004F4E004155544F5245504F52545F4641E8
:101070004E53004155544F5245504F52545F5445C2
:101080004D5000005A30005A31005930005931009B
:10109000583000583100456E642073746F707320AF
:1010A000646961670044656C6574696F6E20666190
:1010B000696C65642C2046696C653A200046696C51
:1010C000652064656C657465643A004E6F742053E6
:1010D00044207072696E74696E67005072696E7434
:1010E000207361766564005344207072696E7420C9
:1010F000706175736564004F4B004241440052417A
:101100004D426F2046414E200043524153485F43B9
:10111000414E43454C0043524153485F5245434F73
:101120005645520043524153485F5245434F56453E
:10113000520022283229004475706C69636174651D
:1011400020542D636F64652069676E6F7265642E2D
:1011500000496E76616C6964205420636F64652E6B
:10116000002C204D39303720452069676E6F72653D
:1011700064006E6F2076616C696420636F6D6D61D1
:101180006E64002C20002C20002C20006E2F6100AB
:101190002C20002C20002C20006E2F6100503A00E3
:1011A0005761697420666F722050494E4441207423
:1011B00061726765742074656D70657261747572B3
:1011C000653A004155544F004C414E472053454C21
:1011D00020464F5243454400256925250A002569CC
:1011E00025250A00222831290030303030303030B7
:1011F000302D303030302D303030302D30303030F8
:101200002D303030303030303030303030002055FC
:101210005549443A003100204558545255444552EE
:101220005F434F554E543A005072757361206933D5
:10123000204D4B3300204D414348494E455F5459A2
:1012400050453A00312E3000206261736564206F92
:101250006E204D61726C696E204649524D57415265
:10126000455F55524C3A68747470733A2F2F676912
:10127000746875622E636F6D2F707275736133645D
:101280002F50727573612D4669726D77617265209A
:1012900050524F544F434F4C5F56455253494F4E57
:1012A0003A004649524D574152455F4E414D453AED
:1012B00050727573612D4669726D77617265200099
:1012C0004D31313320530020423A0020453A00543A
:1012D0003A006F6B20006E2F61003F546F73686996
:1012E000626120466C617368416972204765744988
:1012F00050206661696C65640A002569206D696E1D
:101300002C2025692073656300496E76616C6964E1
:10131000204D20636F64653A2025730A004D657384
:101320006820626564206C6576656C696E67206E06
:101330006F74206163746976652E002020000A4D69
:101340006561737572656420706F696E74733A00BD
:101350000A5A2073656172636820686569676874FA
:101360003A20004E756D20582C593A200050494EB5
:1013700044412070726F62652063616C69627261C2
:1013800074696F6E2073746172740047323820572D
:1013900030004E6F2050494E444120746865726D94
:1013A0006973746F7200736574006E6F7A7A6C651E
:1013B000004D424C0046520042656174004C7A0078
:1013C0004C616E67005265760046697200534E208C
:1013D000696E76616C696400534E004D3238006668
:1013E00076005245534554004D4D55524553004DDE
:1013F00032340075766C6F007468780046414E0098
:1014000046414E50494E5453540050524E0050697C
:101410006E67005052555341005345545F43484F47
:10142000505F005345545F535445505F005345543B
:101430005F574156455F00544D435F00435241534F
:10144000485F43414E43454C0043524153485F522D
:1014500045434F5645520043524153485F4445541B
:1014600045435445440043524153485F004D3120A9
:10147000004D30004D31313700472D636F646520DA
:10148000736C6963656420666F72206120646966AD
:10149000666572656E74206C6576656C2E20436F90
:1014A0006E74696E75653F00472D636F64652073C8
:1014B0006C6963656420666F72206120646966668A
:1014C0006572656E74206C6576656C2E20506C6557
:1014D0006173652072652D736C696365207468653E
:1014E000206D6F64656C20616761696E2E2050729B
:1014F000696E742063616E63656C6C65642E004771
:101500002D636F646520736C6963656420666F7218
:101510002061206E65776572206669726D776172F1
:10152000652E20506C65617365207570646174650B
:1015300020746865206669726D776172652E20502F
:1015400072696E742063616E63656C6C65642E00F5
:10155000472D636F646520736C6963656420666FF3
:10156000722061206E65776572206669726D7761A1
:1015700072652E20436F6E74696E75653F00472D4E
:10158000636F646520736C6963656420666F7220A5
:101590006120646966666572656E74207072696E3A
:1015A00074657220747970652E20436F6E74696E55
:1015B00075653F00472D636F646520736C696365D3
:1015C0006420666F72206120646966666572656E6C
:1015D00074207072696E74657220747970652E2043
:1015E000506C656173652072652D736C696365204D
:1015F000746865206D6F64656C20616761696E2E2B
:10160000205072696E742063616E63656C6C6564F2
:101610002E005072696E746572206973206F757444
:10162000206F66206F726465722E00596F7520619D
:101630007265206E6F7420616C6C6F7765642074C6
:101640006F207573652074686973207072696E7499
:101650006572206F757473696465206F70656E695B
:101660006E6720686F7572732E00596F7520646FF6
:10167000206E6F742068617665207265717569727D
:10168000656420747261696E696E6720636F75723C
:101690007365212100596F7520646F206E6F74206F
:1016A0006861766520616374697665207061636B3B
:1016B0006167652E20506C656173652062757920C5
:1016C0006F6E652E00536F7272792C204920616D08
:1016D000206E6F74206F6E6C696E6520726967682A
:1016E00074206E6F772E20506C6561736520747264
:1016F00079206D65206C617465722E00557064618F
:1017000074696E6720464D2066772E2E00507275E4
:101710007361206933204661626D616E00507265AD
:10172000737320746865206B6E6F6220746F207015
:10173000726568656174206E6F7A7A6C6520616E7F
:101740006420636F6E74696E75652E00506C656100
:10175000736520707265737320746865206B6E6F9B
:101760006220746F20756E6C6F61642066696C61B5
:101770006D656E740052656D6F7665206F6C6420C8
:1017800066696C616D656E7420616E64207072654F
:10179000737320746865206B6E6F6220746F2073A2
:1017A00074617274206C6F6164696E67206E657716
:1017B0002066696C616D656E742E00616E642070C8
:1017C0007265737320746865206B6E6F6200496E7A
:1017D000736572742066696C616D656E7400436F29
:1017E0006C6F72206E6F7420636F72726563740029
:1017F00046696C616D656E74206E6F74206C6F61EC
:10180000646564004368616E67656420636F72722B
:101810006563746C793F004C6F6164696E67206327
:101820006F6C6F72004368616E67652073756363E8
:101830006573732100506C65617365206F70656E10
:101840002069646C657220616E642072656D6F76CC
:10185000652066696C616D656E74206D616E756181
:101860006C6C792E005761732066696C616D656ED2
:101870007420756E6C6F6164207375636365737338
:1018800066756C3F00506C6561736520757067729A
:101890006164652E004E6577206669726D776172AE
:1018A000652076657273696F6E20617661696C611F
:1018B000626C653A0057616974696E6720666F7281
:1018C0002050494E44412070726F626520636F6FF3
:1018D0006C696E6700437261736820646574656348
:1018E0007465642E20526573756D65207072696E23
:1018F000743F004372617368206465746563746546
:10190000642E0053656C6563742065787472756429
:1019100065723A004E6F206D6F76652E00537461CC
:10192000626C6520616D6269656E742074656D70AE
:10193000657261747572652032312D3236432069CB
:1019400073206E65656465642061207269676964EF
:10195000207374616E642069732072657175697299
:1019600065642E00506C656173652072756E205839
:10197000595A2063616C6962726174696F6E206686
:10198000697273742E005761697420666F722075D6
:101990007365722E2E2E00435A5058003B5300613F
:1019A00064635F696E6974000A204F726967696ECB
:1019B000616C2050727573612069330A20202050B9
:1019C0007275736120526573656172636800200AE5
:1019D000200A200A2000416C6C204461746100538D
:1019E000657276696365207072657000536869700E
:1019F00070696E67207072657000537461746973EA
:101A000074696373004C616E677561676500455268
:101A10004153494E4720616C6C20646174610046FB
:101A20006163746F727920524553455400494E5496
:101A300034004D4B334D4D5532004C4F4D4B330020
:101A40000300417072203233203230323200436F53
:101A50006D70696C65643A2000286E6F6E652C208D
:101A600064656661756C7420636F6E6669672900D2
:101A700041707220323320323032322031363A33E4
:101A8000323A33360020332E31312E302D34393571
:101A90003500737461727400534E20757064617404
:101AA00065206661696C656400534E2075706461E1
:101AB00074656400435A505800416E206572726F1D
:101AC00072207768696C652077726974696E672027
:101AD000746F2074686520534420436172642E0043
:101AE0002055706C6F616420696E2070726F677230
:101AF00065737300205A3A0020593A0020583A0082
:101B000043524153485F4445544543544544585912
:101B10000043524153485F4445544543544544595A
:101B20000043524153485F4445544543544544584B
:101B3000004D32390045787465726E616C205350E7
:101B40004920666C6173680A58464C4153482069C5
:101B500073206E6F74207265732D0A706F6E6469E6
:101B60006E672E204C616E67756167650A737769D1
:101B700074636820756E617661696C61626C652E54
:101B800000465720637261736820646574656374EE
:101B900065642120596F752063616E20636F6E74D8
:101BA000696E7565207072696E74696E672E204467
:101BB00065627567206461746120617661696C613A
:101BC000626C6520666F7220616E616C79736973F7
:101BD0002E20436F6E7461637420737570706F7222
:101BE0007420746F207375626D697420646574610C
:101BF000696C732E002F2F20616374696F6E3A64D5
:101C0000756D705F617661696C61626C65005072C0
:101C1000757361206933204D4B33204F4B2E0043A9
:101C2000726173684465746563742044495341422A
:101C30004C45440043726173684465746563742065
:101C4000454E41424C4544210058464C41534820A2
:101C50006E6F7420726573706F6E64696E672E00AC
:101C60002020506C616E6E657242756666657242C8
:101C7000797465733A20002046726565204D656D64
:101C80006F72793A2000207C20417574686F723A37
:101C90002000204C61737420557064617465643A4F
:101CA000200020536F6674776172652052657365FA
:101CB0007400205761746368646F672052657365B0
:101CC00074002042726F776E206F757420526573B6
:101CD0006574002045787465726E616C205265737E
:101CE000657400506F7765725570006572726F721F
:101CF0002077726974696E6720746F2066696C65FD
:101D000000656E6473746F7073206869743A2000A4
:101D1000446F6E6520736176696E672066696C65D5
:101D20002E006F6B004D4B33206669726D776172C8
:101D300065206465746563746564206F6E204D4B27
:101D40003353207072696E74657200426C61636B0C
:101D50006F7574206F636375727265642E205265AF
:101D6000636F766572207072696E743F0053656CA4
:101D700066746573742077696C6C20626520727577
:101D80006E20746F2063616C69627261746520619A
:101D9000636375726174652073656E736F726C65D1
:101DA0007373207265686F6D696E672E0054686585
:101DB0007265206973207374696C6C2061206E6594
:101DC000656420746F206D616B65205A2063616CBF
:101DD0006962726174696F6E2E20506C6561736503
:101DE00020666F6C6C6F7720746865206D616E750E
:101DF000616C2C206368617074657220466972732F
:101E0000742073746570732C2073656374696F6ECE
:101E10002043616C6962726174696F6E20666C6FD9
:101E2000772E005072696E74657220686173206E3F
:101E30006F74206265656E2063616C6962726174A3
:101E40006564207965742E20506C65617365206629
:101E50006F6C6C6F7720746865206D616E75616C56
:101E60002C206368617074657220466972737420F7
:101E700073746570732C2073656374696F6E20438F
:101E8000616C6962726174696F6E20666C6F772E27
:101E9000004F6C642073657474696E677320666F9D
:101EA000756E642E2044656661756C7420504944DB
:101EB0002C20457374657073206574632E207769D8
:101EC0006C6C206265207365742E005761726E69B8
:101ED0006E673A20626F7468207072696E74657202
:101EE000207479706520616E64206D6F746865720E
:101EF000626F6172642074797065206368616E67D7
:101F000065642E005761726E696E673A207072695F
:101F10006E7465722074797065206368616E6765A0
:101F2000642E005761726E696E673A206D6F746837
:101F30006572626F61726420747970652063686194
:101F40006E6765642E00504154393132355F696ED9
:101F500069743A256868750A005041543931323540
:101F6000206E6F7420726573706F6E64696E672087
:101F700028256429210A00312E3000312E350055E4
:101F80004E4B4E4F574E004C413130433A204C6936
:101F90006E65617220416476616E6365206D6F6469
:101FA000653A20004C413130433A2041646A7573F0
:101FB00074656420452D4A65726B3A2000000E134B
:101FC00015110E00000004120912040000001C1F6D
:101FD00011111F00000006191803130C00040E1F36
:101FE000041C000000040A0A0A0A11110E001F1541
:101FF00011151F0000000103161C0800000000114D
:102000000A04110A040C12120C00000000256325BA
:102010002D31382E3138532563005B25735D2563E0
:10202000005B25535D2563002563252D31382E3156
:10203000385300252E31305320002563252D3138AB
:102040002E3138732563002563252D31382E313824
:10205000732563002563252D2E313653200025631B
:10206000252E3135533A257325336400252D323022
:102070002E3230530A006673656E736F725F61753E
:10208000746F6C6F61645F636865636B5F737461C9
:102090007274202D206175746F6C6F616420454EE1
:1020A00041424C4544006673656E736F725F6175A3
:1020B000746F6C6F61645F636865636B5F73746F8B
:1020C00070202D206175746F6C6F616420444953DA
:1020D00041424C454400504154393132355F5245FC
:1020E000535F593D256868750A00504154393132B3
:1020F000355F5245535F583D256868750A00555352
:10210000415254322072782046756C6C2121210096
:1021100053657474696E67732053746F72656400DD
:1021200053746F7265642073657474696E6773208D
:102130007265747269657665640048617264636F84
:102140006465642044656661756C742053657474BD
:10215000696E6773204C6F616465640056320000DD
:102160000000C8420000C8420000C84300008C4381
:102170000000484300004843000040410000F04296
:10218000E8030000E8030000C80000008813000016
:1021900000409C4400409C440000000000000000FF
:1021A000204E00000000204100002041CDCCCC3E5C
:1021B000000090400000000000000000000000004F
:1021C000CDCCCC3E3D0A8141FF08433EB099AB43A4
:1021D0008F42FC42E65A343F4C62B045000000009A
:1021E00000404000003442000000000000000000F9
:1021F000000041000000E03F0000C8420000C8426B
:10220000000040410000F042C0030000C003000095
:10221000C8000000881300001010102000409C44EB
:10222000627573793A2070617573656420666F72A8
:1022300020696E70757400627573793A20706175EB
:1022400073656420666F72207573657200627573C2
:10225000793A2070726F63657373696E67005377A4
:1022600069706520746F206C6F67696E00507275BD
:102270007361206933204661626D616E00256C7563
:10228000206279746573207772697474656E207446
:102290006F2025532061742061646472657373201C
:1022A00030782530346C780A00442564202D205283
:1022B0006561642F57726974652025530A002220D6
:1022C0006661696C65643A2042756666657220666F
:1022D000756C6C21002200256920686F757273206F
:1022E0002569206D696E7574657300525820746994
:1022F0006D656F7574004D3131300046756C6C2022
:1023000052582042756666657200437573746F6D2E
:1023100000536174696E20005465787475720053BF
:102320006D6F6F74680047312059252D2E3266205D
:1023300045252D2E33660047312058256420592528
:102340002D2E32662045252D2E33660044495341FB
:10235000424C454400454E41424C4544004653657D
:102360006E736F7220255300504154393132355FFE
:10237000696E69743A256868750A00656E717565DD
:10238000696E67202200446F6E65207072696E74FA
:10239000696E672066696C65004D3131322063617A
:1023A0006C6C65642E20456D657267656E6379207F
:1023B00053746F702E005072696E7465722073745E
:1023C0006F707065642064756520746F206572722B
:1023D0006F72732E2046697820746865206572726A
:1023E0006F7220616E6420757365204D3939392014
:1023F000746F20726573746172742E202854656D39
:102400007065726174757265206973207265736599
:10241000742E20536574206974206166746572207F
:1024200072657374617274696E6729004E6F204C17
:10243000696E65204E756D626572207769746820DB
:10244000636865636B73756D2C204C617374204CED
:10245000696E653A20004E6F20436865636B737543
:102460006D2077697468206C696E65206E756D6289
:1024700065722C204C617374204C696E653A2000A3
:10248000636865636B73756D206D69736D617463EB
:10249000682C204C617374204C696E653A20004CA6
:1024A000696E65204E756D626572206973206E6F6E
:1024B00074204C617374204C696E65204E756D629A
:1024C00065722B312C204C617374204C696E653A17
:1024D000200053544F505045442E0058595A206301
:1024E000616C6962726174696F6E20616C6C2072DC
:1024F000696768742E20536B65772077696C6C2050
:10250000626520636F7272656374656420617574BF
:102510006F6D61746963616C6C792E0058595A2033
:1025200063616C6962726174696F6E20616C6C20AA
:1025300072696768742E20582F592061786573205E
:1025400061726520736C696768746C7920736B6560
:102550007765642E20476F6F64206A6F6221005890
:10256000595A2063616C6962726174696F6E206F81
:102570006B2E20582F592061786573206172652079
:1025800070657270656E646963756C61722E20434C
:102590006F6E67726174756C6174696F6E73210020
:1025A00058595A2063616C6962726174696F6E2058
:1025B0006661696C65642E20526967687420667272
:1025C0006F6E742063616C6962726174696F6E20F2
:1025D000706F696E74206E6F7420726561636861DC
:1025E000626C652E0058595A2063616C6962726191
:1025F00074696F6E206661696C65642E2046726F27
:102600006E742063616C6962726174696F6E2070B0
:102610006F696E7473206E6F742072656163686198
:10262000626C652E0058595A2063616C6962726150
:1026300074696F6E206661696C65642E20506C65EC
:1026400061736520636F6E73756C742074686520A8
:102650006D616E75616C2E0058595A2063616C690A
:1026600062726174696F6E20636F6D70726F6D69F5
:102670007365642E2052696768742066726F6E7489
:102680002063616C6962726174696F6E20706F693A
:102690006E74206E6F7420726561636861626C6530
:1026A0002E0058595A2063616C6962726174696FB7
:1026B0006E20636F6D70726F6D697365642E204656
:1026C000726F6E742063616C6962726174696F6E9F
:1026D00020706F696E7473206E6F74207265616311
:1026E0006861626C652E0058595A2063616C69629A
:1026F000726174696F6E206661696C65642E204238
:1027000065642063616C6962726174696F6E2070C8
:102710006F696E7420776173206E6F7420666F75B9
:102720006E642E00506C6561736520706C6163652A
:1027300020737465656C207368656574206F6E2006
:10274000686561746265642E0044697374616E63C8
:1027500065206265747765656E20746970206F66A8
:1027600020746865206E6F7A7A6C6520616E6420D3
:1027700074686520626564207375726661636520A4
:10278000686173206E6F74206265656E2073657476
:10279000207965742E20506C6561736520666F6CBE
:1027A0006C6F7720746865206D616E75616C2C208C
:1027B0006368617074657220466972737420737403
:1027C0006570732C2073656374696F6E204669723F
:1027D0007374206C617965722063616C69627261E7
:1027E00074696F6E2E00506C6163652061207368A0
:1027F000656574206F6620706170657220756E6407
:10280000657220746865206E6F7A7A6C65206475D5
:1028100072696E67207468652063616C69627261B9
:1028200074696F6E206F662066697273742034203D
:10283000706F696E74732E20496620746865206E0F
:102840006F7A7A6C6520636174636865732074685D
:10285000652070617065722C20706F776572206FD3
:10286000666620746865207072696E74657220698E
:102870006D6D6564696174656C792E00506C65617D
:1028800073652072656D6F766520737465656C2065
:1028900073686565742066726F6D20686561746227
:1028A00065642E00497320737465656C20736865D8
:1028B0006574206F6E20686561746265643F0053C3
:1028C0006561726368696E67206265642063616C2C
:1028D0006962726174696F6E20706F696E74004D09
:1028E0006561737572696E67207265666572656E83
:1028F000636520686569676874206F662063616C32
:102900006962726174696F6E20706F696E740050D5
:102910006C6561736520636C65616E207468652009
:102920006E6F7A7A6C6520666F722063616C696283
:10293000726174696F6E2E20436C69636B207768D7
:10294000656E20646F6E652E004175746F20686F30
:102950006D65004D6561737572656420736B657795
:10296000733A2025662025660A0046697474696EEC
:1029700067206661696C6564203D3E2063616C6917
:1029800062726174696F6E206661696C65642E0A9B
:102990000043616C6962726174696F6E2073756364
:1029A000636573732E0A00416C6C20342063616C84
:1029B0006962726174696F6E20706F696E747320E2
:1029C000666F756E642E0A00312F3400312F34008B
:1029D000312F390078797A63616C5F6D656173734B
:1029E0007572655F656E7465720A0078797A6361E5
:1029F0006C5F73706972616C382063783D25642068
:102A000063793D2564207A303D256420647A3D2534
:102A100064207261646975733D25642061643D259D
:102A2000640A0078797A63616C5F736561726368C8
:102A30005A206E6F207369676E616C0A20783D259D
:102A40006C6420793D256C64207A3D256C640A0015
:102A5000204F4E2D5349474E414C20617420783D04
:102A6000256420793D2564207A3D25642061643DFC
:102A700025640A0078797A63616C5F7365617263BB
:102A8000685A20783D256C6420793D256C64207A55
:102A90003D256C640A0025640A005363616E20635F
:102AA0006F756E74646F776E3A20000A00253032BD
:102AB0007800205B25662025665D206D6D207061A5
:102AC000747465726E2063656E7465720A00205BB3
:102AD00025662025665D5B25665D206D6D20646939
:102AE00076657267656E63650A000000F000F801A4
:102AF000FC03FE07FE07FE07FE07FC03F801F000DB
:102B0000000000000000F000F801FC03FC03FC03DF
:102B1000FC03F801F0000000000078797A63616C32
:102B20005F6D656173737572655F6C656176650A6B
:102B300000203C20005741524E494E473A204672F1
:102B40006F6E7420706F696E74206E6F7420726582
:102B500061636861626C652E205920636F6F7264D7
:102B6000696E6174653A0000000040410000C04099
:102B700000005C430000C04000005C43000046438E
:102B8000000040410000464325642F34004974652D
:102B9000726174696F6E3A200043616C69627261A0
:102BA00074696F6E206661696C6564212043686595
:102BB000636B20746865206178657320616E6420A2
:102BC00072756E20616761696E2E006572726F7238
:102BD0003A20756E6B6E6F776E206D6F7665006E46
:102BE0006F206D6F766500542D636F646500756EA0
:102BF0006C6F6164006C6F6164006D6D755F67651B
:102C0000745F726573706F6E7365202D20626567E7
:102C1000696E206D6F76653A20006D6D755F676532
:102C2000745F726573706F6E7365282920726574A6
:102C300075726E696E673A2025640A00556E6C6F76
:102C40006164696E672066696E69736865642032C5
:102C500000556E6C6F6164203200556E6C6F61645C
:102C6000696E672066696E69736865642031005516
:102C70006E6C6F61642031004D4D5520737461722C
:102C8000747320726573706F6E64696E67004D4D6A
:102C900055206E6F7420726573706F6E64696E6715
:102CA0000046696C616D656E74206F7574206F6687
:102CB0002072616E6765202564200A000000803F55
:102CC000555585410000803F0000C841000000408C
:102CD000555505420000C03F00004842000020401A
:102CE00055558542000070C1ABAAA642000060C1E4
:102CF0000000A0410000C0C00000204100002041B1
:102D0000ABAA3A41000020C15555D540000048C249
:102D1000555505424D373031204534004D3730315F
:102D2000204533004D373031204532004D373031AA
:102D3000204531004D3730312045300046696C6107
:102D40006D656E74206E72206F7574206F662072D0
:102D5000616E67652100206661696C65642E0020E4
:102D60007375636365656465642E004D4D5520631E
:102D7000616E5F6C6F61643A004164646974696F8D
:102D80006E616C206C6F616420617474656D707429
:102D9000206E722E2025640A007732357832306337
:102DA0006C5F63666D0A00773235783230636C5F32
:102DB000656E7465720A0073746172740A004D4D19
:102DC00055204F4B2E20526573756D696E672E2E00
:102DD0002E004D4D55204F4B2E20526573756D6959
:102DE0006E6720706F736974696F6E2E2E2E004DA2
:102DF0004D55204F4B2E20526573756D696E6720BF
:102E000074656D70657261747572652E2E2E004644
:102E100069782074686520697373756520616E64D4
:102E2000207468656E2070726573732062757474A7
:102E30006F6E206F6E204D4D5520756E69742E009B
:102E4000507265737320746865206B6E6F622074B6
:102E50006F20726573756D65206E6F7A7A6C652070
:102E600074656D70657261747572652E004D4D5597
:102E7000206E656564732075736572206174746576
:102E80006E74696F6E2E0043757474696E67206688
:102E9000696C616D656E7400506C6561736520725C
:102EA000656D6F76652066696C616D656E74206115
:102EB0006E64207468656E20707265737320746828
:102EC00065206B6E6F622E00456A656374696E677C
:102ED0002066696C616D656E74004D4D55206C6F98
:102EE0006164206661696C65640025632533642F25
:102EF0002564256300436F6F6C646F776E005072BA
:102F0000656865617420746865206E6F7A7A6C6597
:102F100021004552524F523A0046696C616D656E10
:102F20007420657874727564696E672026207769ED
:102F3000746820636F727265637420636F6C6F7264
:102F40003F004175746F6C6F6164696E67206669DC
:102F50006C616D656E742069732061637469766558
:102F60002C206A75737420707265737320746865A1
:102F7000206B6E6F6220616E6420696E736572747F
:102F80002066696C616D656E742E2E2E005072691C
:102F90006E742074696D650046696C616D656E7450
:102FA000207573656400546F74616C207072696E73
:102FB000742074696D6500546F74616C2066696C6F
:102FC000616D656E74005269676874004C65667463
:102FD00000592064697374616E63652066726F6D59
:102FE000206D696E0053657665726520736B657739
:102FF00000536C6967687420736B6577004D656179
:10300000737572656420736B6577005B303B305D70
:1030100020706F696E74206F66667365740041641A
:103020006A757374696E67205A3A0052656172203E
:1030300073696465205BE46D5D0046726F6E742099
:10304000736964655BE46D5D005269676874207341
:103050006964655BE46D5D004C656674207369644A
:1030600065205BE46D5D005365742074656D70656B
:103070007261747572653A00464C4558202D2020C7
:103080003234302F35300050502020202D20203277
:1030900035342F3130300048495053202D20203214
:1030A00032302F3130300041425320202D20203249
:1030B00035352F3130300050564220202D2020321F
:1030C00031352F37350050432020202D2020323736
:1030D000352F3131300041534120202D2020323610
:1030E000302F3130350050455420202D20203233F0
:1030F000302F383500504C4120202D2020323135E2
:103100002F3630006E6F7A7A6C65202D2020323594
:10311000302F30006661726D2020202D2020323546
:10312000302F383000252D31322E313253252B38B7
:103130002E31660045787472756465723A006D6D63
:103140000059005800583A00593A005A3A0025638D
:10315000252D31332E313353252B352E3366002563
:10316000533A0A2531382E32666D200A25533A0A21
:103170002531306C6468202530326868646D202504
:103180003032686864730025533A0A2531382E328C
:10319000666D200A25533A0A2531306C6464202577
:1031A000303268686468202530326868646D0025B4
:1031B000362E32666D6D0025530A25530A25533A83
:1031C0000A25533A0025332E32660100252D31346D
:1031D0002E3134533A0A25530A252D31342E3134F9
:1031E000533A25332E3266010A252D31342E3134DF
:1031F000533A25332E3266010053746F702070727B
:10320000696E7400436865636B696E672066696CFC
:10321000650046696C6520696E636F6D706C6574DE
:10322000652E20436F6E74696E756520616E7977C7
:1032300061793F000452656672657368004D61698B
:103240006E0057616974696E6720666F72206E6FD9
:103250007A7A6C6520616E642062656420636F6FAA
:103260006C696E670053656C662074657374204FDB
:103270004B0053656C6620746573742073746172BF
:1032800074004D203834004D3834004D3234004D38
:10329000323320257300052E2E00257500593A2063
:1032A0002575202D3E202E2E2E00257500583A2003
:1032B0002575202D3E202E2E2E0045787472206616
:1032C000616E2073706565643A2025640A0050724F
:1032D000696E742066616E2073706565643A20259E
:1032E000640A005465737420323A00457874722081
:1032F00066616E2073706565643A2025640A00502B
:1033000072696E742066616E2073706565643A2020
:1033100025640A005465737420313A004D38340036
:1033200047312058352E302045342E30204631305C
:1033300030302E30004731205A302E323020463186
:103340003030302E30004731205835352E30204572
:1033500032352046313430302E3000473120592D5F
:10336000322E302046313030302E30004731205858
:103370003234302E30204532352E30202046323245
:1033800030302E30004739322045302E3000473162
:10339000205A302E332046313030302E3000473125
:1033A000205835352E302045382E302046323030EA
:1033B000302E300047312058352E30204533322E04
:1033C000302046313830302E3000473120583535E6
:1033D0002E30204533322E302046313037332E30D8
:1033E000004731204634303030004D3230342053E5
:1033F00031303030004731205A35204637323030B6
:103400002E30303000473120452D312E35303030D0
:10341000302046323130302E3030303030004D38B0
:1034200033004739300047323100473932204530C8
:103430002E3000473120583530205935352045335E
:103440002E3632373733004731205832303020594A
:1034500035352045302E3439333836004731205841
:10346000323030205937352045332E363237373316
:1034700000473120583530205937352045302E341B
:103480003933383600473120583530205939352006
:1034900045332E36323737330047312058323030FB
:1034A000205939352045302E3439333836004731EC
:1034B000205832303020593131352045332E3632C4
:1034C00037373300473120583530205931313520D6
:1034D00045302E34393338360047312058353020C6
:1034E000593133352045332E3632373733004731A3
:1034F000205832303020593133352045302E363681
:103500003137340047312058323030205931353589
:103510002045322E3632373733004731205831308C
:103520003020593135352045320047312058373564
:1035300020593135352045322E350047312046316E
:10354000303830004731205A302E31353020463760
:103550003230302E3030300047312058353020594D
:10356000313535004739322045302E30004732386A
:10357000004D313039004D313930004D3130370098
:10358000726573756C742076616C75653A2025647C
:103590000A0020693D25326420636E743D25326443
:1035A0002076616C3D2532640A00636C7573746526
:1035B00072733A0020693D25326420737465703D52
:1035C0002532640A00736F727465642073616D70D4
:1035D0006C65733A00252D3773003A2000252D3194
:1035E000322E313253252D642F3600203A2000250B
:1035F0002D32307300542564004731205A302E3468
:103600002046313030302E3000473120592D332EB6
:10361000302046313030302E30004D3833004731C5
:1036200020583130302E30204531322E3520463171
:103630003030302E30004731205836302E30204583
:10364000392E302046313030302E3000CA33B4337A
:103650009E338E3385336C335B33463335332033BF
:103660002A34263422341E340534F533EA33E13368
:10367000473120583530205933352045252D2E33FC
:103680006600583544353B352A351A350435EE3455
:10369000D934C434AE349934853471345C3447340D
:1036A0003334496E76616C6964205049442063610B
:1036B0006C2E20726573756C74732E204E6F74209F
:1036C00073746F72656420746F20454550524F4D7E
:1036D0002E004D353030004731205A3135204631EB
:1036E00035303000473931004731205835302059C6
:1036F00031393020453020463730303000473930BE
:10370000004D3834004D37303220430047312058C7
:103710003130205931383020463430303000473194
:10372000205A31302046313330302E303030004D89
:10373000313430205330004D313034205330004785
:103740003120452D302E3037353030204632313063
:10375000302E3030303030004D313037004D313187
:1037600037204669727374206C61796572206361D9
:103770006C2E00526573756D696E67207072696E8C
:10378000740050494E44412048656174696E670079
:1037900043616C6962726174696F6E20646F6E65FB
:1037A0000043616C6962726174696E67205A0042FD
:1037B000656420646F6E65004265642048656174CD
:1037C000696E670048656174696E6720646F6E6535
:1037D0002E0048656174696E67005049442063613A
:1037E0006C2E2066696E69736865640050494420D8
:1037F00063616C2E005072696E7420706175736520
:10380000640025632533642F25642563005A25361B
:103810002E32662563005A2020202D2D2D200025D4
:10382000632533642525002D2D2D0025336868641C
:10383000002533532533732525005553420020209E
:103840002000205344002025753E257500203F3E72
:10385000257500204625750020463F002046524D24
:10386000200025632D2D3A2D2D20200025632533A2
:1038700075682025632563002563253032753A2558
:1038800030327525632563004E6F20307846462020
:1038900072656365697665640053656E64696E6719
:1038A00020307846460046696C652073656C656318
:1038B000746564002053697A653A200046696C6536
:1038C000206F70656E65643A20004E6F77206672D7
:1038D0006573682066696C653A20004E6F772064D6
:1038E0006F696E672066696C653A20002220706FF0
:1038F00073002220706172656E743A220053554243
:10390000524F5554494E452043414C4C20746172EE
:103910006765743A2200747279696E6720746F204B
:1039200063616C6C207375622D67636F64652066DC
:10393000696C6573207769746820746F6F206D619E
:103940006E79206C6576656C732E002022257322BB
:10395000002025236C78004449525F4558495400A3
:103960004449525F454E5445523A20257320222542
:1039700073220A0053442063617264206F6B006FEE
:1039800070656E526F6F74206661696C6564007655
:103990006F6C756D652E696E6974206661696C6502
:1039A0006400534420696E6974206661696C006F1D
:1039B00070656E206661696C65642C2046696C6573
:1039C0003A200043616E6E6F7420656E74657220DC
:1039D0007375626469723A2000536F7274696E671E
:1039E0002066696C657300536F6D652066696C6550
:1039F000732077696C6C206E6F7420626520736F22
:103A0000727465642E204D61782E204E6F2E206FCB
:103A1000662066696C657320696E203120666F6C64
:103A200064657220666F7220736F7274696E6720AE
:103A30006973203130302E0020573A0020453A007B
:103A4000543A005A206C6976652061646A75737413
:103A5000206F7574206F662072616E67652E20532B
:103A6000657474696E6720746F20302E20436C6912
:103A7000636B20746F20636F6E74696E75652E00C2
:103A80005A206C6976652061646A757374206F755D
:103A900074206F662072616E67652E2053657474A2
:103AA000696E6720746F20300020423A0020453A4A
:103AB00000543A00494E5434007265636F76657263
:103AC0005F6D616368696E655F73746174655F6182
:103AD000667465725F706F7765725F70616E69633F
:103AE0002C20696E697469616C20005052555341F5
:103AF0002075766C6F004734205330004D323620ED
:103B000053256C75004D3130362053004D32323024
:103B10002053256400473120462564004D3832008B
:103B20004739322045004731204525302E33662065
:103B30004632373030004D32303420502566205226
:103B4000256620542566004731205A2566005052CC
:103B5000555341204D424C205631004731205825C5
:103B6000662059256620463330303000506F736927
:103B700074696F6E20726561642066726F6D206576
:103B80006570726F6D3A004D3233202573002E67D9
:103B9000636F002C20666565646D756C7469706C6C
:103BA000793A0046656564726174653A0047312070
:103BB00045252D302E3366204632373030004731D0
:103BC0002045352046313230004D3833004D3130FC
:103BD0003920532564004D31393020532564004D80
:103BE00031303420532564004732382058205900A2
:103BF0004731205A252E3366204638303000504F4A
:103C00005745522050414E49432044455445435462
:103C100045440055564C4F202D20656E6420256488
:103C20000A0055564C4F5F54494E59202D20656E61
:103C3000642025640A00776F726C6420636F6F7272
:103C400064696E617465733A2028252E33662C20D2
:103C5000252E33662C20252E3366290A00437572E3
:103C600072656E7420706F73205A5F415849533AE1
:103C7000252E33660A43757272656E7420706F73F9
:103C800020455F415849533A252E33660A00416664
:103C90007465722077616974696E6720666F72203F
:103CA00074656D703A0A43757272656E7420706F38
:103CB0007320585F415849533A252E33660A43759D
:103CC0007272656E7420706F7320595F415849534A
:103CD0003A252E33660A005265636F766572696E07
:103CE00067207072696E740050494E4441206361D0
:103CF0006C6962726174696F6E206661696C65647B
:103D00000050494E44412063616C6962726174697C
:103D10006F6E2069732066696E69736865642061DF
:103D20006E64206163746976652E20497420636136
:103D30006E2062652064697361626C656420696EDF
:103D4000206D656E752053657474696E67732D3EC2
:103D500050494E44412063616C2E0046696C2E2010
:103D600073656E736F720045787472756465720066
:103D70004D6F7665205A004D6F76652059004D6F66
:103D800076652058004372617368206465746563CA
:103D900074696F6E2063616E0A6265207475726E5D
:103DA0006564206F6E206F6E6C7920696E0A4E6FAD
:103DB000726D616C206D6F6465005741524E494EC3
:103DC000473A0A4372617368206465746563746975
:103DD0006F6E0A64697361626C656420696E0A5370
:103DE0007465616C7468206D6F6465004175746FF3
:103DF0006C6F6164696E672066696C616D656E7475
:103E000020617661696C61626C65206F6E6C7920EF
:103E10007768656E2066696C616D656E7420736588
:103E20006E736F72206973207475726E6564206F93
:103E30006E2E2E2E004552524F523A2046696C612A
:103E40006D656E742073656E736F72206973206E7A
:103E50006F7420726573706F6E64696E672C20706A
:103E60006C6561736520636865636B20636F6E6E5C
:103E7000656374696F6E2E004D6F646520636861C1
:103E80006E676520696E2070726F67726573732E3E
:103E90002E2E0050494E44412063616C696272616C
:103EA00074696F6E206661696C65642E20436F6E65
:103EB00074696E75652077697468207072657373B4
:103EC000696E6720746865206B6E6F622E005049C2
:103ED0004E44412063616C6962726174696F6E2047
:103EE000646F6E652E20436F6E74696E7565207702
:103EF000697468207072657373696E672074686591
:103F0000206B6E6F622E007B5B4552523A00332E5F
:103F100031312E30005D5B4657523A005D5B5449AB
:103F20004D3A005D5B464E4D3A005D5B46454D3A6D
:103F3000005D5B5043443A005B5446553A007B5B5E
:103F400050524E3A39395D007B5B50524E3A355DE6
:103F5000007B5B50524E3A305D007B5B50524E3AD4
:103F6000395D007B5B50524E3A385D007B5B5245B9
:103F7000533A305D5B46494C3A007B5B5245533ABD
:103F8000315D5B46494C3A005B50524E3A005B5003
:103F9000464E3A305D005B4449413A005D5B415416
:103FA000423A005D5B4154303A005D5B5354423A03
:103FB000005B5354303A0047383000202030002056
:103FC00020310058643A2020253364202059643A77
:103FD00020202533640A496E743A2025336420205A
:103FE000536875743A20202533640046494E444195
:103FF0000050494E4441001000C90210012C0140FC
:1040000001220170011801B0010E01F001040150FC
:1040100002FA00B002F0003003E600D003DC0090AA
:1040200004D2007005C800A006BE000008B400B0AD
:1040300009AA00D00BA000600E960060118C000051
:1040400015820020197800C01D6E00A0226400B007
:10405000275A00902C500000314600E0343C0010FC
:10406000383200903A2800603C1E00A03D140080C9
:104070003E0A00203F00004D494E54454D5020411E
:104080004D42004D415854454D50004D4158544506
:104090004D5020424544004D415854454D5020411B
:1040A0004D4200202D20496E76616C696420657850
:1040B000747275646572206E756D62657220210080
:1040C00070012C0190012701B0012201C0011D01E6
:1040D000F00118011002130130020E016002090103
:1040E00090020401C002FF000003FA004003F50043
:1040F0008003F000D003EB002004E6007004E10030
:10410000E004DC004005D700C005D2004006CD0029
:10411000D006C8008007C3003008BE00F008B90010
:10412000C009B400B00AAF00B00BAA00D00CA500C3
:10413000000EA000500F9B00C0109600501291007E
:1041400000148C00C0158700B0178200B0197D00E4
:10415000D01B7800001E730040206E009022690082
:10416000F024640040275F0090295A00E02B55009E
:10417000102E500020304B0010324600E03341003A
:1041800090353C001037370070383200A0392D00D0
:10419000B03A2800A03B2300603C1E00103D1900EF
:1041A000903D1400103E0F00703E0A00C03E050016
:1041B000003F000090137D00B0157800F0177300E9
:1041C000601A6E00F01C6900A01F640050225F009E
:1041D00020255A00E0275500902A5000202D4B0042
:1041E000A02F4600F031410010343C00F03537007C
:1041F000A037320020392D00603A2800703B2300A0
:10420000603C1E00203D1900C03D1400403E0F00E0
:10421000A03E0A00F03E0500403F0000703FFBFF5B
:10422000903FF6FFB03FF1FFC03FECFFD03FE7FF0C
:10423000E03FE2FFF03FDDFFF03FD8FF20484F5462
:10424000454E4420544845524D414C2052554E4114
:10425000574159002048454154424544205448455F
:10426000524D414C2052554E4157415900544845FA
:10427000524D414C2052554E415741590042454400
:1042800020544845524D414C2052554E41574159BA
:104290000020544845524D414C2052554E41574103
:1042A0005920285052454845415420484F54454EC6
:1042B00044290020544845524D414C2052554E410E
:1042C00057415920285052454845415420484541BE
:1042D00054424544290050524548454154204552D6
:1042E000524F5200424544205052454845415420C7
:1042F0004552524F52004572723A20002074726942
:104300006767657265642100486561746572732032
:104310007377697463686564206F66662E20003A5F
:104320002000506C656173652072657374617274EE
:1043300000435A5058496E76616C696453657269DE
:10434000616C4E72006265746100616C706861003E
:104350006465760003000B0000005B135052555358
:1043600041334446570000002100240027002A0062
:104370002D003000330001010000040107010A0193
:1043800000002200250028002B002E003100340000
:1043900002010000050108010B01000020002300BC
:1043A000260029002C002F0032000001000003012C
:1043B00006010901050505050705080808080202A8
:1043C00002020A0A080804040404010101010101AF
:1043D00001010303030303030303040707070C0C92
:1043E0000C0C0C0C0C0C0202020206060606060659
:1043F00006060B0B0B0B0B0B0B0B07070A0A0A0A23
:104400000A0A050505040404080801021020200812
:10441000081020401020408002010201080402011F
:10442000010204081020408080402010080402018E
:1044300080040201804020100804020108040201E7
:10444000010204081020408001020408102040806E
:104450001008040880102040044080102040048090
:1044600000000A0B02090C0D0E08070304010000EE
:10447000000000000000000000000000000000003C
:1044800000000000000000000000000012111000F9
:10449000000000000000000000000000000000001C
:1044A000000000000000000000000000000000000C
:1044B00000000000000046616B6520736572696151
:1044C0006C206E756D62657200452D636F6F6C2098
:1044D0006D6F6465004F6666004F6E004261636BEE
:1044E000005072696E746572206E6F7A7A6C652006
:1044F0006469616D6574657220646966666572736E
:104500002066726F6D2074686520472D636F646547
:104510002E20506C6561736520636865636B207441
:1045200068652076616C756520696E2073657474AA
:10453000696E67732E205072696E742063616E63BA
:10454000656C6C65642E005072696E746572206EC5
:104550006F7A7A6C65206469616D65746572206438
:104560006966666572732066726F6D207468652077
:10457000472D636F64652E20436F6E74696E756599
:104580003F0020746F6F206C6F6E672065787472C7
:104590007573696F6E2070726576656E7465640000
:1045A00020636F6C6420657874727573696F6E2018
:1045B00070726576656E746564004731205A252DEA
:1045C000302E33662046252D302E336600473120AD
:1045D00045252D302E3366204632373030004D3899
:1045E000330000002110422063308440A550C66093
:1045F000E770088129914AA16BB18CC1ADD1CEE1A0
:10460000EFF13112100273325222B5529442F77216
:10461000D662399318837BB35AA3BDD39CC3FFF3EF
:10462000DEE36224433420040114E664C774A44426
:1046300085546AA54BB528850995EEE5CFF5ACC53F
:104640008DD55336722611163006D776F6669556F6
:10465000B4465BB77AA719973887DFF7FEE79DD78F
:10466000BCC7C448E5588668A77840086118022886
:104670002338CCC9EDD98EE9AFF9488969990AA9DF
:104680002BB9F55AD44AB77A966A711A500A333A56
:10469000122AFDDBDCCBBFFB9EEB799B588B3BBB2F
:1046A0001AABA66C877CE44CC55C222C033C600CE6
:1046B000411CAEED8FFDECCDCDDD2AAD0BBD688D7F
:1046C000499D977EB66ED55EF44E133E322E511E36
:1046D000700E9FFFBEEFDDDFFCCF1BBF3AAF599FCF
:1046E000788F8891A981CAB1EBA10CD12DC14EF16F
:1046F0006FE18010A100C230E320045025404670D5
:104700006760B9839893FBA3DAB33DC31CD37FE3FF
:104710005EF3B1029012F322D23235421452776224
:104720005672EAB5CBA5A89589856EF54FE52CD5CF
:104730000DC5E234C324A014810466744764245474
:104740000544DBA7FAB79987B8975FE77EF71DC7DF
:104750003CD7D326F2369106B016576676761546C4
:1047600034564CD96DC90EF92FE9C899E9898AB92F
:10477000ABA94458654806782768C018E108823814
:10478000A3287DCB5CDB3FEB1EFBF98BD89BBBAB3F
:104790009ABB754A545A376A167AF10AD01AB32A64
:1047A000923A2EFD0FED6CDD4DCDAABD8BADE89D8F
:1047B000C98D267C076C645C454CA23C832CE01CB4
:1047C000C10C1FEF3EFF5DCF7CDF9BAFBABFD98F1F
:1047D000F89F176E367E554E745E932EB23ED10E04
:1047E000F01E7C3C3E3F2F2A225C00506C656173BA
:1047F00065207761697400457872656D6520737016
:10480000616E206F6620746865205A2076616C7531
:104810006573210025642F39006F6B0A0073746182
:1048200072740A004D4D5532206669726D7761725F
:10483000652076657273696F6E20696E76616C694A
:10484000642E205265717569726564207665727395
:10485000696F6E3A206275696C64206E756D626571
:1048600072202564206F72206869676865722E0067
:104870006673656E736F725F636865636B706F6993
:104880006E745F7072696E74004D4D55203D3E2010
:10489000276F6B270A004D4D55203D3E20276F6B3B
:1048A000270A002564004D4D55203D3E20276F6BA3
:1048B000272C20726573756D65207072696E740A9D
:1048C000004D4D5520726574727920617474656D68
:1048D0007074206E722E2025640A004D4D55203DC7
:1048E0003E20276F6B270A00410A004D4D55203CA2
:1048F0003D202741270A004D363030004D363030FC
:10490000204155544F002568687500410A004D4DFF
:1049100055203C3D202741270A0050300A004D25F4
:10492000640A004D4D55203C3D20274D2564270A43
:104930000057300A004D4D55203C3D202757302769
:104940000A0053330A004D4D55203C3D2027533378
:10495000270A0052300A004D4D55203C3D20275279
:1049600030270A004B25640A004D4D55203C3D2060
:10497000274B2564270A004525640A004D4D552024
:104980003C3D2027452564270A0055300A004D4D3F
:1049900055203C3D20275530270A0043300A004D62
:1049A0004D55203C3D20274330270A004C25640A02
:1049B000004D4D55203C3D20274C2564270A0054CE
:1049C00025640A004D4D55203C3D20275425642781
:1049D0000A004D4D55202D20454E41424C45440086
:1049E000256868750050300A004D310A004D4D555C
:1049F000203C3D20274D31270050300A004D4D55B9
:104A00002076657273696F6E2076616C6964004D03
:104A10004D55203D3E202725646F6B270A002575E4
:104A20000053320A004D4D55203C3D20275332277C
:104A3000004D4D55203D3E202725646F6B270A0011
:104A40002575004D4D55206E6F7420726573706F23
:104A50006E64696E67202D2044495341424C4544A1
:104A60000053310A004D4D55203C3D20275331273E
:104A7000004D4D55203D3E20277374617274270010
:104A8000426564206C6576656C696E672066616955
:104A90006C65642E2053656E736F72206469646E5A
:104AA000277420747269676765722E20446562728C
:104AB0006973206F6E206E6F7A7A6C653F20576144
:104AC0006974696E6720666F722072657365742EF3
:104AD00000506C6561736520757064617465206653
:104AE00069726D7761726520696E20796F757220C9
:104AF0004D4D55322E2057616974696E6720666F7F
:104B0000722072657365742E00312F39004D494E45
:104B100054454D50004D494E54454D50204245445A
:104B200000452D6D6F746F722063757272656E74BF
:104B3000207363616C696E6720656E61626C656489
:104B400000746D63323133305F686F6D655F656E21
:104B500074657228617865735F6D61736B3D307841
:104B600025303278290A00746D63323133305F6842
:104B70006F6D655F6578697420746D6332313330B1
:104B80005F73675F686F6D696E675F617865735F9C
:104B90006D61736B3D3078253032780A00544D4397
:104BA00020445249564552204F56455254454D5087
:104BB0000052657365740052656E616D65004669EB
:104BC000727374206C617965722063616C2E00537E
:104BD000656C65637400537465656C207368656506
:104BE000747300537570706F7274004661696C2045
:104BF0007374617473204D4D55004661696C207368
:104C000074617473005374617469737469637300BD
:104C100043616C6962726174696F6E004175746F93
:104C20004C6F61642066696C616D656E74004375DC
:104C3000742066696C616D656E7400456A656374A5
:104C40002066696C616D656E7400556E6C6F616491
:104C50002066696C616D656E74004C6F61642074D0
:104C60006F206E6F7A7A6C65004C6F6164206669A4
:104C70006C616D656E74004E6F20534420636172E9
:104C800064005072696E742066726F6D2053440028
:104C9000526573756D65207072696E740050617530
:104CA0007365207072696E74005072656865617416
:104CB0000054756E65004C6976652061646A757391
:104CC00074205A00496E666F2073637265656E00CA
:104CD00046696E697368696E67206D6F76656D658C
:104CE0006E7473004272696768746E657373004115
:104CF00073736973740053696C656E74004F6E63EF
:104D000065004C6F756400536F756E64004D4D55B2
:104D1000204D6F6465004372617368206465742E72
:104D200000537465616C7468004E6F726D616C0045
:104D300046616E7320636865636B0046696C2E2064
:104D400073656E736F72004368616E676520666994
:104D50006C616D656E7400466C6F770053706565AD
:104D600064004E2F41004D61676E65747320636F60
:104D70006D702E005A2D70726F6265206E722E005B
:104D80004D6573680054696D656F75740042726992
:104D9000676874004D6F6465004175746F00446905
:104DA0006D004C6576656C2044696D6D6564004CE2
:104DB0006576656C204272696768740046616E2092
:104DC000737065656400426564004E6F7A7A6C6545
:104DD0000053657474696E6773005072696E742055
:104DE00061626F72746564004D363030002F2F2081
:104DF000616374696F6E3A63616E63656C004D3414
:104E000035004D3435205A004737360057697A61EE
:104E100072642073746174653A2025640A004578D1
:104E2000706572696D656E74616C00536865657458
:104E300020252E37730A5A206F66667365743A20F0
:104E4000252B312E33666D6D0A2563436F6E7469B1
:104E50006E75650A2563526573657400506C6561F3
:104E60007365206C6F61642066696C616D656E743A
:104E70002066697273742E003E43616E63656C0038
:104E800046696C616D656E740053656C6563742072
:104E900066696C616D656E743A0052756E6E696E0E
:104EA000672057697A6172642077696C6C20646549
:104EB0006C6574652063757272656E742063616CD5
:104EC0006962726174696F6E20726573756C747358
:104ED00020616E642073746172742066726F6D203D
:104EE00074686520626567696E6E696E672E20431F
:104EF0006F6E74696E75653F0050726568656174A8
:104F0000696E67206E6F7A7A6C652E20506C6561D1
:104F1000736520776169742E004C6F6164696E67F8
:104F20002066696C616D656E7400506C65617365B7
:104F300020696E736572742066696C616D656E744C
:104F400020696E746F20746865206578747275646A
:104F500065722C207468656E20707265737320749E
:104F60006865206B6E6F6220746F206C6F616420C7
:104F700069742E00506C6561736520696E7365728B
:104F8000742066696C616D656E7420696E746F2043
:104F90007468652066697273742074756265206F29
:104FA0006620746865204D4D552C207468656E2010
:104FB000707265737320746865206B6E6F62207405
:104FC0006F206C6F61642069742E005468652070D6
:104FD00072696E7465722077696C6C20737461728B
:104FE00074207072696E74696E672061207A6967D7
:104FF0002D7A6167206C696E652E20526F74617422
:105000006520746865206B6E6F6220756E74696CC4
:1050100020796F7520726561636820746865206F00
:105020007074696D616C206865696768742E2043CF
:105030006865636B20746865207069637475726558
:105040007320696E207468652068616E64626F6F9A
:105050006B202843616C6962726174696F6E2063B2
:10506000686170746572292E0053656C65637420E5
:1050700074656D70657261747572652077686963B7
:1050800068206D61746368657320796F7572206D37
:105090006174657269616C2E0053656C6563742080
:1050A000612066696C616D656E7420666F72207434
:1050B0006865204669727374204C6179657220437B
:1050C000616C6962726174696F6E20616E642073D5
:1050D000656C65637420697420696E20746865204E
:1050E0006F6E2D73637265656E206D656E752E0033
:1050F0004E6F7720492077696C6C2063616C696220
:10510000726174652064697374616E6365206265A1
:10511000747765656E20746970206F6620746865A9
:10512000206E6F7A7A6C6520616E642068656174A8
:1051300062656420737572666163652E00596F75D0
:105140002063616E20616C7761797320726573757D
:105150006D65207468652057697A61726420667293
:105160006F6D2043616C6962726174696F6E202D8E
:105170003E2057697A6172642E00506C65617365D8
:1051800020636865636B206F75722068616E64626E
:105190006F6F6B20616E642066697820746865208B
:1051A00070726F626C656D2E205468656E2072653A
:1051B00073756D65207468652057697A6172642023
:1051C0006279207265626F6F74696E6720746865BA
:1051D000207072696E7465722E00416C6C20697368
:1051E00020646F6E652E204861707079207072693E
:1051F0006E74696E672100496620796F7520686159
:105200007665206164646974696F6E616C20737483
:1052100065656C207368656574732C2063616C69C7
:10522000627261746520746865697220707265735A
:1052300065747320696E2053657474696E6773209A
:105240002D204857205365747570202D20537465A8
:10525000656C207368656574732E00506C656173AE
:105260006520636C65616E206865617462656420A9
:10527000616E64207468656E20707265737320744B
:105280006865206B6E6F622E00446F20796F752009
:1052900077616E7420746F20726570656174206C24
:1052A000617374207374657020746F20726561641B
:1052B0006A7573742064697374616E6365206265D6
:1052C000747765656E206E6F7A7A6C6520616E64A6
:1052D00020686561746265643F0053656C65637442
:1052E000206E6F7A7A6C65207072656865617420D3
:1052F00074656D7065726174757265207768696335
:1053000068206D61746368657320796F7572206DB4
:105310006174657269616C2E0049732066696C6105
:105320006D656E74206C6F616465643F004E6F77CD
:1053300020492077696C6C20707265686561742003
:105340006E6F7A7A6C6520666F7220504C412E0029
:10535000492077696C6C2072756E207A2063616CCD
:105360006962726174696F6E206E6F772E004E6F86
:10537000772072656D6F766520746865207465733B
:1053800074207072696E742066726F6D207374651C
:10539000656C2073686565742E00506C656173657B
:1053A0002072656D6F7665207368697070696E67CD
:1053B0002068656C706572732066697273742E0064
:1053C000492077696C6C2072756E2078797A206339
:1053D000616C6962726174696F6E206E6F772E20E6
:1053E00049742077696C6C2074616B652061707002
:1053F000726F782E203132206D696E732E004669EF
:105400007273742C20492077696C6C2072756E2041
:105410007468652073656C667465737420746F209E
:10542000636865636B206D6F737420636F6D6D6F60
:105430006E20617373656D626C792070726F626C3F
:10544000656D732E0048692C204920616D20796FAD
:105450007572204F726967696E616C205072757346
:1054600061206933207072696E7465722E20576FE7
:10547000756C6420796F75206C696B65206D652093
:10548000746F20677569646520796F752074687220
:105490006F75676820746865207365747570207017
:1054A000726F636573733F0048692C204920616DFA
:1054B00020796F7572204F726967696E616C205038
:1054C00072757361206933207072696E7465722E13
:1054D00020492077696C6C20677569646520796F55
:1054E00075207468726F75676820612073686F72C9
:1054F000742073657475702070726F636573732C9C
:1055000020696E20776869636820746865205A2D69
:10551000617869732077696C6C2062652063616CC7
:10552000696272617465642E205468656E2C2079FE
:105530006F752077696C6C20626520726561647993
:1055400020746F207072696E742E00452D636F7227
:10555000726563743A005A2D636F72726563743AB0
:1055600000592D636F72726563743A00582D636F32
:1055700072726563743A00437574746572004D6F9E
:1055800064656C00537472696374005761726E00D5
:10559000436865636B73004E6F7A7A6C6520642E86
:1055A0000057697A61726420656E64207374617457
:1055B000653A2025640A0053706F6F6C4A6F696EFC
:1055C000004669726D776172650024F4D43050C36F
:1055D0008E20C2A24017828B7011127A910D816CBD
:1055E000D90AA861E108C7586607615143061E4BF6
:1055F0005D05C145A7041A411104093D980371399D
:1056000031034036DB0265339102D4305402802EE0
:105610001D02632CEE01752AC501B028A0011027D8
:1056200081018F2564012B244B01E0223401AC2140
:105630001F018D200D01801FFC00841EED00971DB1
:10564000DF00B81CD200E61BC600201BBC00641A99
:10565000B200B219A8000A19A0006A189900D1175F
:10566000910040178B00B516840031167E00B315EB
:1056700079003A157300C7146F0058146A00EE13CE
:1056800066008813630025135E00C7125B006C126E
:10569000570015125400C111510070114F00211113
:1056A0004B00D61049008D104700461044000210F0
:1056B0004200C00F4000800F3E00420F3C00060F2A
:1056C0003B00CB0E3800930E37005C0E3500270EE2
:1056D0003400F30D3200C10D3100900D3000600D2B
:1056E0002E00320D2D00050D2C00D90C2B00AE0C18
:1056F0002900850C29005C0C2700350C27000E0CB6
:105700002600E80B2400C40B2400A00B23007D0B13
:1057100023005A0B2100390B2100180B2000F80A36
:105720001F00D90A1E00BB0A1E009D0A1D00800A28
:105730001D00630A1C00470A1B002C0A1B00110AEB
:105740001A00F7091A00DD091900C4091900AB098C
:105750001900920917007B091800630917004C090A
:10576000160036091600200916000A091500F5086A
:105770001500E0081400CC081400B8081400A408B0
:105780001400900813007D0812006B0813005808DD
:1057900012004608120034081100230811001208F4
:1057A000110001081100F0071000E0071000D007F9
:1057B0001000C0071000B0070F00A10710009107EC
:1057C0000E0083070F0074070F0065070E005707D0
:1057D0000E0049070E003B070D002E070E002007A4
:1057E0000D0013070D0006070D00F9060C00ED066D
:1057F0000D00E0060C00D4060C00C8060C00BC0628
:105800000C00B0060C00A4060B0099060C008D06D7
:105810000B0082060B0077060B006C060B0061067E
:105820000A0057060B004C060A0042060A0038061A
:105830000A002E060A0024060A001A060A001006AC
:10584000090007060A00FD050900F4050900EB053B
:105850000900E2050900D9050900D0050900C705BE
:105860000900BE050900B5050800AD050800A5053D
:1058700009009C050800940508008C0508008405B3
:1058800008007C050800740508006C050700650524
:1058900008005D050700560508004E05070047058E
:1058A00007004005080038050700310507002A05F4
:1058B0000700230507001C050600160507000F0555
:1058C00007000805060002050700FB040600F504B2
:1058D0000700EE040600E8040600E2040700DB040B
:1058E0000600D5040600CF040600C9040600C30460
:1058F0000600BD040600B7040600B1040500AC04B0
:105900000600A6040600A00405009B0406009504FA
:105910000500900406008A04050085040500800443
:1059200006007A04050075040500700405006B0488
:10593000050066040500610405005C0405005704C9
:105940000500520405004D04050048040500430409
:1059500005003E0404003A04050035040500300447
:1059600004002C04050027040400230405001E0481
:1059700004001A04040016040500110404000D04B8
:105980000400090405000404040000040400FC03EE
:105990000400F8030400F4030400F0030400EC0323
:1059A0000400E8030400E4030400E0030400DC0353
:1059B0000400D8030400D4030400D0030400CC0383
:1059C0000400C8030300C503030024F404D9201B0A
:1059D000C40C5C0E9804C4095F0265077101F405EC
:1059E000F900FB04B30048048700C10369005803B1
:1059F000550003034500BE023A0084023100530201
:105A00002A002902250004022000E4011C00C8012C
:105A10001900AF01170098011400840113007101EF
:105A200010006101100051010E0043010D0036010C
:105A30000B002B010B0020010B00150109000C01CC
:105A4000090003010800FB000800F3000800EB0058
:105A50000700E4000600DE000600D8000600D200C1
:105A60000600CC000500C7000500C2000500BD000F
:105A70000400B9000400B5000400B1000400AD004A
:105A80000400A9000400A5000300A20003009F0079
:105A900004009B000300980003009500020093009F
:105AA0000300900003008D0002008B0003008800BB
:105AB00002008600020084000300810002007F00D3
:105AC00002007D0002007B000200790002007700E6
:105AD00001007600020074000200720001007100F3
