:100000000C94CF340C9400350C9400350C940035CE
:100010000C9400350C94568E0C9400350D94A972F6
:100020000C94E18D0C9400350C9400350C94003543
:100030000C9400350C9400350C946EEB0D94E54F48
:100040000C9400350C94CE970C9400350C9400352C
:100050000C9400350C9400350C9400350C94D8C5E4
:100060000C9400350D94614A0C9400350C940035C5
:100070000C9400350C9400350C9400350C9400352C
:100080000C9400350C9400350C9400350C9400351C
:100090000D941D4A0C9400350C9400350C940035D9
:1000A0000C9400350C9400350D945D4F0C94003584
:1000B0000C9400350D943F4F0C9400350C94003592
:1000C0000C9400350C9400350C9400350C940035DC
:1000D0000C9400350C9400350C9400350C940035CC
:1000E0000C94003501A70AA7AFA67EA64EA6FAA9D2
:1000F00045A764A8FBA851A96DA9A4A9F4C502C687
:1001000010C61DC62FC636C658C66EC639C83BC8EF
:1001100039C83BC839C83BC83DC83FC856D167D16C
:100120007AD187D191D1C0D142D1E1D1F3D1EFD1F0
:1001300042D1F5D112D226D238D2B0F9B0F9B3F902
:10014000B0F9B3F9B6F9B9F970FA31FD01FDF6FC71
:10015000EBFCE0FCD5FC54FD44FDAEFC80FC64FCF3
:100160009E0160018A015401F4019801B201D0019D
:100170004C0148018201BE01BA0190019801500171
:100180006401EA01CE017C016201F8018C01E60103
:100190007801FC017E018601DC018401FA01F6018F
:1001A000E60170019401A40168016E019C01AA019D
:1001B000D6017201E401C401E2015601A20152011B
:1001C0004E01084AD73B3BCE016E84BCBFFDC12F18
:1001D0003D6C74319ABD56833DDA3D00C77F11BE38
:1001E000D9E4BB4C3E916BAAAABE000000803F053B
:1001F000A84CCDB2D44EB93836A9020C50B991866C
:1002000088083CA6AAAA2ABE000000803F076342D5
:1002100036B79BD8A71A39685618AEBAAB558C1D9D
:100220003CB7CC5763BD6DEDFD753EF6177231BF1F
:10023000000000803F08000000BE922449123EAB3F
:10024000AAAA2ABECDCCCC4C3E00000080BEABAAF0
:10025000AAAA3E00000000BF000000803F0000008E
:100260000000084178D3BB4387D1133D190E3CC32E
:10027000BD4282AD2B3E68EC8276BED98FE1A93EAD
:100280004C80EFFFBE01C4FF7F3F00000000000074
:100290000D9448030D940F040D9444030D94937F23
:1002A0000D9460030D94857F0D9429030D94687F50
:1002B0000D94F6030D94B02B0D9414040D94720359
:1002C0000D9436030D94B9050D9464030D949D2A85
:1002D0000D94E57E0D94F3470D940A040D94F37E7E
:1002E0000D9428060D94387F0D9405040D94D83094
:1002F0000D94D7050D945B040D94B4050D94E7059A
:100300000D94A1210D944C030D9405060D94F10557
:100310000D941C220D9425030D94CD050D94BC0A5B
:100320000D945A030D9409AC0D9432060D94650199
:100330000D946D030D947D030D94037F0D94330391
:100340000D948E0A0D947F7F0D943C060D94F71C3E
:100350000D94432F0D94157F0D94266B0D94190465
:100360000D946E030D943A030D9445620D944D0463
:100370000D943E300D9456030D941D040D945203BC
:100380000D94FB030D941B2C0D944C7F0D940004D5
:100390000D9478030D94FA2A0D94552B0D94AF0506
:1003A0000D943E030D9450220D94F02F0D94327F46
:1003B0000D94DA470D94322F0D94FB050D94B52C56
:1003C0000D94AA310D945A7F0D943E7F0D944606EC
:1003D0000D94A20A0D9468030D94B3310D943B2F34
:1003E0000D94BBA30D9418220D942F030D941E069B
:1003F0000D94C3050D9414060D94DF050D94541C43
:100400006E616E00696E66004E414E494E49545908
:10041000494E46CDCCCC3D0AD7233C17B7D13877CF
:10042000CC2B329595E6241FB14F0A0000204100E5
:1004300000C84200401C4620BCBE4CCA1B0E5AAE2F
:10044000C59D7400407A10F35A00A0724E1809003E
:1004500010A5D4E80000E87648170000E40B540229
:100460000000CA9A3B000000E1F505000080969864
:1004700000000040420F000000A0860100000010B4
:100480002700000000E803000000006400000000F6
:10049000000A00000000000100000000002C76D8D7
:1004A00088DC674F0823DFC1DFAE59E1B1B796E5BD
:1004B000E3E453C63AE651997696E8E6C28426EB21
:1004C000898C9B62ED407C6FFCEFBC9C9F40F2BA34
:1004D000A56FA5F490055A2AF75C936B6CF9676DCC
:1004E000C11BFCE0E40D47FEF520E6B500D0ED9021
:1004F0002E0300943577050080841E080000204EEE
:100500000A000000C80C333333330F986E12831186
:1005100041EF8D2114893BE65516CFFEE6DB18D15D
:10052000844B381BF77C1D901DA4BBE4242032842F
:10053000725E228100C9F124ECA1E53D2763646964
:100540006E6F70737578585B0025642062797465EE
:1005500073207772697474656E20746F20454550FE
:10056000524F4D2061742061646472657373203052
:100570007825303478004433202D20526561642F73
:10058000577269746520454550524F4D0A0020430B
:100590006F756E7420583A20005344207072696E53
:1005A00074696E67206279746520004E6F742069EB
:1005B0006E206661726D206D6F64652E00416374FC
:1005C0006976652045787472756465723A200049D1
:1005D0006E76616C6964206578747275646572000A
:1005E0005A204F666673657400556E6B6E6F776E3A
:1005F00020636F6D6D616E643A2022004D323030A1
:1006000020496E76616C69642065787472756465E2
:100610007220007A5F6D61783A20007A5F6D696EB2
:100620003A2000795F6D61783A2000795F6D696EDC
:100630003A2000785F6D61783A20006F70656E0037
:1006400054524947474552454400785F6D696E3AB8
:1006500020005265706F7274696E6720656E6473F6
:10066000746F70207374617475730053494C454EF8
:1006700054004E4F524D414C002553204D4F4445A0
:100680003A2050657263656E7420646F6E653A201F
:1006900025643B207072696E742074696D652072E8
:1006A000656D61696E696E6720696E206D696E7334
:1006B0003A2025640A00456E642066696C65206CEA
:1006C00069737400426567696E2066696C65206CA9
:1006D000697374000A50494E44412074656D706519
:1006E0007261747572653A20252E3166205A207326
:1006F0006869667420286D6D293A20252E336600BE
:100700000A537465703A2025642F360A000A537420
:1007100065703A2025642F362028736B69707065E8
:1007200064290A50494E44412074656D70657261B8
:10073000747572653A202564205A2073686966745E
:1007400020286D6D293A300A000A5A45524F3A2046
:10075000252E33660A0073746172742074656D709F
:10076000657261747572653A20252E31660A00251E
:10077000642020252E326600255320583A20252E4D
:10078000356620593A20252E3566205A3A20252EE6
:1007900035660A00536C6565702E2E2E004E6F7400
:1007A00020696E206661726D206D6F64652E002574
:1007B000640045303A25642052504D0A50524E3064
:1007C0003A25642052504D0A00256400442D312002
:1007D0002D20456E646C657373206C6F6F700A001A
:1007E000416476616E6365204B3D004B206F7574EC
:1007F000206F6620616C6C6F7765642072616E6734
:100800006521001B5B324A1B5B313B3248507275DD
:100810007361206933204661626D616E1B5B323B00
:100820003348537769706520746F206C6F67696E09
:10083000001B5B324A1B5B313B324850727573615F
:10084000206933204661626D616E1B5B323B334829
:10085000537769706520746F206C6F67696E001B39
:100860005B324A1B5B313B324850727573612069C1
:1008700033204661626D616E1B5B323B33485377B8
:1008800069706520746F206C6F67696E001B5B3246
:100890004A1B5B313B3248507275736120693320CB
:1008A0004661626D616E1B5B323B33485377697002
:1008B0006520746F206C6F67696E001B5B324A1B8A
:1008C0005B313B3248507275736120693320466159
:1008D000626D616E1B5B323B3348537769706520F4
:1008E000746F206C6F67696E004D32323020532573
:1008F0006900255346696C616D656E74207365747B
:1009000074696E67733A2044697361626C65640A46
:1009100000255346696C616D656E7420736574744F
:10092000696E67733A0A25532020204D32303020FB
:1009300044252E32660A0025535265747261637431
:100940003A20533D4C656E67746820286D6D2920F0
:10095000463A537065656420286D6D2F6D29205AC5
:100960003A205A4C69667420286D6D290A25532057
:1009700020204D3230372053252E32662046252E3A
:100980003266205A252E32660A25535265636F76E9
:1009900065723A20533D4578747261206C656E67CC
:1009A000746820286D6D2920463A5370656564206F
:1009B000286D6D2F6D290A25532020204D323038A7
:1009C0002053252E32662046252E32660A255341B5
:1009D00075746F2D526574726163743A20533D30A3
:1009E00020746F2064697361626C652C20312074FF
:1009F0006F20696E746572707265742065787472A8
:100A00007564652D6F6E6C79206D6F7665732061EE
:100A100073207265747261637473206F72207265E3
:100A2000636F7665726965730A25532020204D3205
:100A30003039205325640A00255350494420686505
:100A400061746265642073657474696E67733A0AD1
:100A500025532020204D3330342050252E3266205F
:100A600049252E32662044252E32660A0025535031
:100A700049442073657474696E67733A0A2553207C
:100A800020204D3330312050252E32662049252E2E
:100A900032662044252E32660A0025535374657051
:100AA000732070657220756E69743A0A2553202090
:100AB0004D39322058252E32662059252E32662097
:100AC0005A252E32662045252E32660A2553555367
:100AD000746570207265736F6C7574696F6E3A20FF
:100AE0000A2553204D33353020582564205925647C
:100AF000205A2564204525640A25534D6178696D87
:100B0000756D20666565647261746573202D206E55
:100B10006F726D616C20286D6D2F73293A0A255311
:100B200020204D3230332058252E32662059252E74
:100B30003266205A252E32662045252E32660A2539
:100B4000534D6178696D756D206665656472617479
:100B50006573202D20737465616C746820286D6D39
:100B60002F73293A0A255320204D3230332058253F
:100B70002E32662059252E3266205A252E326620C6
:100B800045252E32660A25534D6178696D756D20B5
:100B9000616363656C65726174696F6E202D206E90
:100BA0006F726D616C20286D6D2F7332293A0A25A2
:100BB0005320204D3230312058256C752059256C3A
:100BC00075205A256C752045256C750A25534D6195
:100BD00078696D756D20616363656C6572617469B8
:100BE0006F6E202D20737465616C746820286D6DA4
:100BF0002F7332293A0A255320204D3230312058A4
:100C0000256C752059256C75205A256C7520452555
:100C10006C750A2553416363656C65726174696F15
:100C20006E3A20533D616363656C65726174696FF0
:100C30006E2C20543D72657472616374206163632D
:100C4000656C65726174696F6E0A255320204D32A0
:100C500030342053252E32662054252E32660A2544
:100C600053416476616E6365642076617269616286
:100C70006C65733A20533D4D696E206665656472FC
:100C800061746520286D6D2F73292C20543D4D69AA
:100C90006E2074726176656C20666565647261743D
:100CA0006520286D6D2F73292C20423D6D696E697A
:100CB0006D756D207365676D656E742074696D6503
:100CC00020286D73292C20583D6D6178696D756DF4
:100CD000205859206A65726B20286D6D2F73292C5E
:100CE00020205A3D6D6178696D756D205A206A65C6
:100CF000726B20286D6D2F73292C2020453D6D616E
:100D000078696D756D2045206A65726B20286D6D60
:100D10002F73290A255320204D3230352053252E9C
:100D200032662054252E32662042252E3266205807
:100D3000252E32662059252E3266205A252E3266FF
:100D40002045252E32660A2553486F6D65206F6653
:100D50006673657420286D6D293A0A255320204D4D
:100D60003230362058252E32662059252E32662004
:100D70005A252E32660A004625642025640A004D55
:100D80004D55203C3D2027462564202564270A0038
:100D9000504944204175746F74756E652066696EA4
:100DA0006973686564212050757420746865206CCF
:100DB000617374204B702C204B6920616E64204B52
:100DC0006420636F6E7374616E74732066726F6DEE
:100DD0002061626F766520696E746F20436F6E6666
:100DE000696775726174696F6E2E6800504944209E
:100DF0004175746F74756E65206661696C656421F8
:100E00002074696D656F75740020403A00543A0093
:100E1000423A00504944204175746F74756E6520E4
:100E20006661696C6564212054656D7065726174DA
:100E300075726520746F6F206869676800204B6465
:100E40003A2000204B693A2000204B703A200020C5
:100E5000436C6173736963205049442000205475CA
:100E60003A2000204B753A2000206D61783A20002E
:100E7000206D696E3A200020643A2000206269618A
:100E8000733A200020453A00205A3A0020593A008F
:100E900020453A00205A3A0020593A00583A0000BA
:100EA0005A30005A3100593000593100583000583A
:100EB0003100456E642073746F70732064696167DC
:100EC000002E0044656C6574696F6E206661696C04
:100ED00065642C2046696C653A200046696C652083
:100EE00064656C657465643A004E6F7420534420E9
:100EF0007072696E74696E67005072696E742073E7
:100F000061766564005344207072696E742070616C
:100F100075736564004F4B004241440052414D429D
:100F20006F2046414E200043524153485F43414E9B
:100F300043454C0043524153485F5245434F564549
:100F4000520043524153485F5245434F5645520069
:100F500022283229004475706C69636174652054DD
:100F60002D636F64652069676E6F7265642E0A0079
:100F70004475706C696361746520542D636F64659A
:100F80002069676E6F7265642E0A00496E76616C27
:100F90006964205420636F64652E00556E6B6E6F1C
:100FA000776E204D20636F64653A202573200A0018
:100FB0006E6F2076616C696420636F6D6D616E6425
:100FC000002C20002C20002C20006E2F61002C20F3
:100FD000002C20002C20006E2F6100503A00576139
:100FE000697420666F722050494E444120746172CA
:100FF0006765742074656D70657261747572653AA9
:10100000004C414E472053454C20464F52434544E7
:1010100000222831290030303030303030302D304F
:101020003030302D303030302D303030302D3030C9
:101030003030303030303030303000205555494479
:101040003A0031002045585452554445525F434FB1
:10105000554E543A005072757361206933204D4BE0
:10106000335300204D414348494E455F5459504544
:101070003A00312E3000206261736564206F6E206B
:101080004D61726C696E204649524D574152455F21
:1010900055524C3A68747470733A2F2F67697468AC
:1010A00075622E636F6D2F707275736133642F508C
:1010B000727573612D4669726D7761726520505249
:1010C0004F544F434F4C5F56455253494F4E3A0091
:1010D0004649524D574152455F4E414D453A507237
:1010E0007573612D4669726D7761726520004D31AF
:1010F000313320530020423A0020453A00543A0050
:1011000020413A0020503A002042403A0020403A24
:1011100000202F00205400202F0020423A00202FD2
:10112000006F6B20543A002569206D696E2C2025D4
:10113000692073656300496E76616C6964204D2097
:10114000636F64653A202573200A00556E6B6E6FDD
:10115000776E204720636F64653A202573200A006C
:101160004D65736820626564206C6576656C696E98
:1011700067206E6F74206163746976652E0020208D
:10118000000A4D6561737572656420706F696E74D5
:10119000733A000A5A207365617263682068656952
:1011A0006768743A20004E756D20582C593A20001B
:1011B000206D6963726F6E73004578636573736940
:1011C000766520626564206C6576656C696E672063
:1011D000636F7272656374696F6E3A200042656472
:1011E000206C6576656C696E67206661696C656404
:1011F0002E2053656E736F72207472696767657213
:10120000656420746F6F20686967682E0A00426504
:1012100064206C6576656C696E67206661696C65D3
:10122000642E2053656E736F7220646973636F6EF2
:101230006E6563746564206F72206361626C652003
:1012400062726F6B656E2E0A00473238205730008D
:1012500050494E44412070726F62652063616C6931
:1012600062726174696F6E207374617274004732C8
:1012700038205730004E6F2050494E44412074684A
:1012800065726D6973746F72004D3234005345544A
:101290005F43484F505F005345545F535445505F80
:1012A000005345545F574156455F00544D435F001E
:1012B00043524153485F00472D636F646520736C50
:1012C0006963656420666F72206120646966666583
:1012D00072656E74206C6576656C2E20436F6E743B
:1012E000696E75653F00472D636F646520736C6997
:1012F00063656420666F722061206469666665724A
:10130000656E74206C6576656C2E20506C6561731B
:10131000652072652D736C69636520746865206D46
:101320006F64656C20616761696E2E205072696E12
:10133000742063616E63656C6C65642E00472D6379
:101340006F646520736C6963656420666F722061E9
:10135000206E65776572206669726D776172652EA1
:1013600020506C65617365207570646174652074CC
:101370006865206669726D776172652E20507269AA
:101380006E742063616E63656C6C65642E00472D1E
:10139000636F646520736C6963656420666F722097
:1013A00061206E65776572206669726D776172651E
:1013B0002E20436F6E74696E75653F00472D636F15
:1013C000646520736C6963656420666F72206120B8
:1013D000646966666572656E74207072696E7465A4
:1013E0007220747970652E20506C6561736520726F
:1013F000652D736C69636520746865206D6F646525
:101400006C20616761696E2E205072696E74206372
:10141000616E63656C6C65642E00472D636F646557
:1014200020736C6963656420666F72206120646953
:1014300066666572656E74207072696E746572207E
:10144000747970652E20436F6E74696E75653F0008
:10145000472D636F646520736C6963656420666FF4
:1014600072206120646966666572656E74207072B0
:10147000696E74657220747970652E20436F6E7486
:10148000696E75653F00472D636F646520736C69F5
:1014900063656420666F72206120646966666572A8
:1014A000656E74207072696E7465722074797065EF
:1014B0002E20506C656173652072652D736C6963B5
:1014C0006520746865206D6F64656C206167616973
:1014D0006E2E205072696E742063616E63656C6C51
:1014E00065642E005072696E746572206973206F96
:1014F0007574206F66206F726465722E00596F7567
:1015000020617265206E6F7420616C6C6F7765640A
:1015100020746F2075736520746869732070726918
:101520006E746572206F757473696465206F706581
:101530006E696E6720686F7572732E00596F752023
:10154000646F206E6F7420686176652072657175B6
:101550006972656420747261696E696E6720636F79
:1015600075727365212100596F7520646F206E6F4D
:1015700074206861766520616374697665207061A6
:10158000636B6167652E20506C65617365206275C1
:1015900079206F6E652E00536F7272792C2049206E
:1015A000616D206E6F74206F6E6C696E652072695C
:1015B000676874206E6F772E20506C6561736520AC
:1015C000747279206D65206C617465722E0055709F
:1015D000646174696E6720464D2066772E2E005038
:1015E00072757361206933204661626D616E0050CF
:1015F00072657373206B6E6F6220746F20707265FA
:1016000068656174206E6F7A7A6C6520616E642003
:10161000636F6E74696E75652E00506C65617365DD
:1016200020707265737320746865206B6E6F622022
:10163000746F20756E6C6F61642066696C616D6596
:101640006E740052656D6F7665206F6C64206669FC
:101650006C616D656E7420616E6420707265737369
:1016600020746865206B6E6F6220746F20737461E4
:101670007274206C6F6164696E67206E6577206696
:10168000696C616D656E742E00616E6420707265A8
:10169000737320746865206B6E6F6200496E7365AA
:1016A00072742066696C616D656E7400436F6C6F57
:1016B00072206E6F7420636F727265637400466986
:1016C0006C616D656E74206E6F74206C6F61646503
:1016D00064004368616E67656420636F727265635E
:1016E000746C793F004C6F6164696E6720636F6C46
:1016F0006F72004368616E6765207375636365731D
:10170000732100506C65617365206F70656E206990
:10171000646C657220616E642072656D6F76652001
:1017200066696C616D656E74206D616E75616C6C5F
:10173000792E005761732066696C616D656E742047
:10174000756E6C6F61642073756363657373667522
:101750006C3F00506C6561736520757067726164E1
:10176000652E004E6577206669726D77617265201F
:1017700076657273696F6E20617661696C61626C07
:10178000653A0057616974696E6720666F72205010
:10179000494E44412070726F626520636F6F6C69BF
:1017A0006E67004372617368206465746563746575
:1017B000642E20526573756D65207072696E743F7A
:1017C0000043726173682064657465637465642E98
:1017D0000045787472756465720043686F6F736555
:1017E0002065787472756465723A0043686F6F7330
:1017F000652066696C616D656E743A004E6F206D90
:101800006F76652E005761697420666F722075735C
:1018100065722E2E2E00536F6D652070726F626C94
:10182000656D20656E636F756E74657265642C20DE
:101830005A2D6C6576656C696E6720656E666F7291
:10184000636564202E2E2E00537461626C652061E6
:101850006D6269656E742074656D70657261747512
:1018600072652032312D323643206973206E6565F2
:101870006465642061207269676964207374616EB5
:10188000642069732072657175697265642E0050F9
:101890006C656173652072756E2058595A206361BA
:1018A0006C6962726174696F6E2066697273742EFE
:1018B000006164635F696E69740A000A204F72698F
:1018C00067696E616C2050727573612069330A20FC
:1018D0002020507275736120526573656172636870
:1018E00000436F6E74696E75652077697468206156
:1018F0006E6F7468657220626F7764656E3F002555
:101900000020202020202000202020202020004512
:10191000524153494E4720616C6C206461746100F0
:10192000466163746F727920524553455400466195
:1019300063746F72792052455345540044495341B2
:10194000424C454400454E41424C454400202873DA
:10195000656E736F7220626F617264207265766962
:1019600073696F6E3A2553290A004653656E736F8B
:101970007220255300494E5434004D4B33534D4D86
:10198000553253004E4F4D4B33530004004E4F43DE
:1019900054554100414C5446414E0053657020322D
:1019A00033203230323000436F6D70696C65643AB9
:1019B0002000286E6F6E652C2064656661756C74FE
:1019C00020636F6E6669672900536570203233208B
:1019D000323032302032313A34383A353500203323
:1019E0002E392E312D333531380A007374617274FB
:1019F000002055706C6F616420696E2070726F6793
:101A00007265737300205A3A0020593A0020583A00
:101A10000043524153485F4445544543544544585C
:101A2000590043524153485F44455445435445444B
:101A3000590043524153485F44455445435445443B
:101A400058004D32390045787465726E616C2053D0
:101A5000504920666C6173680A57323558323043FA
:101A60004C206973206E6F74207265732D0A706F3D
:101A70006E64696E672E204C616E67756167650ADA
:101A800073776974636820756E617661696C6162F1
:101A90006C652E00437261736844657465637420DD
:101AA00044495341424C4544004372617368446564
:101AB0007465637420454E41424C4544210045788D
:101AC0007472756465722066616E20747970653A0F
:101AD0002000573235583230434C206E6F742072DC
:101AE0006573706F6E64696E672E0A002020506CFB
:101AF000616E6E6572427566666572427974657371
:101B00003A20002046726565204D656D6F72793A06
:101B10002000207C20417574686F723A2000204CB0
:101B200061737420557064617465643A20002053B9
:101B30006F66747761726520526573657400205713
:101B400061746368646F6720526573657400204236
:101B5000726F776E206F7574205265736574002004
:101B600045787465726E616C2052657365740050BF
:101B70006F7765725570006572726F722077726947
:101B800074696E6720746F2066696C6500656E64A9
:101B900073746F7073206869743A2000446F6E65C7
:101BA00020736176696E672066696C652E006F6BC5
:101BB000004D4B3353206669726D77617265206406
:101BC00065746563746564206F6E204D4B332070BF
:101BD00072696E746572005072757361206933208A
:101BE0004D4B3353204F4B2E00426C61636B6F752E
:101BF00074206F636375727265642E205265636F23
:101C0000766572207072696E743F0053656C6674FD
:101C10006573742077696C6C2062652072756E2024
:101C2000746F2063616C69627261746520616363C3
:101C300075726174652073656E736F726C65737312
:101C4000207265686F6D696E672E005468657265F5
:101C5000206973207374696C6C2061206E65656403
:101C600020746F206D616B65205A2063616C69621E
:101C7000726174696F6E2E20506C656173652066A9
:101C80006F6C6C6F7720746865206D616E75616C28
:101C90002C206368617074657220466972737420C9
:101CA00073746570732C2073656374696F6E204361
:101CB000616C6962726174696F6E20666C6F772EF9
:101CC000005072696E74657220686173206E6F7463
:101CD000206265656E2063616C696272617465641F
:101CE000207965742E20506C6561736520666F6C79
:101CF0006C6F7720746865206D616E75616C2C2047
:101D000063686170746572204669727374207374BD
:101D10006570732C2073656374696F6E2043616C0A
:101D20006962726174696F6E20666C6F772E004F06
:101D30006C642073657474696E677320666F756E6A
:101D4000642E2044656661756C74205049442C20D3
:101D5000457374657073206574632E2077696C6CAD
:101D6000206265207365742E005761726E696E671C
:101D70003A20626F7468207072696E7465722074A4
:101D800079706520616E64206D6F74686572626F32
:101D90006172642074797065206368616E67656440
:101DA0002E005761726E696E673A207072696E74A8
:101DB00065722074797065206368616E6765642E52
:101DC000005761726E696E673A206D6F7468657254
:101DD000626F6172642074797065206368616E67F8
:101DE00065642E0058595A2063616C69627261748F
:101DF000696F6E20616C6C2072696768742E205365
:101E00006B65772077696C6C20626520636F7272F6
:101E10006563746564206175746F6D617469636175
:101E20006C6C792E0058595A2063616C696272613A
:101E300074696F6E20616C6C2072696768742E2003
:101E4000582F5920617865732061726520736C6921
:101E50006768746C7920736B657765642E20476FB3
:101E60006F64206A6F62210058595A2063616C695F
:101E700062726174696F6E206F6B2E20582F59202B
:101E800061786573206172652070657270656E643B
:101E90006963756C61722E20436F6E677261747531
:101EA0006C6174696F6E73210058595A2063616CBC
:101EB0006962726174696F6E206661696C65642E17
:101EC0002052696768742066726F6E742063616C5B
:101ED0006962726174696F6E20706F696E74206ED2
:101EE0006F7420726561636861626C652E00585979
:101EF0005A2063616C6962726174696F6E206661F9
:101F0000696C65642E2046726F6E742063616C6923
:101F100062726174696F6E20706F696E7473206E87
:101F20006F7420726561636861626C652E00585938
:101F30005A2063616C6962726174696F6E206661B8
:101F4000696C65642E20506C6561736520636F6EEB
:101F500073756C7420746865206D616E75616C2E8C
:101F60000058595A2063616C6962726174696F6EBE
:101F700020636F6D70726F6D697365642E20526996
:101F80006768742066726F6E742063616C69627238
:101F90006174696F6E20706F696E74206E6F74204B
:101FA000726561636861626C652E0058595A2063DE
:101FB000616C6962726174696F6E20636F6D7072BB
:101FC0006F6D697365642E2046726F6E7420636155
:101FD0006C6962726174696F6E20706F696E747380
:101FE000206E6F7420726561636861626C652E009B
:101FF00058595A2063616C6962726174696F6E200E
:102000006661696C65642E204265642063616C6959
:1020100062726174696F6E20706F696E742077618F
:1020200073206E6F7420666F756E642E00506C6541
:1020300061736520706C61636520737465656C20E5
:102040007368656574206F6E20686561746265648D
:102050002E0044697374616E6365206265747765F0
:10206000656E20746970206F6620746865206E6FDD
:102070007A7A6C6520616E6420746865206265649C
:10208000207375726661636520686173206E6F747A
:10209000206265656E20736574207965742E20500A
:1020A0006C6561736520666F6C6C6F772074686512
:1020B000206D616E75616C2C20636861707465724F
:1020C0002046697273742073746570732C20736575
:1020D0006374696F6E204669727374206C617965F0
:1020E000722063616C6962726174696F6E2E005058
:1020F0006C6163652061207368656574206F66207C
:10210000706170657220756E6465722074686520F8
:102110006E6F7A7A6C6520647572696E6720746878
:10212000652063616C6962726174696F6E206F66AD
:10213000206669727374203420706F696E74732E18
:1021400020496620746865206E6F7A7A6C6520631A
:10215000617463686573207468652070617065726E
:102160002C20706F776572206F666620746865201A
:102170007072696E74657220696D6D6564696174F1
:10218000656C792E00506C656173652072656D6FAA
:10219000766520737465656C207368656574206668
:1021A000726F6D20686561746265642E00497320EA
:1021B000737465656C207368656574206F6E206844
:1021C0006561746265643F00206F6620340053656A
:1021D00061726368696E67206265642063616C691F
:1021E00062726174696F6E20706F696E7400206F27
:1021F000662039004D6561737572696E672072657E
:10220000666572656E636520686569676874206FCE
:10221000662063616C6962726174696F6E20706FB1
:10222000696E7400506C6561736520636C65616EE6
:1022300020746865206E6F7A7A6C6520666F7220F4
:1022400063616C6962726174696F6E2E20436C69A0
:10225000636B207768656E20646F6E652E00417534
:10226000746F20686F6D650078797A63616C5F6D5B
:10227000656173737572655F656E7465720A007867
:10228000797A63616C5F73706972616C382063780E
:102290003D25642063793D2564207A303D25642006
:1022A000647A3D2564207261646975733D256420FC
:1022B00061643D25640A0078797A63616C5F7365B7
:1022C000617263685A206E6F207369676E616C0A71
:1022D00020783D256C6420793D256C64207A3D256D
:1022E0006C640A00204F4E2D5349474E414C2061EB
:1022F0007420783D256420793D2564207A3D25644D
:102300002061643D25640A0078797A63616C5F73AB
:1023100065617263685A20783D256C6420793D259B
:102320006C64207A3D256C640A000A0025303278FE
:102330000078797A63616C5F7363616E5F7069784E
:10234000656C735F33327833322063783D256420C7
:1023500063793D2564206D696E5F7A3D2564206D4B
:1023600061785F7A3D25640A002025326420256467
:102370000A000A002530327800206D696E3D256420
:10238000206D61783D2564206469663D25640A00FE
:102390006D61785F633D253264206D61785F6C3DCF
:1023A00025640A006D61785F633D2564206D617866
:1023B0005F723D2564206D61785F6D617463683D77
:1023C00025640A0020783D256420793D2564207A23
:1023D0003D25640A00207061747465726E20666F1A
:1023E000756E642061742025642025640A00000055
:1023F000F000F801FC03FE07FE07FE07FE07FC03E2
:10240000F801F000000073697A656F6628746F74D4
:10241000616C293D25640A0073697A656F662862DC
:102420006C6F636B5F627566666572293D25640A31
:102430000078797A63616C5F6D656173737572653D
:102440005F6C656176650A00706F696E743D256426
:1024500020783D256420793D2564207A3D25640A55
:102460000058025802584D584DB004F055F055B080
:102470000478797A63616C5F66696E645F62656433
:102480005F696E64756374696F6E5F73656E736F99
:10249000725F706F696E745F787920783D256C6427
:1024A00020793D256C64207A3D256C640A00203C2F
:1024B00020005741524E494E473A2046726F6E7483
:1024C00020706F696E74206E6F742072656163682E
:1024D00061626C652E205920636F6F7264696E6152
:1024E00074653A0000000040410000C04000005CFC
:1024F000430000C04000005C430000464300004031
:102500004100004643497465726174696F6E3A20F8
:102510000043616C6962726174696F6E2066616903
:102520006C65642120436865636B20746865206175
:1025300078657320616E642072756E2061676169D1
:102540006E2E005A206C6976652061646A7573741A
:10255000206F7574206F662072616E67652E205340
:10256000657474696E6720746F20302E20436C6927
:10257000636B20746F20636F6E74696E75652E00D7
:102580005A206C6976652061646A757374206F7572
:1025900074206F662072616E67652E2053657474B7
:1025A000696E6720746F20300020423A0020453A5F
:1025B00000543A00494E5434007265636F76657278
:1025C0005F6D616368696E655F73746174655F6197
:1025D000667465725F706F7765725F70616E696354
:1025E0002C20696E697469616C200050525553410A
:1025F0002075766C6F004734205330004D32362002
:1026000053256C75004D3130362053004D32323039
:102610002053256400473120462564004D383200A0
:102620004739322045004731204525302E3366207A
:102630004632373030004731205A25660050525517
:102640005341204D424C20563100473120582566D9
:102650002059256620463330303000506F7369743E
:10266000696F6E20726561642066726F6D206565AA
:1026700070726F6D3A004D3233202573002E676300
:102680006F002C20666565646D756C7469706C797B
:102690003A0046656564726174653A0047312045C9
:1026A000252D302E3366204632373030004731201A
:1026B00045352046313230004D3833004D31303908
:1026C00020532564004D31393020532564004D31AD
:1026D00030342053256400473238205820590047B1
:1026E00031205A252E3366204638303000473120BD
:1026F0005A252D302E33662046252D302E33660088
:1027000047312045252D302E336620463237303074
:10271000004D383300504F5745522050414E4943E9
:102720002044455445435445440055564C4F202DB4
:1027300020656E642025640A0055564C4F5F54494D
:102740004E59202D20656E642025640A00776F7233
:102750006C6420636F6F7264696E617465733A2094
:1027600028252E33662C20252E33662C20252E334B
:1027700066290A0043757272656E7420706F73204B
:102780005A5F415849533A252E33660A437572728F
:10279000656E7420706F7320455F415849533A2528
:1027A0002E33660A00416674657220776169746928
:1027B0006E6720666F722074656D703A0A43757299
:1027C00072656E7420706F7320585F415849533A98
:1027D000252E33660A43757272656E7420706F73AE
:1027E00020595F415849533A252E33660A005265F5
:1027F000636F766572696E67207072696E742020EF
:10280000202000506C656173652077616974002435
:10281000F4D43050C38E20C2A24017828B701112A4
:102820007A910D816CD90AA861E108C758660761E1
:102830005143061E4B5D05C145A7041A4111040909
:102840003D9803713931034036DB0265339102D480
:10285000305402802E1D02632CEE01752AC501B092
:1028600028A001102781018F2564012B244B01E052
:10287000223401AC211F018D200D01801FFC00843A
:102880001EED00971DDF00B81CD200E61BC600201D
:102890001BBC00641AB200B219A8000A19A0006A91
:1028A000189900D117910040178B00B5168400319C
:1028B000167E00B31579003A157300C7146F0058DF
:1028C000146A00EE1366008813630025135E00C7C8
:1028D000125B006C12570015125400C111510070A8
:1028E000114F0021114B00D61049008D10470046B2
:1028F00010440002104200C00F4000800F3E004212
:102900000F3C00060F3B00CB0E3800930E37005CE7
:102910000E3500270E3400F30D3200C10D3100904A
:102920000D3000600D2E00320D2D00050D2C00D94C
:102930000C2B00AE0C2900850C29005C0C270035FF
:102940000C27000E0C2600E80B2400C40B2400A06A
:102950000B23007D0B23005A0B2100390B2100189B
:102960000B2000F80A1F00D90A1E00BB0A1E009D9A
:102970000A1D00800A1D00630A1C00470A1B002C68
:102980000A1B00110A1A00F7091A00DD091900C410
:10299000091900AB091900920917007B0918006397
:1029A0000917004C09160036091600200916000AFE
:1029B000091500F5081500E0081400CC081400B84B
:1029C000081400A4081400900813007D0812006B7E
:1029D000081300580812004608120034081100239A
:1029E0000811001208110001081100F0071000E0A2
:1029F000071000D0071000C0071000B0070F00A19B
:102A000007100091070E0083070F0074070F006581
:102A1000070E0057070E0049070E003B070D002E5A
:102A2000070E0020070D0013070D0006070D00F923
:102A3000060C00ED060D00E0060C00D4060C00C8E4
:102A4000060C00BC060C00B0060C00A4060B009996
:102A5000060C008D060B0082060B0077060B006C3F
:102A6000060B0061060A0057060B004C060A0042DE
:102A7000060A0038060A002E060A0024060A001A72
:102A8000060A001006090007060A00FD050900F401
:102A9000050900EB050900E2050900D9050900D088
:102AA000050900C7050900BE050900B5050800AD08
:102AB000050800A50509009C050800940508008C80
:102AC000050800840508007C050800740508006CF2
:102AD000050700650508005D050700560508004E5E
:102AE00005070047050700400508003805070031C5
:102AF0000507002A050700230507001C0506001628
:102B00000507000F0507000805060002050700FB82
:102B1000040600F5040700EE040600E8040600E2DF
:102B2000040700DB040600D5040600CF040600C934
:102B3000040600C3040600BD040600B7040600B185
:102B4000040500AC040600A6040600A00405009BD2
:102B500004060095040500900406008A040500851B
:102B6000040500800406007A040500750405007061
:102B70000405006B04050066040500610405005CA3
:102B800004050057040500520405004D04050048E3
:102B9000040500430405003E0404003A0405003522
:102BA000040500300404002C04050027040400235D
:102BB0000405001E0404001A040400160405001194
:102BC0000404000D040400090405000404040000CA
:102BD000040400FC030400F8030400F4030400F000
:102BE000030400EC030400E8030400E4030400E031
:102BF000030400DC030400D8030400D4030400D061
:102C0000030400CC030400C8030300C5030300242D
:102C1000F404D9201BC40C5C0E9804C4095F02653F
:102C2000077101F405F900FB04B30048048700C1F3
:102C30000369005803550003034500BE023A0084AF
:102C400002310053022A002902250004022000E478
:102C5000011C00C8011900AF01170098011400847D
:102C6000011300710110006101100051010E0043B9
:102C7000010D0036010B002B010B0020010B00158C
:102C80000109000C01090003010800FB000800F322
:102C9000000800EB000700E4000600DE000600D894
:102CA000000600D2000600CC000500C7000500C2E7
:102CB000000500BD000400B9000400B5000400B127
:102CC000000400AD000400A9000400A5000300A258
:102CD0000003009F0004009B000300980003009580
:102CE00000020093000300900003008D0002008B9F
:102CF00000030088000200860002008400030081B7
:102D00000002007F0002007D0002007B00020079CB
:102D100000020077000100760002007400020072D9
:102D2000000100710002006F0002006D0001006CE4
:102D30000002006A000100690002006700010066ED
:102D400000010065000100640002006200010061F2
:102D5000000100600001005F0002005D0001005CF6
:102D60000001005B0001005A0001005900010058F9
:102D700000010057000100560001005500010054F9
:102D800000010053000000530001005200010051F7
:102D9000000100500001004F0001004E0000004EF5
:102DA0000001004D0001004C0001004B0000004BF1
:102DB0000001004A000100490001004800000048ED
:102DC00000010047000100460000004600010045E8
:102DD00000000045000100440001004300000043E2
:102DE00000010042000000420001004100000041DB
:102DF000000100400001003F0000003F0001003ED4
:102E00000000003E0001003D0000003D0001003CCC
:102E10000000003C0000003C0001003B0000003BC3
:102E20000001003A0000003A0001003900000039BA
:102E300000010038000000380000003800010037B1
:102E400000000037000100360000003600000036A8
:102E5000000100350000003500000035000100349D
:102E60000000003400000034000100330000003393
:102E70000000003300010032000000320000003288
:102E8000000100310000003100000031000100307D
:102E900000000030000000300001002F0000002F73
:102EA0000000002F0000002F0001002E0000002E67
:102EB0000000002E0001002D0000002D0000002D5C
:102EC0000000002D0001002C0000002C0000002C50
:102ED0000000002C0001002B0000002B0000002B44
:102EE0000000002B0001002A0000002A0000002A38
:102EF0000000002A0001002900000029000000292C
:102F0000000000290000002900010028000000281E
:102F10000000002800000028000000280001002711
:102F20000000002700000027000000270000002705
:102F300000010026000000260000002600000026F8
:102F400000000026000100250000002500000025EB
:102F500000000025000000250000002500010024DD
:102F600000000024000000240000002400000024D1
:102F700000010023000000230000002300000023C4
:102F800000000023000000230000002300010022B5
:102F900000000022000000220000002200000022A9
:102FA000000000220001002100000021000000219B
:102FB000000000210000002100000021000000218D
:102FC0000001002000000020000000200000002080
:102FD0000000002000000020000000200000002071
:102FE0000001001F0000001F0000001F0000001F64
:102FF0000000001F0000001F0000001F0001001E55
:103000000000001E0000001E0000001E0000002541
:1030100063252E3135533A25732533640045787284
:10302000656D65207370616E206F66207468652021
:103030005A2076616C75657321006F6B0A0073749A
:103040006172740A004D4D5532206669726D776168
:1030500072652076657273696F6E20696E76616C39
:1030600069642E2052657175697265642076657297
:1030700073696F6E3A206275696C64206E756D625B
:103080006572202564206F72206869676865722EFA
:10309000004D4D55203D3E20276F6B270A004D4DBA
:1030A00055203D3E20276F6B270A002564004D4DBB
:1030B00055203D3E20276F6B272C20726573756D60
:1030C00065207072696E740A004D4D5520726574EA
:1030D000727920617474656D7074206E722E202573
:1030E000640A004D4D55203D3E20276F6B270A0096
:1030F000410A004D4D55203C3D202741270A004DF7
:10310000363030004D363030204155544F00256860
:10311000687500410A004D4D55203C3D2027412750
:103120000A0050300A004D25640A004D4D55203CE0
:103130003D20274D2564270A0057300A004D4D5584
:10314000203C3D20275730270A0053330A004D4DBD
:1031500055203C3D20275333270A0052300A004DAA
:103160004D55203C3D20275230270A004B25640A4C
:10317000004D4D55203C3D20274B2564270A004536
:1031800025640A004D4D55203C3D202745256427E8
:103190000A0055300A004D4D55203C3D2027553042
:1031A000270A0043300A004D4D55203C3D2027435F
:1031B00030270A004C25640A004D4D55203C3D2027
:1031C000274C2564270A005425640A004D4D5520DC
:1031D0003C3D2027542564270A004D4D55202D20C5
:1031E000454E41424C454400256868750050300A00
:1031F000004D310A004D4D55203C3D20274D3127D3
:103200000050300A004D4D552076657273696F6E1F
:103210002076616C6964004D4D55203D3E20272588
:10322000646F6B270A0025750053320A004D4D5517
:10323000203C3D2027533227004D4D55203D3E2058
:103240002725646F6B270A002575004D4D55206EAC
:103250006F7420726573706F6E64696E67202D20C5
:1032600044495341424C45440053310A004D4D55A9
:10327000203C3D2027533127004D4D55203D3E2019
:103280002773746172742700426564206C657665EB
:103290006C696E67206661696C65642E2053656E8B
:1032A000736F72206469646E7420747269676765F5
:1032B000722E20446562726973206F6E206E6F7A81
:1032C0007A6C653F2057616974696E6720666F721A
:1032D0002072657365742E00506C6561736520758E
:1032E0007064617465206669726D776172652069CA
:1032F0006E20796F7572204D4D55322E20576169C1
:1033000074696E6720666F722072657365742E0033
:10331000436F6F6C646F776E00507265686561749F
:1033200020746865206E6F7A7A6C65210045525270
:103330004F523A0046696C616D656E742065787411
:10334000727564696E672026207769746820636FE0
:10335000727265637420636F6C6F723F00417574A5
:103360006F6C6F6164696E672066696C616D656E14
:1033700074206973206163746976652C206A7573A3
:103380007420707265737320746865206B6E6F6251
:1033900020616E6420696E736572742066696C6169
:1033A0006D656E742E2E2E005072696E74207469D5
:1033B0006D650046696C616D656E7420757365643A
:1033C00000546F74616C207072696E742074696D42
:1033D0006500546F74616C2066696C616D656E7414
:1033E000005269676874004C65667400592064690E
:1033F0007374616E63652066726F6D206D696E0017
:1034000053657665726520736B65773A00536C6916
:1034100067687420736B65773A004D6561737572E8
:10342000656420736B6577005B303B305D20706FA7
:10343000696E74206F66667365740041646A7573A3
:1034400074696E67205A3A0052657365740052655C
:1034500061722073696465205B756D5D0046726FF3
:103460006E7420736964655B756D5D005269676891
:103470007420736964655B756D5D004C65667420CE
:1034800073696465205B756D5D00536574207465B8
:103490006D70657261747572653A00464C455820CE
:1034A0002D20203234302F35300050502020202D58
:1034B00020203235342F3130300048495053202DF0
:1034C00020203232302F3130300041425320202D25
:1034D00020203235352F3130300050432020202D30
:1034E00020203237352F3131300041534120202DFB
:1034F00020203236302F3130350050455420202DD9
:1035000020203233302F383500504C4120202D20E0
:10351000203231352F3630006E6F7A7A6C65202D6F
:1035200020203235302F30006661726D2020202D32
:1035300020203235302F383000252D31322E3132D7
:1035400053252B382E316600457874727564657288
:103550003A006D6D0059005800583A00593A005A27
:103560003A002563252D31332E313353252B352E4B
:1035700033660020003E003E0020003E003E002555
:10358000533A0A2531382E32666D200A25533A0AFD
:103590002531306C6468202530326868646D2025E0
:1035A0003032686864730025533A0A2531382E3268
:1035B000666D200A2553203A0A2531306C64642058
:1035C00025303268686468202530326868646D0090
:1035D00025362E32666D6D0025533A0A25530A258D
:1035E000533A0A25533A0025332E326601002553FB
:1035F0003A0A25530A252D31352E31355325332EE0
:103600003266010A252D31352E31355325332E32C0
:10361000660100437573746F6D005465787475723C
:1036200000536D6F6F74680047312059252D2E327D
:10363000662045252D2E336600473120582564200D
:1036400059252D2E32662045252D2E3366006673B2
:10365000656E736F725F636865636B706F696E74BC
:103660005F7072696E740A006673656E736F7220A4
:1036700076302E3420696E206661756C742072611C
:103680006E676520342E362D3556202D20756E63DD
:103690006F6E6E65637465640A006673656E736F42
:1036A0007220696E20666F7262696464656E207252
:1036B000616E676520312E352D3356202D206368CD
:1036C00065636B2073656E736F720A00312E300074
:1036D000312E3500554E4B4E4F574E004C41313038
:1036E000433A204C696E65617220416476616E6375
:1036F00065206D6F64653A20004C413130433A20BB
:1037000041646A757374656420452D4A65726B3A2D
:103710002000000E1315110E0000000412091204FF
:103720000000001C1F11111F0000000619180313D0
:103730000C00040E1F041C000000040A0A0A0A11EF
:10374000110E001F1511151F0000000103161C08A3
:1037500000000000110A04110A040C12120C0000EF
:1037600000002563252D31382E3138532563005B49
:1037700025735D2563005B25535D25630025632567
:103780002D31382E31385300252E3130532000256D
:1037900063252D31382E3138732563002563252D9F
:1037A00031382E3138732563002563252D2E3136AF
:1037B000532000756E6B6E6F776E20737461746545
:1037C0000020302E34206F72206E657765720020E5
:1037D000302E33206F72206F6C6465720047383072
:1037E000004D3435004D3435205A004737360057E8
:1037F000697A6172642073746174653A2025640A81
:10380000004578706572696D656E74616C00467311
:10381000656E736F7220446574656374696F6E00C2
:1038200044697361626C65206661726D206D6F64BE
:1038300065004661726D206E756D626572004D386F
:10384000340043616C696272617465005368656538
:103850007420252E37730A5A206F66667365743A92
:1038600020252B312E3366206D6D0A2563436F6E44
:1038700074696E75650A256353746172742066728B
:103880006F6D207A65726F00506C65617365206C96
:103890006F61642066696C616D656E742066697223
:1038A00073742E0049732066696C616D656E7420B7
:1038B0006C6F616465643F0043616E63656C0046D4
:1038C000696C616D656E740053656C656374206628
:1038D000696C616D656E743A0052756E6E696E67E3
:1038E0002057697A6172642077696C6C2064656C1A
:1038F0006574652063757272656E742063616C69AE
:1039000062726174696F6E20726573756C74732076
:10391000616E642073746172742066726F6D2074BE
:10392000686520626567696E6E696E672E20436FF9
:103930006E74696E75653F00507265686561746983
:103940006E67206E6F7A7A6C652E20506C6561739D
:103950006520776169742E004C6F6164696E672021
:1039600066696C616D656E7400506C65617365208D
:10397000696E736572742066696C616D656E742022
:10398000696E746F207468652065787472756465FB
:10399000722C207468656E20707265737320746871
:1039A00065206B6E6F6220746F206C6F616420699C
:1039B000742E00506C6561736520696E7365727456
:1039C0002066696C616D656E7420696E746F207419
:1039D00068652066697273742074756265206F660D
:1039E00020746865204D4D552C207468656E2070DC
:1039F0007265737320746865206B6E6F6220746FDC
:103A0000206C6F61642069742E00546865207072A8
:103A1000696E7465722077696C6C2073746172745E
:103A2000207072696E74696E672061207A69672DF3
:103A30007A6167206C696E652E20526F74617465BF
:103A400020746865206B6E6F6220756E74696C20DF
:103A5000796F7520726561636820746865206F7086
:103A600074696D616C206865696768742E204368AD
:103A700065636B2074686520706963747572657323
:103A800020696E207468652068616E64626F6F6B78
:103A9000202843616C6962726174696F6E2063688B
:103AA0006170746572292E0053656C6563742074AF
:103AB000656D706572617475726520776869636899
:103AC000206D61746368657320796F7572206D6114
:103AD00074657269616C2E0043686F6F7365206155
:103AE0002066696C616D656E7420666F7220746803
:103AF00065204669727374204C6179657220436158
:103B00006C6962726174696F6E20616E64207365A6
:103B10006C65637420697420696E20746865206F19
:103B20006E2D73637265656E206D656E752E004E29
:103B30006F7720492077696C6C2063616C696272D1
:103B40006174652064697374616E63652062657475
:103B50007765656E20746970206F662074686520D3
:103B60006E6F7A7A6C6520616E642068656174623C
:103B7000656420737572666163652E00596F7520E8
:103B800063616E20616C7761797320726573756D06
:103B900065207468652057697A6172642066726F67
:103BA0006D2043616C6962726174696F6E202D3E95
:103BB0002057697A6172642E00506C6561736520CC
:103BC000636865636B206F75722068616E64626FF5
:103BD0006F6B20616E642066697820746865207060
:103BE000726F626C656D2E205468656E207265730D
:103BF000756D65207468652057697A61726420620A
:103C000079207265626F6F74696E672074686520D1
:103C10007072696E7465722E00416C6C206973203D
:103C2000646F6E652E204861707079207072696EC5
:103C300074696E672100496620796F752068617626
:103C400065206164646974696F6E616C207374656A
:103C5000656C207368656574732C2063616C6962A0
:103C6000726174652074686569722070726573652D
:103C7000747320696E2053657474696E6773202DA8
:103C8000204857205365747570202D205374656546
:103C90006C207368656574732E00506C6561736584
:103CA00020636C65616E2068656174626564206183
:103CB0006E64207468656E2070726573732074681A
:103CC00065206B6E6F622E00446F20796F752077D0
:103CD000616E7420746F20726570656174206C6110
:103CE0007374207374657020746F20726561646AE8
:103CF0007573742064697374616E636520626574A2
:103D00007765656E206E6F7A7A6C6520616E6420CF
:103D1000686561746265643F0053656C6563742017
:103D20006E6F7A7A6C652070726568656174207454
:103D3000656D706572617475726520776869636816
:103D4000206D61746368657320796F7572206D6191
:103D500074657269616C2E0049732066696C616DCF
:103D6000656E74206C6F616465643F004973206602
:103D7000696C616D656E74206C6F616465643F0091
:103D80004E6F7720492077696C6C2070726568658A
:103D90006174206E6F7A7A6C6520666F7220504C69
:103DA000412E00492077696C6C2072756E207A2054
:103DB00063616C6962726174696F6E206E6F772ED9
:103DC000004E6F772072656D6F7665207468652090
:103DD00074657374207072696E742066726F6D20E2
:103DE000737465656C2073686565742E00506C652E
:103DF0006173652072656D6F766520736869707098
:103E0000696E672068656C7065727320666972738D
:103E1000742E00492077696C6C2072756E20787959
:103E20007A2063616C6962726174696F6E206E6F73
:103E3000772E2049742077696C6C2074616B652043
:103E4000617070726F782E203132206D696E732E22
:103E50000046697273742C20492077696C6C20725B
:103E6000756E207468652073656C66746573742064
:103E7000746F20636865636B206D6F737420636F6C
:103E80006D6D6F6E20617373656D626C79207072F9
:103E90006F626C656D732E0048692C204920616D3E
:103EA00020796F7572204F726967696E616C20505E
:103EB00072757361206933207072696E7465722E39
:103EC00020576F756C6420796F75206C696B652065
:103ED0006D6520746F20677569646520796F752042
:103EE0007468726F7567682074686520736574758F
:103EF000702070726F636573733F00452D636F723E
:103F0000726563743A005A2D636F72726563743A16
:103F100000592D636F72726563743A00582D636F98
:103F200072726563743A0053706F6F6C4A6F696E9A
:103F300000437574746572004669726D77617265CD
:103F4000004D6F64656C005374726963740057614F
:103F5000726E00485720536574757000485720539F
:103F60006574757000436865636B73004E6F7A7A91
:103F70006C6520642E00537465656C2073686565FC
:103F80007473004E6F6E6500416C70686162657499
:103F90000054696D6500536F727400466C617368FC
:103FA0004169720053442063617264005250692079
:103FB000706F72740054656D702E2063616C2E00FA
:103FC0004C696E2E20636F7272656374696F6E0048
:103FD0004D65736820626564206C6576656C696EFA
:103FE000670048572053657475700046616E7320F2
:103FF000636865636B00462E206175746F6C6F613A
:10400000640044697361626C6520737465707065E7
:104010007273004D6F766520617869730054656D29
:1040200070657261747572650057697A6172642097
:10403000656E642073746174653A2025640A0046D5
:10404000696E697368696E67206D6F76656D656E00
:104050007473004272696768746E657373004173AC
:10406000736973740053696C656E74004F6E636599
:10407000004C6F756400536F756E64004D4D552094
:104080004D6F6465004372617368206465742E002F
:10409000537465616C7468004E6F726D616C00469C
:1040A000616E7320636865636B00506175736500B2
:1040B000436F6E742E00465320416374696F6E0027
:1040C00046696C2E2073656E736F72004368616E73
:1040D00067652066696C616D656E7400466C6F770C
:1040E000005370656564004E2F41004D61676E6539
:1040F000747320636F6D702E005A2D70726F62653D
:10410000206E722E004D6573680054696D656F7581
:10411000740044696D004272696768740041757487
:104120006F004D6F6465004C6576656C2044696D69
:104130006D6564004C6576656C20427269676874D1
:104140000046616E20737065656400426564004ED0
:104150006F7A7A6C650053657474696E677300508A
:1041600072696E742061626F727465640053746F5B
:1041700070207072696E740046696C6520696E63A8
:104180006F6D706C6574652E20436F6E74696E750B
:104190006520616E797761793F004D61696E004DF0
:1041A000363030004D3234004D3233202573000557
:1041B0002E2E002F2F20616374696F6E3A63616E3B
:1041C00063656C006572726F723A20756E6B6E6F0C
:1041D000776E206D6F76650A006E6F206D6F766565
:1041E0000A00542D636F64650A00756E6C6F61641C
:1041F0000A006C6F61640A006D6D755F6765745FBE
:10420000726573706F6E7365202D20626567696ECD
:10421000206D6F76653A20006D6D755F6765745F20
:10422000726573706F6E736528292072657475727C
:104230006E696E673A2025640A00556E6C6F616482
:10424000696E672066696E697368656420320A006A
:10425000556E6C6F616420320A00556E6C6F61643C
:10426000696E672066696E697368656420310A004B
:10427000556E6C6F616420310A004D4D552073748A
:104280006172747320726573706F6E64696E670A11
:10429000004D4D55206E6F7420726573706F6E64A3
:1042A000696E670A0046696C616D656E74206F7592
:1042B00074206F662072616E6765202564200A0095
:1042C0000000803F555585410000803F0000C841F7
:1042D00000000040555505420000C03F0000484224
:1042E0000000204055558542000070C1ABAAA6428F
:1042F000000060C10000A0410000C0C000002041DB
:1043000000002041ABAA3A41000020C15555D540DC
:10431000000048C2555505424D3730312045340024
:104320004D373031204533004D3730312045320094
:104330004D373031204531004D3730312045300088
:1043400046696C616D656E74206E72206F757420A5
:104350006F662072616E67652100206661696C6519
:10436000642E00207375636365656465642E004D7B
:104370004D552063616E5F6C6F61643A0041646407
:104380006974696F6E616C206C6F61642061747414
:10439000656D7074206E722E2025640A00773235A8
:1043A000783230636C5F63666D0A0077323578323D
:1043B00030636C5F656E7465720A00737461727449
:1043C0000A004D4D55204F4B2E20526573756D6977
:1043D0006E672E2E2E004D4D55204F4B2E205265D0
:1043E00073756D696E6720706F736974696F6E2E77
:1043F0002E2E004D4D55204F4B2E20526573756D5E
:10440000696E672074656D70657261747572652E72
:104410002E2E00466978207468652069737375656F
:1044200020616E64207468656E20707265737320FD
:10443000627574746F6E206F6E204D4D5520756ED1
:1044400069742E00507265737320746865206B6EFA
:104450006F6220746F20726573756D65206E6F7A60
:104460007A6C652074656D70657261747572652E05
:10447000004D4D55206E656564732075736572201F
:10448000617474656E74696F6E2E0043757474691F
:104490006E672066696C616D656E7400506C656155
:1044A00073652072656D6F76652066696C616D65F8
:1044B0006E7420616E64207468656E20707265731E
:1044C0007320746865206B6E6F622E00456A6563A9
:1044D00074696E672066696C616D656E74004D4D20
:1044E00055206C6F6164206661696C6564202020D2
:1044F00020200025632533642F2564256300700187
:104500002C0190012701B0012201C0011D01F00121
:1045100018011002130130020E016002090190021D
:104520000401C002FF000003FA004003F50080030D
:10453000F000D003EB002004E6007004E100E0048A
:10454000DC004005D700C005D2004006CD00D006F3
:10455000C8008007C3003008BE00F008B900C009D9
:10456000B400B00AAF00B00BAA00D00CA500000E3A
:10457000A000500F9B00C010960050129100001434
:104580008C00C0158700B0178200B0197D00D01BC9
:104590007800001E730040206E0090226900F02415
:1045A000640040275F0090295A00E02B5500102E30
:1045B000500020304B0010324600E033410090356F
:1045C0003C001037370070383200A0392D00B03A67
:1045D0002800A03B2300603C1E00103D1900903DC8
:1045E0001400103E0F00703E0A00C03E0500003F60
:1045F000000090137D00B0157800F0177300601A6A
:104600006E00F01C6900A01F640050225F0020258E
:104610005A00E0275500902A5000202D4B00A02F73
:104620004600F031410010343C00F0353700A0372F
:10463000320020392D00603A2800703B2300603C96
:104640001E00203D1900C03D1400403E0F00A03E5A
:104650000A00F03E0500403F0000703FFBFF903F26
:10466000F6FFB03FF1FFC03FECFFD03FE7FFE03F78
:10467000E2FFF03FDDFFF03FD8FF20484F54454EAA
:104680004420544845524D414C2052554E415741CB
:104690005900204845415442454420544845524D14
:1046A000414C2052554E4157415900544845524DB6
:1046B000414C2052554E41574159004245442054E7
:1046C0004845524D414C2052554E415741590020CA
:1046D000544845524D414C2052554E415741592066
:1046E00028205052454845415420484F54454E4497
:1046F000290020544845524D414C2052554E4157B7
:1047000041592028205052454845415420484541B0
:104710005442454429005052454845415420455291
:10472000524F520042454420505245484541542082
:104730004552524F52004572723A200020747269FD
:1047400067676572656421004865617465727320EE
:104750007377697463686564206F66662E20003A1B
:104760002000506C656173652072657374617274AA
:10477000004D494E54454D50004D494E54454D5005
:104780002042454400746D63323133305F686F6D91
:10479000655F656E74657228617865735F6D6173BE
:1047A0006B3D307825303278290A00746D633231E0
:1047B00033305F686F6D655F6578697420746D6311
:1047C000323133305F73675F686F6D696E675F6149
:1047D0007865735F6D61736B3D3078253032780A90
:1047E00000544D4320445249564552204F5645529D
:1047F00054454D500047312058352E302045342E39
:10480000302046313030302E30004731205A302EA3
:1048100032302046313030302E300047312058358C
:10482000352E30204532352046313430302E3000A0
:10483000473120592D322E302046313030302E3045
:1048400000473120583234302E30204532352E305A
:10485000202046323230302E300047393220453069
:104860002E30004731205A302E3320463130303040
:104870002E30004731205835352E302045382E3027
:104880002046323030302E300047312058352E301F
:10489000204533322E302046313830302E3000471C
:1048A00031205835352E30204533322E30204631D8
:1048B0003037332E30004731204634303030004D11
:1048C000323034205331303030004731205A3520D7
:1048D00046373230302E30303000473120452D31D0
:1048E0002E35303030302046323130302E303030BE
:1048F0003030004D383300473930004732310047FF
:1049000039322045302E300047312058353020597B
:1049100035352045332E363237373300473120586E
:10492000323030205935352045302E343933383641
:104930000047312058323030205937352045332E4A
:104940003632373733004731205835302059373524
:104950002045302E34393338360047312058353031
:10496000205939352045332E363237373300473119
:104970002058323030205939352045302E343933E3
:104980003836004731205832303020593131352007
:1049900045332E36323737330047312058353020F3
:1049A000593131352045302E3439333836004731CE
:1049B0002058353020593133352045332E363237A3
:1049C00037330047312058323030205931333520C9
:1049D00045302E36363137340047312058323030AA
:1049E00020593135352045322E363237373300479E
:1049F000312058313030205931353520453200478B
:104A0000312058373520593135352045322E350083
:104A10004731204631303830004731205A302E316E
:104A200035302046373230302E303030004731209C
:104A30005835302059313535004739322045302E30
:104A40003000473238004D313039004D31393000B7
:104A50004D31303700542564004731205A302E3410
:104A60002046313030302E3000473120592D332E42
:104A7000302046313030302E30004D383300473151
:104A800020583130302E30204531322E35204631FD
:104A90003030302E30004731205836302E3020450F
:104AA000392E302046313030302E30009F48894832
:104AB000734863485A48414830481B480A48F547FC
:104AC000FF48FB48F748F348DA48CA48BF48B648A9
:104AD000473120583530205933352045252D2E3388
:104AE00066002D4A194A104AFF49EF49D949C3497E
:104AF000AE49994983496E495A49464931491C4949
:104B00000849496E76616C696420504944206361AC
:104B10006C2E20726573756C74732E204E6F74202A
:104B200073746F72656420746F20454550524F4D09
:104B30002E004D353030004731205A313520463176
:104B40003530300047393100473120583530205951
:104B50003139302045302046373030300047393049
:104B6000004D3834004D3730322043004731205853
:104B70003130205931383020463430303000473120
:104B8000205A31302046313330302E303030004D15
:104B9000313430205330004D313034205330004711
:104BA0003120452D302E30373530302046323130EF
:104BB000302E3030303030004D3130370025530A40
:104BC00020252D31362E313653252D33640A2025EC
:104BD0002D31362E313653252D33640025530A20CE
:104BE000252D31362E313653252D33640A20252DBF
:104BF00031362E313653252D33640A20252D31369A
:104C00002E313653252D33640025530A20252D31AE
:104C1000362E313653252D33640A20252D31362E7C
:104C2000313653252D33640A20252D372E3753581E
:104C300020252D336420205920252D336400202584
:104C40007325336401200A000A204952203A2020AB
:104C5000202020202025332E316656002050575228
:104C60003A20202020202025342E3166560A20426A
:104C700045443A20202020202025342E316656003D
:104C800025530A20582025640A205920256400460F
:104C90006C61736841697220495020416464723AC2
:104CA000004D4D5532202020202020204E2F410045
:104CB00025642E25642E25642D2564002046573A50
:104CC0000046696C2E2073656E736F7220762E3AE3
:104CD0000053657020323320323032300045334487
:104CE000763666756C6C0045494E53795F3130619C
:104CF00000315F37356D6D5F4D4B33002D2D2D2D00
:104D00002D2D2D2D2D2D2D2D00207265706F2055F0
:104D10006E6B6E6F776E0020332E392E312D33354A
:104D20003138004669726D776172653A00464D20F0
:104D300076657273696F6E3A2000464D2049503A8D
:104D4000200025642E25642E25642E2564004D3711
:104D50003032004D373031004D373032004D373072
:104D600031004D313137204669727374206C61799E
:104D700065722063616C2E005049442063616C2E83
:104D80002066696E697368656400504944206361F8
:104D90006C2E202020202020202020202000507257
:104DA000696E7420706175736564005072696E7409
:104DB0002046414E004E6F7A7A6C652046414E0087
:104DC000546F74616C004C617374207072696E74FE
:104DD000004D4D55206C6F6164206661696C7300F5
:104DE0004D4D55206661696C73004C617374207081
:104DF00072696E74206661696C75726573004D4DE1
:104E00005520706F776572206661696C73004D4D37
:104E100055206C6F6164206661696C73004D4D555F
:104E2000206661696C7300546F74616C20666169FF
:104E30006C757265730043726173680046696C61DA
:104E40006D2E2072756E6F75747300506F7765727A
:104E5000206661696C7572657300546F74616C20B3
:104E60006661696C757265730043726173680046B0
:104E7000696C616D2E2072756E6F75747300506F62
:104E8000776572206661696C75726573004C617339
:104E900074207072696E74206661696C75726573D6
:104EA00000546F74616C004C617374207072696E91
:104EB000740050494E444100416D6269656E740052
:104EC00042656C742073746174757300566F6C74F2
:104ED000616765730054656D7065726174757265A4
:104EE000730042656C74207374617475730053654C
:104EF0006E736F7220696E666F00457874727564A8
:104F0000657220696E666F0058595A2063616C2E75
:104F10002064657461696C7300756E6B6E6F776E7B
:104F2000004D4D553220636F6E6E6563746564008D
:104F3000446174653A00686F77746F2E7072757390
:104F40006133642E636F6D00666F72756D2E7072C3
:104F500075736133642E636F6D00707275736133A6
:104F6000642E636F6D0055706461746520464D203A
:104F7000465700464D2046572074797065205B6483
:104F8000656275675D00464D2046572074797065EF
:104F9000205B737461626C655D00746F20756E6C6C
:104FA0006F61642066696C616D656E7400746F205A
:104FB0006C6F61642066696C616D656E740050721F
:104FC00065737320746865206B6E6F62003E436189
:104FD0006E63656C0050726568656174696E672008
:104FE000746F206375740050726568656174696ED2
:104FF0006720746F20656A65637400507265686528
:105000006174696E6720746F20756E6C6F616400E7
:1050100050726568656174696E6720746F206C6F8B
:105020006164002F2F20616374696F6E3A7061753F
:10503000736564002573202534642052504D0A2581
:1050400073202534642052504D0A0054656D7065FC
:105050007261747572652063616C696272617469F2
:105060006F6E206661696C65640054656D70657271
:1050700061747572652063616C6962726174696FD5
:105080006E2069732066696E697368656420616E5D
:1050900064206163746976652E2054656D702E20DE
:1050A00063616C6962726174696F6E2063616E2006
:1050B00062652064697361626C656420696E206D4D
:1050C000656E752053657474696E67732D3E546503
:1050D0006D702E2063616C2E0049523A0046494E95
:1050E00044413A0050494E44413A0053656E736F53
:1050F00072207374617465004578747275646572AA
:10510000004D6F7665205A004D6F76652059004D31
:105110006F7665205800437261736820646574651A
:105120006374696F6E2063616E0A626520747572C4
:105130006E6564206F6E206F6E6C7920696E0A4E0A
:105140006F726D616C206D6F6465005741524E49FE
:105150004E473A0A437261736820646574656374EC
:10516000696F6E0A64697361626C656420696E0AB6
:10517000537465616C7468206D6F6465004175746B
:105180006F6C6F6164696E672066696C616D656ED6
:105190007420617661696C61626C65206F6E6C79F8
:1051A000207768656E2066696C616D656E7420732A
:1051B000656E736F72206973207475726E656420FA
:1051C0006F6E2E2E2E004552524F523A2046696C79
:1051D000616D656E742073656E736F7220697320E4
:1051E0006E6F7420726573706F6E64696E672C20C9
:1051F000706C6561736520636865636B20636F6EB7
:105200006E656374696F6E2E004D6F646520636810
:10521000616E676520696E2070726F677265737367
:10522000202E2E2E0054656D706572617475726546
:105230002063616C6962726174696F6E2066616976
:105240006C65642E20436F6E74696E756520776996
:105250007468207072657373696E67207468652066
:105260006B6E6F622E0054656D706572617475723D
:10527000652063616C6962726174696F6E20646F2E
:105280006E652E20436F6E74696E75652077697444
:1052900068207072657373696E6720746865206B2F
:1052A0006E6F622E002020300020203100000000B0
:1052B0000000110A04505255534133444657002010
:1052C00079303D25640A002078303D25640A004F7E
:1052D0004B0A004552524F522061643D25640A003A
:1052E0002020207A303D25640A00207A303D256454
:1052F0000A002079303D25640A002078303D25647D
:105300000A0078797A63616C5F66696E645F706FBA
:10531000696E745F63656E746572320A0000002105
:1053200000240027002A002D003000330001010076
:1053300000040107010A0100002200250028002BBB
:10534000002E003100340002010000050108010BAD
:1053500001000020002300260029002C002F00322D
:10536000000001000003010601090105050505070C
:105370000508080808020202020A0A0808040404D0
:1053800004010101010101010103030303030303FC
:1053900003040707070C0C0C0C0C0C0C0C0202028B
:1053A0000206060606060606060B0B0B0B0B0B0B7E
:1053B0000B07070A0A0A0A0A0A0505050404040875
:1053C0000801021020200808102040102040800210
:1053D000010201080402010102040810204080803B
:1053E00040201008040201800402018040201008BF
:1053F0000402010804020101020408102040800197
:105400000204081020408010080408801020400486
:105410004080102040048000000A0B02090C0D0E91
:105420000807030401000000000000000000000065
:10543000000000000000000000000000000000006C
:105440000000001211100000000000000000000029
:10545000000000000000000000000000000000004C
:105460000000000000000000000000000045727213
:105470006F72202D20737461746963206D656D6F88
:10548000727920686173206265656E206F7665723F
:105490007772697474656E00436172642072656D21
:1054A0006F766564004F6E004F6666004261636B05
:1054B000005072696E746572206E6F7A7A6C652026
:1054C0006469616D6574657220646966666572738E
:1054D0002066726F6D2074686520472D636F646568
:1054E0002E20506C6561736520636865636B207462
:1054F00068652076616C756520696E2073657474CB
:10550000696E67732E205072696E742063616E63DA
:10551000656C6C65642E005072696E746572206EE5
:105520006F7A7A6C65206469616D65746572206458
:105530006966666572732066726F6D207468652097
:10554000472D636F64652E20436F6E74696E7565B9
:105550003F00414C5446414E206465742E00746DEA
:1055600063323133305F676F746F5F7374657020BF
:105570002564202564202564202564200A004E6FC0
:10558000203078464620726563656976656400530D
:10559000656E64696E672030784646001F1F1F1FC6
:1055A0001F1F1F1F46696C616D656E742073656EE9
:1055B000736F7220626F617264206368616E6765E9
:1055C0002064657465637465643A207265766973F6
:1055D000696F6E25530A004E6F7720667265736897
:1055E0002066696C653A20004E6F7720646F696EA3
:1055F000672066696C653A20002220706F73002274
:1056000020706172656E743A2200535542524F55B4
:1056100054494E452043414C4C2074617267657477
:105620003A220053442063617264206F6B006F70F4
:10563000656E526F6F74206661696C656400766F89
:105640006C756D652E696E6974206661696C656440
:1056500000534420696E6974206661696C0057725A
:105660006974696E6720746F2066696C653A200002
:1056700046696C652073656C6563746564002053CE
:10568000697A653A200046696C65206F70656E65C1
:10569000643A2000747279696E6720746F206361C8
:1056A0006C6C207375622D67636F64652066696C2E
:1056B0006573207769746820746F6F206D616E79EF
:1056C000206C6576656C732E006F70656E20666168
:1056D000696C65642C2046696C653A2000536F72D2
:1056E00074696E672066696C657300536F6D652021
:1056F00066696C65732077696C6C206E6F742062CC
:105700006520736F727465642E204D61782E204E73
:105710006F2E206F662066696C657320696E20317C
:1057200020666F6C64657220666F7220736F72748E
:10573000696E67206973203130302E00257500595D
:105740003A202575202D3E202E2E2E00257500583E
:105750003A202575202D3E202E2E2E004D6561739A
:10576000757265642066696C616D656E7420736521
:105770006E736F72206C6F77206C6576656C3A2063
:1057800025342E3266560A004D6561737572656464
:105790002066696C616D656E742073656E736F72DF
:1057A0002068696768206C6576656C3A2025342E20
:1057B0003266560A00457874722066616E207370F6
:1057C0006565643A202564200A005072696E742071
:1057D00066616E2073706565643A202564200A0056
:1057E0005465737420323A0A0045787472206661F9
:1057F0006E2073706565643A202564200A0050723B
:10580000696E742066616E2073706565643A202548
:1058100064200A005465737420313A0A004D38340C
:105820000025632041584953205347313D25640AE0
:10583000002D2D2D2D2D2D2D2D2D2D2D2D2D2D2DC5
:105840002D2D2D2D2D00436865636B696E672059E2
:105850002061786973202000436865636B696E6717
:1058600020582061786973202000496E7365727436
:10587000207468652066696C616D656E74202864AB
:105880006F206E6F74206C6F6164206974292069C9
:105890006E746F20746865206578747275646572C3
:1058A00020616E64207468656E2070726573732069
:1058B000746865206B6E6F622E005665726966694A
:1058C000636174696F6E206661696C65642C207217
:1058D000656D6F7665207468652066696C616D65BD
:1058E0006E7420616E642074727920616761696EE4
:1058F0002E0053656E736F722076657269666965F6
:10590000642C2072656D6F76652074686520666909
:105910006C616D656E74206E6F772E00506C6561E2
:10592000736520636865636B207468652049522045
:1059300073656E736F7220636F6E6E656374696FEB
:105940006E2C20756E6C6F61642066696C616D658C
:105950006E742069662070726573656E742E0050D7
:105960006C6561736520756E6C6F61642074686529
:105970002066696C616D656E742066697273742C43
:10598000207468656E207265706561742074686942
:105990007320616374696F6E2E0057616974696E5C
:1059A0006720666F72206E6F7A7A6C6520616E6414
:1059B0002062656420636F6F6C696E670053656C6D
:1059C000662074657374204F4B0053656C662074B9
:1059D0006573742073746172742020005072696E54
:1059E000742066616E3A0045787472756465722041
:1059F00066616E3A0043616C6962726174696E67D8
:105A000020686F6D6500416C6C20636F7272656316
:105A10007420202020202000436865636B696E6736
:105A20002073656E736F72732000436865636B69E2
:105A30006E6720686F74656E64202000436865633C
:105A40006B696E6720626564202020202000436817
:105A500065636B696E67205A206178697320200046
:105A6000436865636B696E672059206178697320AC
:105A70002000436865636B696E6720582061786910
:105A800073202000436865636B696E6720656E64F0
:105A900073746F70730041786973206C656E6774FE
:105AA0006820646966666572656E63653A252E33A3
:105AB000660A004D6561737572656420617869736B
:105AC000206C656E6774683A252E33660A0072652D
:105AD00073756C742076616C75653A2025640A00D4
