:100000000C9485350C94B6350C94B6350C94B635F5
:100010000C94B6350C94E3D80C94B6350C94B635E4
:100020000C9471D80C94B6350C9467C40C94B63506
:100030000C94AD6E0C94B6350D94EE140C9467B020
:100040000C94B6350D94A31A0C94B6350C94B635B1
:100050000C94B6350C94B6350C94B6350C949AC302
:100060000C94B6350C94F3740C94B6350C94B635E8
:100070000C94B6350C94B6350C94B6350C94B63554
:100080000C94B6350C94B6350C94B6350C94B63544
:100090000C94AF740C94B6350C94B6350C94B635FC
:1000A0000C94B6350C94B6350C94707C0C94B63523
:1000B0000C94B6350C94527C0C94B6350C94B63531
:1000C0000C94B6350C94B6350C94B6350C94AE7BC6
:1000D0000C94B6350C94B6350C94B6350C94B635F4
:1000E0000C94B635084AD73B3BCE016E84BCBFFDAD
:1000F000C12F3D6C74319ABD56833DDA3D00C77FF8
:1001000011BED9E4BB4C3E916BAAAABE0000008090
:100110003F05A84CCDB2D44EB93836A9020C50B91F
:10012000918688083CA6AAAA2ABE000000803F0744
:10013000634236B79BD8A71A39685618AEBAAB5582
:100140008C1D3CB7CC5763BD6DEDFD753EF6177247
:1001500031BF000000803F08000000BE9224491219
:100160003EABAAAA2ABECDCCCC4C3E00000080BE3D
:10017000ABAAAAAA3E00000000BF000000803F001A
:1001800000000000084178D3BB4387D1133D190E0E
:100190003CC3BD4282AD2B3E68EC8276BED98FE176
:1001A000A93E4C80EFFFBE01C4FF7F3F000000006E
:1001B00000000C9466480C94AA650C940BC40D9432
:1001C00061040C94475F0D94EE280C944B750D94CC
:1001D000920D0D94FC3A0D94A8890D947D280D94F0
:1001E000CB000C9403360C941D460C94A4370C944D
:1001F000255C0C948FF10D94DE280C9453690D94BA
:1002000096890D94C23A0C94E4390C94E1490C940B
:10021000733D0D940D070C94574E0D9434890C9436
:10022000943D0D94BE280D9470050C9422400C94BE
:1002300043390D9490890D94BC050C94BB360C94F5
:100240004D370C949A480C94076C0D9497340C9489
:100250005F3D0C94D3C30C949E570C9409360C94B8
:10026000CE6B0D9470340D9411020D94AD060C9468
:10027000EB370C9445400C94994B0C94BA6A0D944E
:100280008C280C940D360D9482280D94DEAF0D94BD
:10029000F6340D9452280D940C3A0C94176B0C9470
:1002A000A1360C94A76B0D94260A0C9407370C9476
:1002B000664E0C94B23D0C94816B0C940B5F0C94C5
:1002C0009B380D9409280D94E8B30C9429360D94AD
:1002D000CE280C94D73C0D9447070C94B6630D942C
:1002E00057280C94DB6A0C94C14E0C94FB350C948B
:1002F00062F40C945E480C94003A0C94F63B0C9417
:10030000746C0C94A84E0D94DC090C94F2520C946D
:10031000B6C20D9487280C9486490D94DD3A0C944E
:10032000D54E0C948C6C0D94E0340C944E6B0D9463
:10033000E6280C9453F10D9464050D94BA000C94C6
:10034000DDC20C94704E0C9411370C948A4E0D94AF
:10035000AB890C948D3C0C94E8350D9484890C94F5
:10036000D3360C9419380C94823D0D948D890D94DC
:100370009E280C9483370C940B6B0C945E4A0C945F
:10038000B9C30C944BF10C94B4630C94554A0D947E
:10039000DB060C9417360C9452BF0C94CB4E0C9485
:1003A000EB350C944C4A0D9493890D9452050C94A2
:1003B000F9390D94603A0C94E0350D9439030C949E
:1003C0008C450C945C4E0D94300E0C9416360C94A7
:1003D00002C40C940F460C94ADF00C9449F90C94A3
:1003E0009DF30C948F370D9449350C94EB390C9494
:1003F0002B490C9440C40C940DF40D94F3050D940A
:10040000AE280D94B6280C9475470D949F890C94D2
:1004100011360C942B550D9409070C9439370C9414
:10042000F36B0D94EB340C94E26B0C94AF370C949B
:10043000693D0D9442340D944F020C942EC40C94DB
:10044000996B0C94DC350D94113A0D9455040C9471
:100450009A470C94ECC30C94783D0D949D060C9433
:1004600047590C94F1350C94E94E0C94BA3A0D941A
:1004700096280C94AA530C94434C0C94F4F00C94CE
:10048000E4350C94F76A0D94C6280C94C8BC0D94FE
:10049000AF320D9420070D94E0010C941F360C949C
:1004A000824E0C94AD6B0D94B64D0D942B890C942B
:1004B0009E4E0C94E03F0D949C070C9457370C947F
:1004C00053460C94B16B0C94A83D0C948EF00C9494
:1004D000F2390C944AC70C94F5350D94A7340D9459
:1004E0004F280C94B4460C94F4360D94D5340C94E7
:1004F000C2F00D9498060C9420FA0D9401350C94DA
:10050000FF350D9426340D94D6280C941B360C948C
:10051000EFC80C94863D0C94DEC30D94A6280C9471
:1005200093F90C94DF4E0C94B0570C9426570C940E
:100530004F4E0D9431350C94813B0C943D690D94D4
:1005400046890C942AF40C9425370C94643D0C9441
:10055000D6350C942E360D94730D0C947D3D0C9471
:100560002B380C94D45D0C946E3D0D94BA020C940F
:10057000C5F20C949E3D0C94B74E0C947A4E0C949C
:10058000FD3D0C94944E0C94CE486E616E00696EE5
:1005900066004E414E494E495459494E46CDCCCC49
:1005A0003D0AD7233C17B7D13877CC2B329595E647
:1005B000241FB14F0A000020410000C84200401C27
:1005C0004620BCBE4CCA1B0E5AAEC59D7400407A74
:1005D00010F35A00A0724E18090010A5D4E80000CC
:1005E000E87648170000E40B54020000CA9A3B006A
:1005F0000000E1F505000080969800000040420FE1
:10060000000000A08601000000102700000000E8A4
:1006100003000000006400000000000A0000000069
:10062000000100000000002C76D888DC674F08230A
:10063000DFC1DFAE59E1B1B796E5E3E453C63AE670
:1006400051997696E8E6C28426EB898C9B62ED4050
:100650007C6FFCEFBC9C9F40F2BAA56FA5F490059F
:100660005A2AF75C936B6CF9676DC11BFCE0E40DD3
:1006700047FEF520E6B500D0ED902E0300943577C7
:10068000050080841E080000204E0A000000C80CEF
:10069000333333330F986E12831141EF8D21148958
:1006A0003BE65516CFFEE6DB18D1844B381BF77CB2
:1006B0001D901DA4BBE424203284725E228100C9F7
:1006C000F124ECA1E53D276364696E6F7073757862
:1006D000585B00583A00593A005A3A002563252DD4
:1006E00031332E313353252B352E33660050494E8E
:1006F00044412063616C6962726174696F6E206647
:1007000061696C65642E20436F6E74696E75652037
:1007100077697468207072657373696E6720746896
:1007200065206B6E6F622E0050494E44412063611C
:100730006C6962726174696F6E20646F6E652E20E1
:10074000436F6E74696E7565207769746820707286
:10075000657373696E6720746865206B6E6F622EB7
:10076000007B5B4552523A00332E31312E30005D12
:100770005B4657523A005D5B54494D3A005D5B461B
:100780004E4D3A005D5B46454D3A005D5B5043443B
:100790003A005B5446553A007B5B50524E3A393929
:1007A0005D007B5B50524E3A355D007B5B50524E94
:1007B0003A305D007B5B50524E3A395D007B5B50B6
:1007C000524E3A385D007B5B5245533A305D5B4692
:1007D000494C3A007B5B5245533A315D5B46494C8C
:1007E0003A005B50524E3A005B50464E3A305D0044
:1007F0005B4449413A005D5B4154423A005D5B41D4
:1008000054303A005D5B5354423A005B5354303AE3
:1008100000473830004D3435004D3435205A0047FC
:1008200037360057697A6172642073746174653A6F
:100830002025640A004578706572696D656E746183
:100840006C0044697361626C65206661726D206D35
:100850006F6465004D3834004D3434004732382021
:100860005700200A200A2000473939004469736183
:10087000626C65206661726D206D6F64653F004D2E
:10088000363030004D203834004D3834004D32348D
:10089000004D323320257300052E2E00257500599A
:1008A0003A202575202D3E202E2E2E00257500582D
:1008B0003A202575202D3E202E2E2E00457874726C
:1008C0002066616E2073706565643A2025640A00B5
:1008D0005072696E742066616E2073706565643A4B
:1008E0002025640A005465737420323A00457874F8
:1008F000722066616E2073706565643A2025640A13
:10090000005072696E742066616E20737065656454
:100910003A2025640A005465737420313A004D383A
:10092000340025632041584953205347313D256405
:100930000A00486F74656E6400426564005A00598D
:100940000058002D2D2D2D2D2D2D2D2D2D2D2D2D06
:100950002D2D2D2D2D2D2D004F4B000000000000C2
:10096000110A04435A5058496E76616C69645365A4
:100970007269616C4E72006265746100616C7068CE
:1009800061006465760003000B0000005B135052A9
:1009900055534133444657000000210024002700EE
:1009A0002A002D003000330001010000040107017E
:1009B0000A0100002200250028002B002E00310033
:1009C000340002010000050108010B0100002000B5
:1009D0002300260029002C002F0032000001000017
:1009E00003010601090105050505070508080808B2
:1009F000020202020A0A08080404040401010101B7
:100A000001010101030303030303030304070707B1
:100A10000C0C0C0C0C0C0C0C020202020606060656
:100A2000060606060B0B0B0B0B0B0B0B07070A0A34
:100A30000A0A0A0A05050504040408080102102030
:100A40002008081020401020408002010201080404
:100A50000201010204081020408080402010080498
:100A600002018004020180402010080402010804F1
:100A70000201010204081020408001020408102035
:100A8000408010080408801020400440801020405E
:100A9000048000000A0B02090C0D0E080703040174
:100AA0000000000000000000000000000000000046
:100AB0000000000000000000000000000000121113
:100AC0001000000000000000000000000000000016
:100AD0000000000000000000000000000000000016
:100AE0000000000000000000435A5058003B530033
:100AF0006164635F696E6974000A204F7269676997
:100B00006E616C2050727573612069330A20202059
:100B1000507275736120526573656172636800205D
:100B20000A200A200A2000416C6C20446174610094
:100B300053657276696365207072657000536869E9
:100B40007070696E672070726570005374617469AB
:100B50007374696373004C616E6775616765004506
:100B6000524153494E4720616C6C206461746100AE
:100B7000466163746F727920524553455400494E63
:100B80005434004D4B334D4D5532004C4F4D4B338B
:100B90000003004D61792031382032303232004379
:100BA0006F6D70696C65643A2000286E6F6E652CFD
:100BB0002064656661756C7420636F6E6669672971
:100BC000004D617920313820323032322032313AD2
:100BD00034363A35300020332E31312E302D343931
:100BE000353500737461727400534E207570646102
:100BF0007465206661696C656400534E207570648D
:100C00006174656400435A505800416E20657272E9
:100C10006F72207768696C652077726974696E6796
:100C200020746F2074686520534420436172642EE1
:100C3000002055706C6F616420696E2070726F6760
:100C40007265737300205A3A0020593A0020583ACE
:100C50000043524153485F4445544543544544582A
:100C6000590043524153485F444554454354454419
:100C7000590043524153485F444554454354454409
:100C800058004D32390041646A757374696E67208B
:100C90005A3A00526561722073696465205BE46DA5
:100CA0005D0046726F6E7420736964655BE46D5D10
:100CB00000526967687420736964655BE46D5D0068
:100CC0004C6566742073696465205BE46D5D005358
:100CD00065742074656D70657261747572653A0033
:100CE00050494E44412063616C6962726174696F5E
:100CF0006E206661696C65640050494E4441206312
:100D0000616C6962726174696F6E206973206669D3
:100D10006E697368656420616E64206163746976CE
:100D2000652E2049742063616E20626520646973BA
:100D300061626C656420696E206D656E7520536517
:100D40007474696E67732D3E50494E44412063614F
:100D50006C2E0046696C2E2073656E736F720045B1
:100D600078747275646572004D6F7665205A004D17
:100D70006F76652059004D6F76652058004372618B
:100D8000736820646574656374696F6E2063616E57
:100D90000A6265207475726E6564206F6E206F6ED6
:100DA0006C7920696E0A4E6F726D616C206D6F6494
:100DB00065005741524E494E473A0A437261736883
:100DC00020646574656374696F6E0A646973616237
:100DD0006C656420696E0A537465616C7468206D7B
:100DE0006F6465004175746F6C6F6164696E672034
:100DF00066696C616D656E7420617661696C6162B3
:100E00006C65206F6E6C79207768656E2066696C02
:100E1000616D656E742073656E736F7220697320E7
:100E20007475726E6564206F6E2E2E2E00455252C0
:100E30004F523A2046696C616D656E742073656E21
:100E4000736F72206973206E6F7420726573706F98
:100E50006E64696E672C20706C65617365206368D1
:100E600065636B20636F6E6E656374696F6E2E00D1
:100E70004D6F6465206368616E676520696E2070E0
:100E8000726F67726573732E2E2E005368656574DA
:100E900020252E37730A5A206F66667365743A20D0
:100EA000252B312E33666D6D0A2563436F6E746991
:100EB0006E75650A2563526573657400506C6561D3
:100EC0007365206C6F61642066696C616D656E741A
:100ED0002066697273742E003E43616E63656C0018
:100EE00046696C616D656E740053656C6563742052
:100EF00066696C616D656E743A0052756E6E696EEE
:100F0000672057697A6172642077696C6C20646528
:100F10006C6574652063757272656E742063616CB4
:100F20006962726174696F6E20726573756C747337
:100F300020616E642073746172742066726F6D201C
:100F400074686520626567696E6E696E672E2043FE
:100F50006F6E74696E75653F005072656865617487
:100F6000696E67206E6F7A7A6C652E20506C6561B1
:100F7000736520776169742E004C6F6164696E67D8
:100F80002066696C616D656E7400506C6561736597
:100F900020696E736572742066696C616D656E742C
:100FA00020696E746F20746865206578747275644A
:100FB00065722C207468656E20707265737320747E
:100FC0006865206B6E6F6220746F206C6F616420A7
:100FD00069742E00506C6561736520696E7365726B
:100FE000742066696C616D656E7420696E746F2023
:100FF0007468652066697273742074756265206F09
:101000006620746865204D4D552C207468656E20EF
:10101000707265737320746865206B6E6F622074E4
:101020006F206C6F61642069742E005468652070B5
:1010300072696E7465722077696C6C20737461726A
:1010400074207072696E74696E672061207A6967B6
:101050002D7A6167206C696E652E20526F74617401
:101060006520746865206B6E6F6220756E74696CA4
:1010700020796F7520726561636820746865206FE0
:101080007074696D616C206865696768742E2043AF
:101090006865636B20746865207069637475726538
:1010A0007320696E207468652068616E64626F6F7A
:1010B0006B202843616C6962726174696F6E206392
:1010C000686170746572292E0053656C65637420C5
:1010D00074656D7065726174757265207768696397
:1010E00068206D61746368657320796F7572206D17
:1010F0006174657269616C2E0053656C6563742060
:10110000612066696C616D656E7420666F72207413
:101110006865204669727374204C6179657220435A
:10112000616C6962726174696F6E20616E642073B4
:10113000656C65637420697420696E20746865202D
:101140006F6E2D73637265656E206D656E752E0012
:101150004E6F7720492077696C6C2063616C6962FF
:10116000726174652064697374616E636520626581
:10117000747765656E20746970206F662074686589
:10118000206E6F7A7A6C6520616E64206865617488
:1011900062656420737572666163652E00596F75B0
:1011A0002063616E20616C7761797320726573755D
:1011B0006D65207468652057697A61726420667273
:1011C0006F6D2043616C6962726174696F6E202D6E
:1011D0003E2057697A6172642E00506C65617365B8
:1011E00020636865636B206F75722068616E64624E
:1011F0006F6F6B20616E642066697820746865206B
:1012000070726F626C656D2E205468656E20726519
:1012100073756D65207468652057697A6172642002
:101220006279207265626F6F74696E672074686599
:10123000207072696E7465722E00416C6C20697347
:1012400020646F6E652E204861707079207072691D
:101250006E74696E672100496620796F7520686138
:101260007665206164646974696F6E616C20737463
:1012700065656C207368656574732C2063616C69A7
:10128000627261746520746865697220707265733A
:1012900065747320696E2053657474696E6773207A
:1012A0002D204857205365747570202D2053746588
:1012B000656C207368656574732E00506C6561738E
:1012C0006520636C65616E20686561746265642089
:1012D000616E64207468656E20707265737320742B
:1012E0006865206B6E6F622E00446F20796F7520E9
:1012F00077616E7420746F20726570656174206C04
:10130000617374207374657020746F2072656164FA
:101310006A7573742064697374616E6365206265B5
:10132000747765656E206E6F7A7A6C6520616E6485
:1013300020686561746265643F0053656C65637421
:10134000206E6F7A7A6C65207072656865617420B2
:1013500074656D7065726174757265207768696314
:1013600068206D61746368657320796F7572206D94
:101370006174657269616C2E0049732066696C61E5
:101380006D656E74206C6F616465643F004E6F77AD
:1013900020492077696C6C207072656865617420E3
:1013A0006E6F7A7A6C6520666F7220504C412E0009
:1013B000492077696C6C2072756E207A2063616CAD
:1013C0006962726174696F6E206E6F772E004E6F66
:1013D000772072656D6F766520746865207465731B
:1013E00074207072696E742066726F6D20737465FC
:1013F000656C2073686565742E00506C656173655B
:101400002072656D6F7665207368697070696E67AC
:101410002068656C706572732066697273742E0043
:10142000492077696C6C2072756E2078797A206318
:10143000616C6962726174696F6E206E6F772E20C5
:1014400049742077696C6C2074616B6520617070E1
:10145000726F782E203132206D696E732E004669CE
:101460007273742C20492077696C6C2072756E2021
:101470007468652073656C667465737420746F207E
:10148000636865636B206D6F737420636F6D6D6F40
:101490006E20617373656D626C792070726F626C1F
:1014A000656D732E0048692C204920616D20796F8D
:1014B0007572204F726967696E616C205072757326
:1014C00061206933207072696E7465722E20576FC7
:1014D000756C6420796F75206C696B65206D652073
:1014E000746F20677569646520796F752074687200
:1014F0006F756768207468652073657475702070F7
:10150000726F636573733F0048692C204920616DD9
:1015100020796F7572204F726967696E616C205017
:1015200072757361206933207072696E7465722EF2
:1015300020492077696C6C20677569646520796F34
:1015400075207468726F75676820612073686F72A8
:10155000742073657475702070726F636573732C7B
:1015600020696E20776869636820746865205A2D49
:10157000617869732077696C6C2062652063616CA7
:10158000696272617465642E205468656E2C2079DE
:101590006F752077696C6C20626520726561647973
:1015A00020746F207072696E742E00452D636F7207
:1015B000726563743A005A2D636F72726563743A90
:1015C00000592D636F72726563743A00582D636F12
:1015D00072726563743A00437574746572004D6F7E
:1015E00064656C00537472696374005761726E00B5
:1015F000436865636B73004E6F7A7A6C6520642E66
:10160000004E6F6E6500416C7068616265740054D5
:10161000696D6500536F7274005344206361726496
:101620000052506920706F7274004C696E2E2063F6
:101630006F7272656374696F6E00485720536574EA
:10164000757000462E206175746F6C6F6164004484
:10165000697361626C652073746570706572730084
:101660004D6F766520617869730054656D706572A1
:1016700061747572650050494E44412063616C2E5F
:101680000052657365742058595A2063616C696211
:10169000722E005049442063616C69627261746902
:1016A0006F6E00426564206C6576656C20636F72B6
:1016B00072656374004D65736820426564204C65F3
:1016C00076656C696E670043616C6962726174650E
:1016D000205A0043616C6962726174652058595ADE
:1016E0000053656C66746573740042656C74207495
:1016F0006573740057697A617264004C6F6164208D
:10170000616C6C00506C656173652070756C6C2049
:101710006F75742066696C616D656E7420696D6D9E
:101720006564696174656C7900556E6C6F6164699C
:101730006E672066696C616D656E740052657365D5
:10174000740052656E616D65004669727374206C39
:10175000617965722063616C2E0053656C656374FA
:1017600000537465656C2073686565747300537508
:1017700070706F7274004661696C20737461747369
:10178000204D4D55004661696C207374617473007F
:10179000537461746973746963730043616C696243
:1017A000726174696F6E004175746F4C6F61642073
:1017B00066696C616D656E74004375742066696C52
:1017C000616D656E7400456A6563742066696C615D
:1017D0006D656E7400556E6C6F61642066696C6136
:1017E0006D656E74004C6F616420746F206E6F7A4B
:1017F0007A6C65004C6F61642066696C616D656E22
:1018000074004E6F2053442063617264005072690B
:101810006E742066726F6D20534400526573756D4F
:1018200065207072696E7400506175736520707206
:10183000696E740054756E650050726568656174F8
:10184000004C6976652061646A757374205A00499A
:101850006E666F2073637265656E0046696E6973AC
:1018600068696E67206D6F76656D656E7473004292
:1018700072696768746E657373004173736973741A
:101880000053696C656E74004F6E6365004C6F7534
:101890006400536F756E64004D4D55204D6F646547
:1018A000004372617368206465742E00537465612F
:1018B0006C7468004E6F726D616C0046616E7320CF
:1018C000636865636B0046696C2E2073656E736F89
:1018D00072004368616E67652066696C616D656E54
:1018E0007400466C6F77005370656564004E2F413D
:1018F000004D61676E65747320636F6D702E005AC2
:101900002D70726F6265206E722E004D65736800D7
:1019100054696D656F75740044696D004272696742
:101920006874004175746F004D6F6465004C657696
:10193000656C2044696D6D6564004C6576656C204E
:101940004272696768740046616E207370656564F1
:1019500000426564004E6F7A7A6C6500536574745A
:10196000696E6773005072696E742061626F727481
:1019700065640053746F70207072696E7400436800
:1019800065636B696E672066696C650046696C65A6
:1019900020696E636F6D706C6574652E20436F6E89
:1019A00074696E756520616E797761793F000452C4
:1019B000656672657368004D61696E005761697490
:1019C000696E6720666F72206E6F7A7A6C6520612F
:1019D0006E642062656420636F6F6C696E6700538C
:1019E000656C662074657374204F4B0053656C669C
:1019F0002074657374207374617274005072696E20
:101A0000742066616E3A0045787472756465722060
:101A100066616E3A0043616C6962726174696E67F7
:101A200020686F6D6500416C6C20636F7272656336
:101A30007400436865636B696E672073656E736FCE
:101A4000727300436865636B696E6720686F7465C5
:101A50006E6400436865636B696E6720626564004D
:101A6000436865636B696E67205A2061786973000B
:101A7000436865636B696E672059206178697300FC
:101A8000436865636B696E672058206178697300ED
:101A9000436865636B696E6720656E6473746F700D
:101AA0007300436172642072656D6F766564004FE8
:101AB0006666004F6E004261636B005072696E741F
:101AC0006572206E6F7A7A6C65206469616D6574E9
:101AD000657220646966666572732066726F6D2038
:101AE00074686520472D636F64652E20506C6561B6
:101AF000736520636865636B207468652076616C2C
:101B0000756520696E2073657474696E67732E2025
:101B10005072696E742063616E63656C6C65642ECF
:101B2000005072696E746572206E6F7A7A6C6520EF
:101B30006469616D65746572206469666665727357
:101B40002066726F6D2074686520472D636F646531
:101B50002E20436F6E74696E75653F004D4B3320C8
:101B60006669726D7761726520646574656374651A
:101B700064206F6E204D4B3353207072696E746514
:101B80007200426C61636B6F7574206F6363757272
:101B90007265642E205265636F766572207072697B
:101BA0006E743F0053656C66746573742077696C5E
:101BB0006C2062652072756E20746F2063616C69A1
:101BC000627261746520616363757261746520730C
:101BD000656E736F726C657373207265686F6D6983
:101BE0006E672E005468657265206973207374698E
:101BF0006C6C2061206E65656420746F206D616B74
:101C000065205A2063616C6962726174696F6E2E1F
:101C100020506C6561736520666F6C6C6F77207403
:101C20006865206D616E75616C2C206368617074ED
:101C300065722046697273742073746570732C200A
:101C400073656374696F6E2043616C69627261745D
:101C5000696F6E20666C6F772E005072696E7465C6
:101C60007220686173206E6F74206265656E2063F8
:101C7000616C69627261746564207965742E2050AC
:101C80006C6561736520666F6C6C6F772074686536
:101C9000206D616E75616C2C206368617074657273
:101CA0002046697273742073746570732C20736599
:101CB0006374696F6E2043616C6962726174696FED
:101CC0006E20666C6F772E004F6C642073657474A1
:101CD000696E677320666F756E642E204465666159
:101CE000756C74205049442C2045737465707320C2
:101CF0006574632E2077696C6C206265207365744F
:101D00002E005761726E696E673A20626F746820A8
:101D10007072696E746572207479706520616E648A
:101D2000206D6F74686572626F617264207479707F
:101D300065206368616E6765642E005761726E6925
:101D40006E673A207072696E74657220747970657E
:101D5000206368616E6765642E005761726E696EFC
:101D6000673A206D6F74686572626F617264207487
:101D7000797065206368616E6765642E002020308D
:101D8000002020310058643A202025336420205957
:101D9000643A20202533640A496E743A202533645E
:101DA0002020536875743A20202533640046494E3C
:101DB00044410050494E44410057697A61726420A1
:101DC000656E642073746174653A2025640A00535B
:101DD000706F6F6C4A6F696E004669726D776172E1
:101DE0006500466C617368416972004572723A2001
:101DF0005052494E542046414E204552524F5200B7
:101E00004572723A20455854522E2046414E204584
:101E100052524F52002F2F20616374696F6E3A70D7
:101E20006175736564002F2F20616374696F6E3A6A
:101E3000726573756D6564002F2F20616374696F1F
:101E40006E3A726573756D65002F2F20616374693A
:101E50006F6E3A63616E63656C0041786973206CE4
:101E6000656E67746820646966666572656E636531
:101E70003A252E33660A004D6561737572656420DC
:101E800061786973206C656E6774683A252E3366D5
:101E90000A004C4344207374617475732063686155
:101EA0006E67656400534420636172642072656CE0
:101EB00065617365640046616B6520736572696175
:101EC0006C206E756D62657200452D636F6F6C20BE
:101ED0006D6F64650045787465726E616C20535057
:101EE0004920666C6173680A58464C415348206922
:101EF00073206E6F74207265732D0A706F6E646943
:101F00006E672E204C616E67756167650A7377692D
:101F100074636820756E617661696C61626C652EB0
:101F2000004657206372617368206465746563744A
:101F300065642120596F752063616E20636F6E7434
:101F4000696E7565207072696E74696E672E2044C3
:101F500065627567206461746120617661696C6196
:101F6000626C6520666F7220616E616C7973697353
:101F70002E20436F6E7461637420737570706F727E
:101F80007420746F207375626D6974206465746168
:101F9000696C732E002F2F20616374696F6E3A6431
:101FA000756D705F617661696C61626C650050721D
:101FB000757361206933204D4B33204F4B2E004306
:101FC0007261736844657465637420454E41424C88
:101FD00045442100437261736844657465637420ED
:101FE00044495341424C45440058464C41534820D3
:101FF0006E6F7420726573706F6E64696E672E0009
:102000002020506C616E6E65724275666665724224
:10201000797465733A20002046726565204D656DC0
:102020006F72793A2000207C20417574686F723A93
:102030002000204C61737420557064617465643AAB
:10204000200020536F667477617265205265736556
:102050007400205761746368646F6720526573650C
:1020600074002042726F776E206F75742052657312
:102070006574002045787465726E616C20526573DA
:10208000657400506F7765725570006572726F727B
:102090002077726974696E6720746F2066696C6559
:1020A00000656E6473746F7073206869743A200001
:1020B000446F6E6520736176696E672066696C6532
:1020C0002E006F6B00504154393132355F52455309
:1020D0005F593D256868750A0050415439313235E1
:1020E0005F5245535F583D256868750A0055534156
:1020F0005254322072782046756C6C212121005395
:10210000657474696E67732053746F7265640053ED
:10211000746F7265642073657474696E677320727E
:1021200065747269657665640048617264636F64A2
:1021300065642044656661756C74205365747469C8
:102140006E6773204C6F6164656400563200000056
:1021500000C8420000C8420000C84300008C430091
:1021600000484300004843000040410000F042E8BE
:10217000030000E8030000C800000088130000000E
:10218000409C4400409C44000000000000000020EF
:102190004E00000000204100002041CDCCCC3E008C
:1021A000009040000000000000000000000000CD92
:1021B000CCCC3E3D0A8141FF08433EB099AB438FF2
:1021C00042FC42E65A343F4C62B045000000000039
:1021D0004040000034420000000000000000000009
:1021E0000041000000E03F0000C8420000C842007B
:1021F0000040410000F042C0030000C0030000C8DE
:10220000000000881300001010102000409C44457E
:102210004550524F4D204572726F7200627573794E
:102220003A2070617573656420666F7220696E7004
:10223000757400627573793A2070617573656420F6
:10224000666F72207573657200627573793A2070DB
:10225000726F63657373696E670000007F4300806F
:1022600054430000524300000000000080C09A99CF
:10227000193E00000000000080C09A99193E00003D
:10228000A0400000A040000000402533642073748B
:1022900065703D253264206D73636E743D25346432
:1022A0000A0000007F43008058439AD95143FFFF42
:1022B000FF20413A0020503A002042403A0020409E
:1022C0003A00202F00205400202F0020423A002006
:1022D0002F00543A00206D6963726F6E7300457869
:1022E0006365737369766520626564206C657665E5
:1022F0006C696E6720636F7272656374696F6E3AA2
:102300002000426564206C6576656C696E672066A6
:1023100061696C65642E2053656E736F72207472F0
:102320006967676572656420746F6F2068696768A4
:102330002E00426564206C6576656C696E67206668
:1023400061696C65642E2053656E736F72206469D9
:1023500073636F6E6E6563746564206F7220636172
:10236000626C652062726F6B656E2E0020453A00CC
:10237000205A3A0020593A0020453A00205A3A00A3
:1023800020593A00583A0067636F64655F4D3730F3
:102390003120626567696E0A00416476616E63652B
:1023A000204B3D004B206F7574206F6620616C6C74
:1023B0006F7765642072616E676521001F1F1F1FA4
:1023C0001F1F1F1F200A200A20004D3232302053C9
:1023D000256900255346696C616D656E74207365CF
:1023E0007474696E67733A2044697361626C6564E2
:1023F0000A00255346696C616D656E7420736574BF
:1024000074696E67733A0A25532020204D323030AC
:102410002044252E32660A0025535265747261638A
:10242000743A20533D4C656E67746820286D6D29A1
:1024300020463A537065656420286D6D2F6D292004
:102440005A3A205A4C69667420286D6D290A255322
:102450002020204D3230372053252E32662046254D
:102460002E3266205A252E32660A25535265636F36
:102470007665723A20533D4578747261206C656EC2
:1024800067746820286D6D2920463A53706565642D
:1024900020286D6D2F6D290A25532020204D3230C4
:1024A000382053252E32662046252E32660A2553C3
:1024B0004175746F2D526574726163743A20533D97
:1024C0003020746F2064697361626C652C20312048
:1024D000746F20696E7465727072657420657874AB
:1024E000727564652D6F6E6C79206D6F76657320E3
:1024F0006173207265747261637473206F722072ED
:1025000065636F7665726965730A25532020204DD7
:10251000323039205325640A00255350494420683D
:102520006561746265642073657474696E67733A7B
:102530000A25532020204D3330342050252E32667A
:102540002049252E32662044252E32660A00255366
:102550005049442073657474696E67733A0A255351
:102560002020204D3330312050252E326620492541
:102570002E32662044252E32660A00255353746598
:1025800070732070657220756E69743A0A25532045
:10259000204D39322058252E32662059252E32669C
:1025A000205A252E32662045252E32660A2553559F
:1025B00053746570207265736F6C7574696F6E3AD1
:1025C000200A2553204D33353020582564205925C5
:1025D00064205A2564204525640A25534D61786995
:1025E0006D756D20666565647261746573202D205C
:1025F0006E6F726D616C20286D6D2F73293A0A25FC
:102600005320204D3230332058252E326620592554
:102610002E3266205A252E32662045252E32660A35
:1026200025534D6178696D756D20666565647261CD
:10263000746573202D20737465616C746820286D37
:102640006D2F73293A0A255320204D3230332058FC
:10265000252E32662059252E3266205A252E3266C6
:102660002045252E32660A25534D6178696D756DBA
:1026700020616363656C65726174696F6E202D20E3
:102680006E6F726D616C20286D6D2F7332293A0A5E
:10269000255320204D3230312058256C7520592586
:1026A0006C75205A256C752045256C750A25534D8F
:1026B0006178696D756D20616363656C65726174C5
:1026C000696F6E202D20737465616C746820286DAD
:1026D0006D2F7332293A0A255320204D3230312094
:1026E00058256C752059256C75205A256C75204528
:1026F000256C750A2553416363656C657261746965
:102700006F6E3A20503D7072696E742C20523D728B
:102710006574726163742C20543D74726176656CCB
:102720000A255320204D3230342050252E32662089
:1027300052252E32662054252E32660A25534164D6
:1027400076616E636564207661726961626C65733F
:102750003A20533D4D696E2066656564726174650B
:1027600020286D6D2F73292C20543D4D696E2074E7
:10277000726176656C206665656472617465202897
:102780006D6D2F73292C20423D6D696E696D756DDD
:10279000207365676D656E742074696D6520286DA2
:1027A00073292C20583D6D6178696D756D205859DD
:1027B000206A65726B20286D6D2F73292C20205A9A
:1027C0003D6D6178696D756D205A206A65726B2068
:1027D000286D6D2F73292C2020453D6D6178696D22
:1027E000756D2045206A65726B20286D6D2F7329E9
:1027F0000A255320204D3230352053252E326620B5
:1028000054252E32662042252E32662058252E323F
:10281000662059252E3266205A252E3266204525FF
:102820002E32660A2553486F6D65206F66667365A4
:102830007420286D6D293A0A255320204D323036F8
:102840002058252E32662059252E3266205A252EF4
:1028500032660A004625642025640A004D4D552045
:102860003C3D2027462564202564270A00436170EB
:102870003A25533A25630A00455854454E44454489
:102880005F4D3230004155544F5245504F52545FC6
:10289000504F534954494F4E004155544F524550A3
:1028A0004F52545F46414E53004155544F5245508C
:1028B0004F52545F54454D5000005A30005A310079
:1028C000593000593100583000583100456E6420AD
:1028D00073746F707320646961670044656C65741C
:1028E000696F6E206661696C65642C2046696C6551
:1028F0003A200046696C652064656C657465643ACD
:10290000004E6F74205344207072696E74696E6754
:10291000005072696E7420736176656400534420C0
:102920007072696E7420706175736564004F4B003E
:102930004241440052414D426F2046414E200043E7
:10294000524153485F43414E43454C00435241532B
:10295000485F5245434F5645520043524153485FEA
:102960005245434F56455200222832290044757083
:102970006C696361746520542D636F6465206967B9
:102980006E6F7265642E00496E76616C69642054C6
:1029900020636F64652E002C204D39303720452090
:1029A00069676E6F726564006E6F2076616C696432
:1029B00020636F6D6D616E64002C20002C20002C54
:1029C00020006E2F61002C20002C20002C20006E97
:1029D0002F6100503A005761697420666F72205071
:1029E000494E4441207461726765742074656D704E
:1029F000657261747572653A004155544F004C41DF
:102A00004E472053454C20464F52434544002569CC
:102A100025250A00256925250A00222831290030AC
:102A2000303030303030302D303030302D303030AC
:102A3000302D303030302D3030303030303030309C
:102A40003030300020555549443A00310020455877
:102A50005452554445525F434F554E543A005072BC
:102A6000757361206933204D4B3300204D4143483D
:102A7000494E455F545950453A00312E300020628E
:102A800061736564206F6E204D61726C696E2046C3
:102A900049524D574152455F55524C3A68747470D3
:102AA000733A2F2F6769746875622E636F6D2F708C
:102AB0007275736133642F50727573612D4669723C
:102AC0006D776172652050524F544F434F4C5F56A3
:102AD000455253494F4E3A004649524D574152458F
:102AE0005F4E414D453A50727573612D4669726D66
:102AF0007761726520004D31313320530020423A16
:102B00000020453A00543A006F6B20006E2F6100A0
:102B10003F546F736869626120466C6173684169F4
:102B200072204765744950206661696C65640A00CB
:102B30002569206D696E2C20256920736563004925
:102B40006E76616C6964204D20636F64653A202560
:102B5000730A004D65736820626564206C65766554
:102B60006C696E67206E6F74206163746976652E80
:102B7000002020000A4D6561737572656420706FD6
:102B8000696E74733A000A5A207365617263682033
:102B90006865696768743A20004E756D20582C5935
:102BA0003A200050494E44412070726F62652063A4
:102BB000616C6962726174696F6E207374617274A2
:102BC00000473238205730004E6F2050494E444164
:102BD00020746865726D6973746F72007365740038
:102BE0006E6F7A7A6C65004D424C00465200426529
:102BF0006174004C7A004C616E6700526576004645
:102C0000697200534E20696E76616C696400534EA0
:102C1000004D3238006676005245534554004D4D04
:102C200055524553004D32340075766C6F00746810
:102C3000780046414E0046414E50494E5453540090
:102C400050524E0050696E67005052555341005328
:102C500045545F43484F505F005345545F535445BC
:102C6000505F005345545F574156455F00544D43F4
:102C70005F0043524153485F43414E43454C00433C
:102C8000524153485F5245434F56455200435241CB
:102C900053485F44455445435445440043524153CF
:102CA000485F004D3120004D30004D313137005329
:102CB0007769706520746F206C6F67696E00507261
:102CC000757361206933204661626D616E00536FD8
:102CD0006D652070726F626C656D20656E636F75D7
:102CE0006E74657265642C205A2D6C6576656C690E
:102CF0006E6720656E666F72636564202E2E2E00EF
:102D0000472D636F646520736C6963656420666F2B
:102D100072206120646966666572656E74206C65F8
:102D200076656C2E20436F6E74696E75653F004743
:102D30002D636F646520736C6963656420666F72D0
:102D4000206120646966666572656E74206C6576C4
:102D5000656C2E20506C656173652072652D736CF7
:102D600069636520746865206D6F64656C206167B8
:102D700061696E2E205072696E742063616E6365A6
:102D80006C6C65642E00472D636F646520736C69FD
:102D900063656420666F722061206E6577657220BE
:102DA0006669726D776172652E20506C656173651E
:102DB0002075706461746520746865206669726D41
:102DC000776172652E205072696E742063616E6344
:102DD000656C6C65642E00472D636F646520736CB1
:102DE0006963656420666F722061206E6577657225
:102DF000206669726D776172652E20436F6E74690B
:102E00006E75653F00472D636F646520736C696361
:102E1000656420666F72206120646966666572650C
:102E20006E74207072696E74657220747970652E8C
:102E300020436F6E74696E75653F00472D636F6444
:102E40006520736C6963656420666F72206120641D
:102E50006966666572656E74207072696E746572FB
:102E600020747970652E20506C65617365207265E1
:102E70002D736C69636520746865206D6F64656C83
:102E800020616761696E2E205072696E74206361E3
:102E90006E63656C6C65642E005377697065207491
:102EA0006F206C6F67696E005072757361206933B3
:102EB000204661626D616E005072696E74657220A9
:102EC0006973206F7574206F66206F726465722E4F
:102ED00000537769706520746F206C6F67696E00AE
:102EE0005072757361206933204661626D616E00B6
:102EF000596F7520617265206E6F7420616C6C6F04
:102F000077656420746F2075736520746869732019
:102F10007072696E746572206F7574736964652070
:102F20006F70656E696E6720686F7572732E0053DF
:102F30007769706520746F206C6F67696E005072DE
:102F4000757361206933204661626D616E00596F4F
:102F50007520646F206E6F742068617665207265DD
:102F600071756972656420747261696E696E67203B
:102F7000636F7572736521210053776970652074E2
:102F80006F206C6F67696E005072757361206933D2
:102F9000204661626D616E00596F7520646F206E0E
:102FA0006F7420686176652061637469766520704E
:102FB00061636B6167652E20506C6561736520628B
:102FC0007579206F6E652E00537769706520746F78
:102FD000206C6F67696E00507275736120693320D1
:102FE0004661626D616E00536F7272792C204920C8
:102FF000616D206E6F74206F6E6C696E65207269F2
:10300000676874206E6F772E20506C656173652041
:10301000747279206D65206C617465722E00557034
:10302000646174696E6720464D2066772E2E0050CD
:1030300072757361206933204661626D616E005064
:103040007265737320746865206B6E6F6220746F95
:103050002070726568656174206E6F7A7A6C652085
:10306000616E6420636F6E74696E75652E00506CBE
:103070006561736520707265737320746865206B79
:103080006E6F6220746F20756E6C6F61642066696C
:103090006C616D656E740052656D6F7665206F6C46
:1030A000642066696C616D656E7420616E64207069
:1030B0007265737320746865206B6E6F6220746F25
:1030C000207374617274206C6F6164696E67206E26
:1030D00065772066696C616D656E742E00616E6443
:1030E00020707265737320746865206B6E6F620068
:1030F000496E736572742066696C616D656E7400EB
:10310000436F6C6F72206E6F7420636F72726563B1
:10311000740046696C616D656E74206E6F74206C0E
:103120006F61646564004368616E67656420636F06
:1031300072726563746C793F004C6F6164696E678D
:1031400020636F6C6F72004368616E6765207375F2
:1031500063636573732100506C65617365206F70E4
:10316000656E2069646C657220616E642072656DA5
:103170006F76652066696C616D656E74206D616E39
:1031800075616C6C792E005761732066696C616D96
:10319000656E7420756E6C6F616420737563636512
:1031A000737366756C3F00506C6561736520757054
:1031B00067726164652E004E6577206669726D776F
:1031C0006172652076657273696F6E2061766169E0
:1031D0006C61626C653A0057616974696E6720665C
:1031E0006F722050494E44412070726F62652063B7
:1031F0006F6F6C696E6700437261736820646574F9
:1032000065637465642E20526573756D65207072F8
:10321000696E743F0043726173682064657465630E
:103220007465642E0053656C6563742065787472F0
:10323000756465723A004E6F206D6F76652E00538F
:103240007461626C6520616D6269656E742074657D
:103250006D70657261747572652032312D3236433E
:10326000206973206E6565646564206120726967FA
:103270006964207374616E6420697320726571756E
:10328000697265642E00506C656173652072756E9D
:103290002058595A2063616C6962726174696F6E5B
:1032A0002066697273742E005761697420666F72AC
:1032B00020757365722E2E2E00256C752062797430
:1032C0006573207772697474656E20746F2025535E
:1032D00020617420616464726573732030782530D6
:1032E000346C780A00442564202D20526561642FD7
:1032F00057726974652025530A0020436F756E74F8
:1033000020583A200045303A25642052504D205034
:10331000524E313A25642052504D204530403A25D6
:10332000752050524E31403A25640A0064756D7024
:1033300020636C65617265640A006E6F2064756D50
:103340007020617661696C61626C650A004432319B
:10335000202D20726561642063726173682064753A
:103360006D700A006E6F2064756D70206176616902
:103370006C61626C650A0064756D7020636F6D70BE
:103380006C6574656420696E20256C756D730A0028
:1033900058464C41534800454550524F4D005352FA
:1033A000414D00442D31202D20456E646C657373B2
:1033B000206C6F6F700A005344207072696E7469DC
:1033C0006E672062797465200041637469766520B8
:1033D00045787472756465723A2000496E76616C46
:1033E0006964206578747275646572005A204F664E
:1033F0006673657400556E6B6E6F776E20636F6DCC
:103400006D616E643A2022004D32303020496E7674
:10341000616C696420657874727564657220007AE5
:103420005F6D61783A20007A5F6D696E3A200079AD
:103430005F6D61783A2000795F6D696E3A2000789F
:103440005F6D61783A2000545249474745524544E0
:10345000006F70656E00785F6D696E3A200052658E
:10346000706F7274696E6720656E6473746F70201C
:103470007374617475730053494C454E54004E4F3C
:10348000524D414C002553204D4F44453A20506544
:103490007263656E7420646F6E653A202568686497
:1034A0003B207072696E742074696D652072656D61
:1034B00061696E696E6720696E206D696E733A206E
:1034C00025643B204368616E676520696E206D69E5
:1034D0006E733A2025640A00456E642066696C6547
:1034E000206C69737400426567696E2066696C655B
:1034F000206C69737400556E6B6E6F776E20256358
:1035000020636F64653A2025730A000A50494E44CF
:10351000412074656D70657261747572653A20251D
:103520002E3166205A20736869667420286D6D29D3
:103530003A20252E3366000A537465703A202564BC
:103540002F360A000A537465703A2025642F3620FE
:1035500028736B6970706564290A50494E44412094
:1035600074656D70657261747572653A20256420AA
:103570005A20736869667420286D6D293A300A00F4
:103580000A5A45524F3A20252E33660A0073746159
:1035900072742074656D70657261747572653A201D
:1035A000252E31660A0025642020252E326600254E
:1035B0005320583A20252E356620593A20252E359D
:1035C00066205A3A20252E35660A00536C656570D0
:1035D0002E2E2E0045303A25642052504D0A50526E
:1035E0004E303A25642052504D0A00256400526541
:1035F00073656E640025533A20256C640A25530ACE
:10360000004D363030006673656E736F725F757093
:1036100064617465202D204D363030006673656E10
:10362000736F725F726573746F72655F7072696ECB
:10363000745F616E645F636F6E74696E756500665A
:1036400073656E736F725F6F715F6D6561737375B4
:1036500072655F73746F702C2025686875207361C4
:103660006D706C65730A006673656E736F725F6F61
:10367000715F6D656173737572655F737461727488
:10368000006673656E736F725F73746F705F616EE7
:10369000645F736176655F7072696E7400667365EE
:1036A0006E736F725F6572725F636E74203D20305F
:1036B0000020573A0020453A00543A005A206C69DD
:1036C00076652061646A757374206F7574206F6607
:1036D0002072616E67652E2053657474696E672071
:1036E000746F20302E20436C69636B20746F2063ED
:1036F0006F6E74696E75652E005A206C6976652050
:1037000061646A757374206F7574206F66207261CE
:103710006E67652E2053657474696E6720746F2020
:10372000300020423A0020453A00543A00494E54B5
:1037300034007265636F7665725F6D616368696E90
:10374000655F73746174655F61667465725F706FE5
:103750007765725F70616E69632C20696E69746948
:10376000616C200050525553412075766C6F0047B4
:1037700034205330004D32362053256C75004D31C6
:1037800030362053004D323230205325640047310B
:1037900020462564004D3832004739322045004725
:1037A00031204525302E3366204632373030004DEB
:1037B000323034205025662052256620542566007C
:1037C0004731205A2566005052555341204D424CF6
:1037D000205631004731205825662059256620465D
:1037E0003330303000506F736974696F6E207265CA
:1037F00061642066726F6D20656570726F6D3A004E
:103800004D3233202573002E67636F002C206665D0
:1038100065646D756C7469706C793A0046656564B1
:10382000726174653A0047312045252D302E33668C
:10383000204632373030004731204535204631327E
:1038400030004D3833004D31303920532564004D60
:1038500031393020532564004D31303420532564F4
:103860000047323820582059004731205A252E333E
:10387000662046383030004731205A252D302E330F
:10388000662046252D302E33660047312045252DF4
:10389000302E3366204632373030004D383300004A
:1038A000002110422063308440A550C660E77008B4
:1038B0008129914AA16BB18CC1ADD1CEE1EFF1313B
:1038C00012100273325222B5529442F772D6623904
:1038D0009318837BB35AA3BDD39CC3FFF3DEE3628B
:1038E00024433420040114E664C774A44485546A54
:1038F000A54BB528850995EEE5CFF5ACC58DD5531B
:1039000036722611163006D776F6669556B4465BA3
:10391000B77AA719973887DFF7FEE79DD7BCC7C4EA
:1039200048E5588668A7784008611802282338CCF3
:10393000C9EDD98EE9AFF9488969990AA92BB9F57A
:103940005AD44AB77A966A711A500A333A122AFD43
:10395000DBDCCBBFFB9EEB799B588B3BBB1AABA64A
:103960006C877CE44CC55C222C033C600C411CAE93
:10397000ED8FFDECCDCDDD2AAD0BBD688D499D975A
:103980007EB66ED55EF44E133E322E511E700E9FE3
:10399000FFBEEFDDDFFCCF1BBF3AAF599F788F88AA
:1039A00091A981CAB1EBA10CD12DC14EF16FE1807B
:1039B00010A100C230E3200450254046706760B972
:1039C000839893FBA3DAB33DC31CD37FE35EF3B1CB
:1039D000029012F322D2323542145277625672EAC2
:1039E000B5CBA5A89589856EF54FE52CD50DC5E21B
:1039F00034C324A01481046674476424540544DB52
:103A0000A7FAB79987B8975FE77EF71DC73CD7D36A
:103A100026F2369106B01657667676154634564C21
:103A2000D96DC90EF92FE9C899E9898AB9ABA944BA
:103A300058654806782768C018E1088238A3287DB1
:103A4000CB5CDB3FEB1EFBF98BD89BBBAB9ABB750A
:103A50004A545A376A167AF10AD01AB32A923A2E81
:103A6000FD0FED6CDD4DCDAABD8BADE89DC98D265A
:103A70007C076C645C454CA23C832CE01CC10C1F91
:103A8000EF3EFF5DCF7CDF9BAFBABFD98FF89F17AA
:103A90006E367E554E745E932EB23ED10EF01E7C75
:103AA0003C3E3F2F2A225C0022206661696C6564DF
:103AB0003A204275666665722066756C6C2100223C
:103AC00000256920686F757273202569206D696E05
:103AD000757465730052582074696D656F75740054
:103AE0004D3131300046756C6C205258204275665D
:103AF00066657200437573746F6D00536174696E0F
:103B0000200054657874757200536D6F6F7468008F
:103B100047312059252D2E32662045252D2E33661E
:103B2000004731205825642059252D2E3266204526
:103B3000252D2E33660044495341424C45440045EF
:103B40004E41424C4544004653656E736F722025CA
:103B50005300504154393132355F696E69743A25EA
:103B60006868750A0050415439313235206E6F74DF
:103B700020726573706F6E64696E672028256429F2
:103B8000210A00312E3000312E3500554E4B4E4F5C
:103B9000574E004C413130433A204C696E6561729A
:103BA00020416476616E6365206D6F64653A200024
:103BB0004C413130433A2041646A75737465642026
:103BC000452D4A65726B3A2000000E1315110E0048
:103BD000000004120912040000001C1F11111F0034
:103BE000000006191803130C00040E1F041C00002B
:103BF00000040A0A0A0A11110E001F1511151F00F0
:103C000000000103161C0800000000110A04110A3C
:103C1000040C12120C000000002563252D31382EF3
:103C20003138532563005B25735D2563005B2553A5
:103C30005D2563002563252D31382E31385300254D
:103C40002E31305320002563252D31382E31387325
:103C50002563002563252D31382E31387325630007
:103C60002563252D2E31365320002563252E313531
:103C7000533A257325336400252D32302E323053CC
:103C80000A00457872656D65207370616E206F66FD
:103C900020746865205A2076616C75657321002553
:103CA000642F39006F6B0A0073746172740A004DDF
:103CB0004D5532206669726D776172652076657246
:103CC00073696F6E20696E76616C69642E2052652F
:103CD0007175697265642076657273696F6E3A20DA
:103CE0006275696C64206E756D6265722025642052
:103CF0006F72206869676865722E006673656E73FF
:103D00006F725F636865636B706F696E745F70720A
:103D1000696E74004D4D55203D3E20276F6B270A7C
:103D2000004D4D55203D3E20276F6B270A0025642E
:103D3000004D4D55203D3E20276F6B272C2072658E
:103D400073756D65207072696E740A004D4D552053
:103D5000726574727920617474656D7074206E720E
:103D60002E2025640A004D4D55203D3E20276F6BC7
:103D7000270A00410A004D4D55203C3D2027412790
:103D80000A004D363030204155544F004D3630300A
:103D9000002568687500410A004D4D55203C3D20C6
:103DA0002741270A0050300A004D25640A004D4D76
:103DB00055203C3D20274D2564270A0057300A0036
:103DC0004D4D55203C3D20275730270A0053330ADC
:103DD000004D4D55203C3D20275333270A005230DB
:103DE0000A004D4D55203C3D20275230270A004BFC
:103DF00025640A004D4D55203C3D20274B25642766
:103E00000A004525640A004D4D55203C3D202745BC
:103E10002564270A0055300A004D4D55203C3D20B1
:103E2000275530270A0043300A004D4D55203C3DB0
:103E300020274330270A004C25640A004D4D5520A9
:103E40003C3D20274C2564270A005425640A004D78
:103E50004D55203C3D2027542564270A004D4D55E3
:103E6000202D20454E41424C454400256868750090
:103E700050300A004D310A004D4D55203C3D202761
:103E80004D31270050300A004D4D55207665727334
:103E9000696F6E2076616C6964004D4D55203D3E22
:103EA000202725646F6B270A0025750053320A000E
:103EB0004D4D55203C3D2027533227004D4D552078
:103EC0003D3E202725646F6B270A002575004D4D68
:103ED00055206E6F7420726573706F6E64696E67C3
:103EE000202D2044495341424C45440053310A009F
:103EF0004D4D55203C3D2027533127004D4D552039
:103F00003D3E2027737461727427006E6F206D6FC1
:103F1000766500542D636F646500756E6C6F616427
:103F2000006C6F6164006D6D755F6765745F7265CD
:103F300073706F6E7365202D20626567696E206DEA
:103F40006F76653A20006D6D755F6765745F7265A9
:103F500073706F6E736528292072657475726E694F
:103F60006E673A2025640A00556E6C6F6164696E55
:103F7000672066696E6973686564203200556E6CEF
:103F80006F6164203200556E6C6F6164696E6720EA
:103F900066696E6973686564203100556E6C6F6187
:103FA000642031004D4D552073746172747320721A
:103FB0006573706F6E64696E67004D4D55206E6F4E
:103FC0007420726573706F6E64696E670046696C09
:103FD000616D656E74206F7574206F662072616EFE
:103FE0006765202564200A000000803F5555854103
:103FF0000000803F0000C8410000004055550542C8
:104000000000C03F00004842000020405555854256
:10401000000070C1ABAAA642000060C10000A04130
:104020000000C0C00000204100002041ABAA3A417E
:10403000000020C15555D540000048C255550542E5
:104040004D373031204534004D3730312045330075
:104050004D373031204532004D3730312045310069
:104060004D3730312045300046696C616D656E74A6
:10407000206E72206F7574206F662072616E6765A6
:104080002100206661696C65642E0020737563638E
:1040900065656465642E004D4D552063616E5F6CEF
:1040A0006F61643A004164646974696F6E616C2089
:1040B0006C6F616420617474656D7074206E722E13
:1040C0002025640A002079645F6D696E3D257520A6
:1040D00079645F6D61783D25752079645F617667ED
:1040E0003D25752073685F6176673D25750A002060
:1040F00073745F73756D3D25752079645F73756D9D
:104100003D25752065725F73756D3D25752065725F
:104110005F6D61783D256868750A00496E6163745A
:1041200069766974792053687574646F776E004B93
:10413000494C4C45442E20005072696E74657220C3
:1041400068616C7465642E206B696C6C282920632F
:10415000616C6C656421004B494C4C3A2025640A23
:10416000004D32323120496E76616C696420657889
:1041700074727564657220004D32313820496E7654
:10418000616C696420657874727564657220004D95
:1041900031303920496E76616C69642065787472BB
:1041A0007564657220004D31303520496E76616C42
:1041B000696420657874727564657220004D3130D1
:1041C0003420496E76616C69642065787472756418
:1041D00065722000504F5745522050414E494320B0
:1041E00044455445435445440055564C4F202D20DA
:1041F000656E642025640A0055564C4F5F54494E45
:1042000059202D20656E642025640A00776F726C3A
:104210006420636F6F7264696E617465733A2028FD
:10422000252E33662C20252E33662C20252E336632
:10423000290A0043757272656E7420706F73205A7C
:104240005F415849533A252E33660A4375727265A9
:104250006E7420706F7320455F415849533A252E84
:1042600033660A0041667465722077616974696E0D
:104270006720666F722074656D703A0A43757272BA
:10428000656E7420706F7320585F415849533A250A
:104290002E33660A43757272656E7420706F7320D8
:1042A000595F415849533A252E33660A00656E71AD
:1042B0007565696E67202200446F6E6520707269B3
:1042C0006E74696E672066696C65004D313132200D
:1042D00063616C6C65642E20456D657267656E6305
:1042E000792053746F702E005072696E746572205D
:1042F00073746F707065642064756520746F2065D9
:1043000072726F72732E204669782074686520651A
:1043100072726F7220616E6420757365204D393939
:104320003920746F20726573746172742E20285462
:10433000656D706572617475726520697320726550
:104340007365742E205365742069742061667465EA
:10435000722072657374617274696E6729004E6FA2
:10436000204C696E65204E756D62657220776974A8
:104370006820636865636B73756D2C204C61737482
:10438000204C696E653A20004E6F20436865636B70
:1043900073756D2077697468206C696E65206E7521
:1043A0006D6265722C204C617374204C696E653AA5
:1043B0002000636865636B73756D206D69736D6153
:1043C0007463682C204C617374204C696E653A20CC
:1043D000004C696E65204E756D62657220697320B0
:1043E0006E6F74204C617374204C696E65204E753D
:1043F0006D6265722B312C204C617374204C696E98
:10440000653A20006673656E736F725F6175746FD5
:104410006C6F61645F636865636B5F737461727412
:10442000202D206175746F6C6F616420454E414290
:104430004C4544006673656E736F725F6175746F8F
:104440006C6F61645F636865636B5F73746F70202A
:104450002D206175746F6C6F616420444953414233
:104460004C454400312F390025632533642F2564E2
:1044700025630048656174696E67206469736162D1
:104480006C65642062792073616665747920746953
:104490006D65722E005265636F766572696E672076
:1044A0007072696E7400506C656173652077616924
:1044B000740053544F505045442E00426564206CA4
:1044C0006576656C696E67206661696C65642E202F
:1044D00053656E736F72206469646E277420747202
:1044E00069676765722E20446562726973206F6E1A
:1044F000206E6F7A7A6C653F2057616974696E67C8
:1045000020666F722072657365742E00506C656151
:10451000736520757064617465206669726D77617A
:10452000726520696E20796F7572204D4D55322E5F
:104530002057616974696E6720666F7220726573B7
:1045400065742E004D4D55204F4B2E2052657375CE
:104550006D696E672E2E2E004D4D55204F4B2E202F
:10456000526573756D696E6720706F736974696FDA
:104570006E2E2E2E004D4D55204F4B2E2052657322
:10458000756D696E672074656D70657261747572A2
:10459000652E2E2E00466978207468652069737335
:1045A000756520616E64207468656E207072657335
:1045B0007320627574746F6E206F6E204D4D5520A0
:1045C000756E69742E00507265737320746865206F
:1045D0006B6E6F6220746F20726573756D65206EEF
:1045E0006F7A7A6C652074656D706572617475722E
:1045F000652E004D4D55206E65656473207573659D
:104600007220617474656E74696F6E2E00437574E8
:1046100074696E672066696C616D656E7400506CBC
:10462000656173652072656D6F76652066696C6182
:104630006D656E7420616E64207468656E207072A2
:1046400065737320746865206B6E6F622E00456A17
:10465000656374696E672066696C616D656E740070
:104660004D4D55206C6F6164206661696C65640016
:1046700047312058352E302045342E3020463130F9
:1046800030302E30004731205A302E323020463123
:104690003030302E30004731205835352E3020450F
:1046A00032352046313430302E3000473120592DFC
:1046B000322E302046313030302E300047312058F5
:1046C0003234302E30204532352E302020463232E2
:1046D00030302E30004739322045302E30004731FF
:1046E000205A302E332046313030302E30004731C2
:1046F000205835352E302045382E30204632303087
:10470000302E300047312058352E30204533322EA0
:10471000302046313830302E300047312058353582
:104720002E30204533322E302046313037332E3074
:10473000004731204634303030004D323034205381
:1047400031303030004731205A3520463732303052
:104750002E30303000473120452D312E353030306D
:10476000302046323130302E3030303030004D384D
:104770003300473930004732310047393220453065
:104780002E300047312058353020593535204533FB
:104790002E363237373300473120583230302059E7
:1047A00035352045302E34393338360047312058DE
:1047B000323030205937352045332E3632373733B3
:1047C00000473120583530205937352045302E34B8
:1047D00039333836004731205835302059393520A3
:1047E00045332E3632373733004731205832303098
:1047F000205939352045302E343933383600473189
:10480000205832303020593131352045332E363260
:104810003737330047312058353020593131352072
:1048200045302E3439333836004731205835302062
:10483000593133352045332E36323737330047313F
:10484000205832303020593133352045302E36361D
:104850003137340047312058323030205931353526
:104860002045322E36323737330047312058313029
:104870003020593135352045320047312058373501
:1048800020593135352045322E350047312046310B
:10489000303830004731205A302E313530204637FD
:1048A0003230302E303030004731205835302059EA
:1048B000313535004739322045302E300047323807
:1048C000004D313039004D313930004D3130370035
:1048D000773235783230636C5F63666D0A00773209
:1048E00035783230636C5F656E7465720A0073747C
:1048F0006172740A0024F4D43050C38E20C2A240E6
:1049000017828B7011127A910D816CD90AA861E11E
:1049100008C7586607615143061E4B5D05C145A790
:10492000041A411104093D9803713931034036DB03
:104930000265339102D4305402802E1D02632CEEA6
:1049400001752AC501B028A001102781018F2564B7
:10495000012B244B01E0223401AC211F018D200DDD
:1049600001801FFC00841EED00971DDF00B81CD2E3
:1049700000E61BC600201BBC00641AB200B219A8D6
:10498000000A19A0006A189900D117910040178BEE
:1049900000B516840031167E00B31579003A157300
:1049A00000C7146F0058146A00EE13660088136382
:1049B0000025135E00C7125B006C125700151254DD
:1049C00000C111510070114F0021114B00D6104948
:1049D000008D1047004610440002104200C00F40F6
:1049E00000800F3E00420F3C00060F3B00CB0E380C
:1049F00000930E37005C0E3500270E3400F30D32A5
:104A000000C10D3100900D3000600D2E00320D2DD3
:104A100000050D2C00D90C2B00AE0C2900850C29AB
:104A2000005C0C2700350C27000E0C2600E80B2438
:104A300000C40B2400A00B23007D0B23005A0B2184
:104A400000390B2100180B2000F80A1F00D90A1E9C
:104A500000BB0A1E009D0A1D00800A1D00630A1C7F
:104A600000470A1B002C0A1B00110A1A00F7091A3A
:104A700000DD091900C4091900AB091900920917D2
:104A8000007B091800630917004C09160036091647
:104A900000200916000A091500F5081500E00814A1
:104AA00000CC081400B8081400A4081400900813DF
:104AB000007D0812006B0813005808120046081207
:104AC0000034081100230811001208110001081118
:104AD00000F0071000E0071000D0071000C007101A
:104AE00000B0070F00A107100091070E0083070F09
:104AF0000074070F0065070E0057070E0049070EE8
:104B0000003B070D002E070E0020070D0013070DB8
:104B10000006070D00F9060C00ED060D00E0060C7E
:104B200000D4060C00C8060C00BC060C00B0060C35
:104B300000A4060B0099060C008D060B0082060BE4
:104B40000077060B006C060B0061060A0057060B87
:104B5000004C060A0042060A0038060A002E060A21
:104B60000024060A001A060A001006090007060AB1
:104B700000FD050900F4050900EB050900E205093F
:104B800000D9050900D0050900C7050900BE0509BF
:104B900000B5050800AD050800A50509009C05083D
:104BA00000940508008C050800840508007C0508B1
:104BB00000740508006C050700650508005D050721
:104BC00000560508004E0507004705070040050888
:104BD0000038050700310507002A050700230507EF
:104BE000001C050600160507000F0507000805064E
:104BF0000002050700FB040600F5040700EE0406AA
:104C000000E8040600E2040700DB040600D5040601
:104C100000CF040600C9040600C3040600BD040654
:104C200000B7040600B1040500AC040600A60406A3
:104C300000A00405009B04060095040500900406EE
:104C4000008A04050085040500800406007A040536
:104C50000075040500700405006B0405006604057A
:104C600000610405005C04050057040500520405BA
:104C7000004D04050048040500430405003E0404FB
:104C8000003A04050035040500300404002C040536
:104C90000027040400230405001E0404001A040471
:104CA0000016040500110404000D040400090405A5
:104CB000000404040000040400FC030400F80304DE
:104CC00000F4030400F0030400EC030400E8030410
:104CD00000E4030400E0030400DC030400D8030440
:104CE00000D4030400D0030400CC030400C8030371
:104CF00000C503030024F404D9201BC40C5C0E98E7
:104D000004C4095F0265077101F405F900FB04B3EF
:104D10000048048700C10369005803550003034598
:104D200000BE023A008402310053022A0029022503
:104D30000004022000E4011C00C8011900AF0117A3
:104D4000009801140084011300710110006101102A
:104D50000051010E0043010D0036010B002B010B29
:104D60000020010B00150109000C010900030108D6
:104D700000FB000800F3000800EB000700E4000659
:104D800000DE000600D8000600D2000600CC0005B8
:104D900000C7000500C2000500BD000400B9000402
:104DA00000B5000400B1000400AD000400A9000437
:104DB00000A5000300A20003009F0004009B000365
:104DC0000098000300950002009300030090000388
:104DD000008D0002008B00030088000200860002A4
:104DE0000084000300810002007F0002007D0002B9
:104DF000007B0002007900020077000100760002CB
:104E0000007400020072000100710002006F0002D5
:104E1000006D0001006C0002006A000100690002E0
:104E200000670001006600010065000100640002E7
:104E3000006200010061000100600001005F0002EB
:104E4000005D0001005C0001005B0001005A0001F0
:104E500000590001005800010057000100560001F0
:104E600000550001005400010053000000530001F0
:104E7000005200010051000100500001004F0001EC
:104E8000004E0000004E0001004D0001004C0001EA
:104E9000004B0000004B0001004A000100490001E6
:104EA00000480000004800010047000100460000E3
:104EB00000460001004500000045000100440001DB
:104EC00000430000004300010042000000420001D6
:104ED000004100000041000100400001003F0000CF
:104EE000003F0001003E0000003E0001003D0000C8
:104EF000003D0001003C0000003C0000003C0001BF
:104F0000003B0000003B0001003A0000003A0001B5
:104F100000390000003900010038000000380000AE
:104F200000380001003700000037000100360000A3
:104F3000003600000036000100350000003500009A
:104F4000003500010034000000340000003400018E
:104F50000033000000330000003300010032000085
:104F6000003200000032000100310000003100007A
:104F7000003100010030000000300000003000016E
:104F8000002F0000002F0000002F0000002F000164
:104F9000002E0000002E0000002E0001002D000059
:104FA000002D0000002D0000002D0001002C00004D
:104FB000002C0000002C0000002C0001002B000041
:104FC000002B0000002B0000002B0001002A000035
:104FD000002A0000002A0000002A00010029000029
:104FE000002900000029000000290000002900011C
:104FF0000028000000280000002800000028000011
:105000000028000100270000002700000027000002
:1050100000270000002700010026000000260000F5
:1050200000260000002600000026000100250000E8
:1050300000250000002500000025000000250000DC
:1050400000250001002400000024000000240000CE
:1050500000240000002400010023000000230000C1
:1050600000230000002300000023000000230000B4
:1050700000230001002200000022000000220000A6
:105080000022000000220000002200010021000098
:10509000002100000021000000210000002100008C
:1050A000002100000021000100200000002000007D
:1050B0000020000000200000002000000020000070
:1050C0000020000000200001001F0000001F000061
:1050D000001F0000001F0000001F0000001F000054
:1050E000001F0001001E0000001E0000001E000046
:1050F000001E000000504944204175746F74756EA5
:10510000652066696E697368656421205075742036
:10511000746865206C617374204B702C204B69207F
:10512000616E64204B6420636F6E7374616E747380
:105130002066726F6D2061626F766520696E746F94
:1051400020436F6E66696775726174696F6E2E6851
:1051500000504944204175746F74756E6520666116
:10516000696C6564212074696D656F7574002040F9
:105170003A00543A00423A00504944204175746F55
:1051800074756E65206661696C6564212054656D77
:10519000706572617475726520746F6F20686967DD
:1051A0006800204B643A2000204B693A2000204BD5
:1051B000703A200020436C61737369632050494446
:1051C00020002054753A2000204B753A2000206DB5
:1051D00061783A2000206D696E3A200020643A2000
:1051E0000020626961733A200045787472756465C5
:1051F000722066616E207370656564206973206C2F
:105200006F776572207468616E206578706563746D
:105210006564005072696E742066616E20737065FB
:105220006564206973206C6F776572207468616EA5
:10523000206578706563746564004D494E54454D32
:105240005020414D42004D415854454D50004D4174
:105250005854454D5020424544004D415854454D09
:105260005020414D420070012C0190012701B001F6
:105270002201C0011D01F0011801100213013002CA
:105280000E016002090190020401C002FF00000348
:10529000FA004003F5008003F000D003EB00200487
:1052A000E6007004E100E004DC004005D700C00522
:1052B000D2004006CD00D006C8008007C3003008E9
:1052C000BE00F008B900C009B400B00AAF00B00BCE
:1052D000AA00D00CA500000EA000500F9B00C0102B
:1052E00096005012910000148C00C0158700B01772
:1052F0008200B0197D00D01B7800001E7300402092
:105300006E0090226900F024640040275F0090291D
:105310005A00E02B5500102E500020304B00103268
:105320004600E033410090353C00103737007038BC
:105330003200A0392D00B03A2800A03B2300603C89
:105340001E00103D1900903D1400103E0F00703EED
:105350000A00C03E0500003F000090137D00B0151C
:105360007800F0177300601A6E00F01C6900A01F2F
:10537000640050225F0020255A00E0275500902A43
:105380005000202D4B00A02F4600F031410010347A
:105390003C00F0353700A037320020392D00603A4C
:1053A0002800703B2300603C1E00203D1900C03DDA
:1053B0001400403E0F00A03E0A00F03E0500403FB2
:1053C0000000703FFBFF903FF6FFB03FF1FFC03F92
:1053D000ECFFD03FE7FFE03FE2FFF03FDDFFF03FB3
:1053E000D8FF20484F54454E4420544845524D4123
:1053F0004C2052554E415741590020484541544296
:10540000454420544845524D414C2052554E415739
:10541000415900544845524D414C2052554E415738
:1054200041590042454420544845524D414C205278
:10543000554E415741590020544845524D414C204A
:1054400052554E41574159202850524548454154E4
:1054500020484F54454E44290020544845524D4160
:105460004C2052554E4157415920285052454845ED
:105470004154204845415442454429005052454832
:10548000454154204552524F52004245442050520B
:105490004548454154204552524F52004572723A98
:1054A0002000207472696767657265642100486531
:1054B0006174657273207377697463686564206FC3
:1054C00066662E20003A2000506C6561736520727C
:1054D000657374617274004D494E54454D50004DD2
:1054E000494E54454D502042454400452D6D6F7442
:1054F0006F722063757272656E74207363616C697C
:105500006E6720656E61626C656400746D63323134
:1055100033305F686F6D655F656E746572286178A2
:1055200065735F6D61736B3D307825303278290A81
:1055300000746D63323133305F686F6D655F65781D
:10554000697420746D63323133305F73675F686FE5
:105550006D696E675F617865735F6D61736B3D3018
:1055600078253032780A00726573756C7420766124
:105570006C75653A2025640A0020693D2532642057
:10558000636E743D2532642076616C3D2532640A79
:1055900000636C7573746572733A0020693D25323F
:1055A0006420737465703D2532640A00736F7274F1
:1055B00065642073616D706C65733A00252D3773D7
:1055C000003A2000252D31322E313253252D642F03
:1055D0003600203A2000252D323073005425640017
:1055E0004731205A302E342046313030302E3000B2
:1055F000473120592D332E302046313030302E3077
:10560000004D383300473120583130302E3020459E
:1056100031322E352046313030302E3000473120A7
:105620005836302E302045392E302046313030303B
:105630002E30001A470447EE46DE46D546BC46AB40
:10564000469646854670467A47764772476E475576
:105650004745473A4731474731205835302059337D
:10566000352045252D2E336600A84894488B487A6E
:10567000486A4854483E4829481448FE47E947D5F7
:1056800047C147AC4797478347496E76616C696469
:10569000205049442063616C2E20726573756C74D0
:1056A000732E204E6F742073746F72656420746F54
:1056B00020454550524F4D2E004D3530300047317A
:1056C000205A3135204631353030004739310047D6
:1056D0003120583530205931393020453020463777
:1056E00030303000473930004D3834004D373032DB
:1056F000204300473120583130205931383020467E
:1057000034303030004731205A3130204631333088
:10571000302E303030004D313430205330004D3198
:10572000303420533000473120452D302E3037356E
:1057300030302046323130302E3030303030004D75
:1057400031303700252D31362E313653252D346436
:105750000A252D31362E313653252D34640A002585
:10576000530A20252D31362E313653252D33640A28
:1057700020252D31362E313653252D336400255307
:105780000A20252D31362E313653252D33640A203B
:10579000252D31362E313653252D33640A20252D03
:1057A00031362E313653252D33640025530A2025FA
:1057B0002D31362E313653252D33640A20252D31D7
:1057C000362E313653252D33640A20252D372E37BA
:1057D000535820252D336420205920252D33640073
:1057E00025530A20252D31362E313653252D33648D
:1057F0000A20252D372E3753204820252D336420AD
:105800005320252D33640A20252D372E3753205859
:1058100020252D3364205920252D33640020257345
:1058200025336401200A00205057523A20202020BE
:10583000202025342E3166560A204245443A202045
:105840002020202025342E3166560025530A20586A
:105850002025640A20592025640025752E25752EE3
:1058600025752E25750025730020005072696E7411
:10587000657220495020416464723A00257300200B
:1058800000466C617368416972204950204164642C
:10589000723A004D4D5532202020202020204E2FDE
:1058A000410025642E25642E25642D2564002046A4
:1058B000573A004D6179203138203230323200457C
:1058C0003344763666756C6C0045494E53795F31CA
:1058D000306100315F37356D6D5F4D4B33002D2DDD
:1058E0002D2D2D2D2D2D2D2D2D2D00207265706F20
:1058F00020556E6B6E6F776E0020332E31312E3057
:105900002D34393535004669726D776172653A001C
:10591000464D2076657273696F6E3A2000464D20C1
:1059200049503A20004D373032004D373031004D6C
:10593000373032004D37303100464C4558202D204D
:10594000203234302F35300050502020202D2020A0
:105950003235342F3130300048495053202D20202B
:105960003232302F3130300041425320202D202060
:105970003235352F3130300050564220202D202036
:105980003231352F37350050432020202D20203252
:1059900037352F3131300041534120202D20203226
:1059A00036302F3130350050455420202D20203204
:1059B00033302F383500504C4120202D20203231FB
:1059C000352F3630006E6F7A7A6C65202D202032AC
:1059D00035302F30006661726D2020202D2020325E
:1059E00035302F383000252D31322E313253252BD2
:1059F000382E31660045787472756465723A006DB0
:105A00006D00590058004D3131372046697273746A
:105A1000206C617965722063616C2E00526573752C
:105A20006D696E67207072696E740050494E444112
:105A30002048656174696E670043616C69627261D8
:105A400074696F6E20646F6E650043616C69627289
:105A50006174696E67205A0042656420646F6E65E8
:105A6000004265642048656174696E67004865613D
:105A700074696E6720646F6E652E00486561746995
:105A80006E67005049442063616C2E2066696E6920
:105A900073686564005049442063616C2E00507245
:105AA000696E7420706175736564004D4D5520708A
:105AB0006F776572206661696C73004D4D55206C7F
:105AC0006F6164206661696C73004D4D552066619D
:105AD000696C730046696C2E2072756E6F757473F5
