:100000000C9403360C9434360C9434360C943436F9
:100010000C9434360C941EBD0C9434360D945165FA
:100020000C942BC10C9434360C9434360C94343626
:100030000C9434360C9434360D9420150D94C95616
:100040000C9434360D9479280C9434360C94343650
:100050000C9434360C9434360C9434360D94B01120
:100060000C9434360D94AE510C9434360C943436D2
:100070000C9434360C9434360C9434360C94343658
:100080000C9434360C9434360C9434360C94343648
:100090000D946A510C9434360C9434360C943436E6
:1000A0000C9434360C9434360D943F560C943436FC
:1000B0000C9434360D9421560C9434360C9434360A
:1000C0000C9434360C9434360C9434360C94343608
:1000D0000C9434360C9434360C9434360C943436F8
:1000E0000C943436EC73EE73EC73EE73EC73EE73C6
:1000F000F073F27310C921C933C940C94AC97BC919
:10010000FAC89CC9B0C9AAC9FAC8B3C9D0C9E4C958
:10011000F6C961D86CD80DD8DAD7A9D76EDBA8D8C4
:10012000D2D969DAC0DADDDA15DBC201A802180219
:10013000B0019A017402180332027E027E02380274
:100140007E0238026C0176029401D0029E01A80161
:1001500096027201F201F60228034A012A031002F4
:10016000BE023E02720188010003F002B8012802BB
:100170001202AE02EC0104026C02DC0186022202D1
:10018000A401EA012203B40104025402A2021A03E8
:10019000F001AA01480120032C0208028201060294
:1001A0009202FC0224038A014E01EE020C03320388
:1001B000E002DE021C02E6014C01E40114030A0322
:1001C000BE01084AD73B3BCE016E84BCBFFDC12FA8
:1001D0003D6C74319ABD56833DDA3D00C77F11BE38
:1001E000D9E4BB4C3E916BAAAABE000000803F053B
:1001F000A84CCDB2D44EB93836A9020C50B991866C
:1002000088083CA6AAAA2ABE000000803F076342D5
:1002100036B79BD8A71A39685618AEBAAB558C1D9D
:100220003CB7CC5763BD6DEDFD753EF6177231BF1F
:10023000000000803F08000000BE922449123EAB3F
:10024000AAAA2ABECDCCCC4C3E00000080BEABAAF0
:10025000AAAA3E00000000BF000000803F0000008E
:100260000000084178D3BB4387D1133D190E3CC32E
:10027000BD4282AD2B3E68EC8276BED98FE1A93EAD
:100280004C80EFFFBE01C4FF7F3F00000000000074
:100290000D94C3700D9492660D940F930D94537149
:1002A0000D94ED850D9496460D94628A0D94138FEE
:1002B0000D943E430C94B4C60D9477060C94EE73E3
:1002C0000D94A21D0C94E4C90D9411490D942A5863
:1002D0000D9416050C941BB20D9488480C94DAD733
:1002E0000C9415DB0D94B7660D94D08E0C945BD1F5
:1002F0000D9418070C94A9D70C9434A50C9421C91B
:100300000D94EC370D94FE700C94B4D40D949A8E29
:100310000D94AA660D9445710D9429420D94508355
:100320000D947F8A0C9469DA0D947D660C94ABB2BF
:100330000D942C510D9407120C94FAC80D946F660D
:100340000C94EC730C9447C30D945E680C949AC3A0
:100350000D9473660D94B3700C9451D10D94554364
:100360000D94F5110D949E050D9481680D94768F72
:100370000D9412680C940DD80C9409CF0D941F9213
:100380000C94A4C30D94CC110D94055A0D945A39B4
:100390000C94DDDA0C948ACB0D94CB050D941CAF34
:1003A0000D9445510D94D4460D94A05C0D94484392
:1003B0000D9440670D9407060D9442680C94F6C99D
:1003C0000D944A440D94B8660D94FF920D9490924A
:1003D0000D941B890D9468680D9430680C9453A596
:1003E0000D94A5700D9484660C9474C30D94E288EA
:1003F0000C94B1D60D94585D0C9429C40D944B34D3
:100400000D94BE660C9410C90D94A9680D940C71DE
:100410000D94F8700C94EACA0C9461D80D94598626
:100420000D949C660D941C680D94AA370D94BB43E3
:100430000D94E8110D94B3570D949B920D94DD88A3
:100440000D94A4570D9454680D94C2660D941D34F8
:100450000D9417680D942E420D94F2700C9440C9BF
:100460000D94E1480D9446120D946F860D94375803
:100470000D9485480D9443060C945FCC0D94A466AE
:100480000D9486050D9494050D94DF8F0C94B3C9DB
:100490000C94A8D80C9451C30D94D1420D94C76606
:1004A0000C946EDB0D94F1480D948B680C9465C22E
:1004B0000D9420470D94CC4B0D94FC850C94AAC947
:1004C0000D94DD420C94EFC50D94F9480D946F4CDA
:1004D0000D9491850C947BC90D943A680D948D050B
:1004E0000D944C580C9433C90D940E120D948B48F6
:1004F0000D944D5E0C9483E30C94F1C60D948248E8
:100500000D94E8040D9494430D94D6040D944A6818
:100510000C94B0CD0D94F1100C94D0C90D940149F8
:100520000D9457580D941A710C946FD10D947966EF
:100530000D9419490C9497D50D94E9480D94E4064F
:100540000C9443CA0D9495680C9403C40C946B8569
:100550000D94DA110C946CD80D94EB880D942668E8
:100560000D944C8A0D9435850D94F3830D94175A90
:100570000C944AC90D944F670D94D1480D94A06610
:100580000C9437850D94CC420C9433850D940090D7
:100590000C9461C30C9406CB0D94B0060C94F273CA
:1005A0000D9480660C9465D10D94E7880C94F073DB
:1005B0000C9459D50D9459830D943C050D94A69235
:1005C0000D94B1920D944A670C94CEB10D942A51BA
:1005D0000C9489CE0C9479CA0D940B050D945C9003
:1005E0000D94B2660C94C0DA0D9409490D94886696
:1005F0000D94D9480D94C7840D9428710D9424420C
:100600000D94AE660D94A85C0D94D1A90D94456728
:100610000C9487C30D943B920D94EC920D94298910
:100620000C94A0C10D94C7480D9469920C94E4C435
:100630000D9430120D949F680D94CB040C949CC9BA
:100640000D94D5700D9477680D943F710D94D888F2
:100650000D948E660D9496660C94D2D90D946643D3
:100660000C94B0C90D94BC926E616E00696E660008
:100670004E414E494E495459494E46CDCCCC3D0A87
:10068000D7233C17B7D13877CC2B329595E6241F6A
:10069000B14F0A000020410000C84200401C462023
:1006A000BCBE4CCA1B0E5AAEC59D7400407A10F3F6
:1006B0005A00A0724E18090010A5D4E80000E87690
:1006C00048170000E40B54020000CA9A3B000000E7
:1006D000E1F505000080969800000040420F000000
:1006E00000A08601000000102700000000E80300C1
:1006F0000000006400000000000A0000000000018B
:1007000000000000002C76D888DC674F0823DFC18A
:10071000DFAE59E1B1B796E5E3E453C63AE6519945
:100720007696E8E6C28426EB898C9B62ED407C6F6E
:10073000FCEFBC9C9F40F2BAA56FA5F490055A2A25
:10074000F75C936B6CF9676DC11BFCE0E40D47FE31
:10075000F520E6B500D0ED902E0300943577050026
:1007600080841E080000204E0A000000C80C3333AD
:1007700033330F986E12831141EF8D2114893BE6BC
:100780005516CFFEE6DB18D1844B381BF77C1D9045
:100790001DA4BBE424203284725E228100C9F124AE
:1007A000ECA1E53D276364696E6F70737578585BE3
:1007B00000256420627974657320777269747465AA
:1007C0006E20746F20454550524F4D20617420615A
:1007D0006464726573732030782530347800443354
:1007E000202D20526561642F57726974652045453C
:1007F00050524F4D0A0020436F756E7420583A20B6
:10080000005344207072696E74696E672062797457
:100810006520004E6F7420696E206661726D206DD8
:100820006F64652E00416374697665204578747243
:10083000756465723A2000496E76616C6964206562
:1008400078747275646572005A204F6666736574B9
:1008500000556E6B6E6F776E20636F6D6D616E64A9
:100860003A2022004D32303020496E76616C696446
:1008700020657874727564657220007A5F6D6178A6
:100880003A20007A5F6D696E3A2000795F6D617879
:100890003A2000795F6D696E3A2000785F6D61786B
:1008A0003A20006F70656E005452494747455245E3
:1008B0004400785F6D696E3A20005265706F727403
:1008C000696E6720656E6473746F702073746174F1
:1008D00075730053494C454E54004E4F524D414C98
:1008E000002553204D4F44453A2050657263656E94
:1008F0007420646F6E653A2025643B207072696EC7
:10090000742074696D652072656D61696E696E67CA
:1009100020696E206D696E733A2025640A00456E69
:10092000642066696C65206C697374004265676950
:100930006E2066696C65206C697374000A50494EBC
:1009400044412074656D70657261747572653A20FA
:10095000252E3166205A20736869667420286D6DD3
:10096000293A20252E3366000A537465703A2025F3
:10097000642F360A000A537465703A2025642F36B6
:100980002028736B6970706564290A50494E444190
:100990002074656D70657261747572653A202564A6
:1009A000205A20736869667420286D6D293A300AD0
:1009B000000A5A45524F3A20252E33660A007374B6
:1009C0006172742074656D70657261747572653AD8
:1009D00020252E31660A0025642020252E3266004F
:1009E000255320583A20252E356620593A20252EA9
:1009F0003566205A3A20252E35660A00536C656507
:100A0000702E2E2E004E6F7420696E206661726DFE
:100A1000206D6F64652E0025640045303A25642002
:100A200052504D0A50524E303A25642052504D0AD1
:100A300000256400442D31202D20456E646C6573C3
:100A400073206C6F6F700A00416476616E6365207D
:100A50004B3D004B206F7574206F6620616C6C6F8E
:100A60007765642072616E676521001B5B324A1BEB
:100A70005B313B32485072757361206933204661A7
:100A8000626D616E1B5B323B334853776970652042
:100A9000746F206C6F67696E001B5B324A1B5B31A1
:100AA0003B32485072757361206933204661626D34
:100AB000616E1B5B323B3348537769706520746FFE
:100AC000206C6F67696E001B5B324A1B5B313B32E7
:100AD000485072757361206933204661626D616EA2
:100AE0001B5B323B3348537769706520746F206C11
:100AF0006F67696E001B5B324A1B5B313B324850AB
:100B000072757361206933204661626D616E1B5B93
:100B1000323B3348537769706520746F206C6F6780
:100B2000696E001B5B324A1B5B313B324850727569
:100B30007361206933204661626D616E1B5B323BDD
:100B40003348537769706520746F206C6F67696EE6
:100B5000004D3232302053256900255346696C61BF
:100B60006D656E742073657474696E67733A2044A2
:100B7000697361626C65640A00255346696C616D36
:100B8000656E742073657474696E67733A0A2553D1
:100B90002020204D3230302044252E32660A002598
:100BA00053526574726163743A20533D4C656E67AD
:100BB000746820286D6D2920463A5370656564205D
:100BC000286D6D2F6D29205A3A205A4C6966742081
:100BD000286D6D290A25532020204D3230372053AF
:100BE000252E32662046252E3266205A252E326664
:100BF0000A25535265636F7665723A20533D4578F6
:100C0000747261206C656E67746820286D6D292090
:100C1000463A537065656420286D6D2F6D290A254D
:100C2000532020204D3230382053252E3266204666
:100C3000252E32660A25534175746F2D52657472E4
:100C40006163743A20533D3020746F20646973618E
:100C5000626C652C203120746F20696E746572702F
:100C600072657420657874727564652D6F6E6C7929
:100C7000206D6F7665732061732072657472616395
:100C80007473206F72207265636F76657269657325
:100C90000A25532020204D323039205325640A0084
:100CA000255350494420686561746265642073650A
:100CB0007474696E67733A0A25532020204D3330CF
:100CC000342050252E32662049252E3266204425B8
:100CD0002E32660A002553504944207365747469A6
:100CE0006E67733A0A25532020204D33303120504F
:100CF000252E32662049252E32662044252E326666
:100D00000A00255353746570732070657220756EE8
:100D100069743A0A255320204D39322058252E3245
:100D2000662059252E3266205A252E32662045250A
:100D30002E32660A25535553746570207265736FA1
:100D40006C7574696F6E3A200A2553204D33353027
:100D50002058256420592564205A2564204525649F
:100D60000A25534D6178696D756D206665656472FD
:100D700061746573202D206E6F726D616C20286D1B
:100D80006D2F73293A0A255320204D3230332058D5
:100D9000252E32662059252E3266205A252E32669F
:100DA0002045252E32660A25534D6178696D756D93
:100DB00020666565647261746573202D20737465A7
:100DC000616C746820286D6D2F73293A0A255320B1
:100DD000204D3230332058252E32662059252E32B0
:100DE00066205A252E32662045252E32660A255366
:100DF0004D6178696D756D20616363656C657261C5
:100E000074696F6E202D206E6F726D616C20286D7D
:100E10006D2F7332293A0A255320204D323031206C
:100E200058256C752059256C75205A256C75204500
:100E3000256C750A25534D6178696D756D20616368
:100E400063656C65726174696F6E202D20737465C3
:100E5000616C746820286D6D2F7332293A0A25530E
:100E600020204D3230312058256C752059256C7565
:100E7000205A256C752045256C750A2553416363FE
:100E8000656C65726174696F6E3A20533D6163638E
:100E9000656C65726174696F6E2C20543D72657467
:100EA0007261637420616363656C65726174696FFC
:100EB0006E0A255320204D3230342053252E3266C1
:100EC0002054252E32660A2553416476616E63658F
:100ED00064207661726961626C65733A20533D4D9E
:100EE000696E20666565647261746520286D6D2F7A
:100EF00073292C20543D4D696E2074726176656CA7
:100F000020666565647261746520286D6D2F732994
:100F10002C20423D6D696E696D756D207365676D3E
:100F2000656E742074696D6520286D73292C2058B6
:100F30003D6D6178696D756D205859206A65726BD9
:100F400020286D6D2F73292C20205A3D6D61786902
:100F50006D756D205A206A65726B20286D6D2F7338
:100F6000292C2020453D6D6178696D756D204520E7
:100F70006A65726B20286D6D2F73290A2553202016
:100F80004D3230352053252E32662054252E3266C0
:100F90002042252E32662058252E32662059252ED5
:100FA0003266205A252E32662045252E32660A25C5
:100FB00053486F6D65206F666673657420286D6D8C
:100FC000293A0A255320204D3230362058252E321A
:100FD000662059252E3266205A252E32660A004692
:100FE00025642025640A004D4D55203C3D202746B0
:100FF0002564202564270A00504944204175746FF8
:1010000074756E652066696E697368656421205029
:10101000757420746865206C617374204B702C208B
:101020004B6920616E64204B6420636F6E73746142
:101030006E74732066726F6D2061626F76652069D1
:101040006E746F20436F6E66696775726174696F45
:101050006E2E6800504944204175746F74756E653A
:10106000206661696C6564212074696D656F7574B3
:101070000020403A00543A00423A0050494420418E
:1010800075746F74756E65206661696C6564212086
:1010900054656D706572617475726520746F6F2030
:1010A0006869676800204B643A2000204B693A2049
:1010B00000204B703A200020436C617373696320F9
:1010C00050494420002054753A2000204B753A20A6
:1010D00000206D61783A2000206D696E3A20002072
:1010E000643A200020626961733A200020453A008A
:1010F000205A3A0020593A0020453A00205A3A0036
:1011000020593A00583A00005A30005A31005930FC
:1011100000593100583000583100456E6420737416
:101120006F70732064696167002E0044656C65749C
:10113000696F6E206661696C65642C2046696C6518
:101140003A200046696C652064656C657465643A94
:10115000004E6F74205344207072696E74696E671C
:10116000005072696E742073617665640053442088
:101170007072696E7420706175736564004F4B0006
:101180004241440052414D426F2046414E200043AF
:10119000524153485F43414E43454C0043524153F3
:1011A000485F5245434F5645520043524153485FB2
:1011B0005245434F5645520022283229004475704B
:1011C0006C696361746520542D636F646520696781
:1011D0006E6F7265642E0A004475706C6963617489
:1011E0006520542D636F64652069676E6F72656456
:1011F0002E0A00496E76616C6964205420636F6426
:10120000652E00556E6B6E6F776E204D20636F6498
:10121000653A202573200A006E6F2076616C696440
:1012200020636F6D6D616E64002C20002C20002CFB
:1012300020006E2F61002C20002C20002C20006E3E
:101240002F6100503A005761697420666F72205018
:10125000494E4441207461726765742074656D70F5
:10126000657261747572653A004C414E4720534572
:101270004C20464F5243454400222831290030304B
:101280003030303030302D303030302D3030303064
:101290002D303030302D3030303030303030303054
:1012A00030300020555549443A003100204558540B
:1012B00052554445525F434F554E543A0050727553
:1012C0007361206933204D4B335300204D41434817
:1012D000494E455F545950453A00312E3000206246
:1012E00061736564206F6E204D61726C696E20467B
:1012F00049524D574152455F55524C3A687474708B
:10130000733A2F2F6769746875622E636F6D2F7043
:101310007275736133642F50727573612D466972F3
:101320006D776172652050524F544F434F4C5F565A
:10133000455253494F4E3A004649524D5741524546
:101340005F4E414D453A50727573612D4669726D1D
:101350007761726520004D31313320530020423ACD
:101360000020453A00543A0020413A0020503A000B
:101370002042403A0020403A00202F002054002014
:101380002F0020423A00202F006F6B20543A002596
:1013900069206D696E2C2025692073656300496E94
:1013A00076616C6964204D20636F64653A20257313
:1013B000200A00556E6B6E6F776E204720636F6456
:1013C000653A202573200A004D65736820626564C4
:1013D000206C6576656C696E67206E6F7420616342
:1013E000746976652E002020000A4D656173757260
:1013F000656420706F696E74733A000A5A207365D1
:1014000061726368206865696768743A20004E7588
:101410006D20582C593A2000206D6963726F6E73ED
:101420000045786365737369766520626564206C36
:101430006576656C696E6720636F72726563746947
:101440006F6E3A2000426564206C6576656C696E4B
:1014500067206661696C65642E2053656E736F72D8
:101460002074726967676572656420746F6F2068A5
:101470006967682E0A00426564206C6576656C6950
:101480006E67206661696C65642E2053656E736FAC
:101490007220646973636F6E6E6563746564206F38
:1014A00072206361626C652062726F6B656E2E0ADA
:1014B000004732382057300050494E444120707266
:1014C0006F62652063616C6962726174696F6E201E
:1014D000737461727400473238205730004E6F20A9
:1014E00050494E444120746865726D6973746F721F
:1014F000004D3234005345545F43484F505F005312
:1015000045545F535445505F005345545F5741560F
:10151000455F00544D435F0043524153485F0047CD
:101520002D636F646520736C6963656420666F72F8
:10153000206120646966666572656E74206C6576EC
:10154000656C2E20436F6E74696E75653F00472D84
:10155000636F646520736C6963656420666F7220D5
:101560006120646966666572656E74206C65766577
:101570006C2E20506C656173652072652D736C69EB
:10158000636520746865206D6F64656C20616761B8
:10159000696E2E205072696E742063616E63656C93
:1015A0006C65642E00472D636F646520736C6963FE
:1015B000656420666F722061206E657765722066B3
:1015C00069726D776172652E20506C65617365205C
:1015D00075706461746520746865206669726D77E2
:1015E0006172652E205072696E742063616E63654E
:1015F0006C6C65642E00472D636F646520736C69A5
:1016000063656420666F722061206E657765722065
:101610006669726D776172652E20436F6E74696EB4
:1016200075653F00472D636F646520736C69636562
:101630006420666F72206120646966666572656EFB
:1016400074207072696E74657220747970652E20D2
:10165000506C656173652072652D736C69636520DC
:10166000746865206D6F64656C20616761696E2EBA
:10167000205072696E742063616E63656C6C656482
:101680002E00472D636F646520736C696365642069
:10169000666F72206120646966666572656E74208B
:1016A0007072696E74657220747970652E20436F54
:1016B0006E74696E75653F00472D636F64652073B6
:1016C0006C6963656420666F722061206469666678
:1016D0006572656E74207072696E746572207479BB
:1016E00070652E20436F6E74696E75653F00472DDF
:1016F000636F646520736C6963656420666F722034
:101700006120646966666572656E74207072696EC8
:1017100074657220747970652E20506C65617365F4
:101720002072652D736C69636520746865206D6F28
:1017300064656C20616761696E2E205072696E74F9
:101740002063616E63656C6C65642E005072696E17
:10175000746572206973206F7574206F66206F72D4
:101760006465722E00596F7520617265206E6F740A
:1017700020616C6C6F77656420746F2075736520D1
:1017800074686973207072696E746572206F757405
:1017900073696465206F70656E696E6720686F7528
:1017A00072732E00596F7520646F206E6F742068FD
:1017B0006176652072657175697265642074726105
:1017C000696E696E6720636F7572736521210059B8
:1017D0006F7520646F206E6F74206861766520617C
:1017E0006374697665207061636B6167652E205054
:1017F0006C6561736520627579206F6E652E00538C
:101800006F7272792C204920616D206E6F74206F89
:101810006E6C696E65207269676874206E6F772ED2
:1018200020506C6561736520747279206D65206C41
:10183000617465722E005570646174696E6720462C
:101840004D2066772E2E005072757361206933200B
:101850004661626D616E005072657373206B6E6FCE
:101860006220746F2070726568656174206E6F7A93
:101870007A6C6520616E6420636F6E74696E756545
:101880002E00506C656173652070726573732074EF
:101890006865206B6E6F6220746F20756E6C6F616F
:1018A000642066696C616D656E740052656D6F765B
:1018B00065206F6C642066696C616D656E74206173
:1018C0006E6420707265737320746865206B6E6F30
:1018D0006220746F207374617274206C6F6164692C
:1018E0006E67206E65772066696C616D656E742E1B
:1018F00000616E6420707265737320746865206B7C
:101900006E6F6200496E736572742066696C616DFA
:10191000656E7400436F6C6F72206E6F7420636F1E
:1019200072726563740046696C616D656E74206ED9
:101930006F74206C6F61646564004368616E6765F5
:101940006420636F72726563746C793F004C6F61E1
:1019500064696E6720636F6C6F72004368616E67C5
:101960006520737563636573732100506C656173E3
:1019700065206F70656E2069646C657220616E64AD
:101980002072656D6F76652066696C616D656E7439
:10199000206D616E75616C6C792E005761732066E5
:1019A000696C616D656E7420756E6C6F6164207317
:1019B00075636365737366756C3F00506C65617326
:1019C0006520757067726164652E004E65772066CC
:1019D00069726D776172652076657273696F6E20CA
:1019E000617661696C61626C653A0057616974691E
:1019F0006E6720666F722050494E44412070726FAE
:101A0000626520636F6F6C696E6700437261736813
:101A10002064657465637465642E20526573756D0A
:101A200065207072696E743F004372617368206450
:101A3000657465637465642E0045787472756465B9
:101A4000720043686F6F73652065787472756465A2
:101A5000723A0043686F6F73652066696C616D65EB
:101A60006E743A004E6F206D6F76652E0057616977
:101A70007420666F7220757365722E2E2E00536F60
:101A80006D652070726F626C656D20656E636F7539
:101A90006E74657265642C205A2D6C6576656C6970
:101AA0006E6720656E666F72636564202E2E2E0051
:101AB000537461626C6520616D6269656E74207437
:101AC000656D70657261747572652032312D3236C4
:101AD00043206973206E65656465642061207269C6
:101AE000676964207374616E642069732072657124
:101AF00075697265642E00506C656173652072753E
:101B00006E2058595A2063616C6962726174696F02
:101B10006E2066697273742E006164635F696E691A
:101B2000740A000A204F726967696E616C205072F6
:101B30007573612069330A2020205072757361200B
:101B4000526573656172636800436F6E74696E7588
:101B500065207769746820616E6F746865722062B1
:101B60006F7764656E3F0025002020202020200034
:101B70002020202020200045524153494E4720611B
:101B80006C6C206461746100466163746F727920CB
:101B9000524553455400466163746F727920524533
:101BA0005345540044495341424C454400454E413D
:101BB000424C454400202873656E736F7220626F3B
:101BC000617264207265766973696F6E3A25532974
:101BD0000A004653656E736F7220255300494E54B8
:101BE00034004D4B33534D4D553253004E4F4D4BFA
:101BF00033530004004E4F4354554100414C54466A
:101C0000414E005365702032312032303230004373
:101C10006F6D70696C65643A2000286E6F6E652C7C
:101C20002064656661756C7420636F6E66696729F0
:101C30000053657020323120323032302031383A52
:101C400030373A35390020332E392E312D333531A6
:101C5000380A007374617274002055706C6F61648F
:101C600020696E2070726F677265737300205A3A34
:101C70000020593A0020583A0043524153485F44EB
:101C80004554454354454458590043524153485FD5
:101C90004445544543544544590043524153485FD9
:101CA000444554454354454458004D323900457825
:101CB0007465726E616C2053504920666C61736864
:101CC0000A573235583230434C206973206E6F7496
:101CD000207265732D0A706F6E64696E672E204CDA
:101CE000616E67756167650A7377697463682075EB
:101CF0006E617661696C61626C652E00437261731E
:101D0000684465746563742044495341424C4544BA
:101D100000437261736844657465637420454E4185
:101D2000424C4544210045787472756465722066A2
:101D3000616E20747970653A200057323558323020
:101D4000434C206E6F7420726573706F6E64696EA1
:101D5000672E0A002020506C616E6E6572427566B7
:101D600066657242797465733A2000204672656533
:101D7000204D656D6F72793A2000207C204175748A
:101D8000686F723A2000204C617374205570646152
:101D90007465643A200020536F6674776172652021
:101DA000526573657400205761746368646F6720BF
:101DB0005265736574002042726F776E206F757480
:101DC000205265736574002045787465726E616C8D
:101DD00020526573657400506F77657255700065A9
:101DE00072726F722077726974696E6720746F20E7
:101DF00066696C6500656E6473746F7073206869E2
:101E0000743A2000446F6E6520736176696E6720B6
:101E100066696C652E006F6B004D4B33532066690D
:101E2000726D7761726520646574656374656420A2
:101E30006F6E204D4B33207072696E746572005066
:101E400072757361206933204D4B3353204F4B2EF5
:101E500000426C61636B6F7574206F63637572729F
:101E600065642E205265636F766572207072696EAC
:101E7000743F0053656C66746573742077696C6C8D
:101E80002062652072756E20746F2063616C6962D8
:101E90007261746520616363757261746520736536
:101EA0006E736F726C657373207265686F6D696EA7
:101EB000672E005468657265206973207374696CBD
:101EC0006C2061206E65656420746F206D616B65A8
:101ED000205A2063616C6962726174696F6E2E2092
:101EE000506C6561736520666F6C6C6F77207468E9
:101EF00065206D616E75616C2C206368617074651E
:101F0000722046697273742073746570732C207329
:101F1000656374696F6E2043616C69627261746994
:101F20006F6E20666C6F772E005072696E746572EA
:101F300020686173206E6F74206265656E20636136
:101F40006C69627261746564207965742E20506CCE
:101F50006561736520666F6C6C6F772074686520AF
:101F60006D616E75616C2C206368617074657220A0
:101F700046697273742073746570732C2073656383
:101F800074696F6E2043616C6962726174696F6E0F
:101F900020666C6F772E004F6C64207365747469D3
:101FA0006E677320666F756E642E2044656661757A
:101FB0006C74205049442C204573746570732065FF
:101FC00074632E2077696C6C206265207365742EB3
:101FD000005761726E696E673A20626F7468207094
:101FE00072696E746572207479706520616E642008
:101FF0006D6F74686572626F617264207479706568
:10200000206368616E6765642E005761726E696E49
:10201000673A207072696E746572207479706520F9
:102020006368616E6765642E005761726E696E67E2
:102030003A206D6F74686572626F617264207479A2
:102040007065206368616E6765642E007C3C3E3F6E
:102050002F2A225C0022206661696C65643A204266
:1020600075666665722066756C6C210022002569B4
:1020700020686F757273202569206D696E757465AF
:10208000730054494D454F55543A004D313130009D
:1020900046756C6C20525820427566666572004326
:1020A0007573746F6D0054657874757200536D6F3D
:1020B0006F74680047312059252D2E326620452542
:1020C0002D2E3366004731205825642059252D2EAA
:1020D00032662045252D2E336600656E7175656963
:1020E0006E67202200446F6E65207072696E74699D
:1020F0006E672066696C65004D3131322063616C1A
:102100006C65642E20456D657267656E637920533A
:10211000746F702E005072696E7465722073746FE4
:10212000707065642064756520746F206572726FCD
:1021300072732E2046697820746865206572726F0C
:102140007220616E6420757365204D3939392074B1
:102150006F20726573746172742E202854656D70DF
:102160006572617475726520697320726573657438
:102170002E20536574206974206166746572207224
:10218000657374617274696E6729004E6F204C69C3
:102190006E65204E756D6265722077697468206384
:1021A0006865636B73756D2C204C617374204C698A
:1021B0006E653A20004E6F20436865636B73756DE2
:1021C0002077697468206C696E65206E756D626534
:1021D000722C204C617374204C696E653A20006348
:1021E0006865636B73756D206D69736D6174636889
:1021F0002C204C617374204C696E653A20004C6948
:102200006E65204E756D626572206973206E6F7405
:10221000204C617374204C696E65204E756D62654B
:10222000722B312C204C617374204C696E653A20FE
:102230000053544F505045442E2000746D6332318A
:1022400033305F686F6D655F656E746572286178A5
:1022500065735F6D61736B3D307825303278290A84
:1022600000746D63323133305F686F6D655F657820
:10227000697420746D63323133305F73675F686FE8
:102280006D696E675F617865735F6D61736B3D301B
:1022900078253032780A00726573756C7420766127
:1022A0006C75653A2025640A0020693D253264205A
:1022B000636E743D2532642076616C3D2532640A7C
:1022C00000636C7573746572733A0A0020693D256A
:1022D000326420737465703D2532640A00736F7236
:1022E0007465642073616D706C65733A0A00252D06
:1022F0003773003A200025642F3600252D323053E5
:1023000000202020202020202020202020202020ED
:102310002020202000203A200020202020202020E3
:102320002020202020202020202020202000252DBB
:102330003230730020202020202020202020202048
:102340002000257300544D432044524956455220E5
:102350004F56455254454D500025632533642F2573
:10236000642563005A25362E32662563005A2020E4
:10237000202D2D2D200025632533642525002D2DAE
:102380002D002533686864002533532533732525D4
:102390000055534200202020002053440020257582
:1023A0003E257500203F3E257500204625750020FE
:1023B000463F0020463020200025632D2D3A2D2D4C
:1023C00020200025632533756820256325630025BB
:1023D00063253032753A2530327525632563005008
:1023E000494E44412048656174696E670043616CE1
:1023F0006962726174696F6E20646F6E650043611B
:102400006C6962726174696E67205A00426564206B
:10241000646F6E65004265642048656174696E672B
:102420000048656174696E6720646F6E652E0048B0
:10243000656174696E670058595A2063616C6962FE
:10244000726174696F6E20616C6C20726967687468
:102450002E20536B65772077696C6C206265206352
:102460006F72726563746564206175746F6D6174F9
:102470006963616C6C792E0058595A2063616C69EC
:1024800062726174696F6E20616C6C20726967683A
:10249000742E20582F592061786573206172652051
:1024A000736C696768746C7920736B657765642EEB
:1024B00020476F6F64206A6F62210058595A206369
:1024C000616C6962726174696F6E206F6B2E205847
:1024D0002F59206178657320617265207065727074
:1024E000656E646963756C61722E20436F6E6772EE
:1024F0006174756C6174696F6E73210058595A204C
:1025000063616C6962726174696F6E206661696C87
:1025100065642E2052696768742066726F6E74203D
:1025200063616C6962726174696F6E20706F696E4D
:1025300074206E6F7420726561636861626C652ED1
:102540000058595A2063616C6962726174696F6ED8
:10255000206661696C65642E2046726F6E7420631C
:10256000616C6962726174696F6E20706F696E74FC
:1025700073206E6F7420726561636861626C652E92
:102580000058595A2063616C6962726174696F6E98
:10259000206661696C65642E20506C6561736520EE
:1025A000636F6E73756C7420746865206D616E75F1
:1025B000616C2E0058595A2063616C6962726174B3
:1025C000696F6E20636F6D70726F6D697365642ED5
:1025D0002052696768742066726F6E742063616C44
:1025E0006962726174696F6E20706F696E74206EBB
:1025F0006F7420726561636861626C652E00585962
:102600005A2063616C6962726174696F6E20636FD6
:102610006D70726F6D697365642E2046726F6E7493
:102620002063616C6962726174696F6E20706F699A
:102630006E7473206E6F7420726561636861626C82
:10264000652E0058595A2063616C69627261746921
:102650006F6E206661696C65642E2042656420633C
:10266000616C6962726174696F6E20706F696E74FB
:1026700020776173206E6F7420666F756E642E0014
:10268000506C6561736520706C616365207374655F
:10269000656C207368656574206F6E206865617471
:1026A0006265642E0044697374616E6365206265BF
:1026B000747765656E20746970206F662074686534
:1026C000206E6F7A7A6C6520616E64207468652074
:1026D000626564207375726661636520686173204A
:1026E0006E6F74206265656E207365742079657401
:1026F0002E20506C6561736520666F6C6C6F77205F
:10270000746865206D616E75616C2C206368617002
:102710007465722046697273742073746570732CCB
:102720002073656374696F6E204669727374206CE0
:10273000617965722063616C6962726174696F6E40
:102740002E00506C6163652061207368656574209C
:102750006F6620706170657220756E64657220749A
:102760006865206E6F7A7A6C6520647572696E6731
:10277000207468652063616C6962726174696F6E50
:10278000206F66206669727374203420706F696EE2
:1027900074732E20496620746865206E6F7A7A6C97
:1027A0006520636174636865732074686520706177
:1027B0007065722C20706F776572206F666620746A
:1027C0006865207072696E74657220696D6D6564EC
:1027D000696174656C792E00506C65617365207257
:1027E000656D6F766520737465656C2073686565CB
:1027F000742066726F6D20686561746265642E0076
:10280000497320737465656C207368656574206F07
:102810006E20686561746265643F00206F662034D5
:1028200000536561726368696E6720626564206346
:10283000616C6962726174696F6E20706F696E7429
:1028400000206F662039004D6561737572696E678F
:10285000207265666572656E636520686569676884
:1028600074206F662063616C6962726174696F6E57
:1028700020706F696E7400506C6561736520636CC5
:1028800065616E20746865206E6F7A7A6C6520666B
:102890006F722063616C6962726174696F6E2E2061
:1028A000436C69636B207768656E20646F6E652E7C
:1028B000004175746F20686F6D650078797A636187
:1028C0006C5F6D656173737572655F656E7465725B
:1028D0000A0078797A63616C5F73706972616C3831
:1028E0002063783D25642063793D2564207A303D5E
:1028F000256420647A3D2564207261646975733DA6
:1029000025642061643D25640A0078797A63616CEE
:102910005F7365617263685A206E6F207369676EBA
:10292000616C0A20783D256C6420793D256C64201B
:102930007A3D256C640A00204F4E2D5349474E4185
:102940004C20617420783D256420793D2564207AEF
:102950003D25642061643D25640A0078797A6361CD
:102960006C5F7365617263685A20783D256C6420E2
:10297000793D256C64207A3D256C640A000A0025A7
:102980003032780078797A63616C5F7363616E5F6F
:10299000706978656C735F33327833322063783DC9
:1029A00025642063793D2564206D696E5F7A3D253D
:1029B00064206D61785F7A3D25640A0020253264C9
:1029C0002025640A000A002530327800206D696EE7
:1029D0003D2564206D61783D2564206469663D2550
:1029E000640A006D61785F633D253264206D617813
:1029F0005F6C3D25640A006D61785F633D2564204E
:102A00006D61785F723D2564206D61785F6D6174E2
:102A100063683D25640A0020783D256420793D25C2
:102A200064207A3D25640A00207061747465726EBA
:102A300020666F756E642061742025642025640A09
:102A4000000000F000F801FC03FE07FE07FE07FE91
:102A500007FC03F801F000000073697A656F6628CF
:102A6000746F74616C293D25640A0073697A656F1F
:102A70006628626C6F636B5F627566666572293D7E
:102A800025640A0078797A63616C5F6D65617373A0
:102A90007572655F6C656176650A00706F696E744A
:102AA0003D256420783D256420793D2564207A3DCC
:102AB00025640A0058025802584D584DB004F0558C
:102AC000F055B00478797A63616C5F66696E645F13
:102AD0006265645F696E64756374696F6E5F736568
:102AE0006E736F725F706F696E745F787920783D76
:102AF000256C6420793D256C64207A3D256C640A40
:102B000000203C20005741524E494E473A20467221
:102B10006F6E7420706F696E74206E6F74207265B2
:102B200061636861626C652E205920636F6F726407
:102B3000696E6174653A0000000040410000C040C9
:102B400000005C430000C04000005C4300004643BE
:102B50000000404100004643497465726174696F2A
:102B60006E3A200043616C6962726174696F6E2015
:102B70006661696C65642120436865636B207468D5
:102B800065206178657320616E642072756E2061C6
:102B90006761696E2E006572726F723A20756E6B96
:102BA0006E6F776E206D6F76650A006E6F206D6FA9
:102BB00076650A00542D636F64650A00756E6C6F4C
:102BC00061640A006C6F61640A006D6D755F676512
:102BD000745F726573706F6E7365202D2062656718
:102BE000696E206D6F76653A20006D6D755F676563
:102BF000745F726573706F6E7365282920726574D7
:102C000075726E696E673A2025640A00556E6C6FA6
:102C10006164696E672066696E69736865642032F5
:102C20000A00556E6C6F616420320A00556E6C6F3D
:102C30006164696E672066696E69736865642031D6
:102C40000A00556E6C6F616420310A004D4D5520AD
:102C500073746172747320726573706F6E64696EE1
:102C6000670A004D4D55206E6F7420726573706F4A
:102C70006E64696E670A0046696C616D656E7420EA
:102C80006F7574206F662072616E67652025642001
:102C90000A000000803F555585410000803F00003C
:102CA000C84100000040555505420000C03F0000EB
:102CB00048420000204055558542000070C1ABAA33
:102CC000A642000060C10000A0410000C0C000009A
:102CD000204100002041ABAA3A41000020C15555D7
:102CE000D540000048C2555505424D37303120458A
:102CF00034004D373031204533004D3730312045D9
:102D000032004D373031204531004D3730312045CC
:102D1000300046696C616D656E74206E72206F754F
:102D200074206F662072616E67652100206661699C
:102D30006C65642E00207375636365656465642E3D
:102D4000004D4D552063616E5F6C6F61643A0041C8
:102D500064646974696F6E616C206C6F616420617A
:102D60007474656D7074206E722E2025640A00776D
:102D70003235783230636C5F63666D0A00773235C6
:102D8000783230636C5F656E7465720A00737461CB
:102D900072740A004D4D55204F4B2E2052657375AD
:102DA0006D696E672E2E2E004D4D55204F4B2E20F7
:102DB000526573756D696E6720706F736974696FA2
:102DC0006E2E2E2E004D4D55204F4B2E20526573EA
:102DD000756D696E672074656D706572617475726A
:102DE000652E2E2E004669782074686520697373FD
:102DF000756520616E64207468656E2070726573FD
:102E00007320627574746F6E206F6E204D4D552067
:102E1000756E69742E005072657373207468652036
:102E20006B6E6F6220746F20726573756D65206EB6
:102E30006F7A7A6C652074656D70657261747572F5
:102E4000652E004D4D55206E656564732075736564
:102E50007220617474656E74696F6E2E00437574B0
:102E600074696E672066696C616D656E7400506C84
:102E7000656173652072656D6F76652066696C614A
:102E80006D656E7420616E64207468656E2070726A
:102E900065737320746865206B6E6F622E00456ADF
:102EA000656374696E672066696C616D656E740038
:102EB0004D4D55206C6F6164206661696C656420BE
:102EC000202020200025632533642F2564256300FE
:102ED00055564C4F202D20656E642025640A005500
:102EE000564C4F5F54494E59202D20656E64202565
:102EF000640A00776F726C6420636F6F7264696E2E
:102F0000617465733A2028252E33662C20252E33D4
:102F1000662C20252E3366290A0043757272656E71
:102F20007420706F73205A5F415849533A252E33ED
:102F3000660A43757272656E7420706F7320455F08
:102F4000415849533A252E33660A0041667465722A
:102F50002077616974696E6720666F722074656D91
:102F6000703A0A43757272656E7420706F732058E0
:102F70005F415849533A252E33660A43757272658C
:102F80006E7420706F7320595F415849533A252E53
:102F900033660A00494E5434007265636F76657279
:102FA0005F6D616368696E655F73746174655F61AD
:102FB000667465725F706F7765725F70616E69636A
:102FC0002C20696E697469616C2000505255534120
:102FD0002075766C6F004734205330004D32362018
:102FE00053256C75004D3130362053004D32323050
:102FF0002053256400473120462564004D383200B7
:103000004739322045004731204525302E33662090
:103010004632373030004731205A2566005052552D
:103020005341204D424C20563100473120582566EF
:103030002059256620463330303000506F73697454
:10304000696F6E20726561642066726F6D206565C0
:1030500070726F6D3A004D3233202573002E676316
:103060006F002C20666565646D756C7469706C7991
:103070003A0046656564726174653A0047312045DF
:10308000252D302E33662046323730300047312030
:1030900045352046313230004D3833004D3130391E
:1030A00020532564004D31393020532564004D31C3
:1030B00030342053256400473238205820590047C7
:1030C00031205A252E3366204638303000473120D3
:1030D0005A252D302E33662046252D302E3366009E
:1030E00047312045252D302E33662046323730308B
:1030F000004D38330000002110422063308440A589
:1031000050C660E770088129914AA16BB18CC1ADAE
:10311000D1CEE1EFF13112100273325222B5529446
:1031200042F772D662399318837BB35AA3BDD39CFE
:10313000C3FFF3DEE36224433420040114E664C7D2
:1031400074A44485546AA54BB528850995EEE5CF4E
:10315000F5ACC58DD55336722611163006D776F6E6
:10316000669556B4465BB77AA719973887DFF7FE9E
:10317000E79DD7BCC7C448E5588668A77840086172
:103180001802282338CCC9EDD98EE9AFF9488969EE
:10319000990AA92BB9F55AD44AB77A966A711A5086
:1031A0000A333A122AFDDBDCCBBFFB9EEB799B583E
:1031B0008B3BBB1AABA66C877CE44CC55C222C0312
:1031C0003C600C411CAEED8FFDECCDCDDD2AAD0B8E
:1031D000BD688D499D977EB66ED55EF44E133E3226
:1031E0002E511E700E9FFFBEEFDDDFFCCF1BBF3ADE
:1031F000AF599F788F8891A981CAB1EBA10CD12DCD
:10320000C14EF16FE18010A100C230E320045025CF
:103210004046706760B9839893FBA3DAB33DC31C43
:10322000D37FE35EF3B1029012F322D2323542141F
:103230005277625672EAB5CBA5A89589856EF54F8F
:10324000E52CD50DC5E234C324A01481046674476F
:103250006424540544DBA7FAB79987B8975FE77EE3
:10326000F71DC73CD7D326F2369106B016576676BF
:1032700076154634564CD96DC90EF92FE9C899E92F
:10328000898AB9ABA94458654806782768C018E10F
:10329000088238A3287DCB5CDB3FEB1EFBF98BD883
:1032A0009BBBAB9ABB754A545A376A167AF10AD05F
:1032B0001AB32A923A2EFD0FED6CDD4DCDAABD8BCF
:1032C000ADE89DC98D267C076C645C454CA23C83AF
:1032D0002CE01CC10C1FEF3EFF5DCF7CDF9BAFBA23
:1032E000BFD98FF89F176E367E554E745E932EB2FF
:1032F0003ED10EF01E5265636F766572696E67206F
:103300007072696E742020202000506C65617365B6
:103310002077616974004737360057697A617264B3
:103320002073746174653A2025640A0045787065DD
:1033300072696D656E74616C004673656E736F7251
:1033400020446574656374696F6E004469736162DB
:103350006C65206661726D206D6F646500466172F8
:103360006D206E756D626572004D3834005368656E
:10337000657420252E37730A5A206F66667365744C
:103380003A20252B312E3366206D6D0A2563436F5D
:103390006E74696E75650A25635374617274206674
:1033A000726F6D207A65726F00506C656173652075
:1033B0006C6F61642066696C616D656E742066690E
:1033C0007273742E0049732066696C616D656E744A
:1033D000206C6F616465643F0043616E63656C00DF
:1033E00046696C616D656E740053656C656374202D
:1033F00066696C616D656E743A0052756E6E696EC9
:10340000672057697A6172642077696C6C20646503
:103410006C6574652063757272656E742063616C8F
:103420006962726174696F6E20726573756C747312
:1034300020616E642073746172742066726F6D20F7
:1034400074686520626567696E6E696E672E2043D9
:103450006F6E74696E75653F005072656865617462
:10346000696E67206E6F7A7A6C652E20506C65618C
:10347000736520776169742E004C6F6164696E67B3
:103480002066696C616D656E7400506C6561736572
:1034900020696E736572742066696C616D656E7407
:1034A00020696E746F207468652065787472756425
:1034B00065722C207468656E207072657373207459
:1034C0006865206B6E6F6220746F206C6F61642082
:1034D00069742E00506C6561736520696E73657246
:1034E000742066696C616D656E7420696E746F20FE
:1034F0007468652066697273742074756265206FE4
:103500006620746865204D4D552C207468656E20CA
:10351000707265737320746865206B6E6F622074BF
:103520006F206C6F61642069742E00546865207090
:1035300072696E7465722077696C6C207374617245
:1035400074207072696E74696E672061207A696791
:103550002D7A6167206C696E652E20526F746174DC
:103560006520746865206B6E6F6220756E74696C7F
:1035700020796F7520726561636820746865206FBB
:103580007074696D616C206865696768742E20438A
:103590006865636B20746865207069637475726513
:1035A0007320696E207468652068616E64626F6F55
:1035B0006B202843616C6962726174696F6E20636D
:1035C000686170746572292E0053656C65637420A0
:1035D00074656D7065726174757265207768696372
:1035E00068206D61746368657320796F7572206DF2
:1035F0006174657269616C2E0043686F6F7365203A
:10360000612066696C616D656E7420666F722074EE
:103610006865204669727374204C61796572204335
:10362000616C6962726174696F6E20616E6420738F
:10363000656C65637420697420696E207468652008
:103640006F6E2D73637265656E206D656E752E00ED
:103650004E6F7720492077696C6C2063616C6962DA
:10366000726174652064697374616E63652062655C
:10367000747765656E20746970206F662074686564
:10368000206E6F7A7A6C6520616E64206865617463
:1036900062656420737572666163652E00596F758B
:1036A0002063616E20616C77617973207265737538
:1036B0006D65207468652057697A6172642066724E
:1036C0006F6D2043616C6962726174696F6E202D49
:1036D0003E2057697A6172642E00506C6561736593
:1036E00020636865636B206F75722068616E646229
:1036F0006F6F6B20616E6420666978207468652046
:1037000070726F626C656D2E205468656E207265F4
:1037100073756D65207468652057697A61726420DD
:103720006279207265626F6F74696E672074686574
:10373000207072696E7465722E00416C6C20697322
:1037400020646F6E652E20486170707920707269F8
:103750006E74696E672100496620796F7520686113
:103760007665206164646974696F6E616C2073743E
:1037700065656C207368656574732C2063616C6982
:103780006272617465207468656972207072657315
:1037900065747320696E2053657474696E67732055
:1037A0002D204857205365747570202D2053746563
:1037B000656C207368656574732E00506C65617369
:1037C0006520636C65616E20686561746265642064
:1037D000616E64207468656E207072657373207406
:1037E0006865206B6E6F622E00446F20796F7520C4
:1037F00077616E7420746F20726570656174206CDF
:10380000617374207374657020746F2072656164D5
:103810006A7573742064697374616E636520626590
:10382000747765656E206E6F7A7A6C6520616E6460
:1038300020686561746265643F0053656C656374FC
:10384000206E6F7A7A6C652070726568656174208D
:1038500074656D70657261747572652077686963EF
:1038600068206D61746368657320796F7572206D6F
:103870006174657269616C2E0049732066696C61C0
:103880006D656E74206C6F616465643F00497320E0
:1038900066696C616D656E74206C6F616465643F10
:1038A000004E6F7720492077696C6C2070726568D4
:1038B000656174206E6F7A7A6C6520666F72205035
:1038C0004C412E00492077696C6C2072756E207A0D
:1038D0002063616C6962726174696F6E206E6F77CC
:1038E0002E004E6F772072656D6F76652074686567
:1038F0002074657374207072696E742066726F6DC7
:1039000020737465656C2073686565742E00506C57
:10391000656173652072656D6F7665207368697087
:1039200070696E672068656C706572732066697275
:1039300073742E00492077696C6C2072756E207844
:10394000797A2063616C6962726174696F6E206E4E
:103950006F772E2049742077696C6C2074616B65D9
:1039600020617070726F782E203132206D696E7315
:103970002E0046697273742C20492077696C6C2084
:1039800072756E207468652073656C6674657374F7
:1039900020746F20636865636B206D6F73742063A0
:1039A0006F6D6D6F6E20617373656D626C792070E1
:1039B000726F626C656D732E0048692C204920611E
:1039C0006D20796F7572204F726967696E616C2026
:1039D0005072757361206933207072696E746572FC
:1039E0002E20576F756C6420796F75206C696B653C
:1039F000206D6520746F20677569646520796F7527
:103A0000207468726F7567682074686520736574C8
:103A100075702070726F636573733F00452D636F1F
:103A200072726563743A005A2D636F7272656374C3
:103A30003A00592D636F72726563743A00582D63B2
:103A40006F72726563743A0053706F6F6C4A6F697E
:103A50006E00437574746572004669726D776172A9
:103A600065004D6F64656C00537472696374005730
:103A700061726E0048572053657475700048572076
:103A8000536574757000436865636B73004E6F7A9D
:103A90007A6C6520642E00537465656C20736865CC
:103AA000657473004E6F6E6500416C70686162658D
:103AB000740054696D6500536F727400466C6173D5
:103AC0006841697200534420636172640052506916
:103AD00020706F72740054656D702E2063616C2EBF
:103AE000004C696E2E20636F7272656374696F6E2D
:103AF000004D65736820626564206C6576656C694D
:103B00006E670048572053657475700046616E7388
:103B100020636865636B00462E206175746F6C6F5F
:103B200061640044697361626C65207374657070D0
:103B3000657273004D6F7665206178697300546516
:103B40006D70657261747572650057697A6172642F
:103B500020656E642073746174653A2025640A00E0
:103B60005072656865617420746865206E6F7A7A3A
:103B70006C6521004552524F523A0046696C616DA6
:103B8000656E7420657874727564696E672026208E
:103B90007769746820636F727265637420636F6CF9
:103BA0006F723F004175746F6C6F6164696E67205E
:103BB00066696C616D656E742069732061637469F8
:103BC00076652C206A757374207072657373207427
:103BD0006865206B6E6F6220616E6420696E73652C
:103BE00072742066696C616D656E742E2E2E0050A5
:103BF00072696E742074696D650046696C616D65EB
:103C00006E74207573656400546F74616C207072FB
:103C1000696E742074696D6500546F74616C206600
:103C2000696C616D656E74005269676874004C65FB
:103C3000667400592064697374616E6365206672EE
:103C40006F6D206D696E0053657665726520736BCC
:103C500065773A00536C6967687420736B65773ACF
:103C6000004D6561737572656420736B6577005BE9
:103C7000303B305D20706F696E74206F66667365CF
:103C8000740041646A757374696E67205A3A005211
:103C90006573657400526561722073696465205BA9
:103CA000756D5D0046726F6E7420736964655B7537
:103CB0006D5D00526967687420736964655B756D3A
:103CC0005D004C6566742073696465205B756D5D8D
:103CD000005365742074656D7065726174757265EA
:103CE0003A0054656D706572617475726520636128
:103CF0006C6962726174696F6E206661696C65647B
:103D00000054656D70657261747572652063616CD5
:103D10006962726174696F6E2069732066696E6989
:103D20007368656420616E64206163746976652ED2
:103D30002054656D702E2063616C696272617469D4
:103D40006F6E2063616E2062652064697361626CCE
:103D5000656420696E206D656E75205365747469A5
:103D60006E67732D3E54656D702E2063616C2E005E
:103D700049523A0046494E44413A0050494E444166
:103D80003A0053656E736F72207374617465002519
:103D9000533A0A2531382E32666D200A25533A0AE5
:103DA0002531306C6468202530326868646D2025C8
:103DB0003032686864730025533A0A2531382E3250
:103DC000666D200A2553203A0A2531306C64642040
:103DD00025303268686468202530326868646D0078
:103DE00025362E32666D6D0025533A0A25530A2575
:103DF000533A0A25533A0025332E326601002553E3
:103E00003A0A25530A252D31352E31355325332EC7
:103E10003266010A252D31352E31355325332E32A8
:103E20006601002020300020203100252D31322E67
:103E3000313253252B382E31660045787472756403
:103E400065723A006D6D0059005800583A00593AB1
:103E5000005A3A002563252D31332E313353252B5B
:103E6000352E33660020003E003E0020003E003E1E
:103E70000054656D70657261747572652063616C64
:103E80006962726174696F6E206661696C65642E27
:103E900020436F6E74696E75652077697468207051
:103EA00072657373696E6720746865206B6E6F62EC
:103EB0002E0054656D706572617475726520636162
:103EC0006C6962726174696F6E20646F6E652E201A
:103ED000436F6E74696E75652077697468207072BF
:103EE000657373696E6720746865206B6E6F622EF0
:103EF000002563252E3135533A257325336400455B
:103F00007872656D65207370616E206F66207468CD
:103F100065205A2076616C75657321006F6B0A000D
:103F200073746172740A004D4D5532206669726D6A
:103F3000776172652076657273696F6E20696E763F
:103F4000616C69642E2052657175697265642076B2
:103F5000657273696F6E3A206275696C64206E7564
:103F60006D626572202564206F72206869676865DC
:103F7000722E004D4D55203D3E20276F6B270A00C5
:103F80004D4D55203D3E20276F6B270A00256400CC
:103F90004D4D55203D3E20276F6B272C20726573B9
:103FA000756D65207072696E740A004D4D552072F2
:103FB0006574727920617474656D7074206E722EF0
:103FC0002025640A004D4D55203D3E20276F6B276C
:103FD0000A00410A004D4D55203C3D202741270A4B
:103FE000004D363030004D363030204155544F00B2
:103FF0002568687500410A004D4D55203C3D20273D
:1040000041270A0050300A004D25640A004D4D55E5
:10401000203C3D20274D2564270A0057300A004DDB
:104020004D55203C3D20275730270A0053330A00C6
:104030004D4D55203C3D20275333270A0052300A6E
:10404000004D4D55203C3D20275230270A004B257E
:10405000640A004D4D55203C3D20274B2564270A1E
:10406000004525640A004D4D55203C3D202745253F
:1040700064270A0055300A004D4D55203C3D20274D
:104080005530270A0043300A004D4D55203C3D2055
:10409000274330270A004C25640A004D4D55203C2B
:1040A0003D20274C2564270A005425640A004D4D05
:1040B00055203C3D2027542564270A004D4D5520AE
:1040C0002D20454E41424C454400256868750050FE
:1040D000300A004D310A004D4D55203C3D20274D02
:1040E00031270050300A004D4D55207665727369B6
:1040F0006F6E2076616C6964004D4D55203D3E2009
:104100002725646F6B270A0025750053320A004D7E
:104110004D55203C3D2027533227004D4D55203D25
:104120003E202725646F6B270A002575004D4D55ED
:10413000206E6F7420726573706F6E64696E672095
:104140002D2044495341424C45440053310A004D0F
:104150004D55203C3D2027533127004D4D55203DE6
:104160003E202773746172742700426564206C6579
:1041700076656C696E67206661696C65642E205394
:10418000656E736F72206469646E742074726967FF
:104190006765722E20446562726973206F6E206EAF
:1041A0006F7A7A6C653F2057616974696E67206623
:1041B0006F722072657365742E00506C6561736553
:1041C00020757064617465206669726D77617265CF
:1041D00020696E20796F7572204D4D55322E205713
:1041E000616974696E6720666F72207265736574A9
:1041F0002E004D363030006673656E736F725F75DA
:104200007064617465202D204D3630300A004952AB
:104210002073656E736F72206E6F74207265737099
:104220006F6E64696E672028256429210A00205773
:104230003A0020453A00543A005A206C69766520CD
:1042400061646A757374206F7574206F6620726183
:104250006E67652E2053657474696E6720746F20D5
:10426000302E20436C69636B20746F20636F6E7413
:10427000696E75652E005A206C6976652061646AE6
:10428000757374206F7574206F662072616E676538
:104290002E2053657474696E6720746F203000207F
:1042A000423A0020453A00543A0048656174696E0C
:1042B000672064697361626C656420627920736150
:1042C000666574792074696D65722E004653207698
:1042D000302E33206F72206F6C646572004653205D
:1042E00076302E34206F72206E6577657200496ECD
:1042F00061637469766974792053687574646F7743
:104300006E004B494C4C45442E20005072696E742F
:1043100065722068616C7465642E206B696C6C2812
:10432000292063616C6C656421004B494C4C3A2038
:1043300025640A004D32323120496E76616C696421
:1043400020657874727564657220004D32313820B2
:10435000496E76616C696420657874727564657203
:1043600020004D31303920496E76616C69642065DA
:104370007874727564657220004D31303520496E55
:1043800076616C696420657874727564657220006A
:104390004D31303420496E76616C696420657874E3
:1043A00072756465722000504F5745522050414E3F
:1043B00049432044455445435445440020746F6F9D
:1043C000206C6F6E6720657874727573696F6E20EC
:1043D00070726576656E7465640020636F6C64202E
:1043E000657874727573696F6E2070726576656E2C
:1043F000746564004578747275646572004D6F76FB
:1044000065205A004D6F76652059004D6F76652006
:104410005800437261736820646574656374696FE2
:104420006E2063616E0A6265207475726E65642029
:104430006F6E206F6E6C7920696E0A4E6F726D61BF
:104440006C206D6F6465005741524E494E473A0AE1
:10445000437261736820646574656374696F6E0A82
:1044600064697361626C656420696E0A5374656186
:104470006C7468206D6F6465004175746F6C6F615A
:1044800064696E672066696C616D656E7420617623
:1044900061696C61626C65206F6E6C79207768650C
:1044A0006E2066696C616D656E742073656E736FE6
:1044B00072206973207475726E6564206F6E2E2E83
:1044C0002E004552524F523A2046696C616D656E1E
:1044D000742073656E736F72206973206E6F742021
:1044E000726573706F6E64696E672C20706C6561A5
:1044F000736520636865636B20636F6E6E656374BC
:10450000696F6E2E004D6F6465206368616E67652C
:1045100020696E2070726F6772657373202E2E2E65
:104520000043616C69627261746500473830004D08
:104530003435004D3435205A006673656E736F72E2
:104540005F636865636B706F696E745F7072696ECC
:10455000740A006673656E736F722076302E342095
:10456000696E206661756C742072616E67652034B7
:104570002E362D3556202D20756E636F6E6E656359
:104580007465640A006673656E736F7220696E20CD
:10459000666F7262696464656E2072616E67652021
:1045A000312E352D3356202D20636865636B2073C3
:1045B000656E736F720A00312E3000312E35005552
:1045C0004E4B4E4F574E004C413130433A204C69D0
:1045D0006E65617220416476616E6365206D6F6403
:1045E000653A20004C413130433A2041646A75738A
:1045F00074656420452D4A65726B3A2000000E13E5
:1046000015110E00000004120912040000001C1F06
:1046100011111F00000006191803130C00040E1FCF
:10462000041C000000040A0A0A0A11110E001F15DA
:1046300011151F0000000103161C080000000011E6
:104640000A04110A040C12120C0000000025632554
:104650002D31382E3138532563005B25735D25637A
:10466000005B25535D2563002563252D31382E31F0
:10467000385300252E31305320002563252D313845
:104680002E3138732563002563252D31382E3138BE
:10469000732563002563252D2E3136532000756E5A
:1046A0006B6E6F776E2073746174650020302E34EA
:1046B000206F72206E657765720020302E33206F78
:1046C00072206F6C646572001000C90210012C0129
:1046D0004001220170011801B0010E01F001040136
:1046E0005002FA00B002F0003003E600D003DC0014
:1046F0009004D2007005C800A006BE000008B400F7
:10470000B009AA00D00BA000600E960060118C00CA
:104710000015820020197800C01D6E00A0226400E0
:10472000B0275A00902C500000314600E0343C0085
:1047300010383200903A2800603C1E00A03D140062
:10474000803E0A00203F0000202D20496E76616CDB
:104750006964206578747275646572206E756D6227
:10476000657220210070012C0190012701B0012207
:1047700001C0011D01F00118011002130130020EE9
:10478000016002090190020401C002FF000003FA67
:10479000004003F5008003F000D003EB002004E6A6
:1047A000007004E100E004DC004005D700C005D241
:1047B000004006CD00D006C8008007C3003008BE08
:1047C00000F008B900C009B400B00AAF00B00BAAED
:1047D00000D00CA500000EA000500F9B00C010964A
:1047E000005012910000148C00C0158700B0178291
:1047F00000B0197D00D01B7800001E730040206EB1
:104800000090226900F024640040275F0090295A3C
:1048100000E02B5500102E500020304B0010324687
:1048200000E033410090353C0010373700703832DB
:1048300000A0392D00B03A2800A03B2300603C1EA8
:1048400000103D1900903D1400103E0F00703E0A0C
:1048500000C03E0500003F000090137D00B01578B9
:1048600000F0177300601A6E00F01C6900A01F644E
:104870000050225F0020255A00E0275500902A5062
:1048800000202D4B00A02F4600F031410010343C99
:1048900000F0353700A037320020392D00603A286B
:1048A00000703B2300603C1E00203D1900C03D14F9
:1048B00000403E0F00A03E0A00F03E0500403F00D1
:1048C00000703FFBFF903FF6FFB03FF1FFC03FECB1
:1048D000FFD03FE7FFE03FE2FFF03FDDFFF03FD8D2
:1048E000FF20484F54454E4420544845524D414CBA
:1048F0002052554E415741590020484541544245A8
:104900004420544845524D414C2052554E41574148
:104910005900544845524D414C2052554E41574143
:10492000590042454420544845524D414C2052556F
:104930004E415741590020544845524D414C205258
:10494000554E415741592028205052454845415421
:1049500020484F54454E44290020544845524D416B
:104960004C2052554E41574159202820505245481D
:104970004541542048454154424544290050524540
:1049800048454154204552524F5200424544205020
:10499000524548454154204552524F52004572728B
:1049A0003A20002074726967676572656421004867
:1049B00065617465727320737769746368656420D8
:1049C0006F66662E20003A2000506C65617365208A
:1049D00072657374617274004D494E54454D5000B8
:1049E0004D494E54454D50204245440062757379FF
:1049F0003A2070617573656420666F7220696E700D
:104A0000757400627573793A2070617573656420FE
:104A1000666F72207573657200627573793A2070E3
:104A2000726F63657373696E670000007F43008077
:104A300054430000524300000000000080C09A99D7
:104A4000193E00000000000080C09A99193E000045
:104A5000A0400000A0400000004025336420737493
:104A600065703D253264206D73636E743D2534643A
:104A70000A0000007F43008058439AD95143FFFF4A
:104A8000FF67636F64655F4D37303120626567692A
:104A90006E0A0024F4D43050C38E20C2A240178284
:104AA0008B7011127A910D816CD90AA861E108C747
:104AB000586607615143061E4B5D05C145A7041AA0
:104AC000411104093D9803713931034036DB026519
:104AD000339102D4305402802E1D02632CEE0175F6
:104AE0002AC501B028A001102781018F2564012B60
:104AF000244B01E0223401AC211F018D200D0180E7
:104B00001FFC00841EED00971DDF00B81CD200E6DC
:104B10001BC600201BBC00641AB200B219A8000A10
:104B200019A0006A189900D117910040178B00B5A1
:104B300016840031167E00B31579003A157300C74C
:104B4000146F0058146A00EE136600881363002582
:104B5000135E00C7125B006C12570015125400C19F
:104B600011510070114F0021114B00D61049008DDA
:104B70001047004610440002104200C00F40008061
:104B80000F3E00420F3C00060F3B00CB0E38009357
:104B90000E37005C0E3500270E3400F30D3200C1D5
:104BA0000D3100900D3000600D2E00320D2D0005EE
:104BB0000D2C00D90C2B00AE0C2900850C29005CB3
:104BC0000C2700350C27000E0C2600E80B2400C42F
:104BD0000B2400A00B23007D0B23005A0B2100396E
:104BE0000B2100180B2000F80A1F00D90A1E00BB79
:104BF0000A1E009D0A1D00800A1D00630A1C004752
:104C00000A1B002C0A1B00110A1A00F7091A00DD02
:104C1000091900C4091900AB091900920917007B92
:104C2000091800630917004C091600360916002000
:104C30000916000A091500F5081500E0081400CC53
:104C4000081400B8081400A4081400900813007D8C
:104C50000812006B081300580812004608120034AE
:104C6000081100230811001208110001081100F0BA
:104C7000071000E0071000D0071000C0071000B0B8
:104C8000070F00A107100091070E0083070F0074A3
:104C9000070F0065070E0057070E0049070E003B7F
:104CA000070D002E070E0020070D0013070D00064C
:104CB000070D00F9060C00ED060D00E0060C00D40F
:104CC000060C00C8060C00BC060C00B0060C00A4C4
:104CD000060B0099060C008D060B0082060B007770
:104CE000060B006C060B0061060A0057060B004C11
:104CF000060A0042060A0038060A002E060A0024A8
:104D0000060A001A060A001006090007060A00FD36
:104D1000050900F4050900EB050900E2050900D9C1
:104D2000050900D0050900C7050900BE050900B541
:104D3000050800AD050800A50509009C05080094BC
:104D40000508008C050800840508007C050800742F
:104D50000508006C050700650508005D050700569D
:104D60000508004E05070047050700400508003804
:104D7000050700310507002A050700230507001C69
:104D8000050600160507000F0507000805060002C6
:104D9000050700FB040600F5040700EE040600E822
:104DA000040600E2040700DB040600D5040600CF79
:104DB000040600C9040600C3040600BD040600B7CB
:104DC000040600B1040500AC040600A6040600A019
:104DD0000405009B04060095040500900406008A63
:104DE00004050085040500800406007A04050075AA
:104DF000040500700405006B0405006604050061ED
:104E00000405005C04050057040500520405004D2C
:104E100004050048040500430405003E0404003A6C
:104E200004050035040500300404002C04050027A7
:104E3000040400230405001E0404001A04040016E0
:104E4000040500110404000D040400090405000415
:104E500004040000040400FC030400F8030400F44C
:104E6000030400F0030400EC030400E8030400E47E
:104E7000030400E0030400DC030400D8030400D4AE
:104E8000030400D0030400CC030400C8030300C5DE
:104E900003030024F404D9201BC40C5C0E9804C442
:104EA000095F0265077101F405F900FB04B30048CE
:104EB000048700C10369005803550003034500BE81
:104EC000023A008402310053022A0029022500041C
:104ED000022000E4011C00C8011900AF011700986E
:104EE00001140084011300710110006101100051D0
:104EF000010E0043010D0036010B002B010B0020B9
:104F0000010B00150109000C01090003010800FB59
:104F1000000800F3000800EB000700E4000600DED4
:104F2000000600D8000600D2000600CC000500C72D
:104F3000000500C2000500BD000400B9000400B572
:104F4000000400B1000400AD000400A9000400A5A5
:104F5000000300A20003009F0004009B00030098D0
:104F60000003009500020093000300900003008DF1
:104F70000002008B0003008800020086000200840B
:104F8000000300810002007F0002007D0002007B20
:104F90000002007900020077000100760002007430
:104FA00000020072000100710002006F0002006D3B
:104FB0000001006C0002006A000100690002006745
:104FC000000100660001006500010064000200624B
:104FD00000010061000100600001005F0002005D4F
:104FE0000001005C0001005B0001005A0001005953
:104FF0000001005800010057000100560001005553
:105000000001005400010053000000530001005251
:1050100000010051000100500001004F0001004E4E
:105020000000004E0001004D0001004C0001004B4B
:105030000000004B0001004A000100490001004847
:105040000000004800010047000100460000004643
:10505000000100450000004500010044000100433C
:105060000000004300010042000000420001004136
:1050700000000041000100400001003F0000003F2F
:105080000001003E0000003E0001003D0000003D28
:105090000001003C0000003C0000003C0001003B1F
:1050A0000000003B0001003A0000003A0001003916
:1050B000000000390001003800000038000000380E
:1050C0000001003700000037000100360000003604
:1050D00000000036000100350000003500000035FA
:1050E00000010034000000340000003400010033EF
:1050F00000000033000000330001003200000032E5
:1051000000000032000100310000003100000031D9
:105110000001003000000030000000300001002FCE
:105120000000002F0000002F0000002F0001002EC3
:105130000000002E0000002E0001002D0000002DB8
:105140000000002D0000002D0001002C0000002CAC
:105150000000002C0000002C0001002B0000002BA0
:105160000000002B0000002B0001002A0000002A94
:105170000000002A0000002A000100290000002988
:10518000000000290000002900000029000100287B
:10519000000000280000002800000028000000286F
:1051A0000001002700000027000000270000002762
:1051B0000000002700010026000000260000002655
:1051C0000000002600000026000100250000002548
:1051D000000000250000002500000025000000253B
:1051E000000100240000002400000024000000242E
:1051F0000000002400010023000000230000002321
:105200000000002300000023000000230000002312
:105210000001002200000022000000220000002205
:1052200000000022000000220001002100000021F7
:1052300000000021000000210000002100000021EA
:1052400000000021000100200000002000000020DC
:1052500000000020000000200000002000000020CE
:10526000000000200001001F0000001F0000001FC0
:105270000000001F0000001F0000001F0000001FB2
:105280000001001E0000001E0000001E0000001EA5
:1052900000000054696D656F75740042726967683B
:1052A00074004D6F6465004175746F0044696D0052
:1052B0004C6576656C2044696D6D6564004C65765F
:1052C000656C204272696768740046616E20737075
:1052D00065656400426564004E6F7A7A6C650053C0
:1052E000657474696E6773005072696E74206162D0
:1052F0006F727465640053746F70207072696E749D
:105300000046696C6520696E636F6D706C657465CD
:105310002E20436F6E74696E756520616E797761BA
:10532000793F004D61696E002F2F20616374696FB2
:105330006E3A63616E63656C004D3234004D3233FA
:1053400020257300052E2E004D3234004D323320BF
:105350002573006175746F25692E670022206661D0
:10536000696C65643A204275666665722066756C84
:105370006C2100456E717565696E6720746F2074CD
:1053800068652066726F6E743A2022004572726FF3
:10539000723A002200456E717565696E6720746F00
:1053A000207468652066726F6E743A20220065630F
:1053B000686F3A00454550524F4D204572726F72EA
:1053C000004D494E54454D50204245442066697871
:1053D0006564004D494E54454D5020484F54454E4C
:1053E00044206669786564004372617368004669A9
:1053F0006C616D2E2072756E6F75747300506F77CF
:105400006572206661696C7572657300546F7461B2
:105410006C206661696C75726573004372617368B4
:105420000046696C616D2E2072756E6F7574730025
:10543000506F776572206661696C75726573004C98
:10544000617374207072696E74206661696C757224
:10545000657300546F74616C004C617374207072DA
:10546000696E740050494E444100416D6269656E39
:10547000740042656C742073746174757300566FA8
:105480006C74616765730054656D706572617475E5
:105490007265730042656C74207374617475730077
:1054A00053656E736F7220696E666F004578747213
:1054B0007564657220696E666F0058595A20636181
:1054C0006C2E2064657461696C7300756E6B6E6F11
:1054D000776E004D4D553220636F6E6E6563746557
:1054E0006400446174653A00686F77746F2E70725F
:1054F00075736133642E636F6D00666F72756D2E08
:10550000707275736133642E636F6D0070727573A2
:105510006133642E636F6D0055706461746520465D
:105520004D20465700464D2046572074797065201F
:105530005B64656275675D00464D2046572074794F
:105540007065205B737461626C655D00746F2075BB
:105550006E6C6F61642066696C616D656E74007459
:105560006F206C6F61642066696C616D656E74009C
:10557000507265737320746865206B6E6F62003EB5
:1055800043616E63656C0050726568656174696E35
:105590006720746F2063757400507265686561746C
:1055A000696E6720746F20656A6563740050726568
:1055B00068656174696E6720746F20756E6C6F61C9
:1055C000640050726568656174696E6720746F204D
:1055D0006C6F616400436F6F6C646F776E0025536E
:1055E0000A20252D31362E313653252D33640A20DD
:1055F000252D31362E313653252D33640A20252DA5
:10560000372E37535820252D336420205920252D3F
:1056100033640020257325336401200A000A2049E1
:1056200052203A2020202020202025332E3166567B
:1056300000205057523A20202020202025342E319F
:1056400066560A204245443A202020202020253456
:105650002E3166560025530A20582025640A205909
:1056600020256400466C61736841697220495020AE
:10567000416464723A004D4D553220202020202094
:10568000204E2F410025642E25642E25642D25648F
:10569000002046573A0046696C2E2073656E736F82
:1056A0007220762E3A00536570203231203230322B
:1056B0003000453344763666756C6C0045494E5370
:1056C000795F31306100315F37356D6D5F4D4B3340
:1056D000002D2D2D2D2D2D2D2D2D2D2D2D0020721C
:1056E00065706F20556E6B6E6F776E0020332E39AC
:1056F0002E312D33353138004669726D7761726510
:105700003A00464D2076657273696F6E3A20004606
:105710004D2049503A200025642E25642E25642E04
:105720002564004D373032004D373031004D373071
:1057300032004D37303100464C4558202D20203264
:1057400034302F35300050502020202D202032358D
:10575000342F3130300048495053202D2020323230
:10576000302F3130300041425320202D202032355F
:10577000352F3130300050432020202D202032376B
:10578000352F3131300041534120202D2020323639
:10579000302F3130350050455420202D2020323319
:1057A000302F383500504C4120202D20203231350B
:1057B0002F3630006E6F7A7A6C65202D20203235BE
:1057C000302F30006661726D2020202D2020323570
:1057D000302F383000257500593A202575202D3E90
:1057E000202E2E2E00257500583A202575202D3E9E
:1057F000202E2E2E004D65617375726564206669DA
:105800006C616D656E742073656E736F72206C6F62
:1058100077206C6576656C3A2025342E3266560A00
:10582000004D656173757265642066696C616D65B4
:105830006E742073656E736F722068696768206C80
:105840006576656C3A2025342E3266560A00457816
:1058500074722066616E2073706565643A202564F9
:10586000200A005072696E742066616E2073706544
:1058700065643A202564200A005465737420323A26
:105880000A00457874722066616E207370656564E5
:105890003A202564200A005072696E742066616E99
:1058A0002073706565643A202564200A005465738E
:1058B0007420313A0A004D3834002563204158499C
:1058C00053205347313D25640A00436865636B6983
:1058D0006E672059206178697320200043686563F2
:1058E0006B696E6720582061786973202000496ECB
:1058F00073657274207468652066696C616D656E8D
:10590000742028646F206E6F74206C6F616420694E
:10591000742920696E746F207468652065787472CC
:105920007564657220616E64207468656E207072A3
:1059300065737320746865206B6E6F622E00566508
:1059400072696669636174696F6E206661696C650E
:10595000642C2072656D6F766520746865206669B9
:105960006C616D656E7420616E6420747279206163
:105970006761696E2E0053656E736F722076657273
:1059800069666965642C2072656D6F766520746840
:10599000652066696C616D656E74206E6F772E0090
:1059A000506C6561736520636865636B207468651E
:1059B0002049522073656E736F7220636F6E6E653F
:1059C0006374696F6E2C20756E6C6F6164206669FC
:1059D0006C616D656E742069662070726573656EAA
:1059E000742E00506C6561736520756E6C6F616418
:1059F000207468652066696C616D656E74206669E7
:105A00007273742C207468656E20726570656174A1
:105A1000207468697320616374696F6E2E0057612A
:105A20006974696E6720666F72206E6F7A7A6C6532
:105A300020616E642062656420636F6F6C696E67BD
:105A40000053656C662074657374204F4B0053657A
:105A50006C66207465737420737461727420200006
:105A600041786973206C656E677468206469666646
:105A70006572656E63653A252E33660A004D656171
:105A800073757265642061786973206C656E6774E4
:105A9000683A252E33660A00537769706520746F63
:105AA000206C6F67696E00507275736120693320D6
:105AB0004661626D616E0053657474696E67732030
:105AC00053746F7265640053746F726564207365FC
:105AD0007474696E67732072657472696576656443
