:100000000C94C2300C94F3300C94F3300C94F33015
:100010000C94F3300C94F3300C94F3300C94F330D4
:100020000C94F3300C94F3300C94F3300C94F330C4
:100030000C94F3300C94F3300C94FDBA0C94D16E04
:100040000C94F3300D94681C0C94F3300C94F33042
:100050000C94F3300C94F3300C94F3300C942EAFDA
:100060000C94F3300C94F3300C94F3300C94F33084
:100070000C94F3300C94F3300C94F3300C94F33074
:100080000C94F3300C94F3300C94F3300C94F33064
:100090000C94F3300C94F3300C94F3300C94F33054
:1000A0000C94F3300C94F3300C94756B0C94F33087
:1000B0000C94F3300C94576B0C94F3300C94F33095
:1000C0000C94F3300C94F3300C94F3300C944E6693
:1000D0000C94F3300C94F3300C94F3300C94F33014
:1000E0000C94F3304AAF58AF66AF73AF85AF8CAFA7
:1000F000AEAFC4AF7FCF8ACF34CF01CFD0CE88D2BE
:10010000C6CFF0D085D1DAD1F7D12FD239DD39DDA4
:100110003CDD39DD3CDD48DD4BDD0CE228E23AE236
:1001200047E251E283E2F6E199E2ADE2A7E2F6E1CD
:10013000B0E2CDE2E1E2F3E2BEF8C7F8D4F8D7F8D6
:10014000F0F8F3F8F6F8FFF808F911F925F928F9AD
:1001500031F93102E101C7029F0111020F02CF0202
:1001600015026501C502B70177025B0299010F0212
:10017000EB02BB01BB022D0217031B036702CB017D
:10018000DB020B02DD01F7011D03A3027501F5027D
:10019000A502DB0287025702B9021F02EF021F020B
:1001A000C902D102DF011F021F026701E502F3024B
:1001B000EB018701E9029B027F014B017102E9011A
:1001C000AB020303084AD73B3BCE016E84BCBFFDA4
:1001D000C12F3D6C74319ABD56833DDA3D00C77F17
:1001E00011BED9E4BB4C3E916BAAAABE00000080B0
:1001F0003F05A84CCDB2D44EB93836A9020C50B93F
:10020000918688083CA6AAAA2ABE000000803F0763
:10021000634236B79BD8A71A39685618AEBAAB55A1
:100220008C1D3CB7CC5763BD6DEDFD753EF6177266
:1002300031BF000000803F08000000BE9224491238
:100240003EABAAAA2ABECDCCCC4C3E00000080BE5C
:10025000ABAAAAAA3E00000000BF000000803F0039
:1002600000000000084178D3BB4387D1133D190E2D
:100270003CC3BD4282AD2B3E68EC8276BED98FE195
:10028000A93E4C80EFFFBE01C4FF7F3F000000008D
:1002900000000C94F8F30D94265A0C94ADE20C94E3
:1002A000EFF30D94EA260C94F0D00C9459F50C94CD
:1002B0000ADE0C9483E20C94F6E10C9401CF0C94CA
:1002C000EFE00D94B6180C943ED60D9407110D94E2
:1002D0009D320C94F7D10D9451560C94CDE20C94B0
:1002E00085AF0D94D3280C94D0CE0D94D7120D94D5
:1002F00044560C94DADD0C948ACF0C94D6ED0D9410
:10030000A7590C94E4D60C94AEAF0C9499E20D94DA
:10031000C8590D943B190D94C9180C9447E20C94DC
:1003200041E00C940CD40C94A9DD0C94EAF30C94E9
:10033000F9CD0D941D110C94D2DD0C94A6660D948C
:10034000EC100C9439DD0C9451620D9436290C9408
:100350008DD30D94192B0C94AFCD0C94DAD10C9451
:1003600002DE0D9443810C948CAF0D9408170D940C
:100370000F110D9492290D9427110D9452830C9412
:10038000F3E20C943AE00D94716C0C94BBE00C9485
:1003900067DF0C9458AF0D949F120C943CDD0C94C5
:1003A0002FD20C94C2DD0C9415C80C947FE10C94F0
:1003B0000AEC0D949B560C9477EC0D94B1120D94AD
:1003C0007E320D94F9100D9407570C9412DE0C94A4
:1003D0003BF00D9480590D94D3590C94E9D60C94AC
:1003E0005CDE0C9424DE0C94F6F80C94F2DD0D9493
:1003F000B9120C9486CE0C9433EF0D9416560C94CF
:100400001ADE0C948ED20D94DC180D94CD170C943A
:100410006A620C94C9E40D94A9120D94666C0D9453
:1004200030110D94F2100D94172C0D9401110C94B1
:1004300048DD0C94E0F30D94446C0C94A6D90D9413
:10044000DB310C9415ED0C943DE30D9470570C9436
:10045000F3F80C9428E20C9467E10D9481120C944B
:10046000DBF30D94F6100C94E1E20C94EADD0D94AC
:10047000C11A0C944BDD0C94F4F30C9473AF0D94EF
:100480008B6B0C9431F40D94EE290C94FFF80D94C1
:100490007D6B0D94CB6E0D945C2A0D94202D0D94E4
:1004A000BE110C9431F90C944AAF0D94C06D0D94AB
:1004B00004130C94C6CF0D9419110D94082C0D94AF
:1004C000466B0C94D6D90C948CF50D94516C0D940C
:1004D00095120C94C7F80C94AEDD0C94A4DB0C942C
:1004E000EBEB0D94165A0D9491570D94A3180D949F
:1004F00015110C940CE20C94C4AF0D94652A0C9465
:10050000F0F80C9451E20C94B6D20D941C2D0D947D
:10051000FA120C941FEF0D94CD6B0D943B110C94BB
:1005200066AF0C9413F40C9428F90C9433E00C94FB
:1005300029EF0C94BEF80D94B2590C9488D20D9406
:1005400040110C942BE10D94CD120D94F0120D94EA
:10055000B9110C943FF40D9452590C94A5D20C94FB
:1005600098D20C9451DE0D94542D0C94B0E20C945E
:10057000B3DD0D940E130D942B110D9437110C94C3
:10058000A7E20D946D2A0C942EDE0D940B110D94A0
:10059000E8100D94DE310C9485D10C94D4F80D94B0
:1005A000FD100D944F320C943BD50C94E2DD0C946D
:1005B000CADD0C9434CF0D9418130C9493EC0C9466
:1005C000979D0D94682B0C94B8DD0D94E7570C940F
:1005D000FADD0D94BD590D9423110C9494A60D943D
:1005E0008C310C942FD50D94035A0D94E6120C9473
:1005F00008F90C944BE00D94D9280D9431110C940A
:10060000E5F30C942CD60D9436590C94D7F80C9431
:100610007FCF0C9448D70C9425F90C946FF50C946B
:100620002CE00D947B160C9411F90C9471E00D9450
:1006300086120C943AE20D948B120D94C3120C9412
:1006400030C86E616E00696E66004E414E494E497B
:100650005459494E46CDCCCC3D0AD7233C17B7D18F
:100660003877CC2B329595E6241FB14F0A00002035
:10067000410000C84200401C4620BCBE4CCA1B0EB4
:100680005AAEC59D7400407A10F35A00A0724E18FD
:10069000090010A5D4E80000E87648170000E40B34
:1006A00054020000CA9A3B000000E1F505000080FA
:1006B000969800000040420F000000A08601000054
:1006C00000102700000000E80300000000640000A4
:1006D0000000000A00000000000100000000002CE3
:1006E00076D888DC674F0823DFC1DFAE59E1B1B7A8
:1006F00096E5E3E453C63AE651997696E8E6C28475
:1007000026EB898C9B62ED407C6FFCEFBC9C9F408C
:10071000F2BAA56FA5F490055A2AF75C936B6CF9B1
:10072000676DC11BFCE0E40D47FEF520E6B500D087
:10073000ED902E0300943577050080841E0800009C
:10074000204E0A000000C80C333333330F986E126A
:10075000831141EF8D2114893BE65516CFFEE6DB70
:1007600018D1844B381BF77C1D901DA4BBE42420BA
:100770003284725E228100C9F124ECA1E53D276339
:1007800064696E6F70737578585B002564206279B8
:10079000746573207772697474656E20746F204578
:1007A0004550524F4D2061742061646472657373CB
:1007B00020307825303478004433202D2052656174
:1007C000642F577269746520454550524F4D0A0099
:1007D000442D31202D20456E646C657373206C6F41
:1007E0006F700A005344207072696E74696E6720DE
:1007F0006279746520004163746976652045787478
:1008000072756465723A2000496E76616C69642085
:100810006578747275646572005A204F66667365F8
:100820007400556E6B6E6F776E20636F6D6D616EC9
:10083000643A2022004D32303020496E76616C6976
:100840006420657874727564657220007A5F6D61EA
:10085000783A20007A5F6D696E3A2000795F6D69A1
:100860006E3A20006F70656E0054524947474552FA
:10087000454400785F6D696E3A20005265706F7272
:1008800074696E6720656E6473746F702073746131
:100890007475730053494C454E54004E4F524D41B0
:1008A0004C002553204D4F44453A205065726365F6
:1008B0006E7420646F6E653A20256868643B207012
:1008C00072696E742074696D652072656D61696E00
:1008D000696E6720696E206D696E733A2025643BEE
:1008E000204368616E676520696E206D696E733A9A
:1008F0002025640A00456E642066696C65206C6979
:10090000737400426567696E2066696C65206C6966
:100910007374000A50494E44412074656D706572CD
:1009200061747572653A20252E3166205A207368ED
:1009300069667420286D6D293A20252E3366000AD9
:10094000537465703A2025642F360A000A53746583
:10095000703A2025642F362028736B6970706564A7
:10096000290A50494E44412074656D706572617466
:100970007572653A202564205A2073686966742070
:10098000286D6D293A300A000A5A45524F3A2025FF
:100990002E33660A0073746172742074656D70651D
:1009A0007261747572653A20252E31660A002564DD
:1009B0002020252E326600255320583A20252E353A
:1009C0006620593A20252E3566205A3A20252E35A4
:1009D000660A00536C6565702E2E2E0045303A2550
:1009E000642052504D0A50524E303A2564205250E5
:1009F0004D0A00256400416476616E6365204B3DBD
:100A0000004B206F7574206F6620616C6C6F77658A
:100A1000642072616E676521001B5B324A1B5B318B
:100A20003B32485072757361206933204661626DB4
:100A3000616E1B5B323B3348537769706520746F7E
:100A4000206C6F67696E001B5B324A1B5B313B3267
:100A5000485072757361206933204661626D616E22
:100A60001B5B323B3348537769706520746F206C91
:100A70006F67696E001B5B324A1B5B313B3248502B
:100A800072757361206933204661626D616E1B5B14
:100A9000323B3348537769706520746F206C6F6701
:100AA000696E001B5B324A1B5B313B3248507275EA
:100AB0007361206933204661626D616E1B5B323B5E
:100AC0003348537769706520746F206C6F67696E67
:100AD000001B5B324A1B5B313B32485072757361BD
:100AE000206933204661626D616E1B5B323B334887
:100AF000537769706520746F206C6F67696E001F93
:100B00001F1F1F1F1F1F1F200A200A20004D3232E7
:100B1000302053256900255346696C616D656E74FC
:100B20002073657474696E67733A204469736162F7
:100B30006C65640A00255346696C616D656E7420AE
:100B400073657474696E67733A0A25532020204DCB
:100B50003230302044252E32660A00255352657407
:100B6000726163743A20533D4C656E677468202847
:100B70006D6D2920463A537065656420286D6D2F90
:100B80006D29205A3A205A4C69667420286D6D29C7
:100B90000A25532020204D3230372053252E32662F
:100BA0002046252E3266205A252E32660A255352BB
:100BB00065636F7665723A20533D457874726120A3
:100BC0006C656E67746820286D6D2920463A5370F5
:100BD00065656420286D6D2F6D290A25532020201E
:100BE0004D3230382053252E32662046252E32666F
:100BF0000A25534175746F2D526574726163743A9E
:100C000020533D3020746F2064697361626C652CE1
:100C1000203120746F20696E746572707265742063
:100C2000657874727564652D6F6E6C79206D6F7662
:100C30006573206173207265747261637473206FD1
:100C400072207265636F7665726965730A25532039
:100C500020204D323039205325640A002553504955
:100C60004420686561746265642073657474696E9C
:100C700067733A0A25532020204D33303420502505
:100C80002E32662049252E32662044252E32660AF1
:100C90000025535049442073657474696E67733A34
:100CA0000A25532020204D3330312050252E326626
:100CB0002049252E32662044252E32660A0025530F
:100CC00053746570732070657220756E69743A0A8A
:100CD000255320204D39322058252E3266205925A3
:100CE0002E3266205A252E32662045252E32660A7F
:100CF00025534D6178696D756D2066656564726117
:100D000074657320286D6D2F73293A0A25532020AE
:100D10004D3230332058252E32662059252E32662A
:100D2000205A252E32662045252E32660A25534D3F
:100D30006178696D756D20616363656C657261745E
:100D4000696F6E20286D6D2F7332293A0A25532062
:100D5000204D3230312058256C752059256C752076
:100D60005A256C752045256C750A255341636365CA
:100D70006C65726174696F6E3A20503D7072696E75
:100D8000742C20523D726574726163742C20543D42
:100D900074726176656C0A255320204D3230342000
:100DA00050252E32662052252E32662054252E32B2
:100DB000660A2553416476616E63656420766172CC
:100DC0006961626C65733A20533D4D696E206665BA
:100DD00065647261746520286D6D2F73292C205411
:100DE0003D4D696E2074726176656C206665656440
:100DF0007261746520286D6D2F73292C20423D6D22
:100E0000696E696D756D207365676D656E742074AC
:100E1000696D6520286D73292C20583D6D617869B6
:100E20006D756D205859206A65726B20286D6D2F85
:100E300073292C20205A3D6D6178696D756D205A9B
:100E4000206A65726B20286D6D2F73292C20204538
:100E50003D6D6178696D756D2045206A65726B2006
:100E6000286D6D2F73290A255320204D32303520EF
:100E700053252E32662054252E32662042252E32EE
:100E8000662058252E32662059252E3266205A2596
:100E90002E32662045252E32660A2553486F6D6531
:100EA000206F666673657420286D6D293A0A255394
:100EB00020204D3230362058252E32662059252EDE
:100EC0003266205A252E32660A00462564202564A3
:100ED0000A004D4D55203C3D2027462564202564C1
:100EE000270A00504944204175746F74756E65205F
:100EF00066696E6973686564212050757420746832
:100F000065206C617374204B702C204B6920616EDE
:100F100064204B6420636F6E7374616E747320661B
:100F2000726F6D2061626F766520696E746F204309
:100F30006F6E66696775726174696F6E2E680050B6
:100F40004944204175746F74756E65206661696CE3
:100F50006564212074696D656F75740020403A00E6
:100F6000543A00423A00504944204175746F7475F8
:100F70006E65206661696C6564212054656D7065DD
:100F800072617475726520746F6F2068696768009C
:100F9000204B643A2000204B693A2000204B703AE5
:100FA000200020436C617373696320504944200022
:100FB0002054753A2000204B753A2000206D61784E
:100FC0003A2000206D696E3A200020643A2000200B
:100FD000626961733A20004361703A25533A256390
:100FE0000A00455854454E4445445F4D3230004157
:100FF00055544F5245504F52545F504F53495449E6
:101000004F4E004155544F5245504F52545F464148
:101010004E53004155544F5245504F52545F544522
:101020004D50000044656C6574696F6E206661699F
:101030006C65642C2046696C653A200046696C65D5
:101040002064656C657465643A004E6F7420534487
:10105000207072696E74696E67005072696E7420D8
:101060007361766564005344207072696E742070F9
:1010700061757365640022283229004475706C69BB
:101080006361746520542D636F64652069676E6FBA
:101090007265642E00496E76616C69642054206329
:1010A0006F64652E00556E6B6E6F776E204D2063FA
:1010B0006F64653A202573200A006E6F2076616C9C
:1010C000696420636F6D6D616E64002C20002C20BC
:1010D000002C20006E2F61002C20002C20002C20E2
:1010E000006E2F6100503A005761697420666F727C
:1010F0002050494E444120746172676574207465C4
:101100006D70657261747572653A004155544F0097
:101110004C414E472053454C20464F5243454400D6
:10112000256925250A00256925250A002228312957
:101130000030303030303030302D303030302D30E5
:101140003030302D303030302D30303030303030A5
:1011500030303030300020555549443A00310020BD
:1011600045585452554445525F434F554E543A00EA
:101170005072757361206933204D4B322E35530008
:10118000204D414348494E455F545950453A00313E
:101190002E3000206261736564206F6E204D617295
:1011A0006C696E204649524D574152455F55524C2D
:1011B0003A68747470733A2F2F6769746875622E79
:1011C000636F6D2F707275736133642F5072757316
:1011D000612D4669726D776172652050524F544F90
:1011E000434F4C5F56455253494F4E3A0046495281
:1011F0004D574152455F4E414D453A5072757361AE
:101200002D4669726D7761726520004D3131332052
:10121000530020423A0020453A00543A006F6B20B8
:10122000006E2F61003F546F736869626120466CE5
:10123000617368416972204765744950206661692D
:101240006C65640A002569206D696E2C2025692073
:1012500073656300496E76616C6964204D20636F2D
:1012600064653A202573200A00556E6B6E6F776EA9
:10127000204720636F64653A202573200A004D657E
:10128000736820626564206C6576656C696E6720A2
:101290006E6F74206163746976652E002020000AE9
:1012A0004D6561737572656420706F696E74733A11
:1012B000000A5A207365617263682068656967680F
:1012C000743A20004E756D20582C593A2000504930
:1012D0004E44412070726F62652063616C69627276
:1012E0006174696F6E2073746172740047323820C4
:1012F0005730004E6F2050494E444120746865724B
:101300006D6973746F7200736574006E6F7A7A6CB6
:1013100065004D424C0046520042656174004C7AB3
:10132000004C616E67005265760046697200534E4C
:1013300020696E76616C696400534E004D3238004E
:101340005245534554004D4D55524553004D32348E
:101350000075766C6F007468780046414E00464117
:101360004E50494E5453540050524E0050696E67CF
:10137000005052555341004D3120004D30004D3149
:10138000313700472D636F646520736C6963656452
:1013900020666F72206120646966666572656E748E
:1013A000206C6576656C2E20436F6E74696E756572
:1013B0003F00472D636F646520736C69636564202B
:1013C000666F72206120646966666572656E74205E
:1013D0006C6576656C2E20506C6561736520726556
:1013E0002D736C69636520746865206D6F64656C2E
:1013F00020616761696E2E205072696E742063618E
:101400006E63656C6C65642E00472D636F646520A8
:10141000736C6963656420666F722061206E657706
:101420006572206669726D776172652E20506C65F9
:1014300061736520757064617465207468652066E9
:1014400069726D776172652E205072696E742063C7
:10145000616E63656C6C65642E00472D636F646517
:1014600020736C6963656420666F722061206E650D
:10147000776572206669726D776172652E20436FA1
:101480006E74696E75653F00472D636F64652073E8
:101490006C6963656420666F7220612064696666AA
:1014A0006572656E74207072696E746572207479ED
:1014B00070652E20436F6E74696E75653F00472D11
:1014C000636F646520736C6963656420666F722066
:1014D0006120646966666572656E74207072696EFB
:1014E00074657220747970652E20506C6561736527
:1014F0002072652D736C69636520746865206D6F5B
:1015000064656C20616761696E2E205072696E742B
:101510002063616E63656C6C65642E005072696E49
:10152000746572206973206F7574206F66206F7206
:101530006465722E00596F7520617265206E6F743C
:1015400020616C6C6F77656420746F207573652003
:1015500074686973207072696E746572206F757437
:1015600073696465206F70656E696E6720686F755A
:1015700072732E00596F7520646F206E6F7420682F
:101580006176652072657175697265642074726137
:10159000696E696E6720636F7572736521210059EA
:1015A0006F7520646F206E6F7420686176652061AE
:1015B0006374697665207061636B6167652E205086
:1015C0006C6561736520627579206F6E652E0053BE
:1015D0006F7272792C204920616D206E6F74206FBC
:1015E0006E6C696E65207269676874206E6F772E05
:1015F00020506C6561736520747279206D65206C74
:10160000617465722E005570646174696E6720465E
:101610004D2066772E2E005072757361206933203D
:101620004661626D616E0050726573732074686507
:10163000206B6E6F6220746F2070726568656174D4
:10164000206E6F7A7A6C6520616E6420636F6E74B1
:10165000696E75652E00506C6561736520707265EA
:10166000737320746865206B6E6F6220746F2075D1
:101670006E6C6F61642066696C616D656E7400529A
:10168000656D6F7665206F6C642066696C616D6551
:101690006E7420616E642070726573732074686567
:1016A000206B6E6F6220746F207374617274206C93
:1016B0006F6164696E67206E65772066696C616D25
:1016C000656E742E00616E64207072657373207491
:1016D0006865206B6E6F6200496E73657274206678
:1016E000696C616D656E7400436F6C6F72206E6F14
:1016F0007420636F72726563740046696C616D6516
:101700006E74206E6F74206C6F6164656400436852
:10171000616E67656420636F72726563746C793F94
:10172000004C6F6164696E6720636F6C6F72004379
:1017300068616E676520737563636573732100501C
:101740006C65617365206F70656E2069646C65728D
:1017500020616E642072656D6F76652066696C61CC
:101760006D656E74206D616E75616C6C792E0057BD
:1017700061732066696C616D656E7420756E6C6F47
:101780006164207375636365737366756C3F0050A5
:101790006C6561736520757067726164652E004EBB
:1017A0006577206669726D77617265207665727300
:1017B000696F6E20617661696C61626C653A005791
:1017C000616974696E6720666F722050494E4441AA
:1017D0002070726F626520636F6F6C696E67004383
:1017E000686F6F73652065787472756465723A000E
:1017F00043686F6F73652066696C616D656E743ADE
:10180000004E6F206D6F76652E00537461626C65BB
:1018100020616D6269656E742074656D70657261BA
:10182000747572652032312D323643206973206E13
:1018300065656465642061207269676964207374FA
:10184000616E642069732072657175697265642EBA
:1018500000506C656173652072756E2058595A206E
:1018600063616C6962726174696F6E20666972731C
:10187000742E005761697420666F722075736572EB
:101880002E2E2E0058300A003B53006164635F69BE
:101890006E6974000A204F726967696E616C20502E
:1018A000727573612069330A20202050727573614C
:1018B00020526573656172636800200A200A200A5D
:1018C0002000416C6C20446174610053657276693C
:1018D00063652070726570005368697070696E6727
:1018E00020707265700053746174697374696373F6
:1018F000004C616E67756167650045524153494E02
:101900004720616C6C206461746100466163746F90
:1019100072792052455345540044495341424C4545
:101920004400454E41424C4544004653656E736F3A
:101930007220255300505255534133444657004DB1
:101940004B322E35534D4D553253001C4F4D4B32BB
:101950002E35530002004A616E203132203230327F
:101960003200436F6D70696C65643A2000286E6FB9
:101970006E652C2064656661756C7420636F6E669D
:10198000696729004A616E203132203230323220BC
:1019900032313A32333A31380020332E31302E3062
:1019A0002D3434383100737461727400534E2075D5
:1019B0007064617465206661696C656400534E20D3
:1019C0007570646174656400416E206572726F7237
:1019D000207768696C652077726974696E67207416
:1019E0006F2074686520534420436172642E002088
:1019F00055706C6F616420696E2070726F677265DC
:101A0000737300205A3A0020593A0020583A004D8A
:101A10003239005468657265206973207374696C8B
:101A20006C2061206E65656420746F206D616B654C
:101A3000205A2063616C6962726174696F6E2E2036
:101A4000506C6561736520666F6C6C6F772074688D
:101A500065206D616E75616C2C20636861707465C2
:101A6000722046697273742073746570732C2073CE
:101A7000656374696F6E2043616C69627261746939
:101A80006F6E20666C6F772E005072696E7465728F
:101A900020686173206E6F74206265656E206361DB
:101AA0006C69627261746564207965742E20506C73
:101AB0006561736520666F6C6C6F77207468652054
:101AC0006D616E75616C2C20636861707465722045
:101AD00046697273742073746570732C2073656328
:101AE00074696F6E2043616C6962726174696F6EB4
:101AF00020666C6F772E004F6C6420736574746978
:101B00006E677320666F756E642E2044656661751E
:101B10006C74205049442C204573746570732065A3
:101B200074632E2077696C6C206265207365742E57
:101B3000005761726E696E673A20626F7468207038
:101B400072696E746572207479706520616E6420AC
:101B50006D6F74686572626F61726420747970650C
:101B6000206368616E6765642E005761726E696EEE
:101B7000673A207072696E7465722074797065209E
:101B80006368616E6765642E005761726E696E6787
:101B90003A206D6F74686572626F61726420747947
:101BA0007065206368616E6765642E002020506C4C
:101BB000616E6E65724275666665724279746573B0
:101BC0003A20002046726565204D656D6F72793A46
:101BD0002000207C20417574686F723A2000204CF0
:101BE00061737420557064617465643A20002053F9
:101BF0006F66747761726520526573657400205753
:101C000061746368646F6720526573657400204275
:101C1000726F776E206F7574205265736574002043
:101C200045787465726E616C2052657365740050FE
:101C30006F7765725570006572726F722077726986
:101C400074696E6720746F2066696C6500656E64E8
:101C500073746F7073206869743A2000446F6E6506
:101C600020736176696E672066696C652E006F6B04
:101C700000537769706520746F206C6F67696E0020
:101C80005072757361206933204661626D616E0028
:101C900053657474696E67732053746F7265640062
:101CA00053746F7265642073657474696E67732012
:101CB0007265747269657665640048617264636F09
:101CC0006465642044656661756C74205365747442
:101CD000696E6773204C6F61646564005632000062
:101CE0000000C8420000C8420000C843000005438D
:101CF0000000484300004843000040410000F0421B
:101D0000E8030000E8030000C8000000881300009A
:101D100000409C4400409C44000000000000000083
:101D2000204E00000000204100002041CDCCCC3EE0
:101D300000009040000000000000000000000000D3
:101D4000CDCCCC3E3D0A8141FF08433EB099AB4328
:101D50008F42FC42E65A343F4C62B045000000001E
:101D6000004040000034420000000000000000007D
:101D7000000041000000E03F00002C4300002C4325
:101D8000000040410000F042C0030000C00300001A
:101D9000C8000000881300001010101000409C4480
:101DA000627573793A2070617573656420666F722D
:101DB00020696E70757400627573793A2070617570
:101DC00073656420666F7220757365720062757347
:101DD000793A2070726F63657373696E67000000F3
:101DE0007A4300005243000052430000000000000C
:101DF00080C09A99193E00000000000080C09A99A6
:101E0000193E20503A002042403A0020403A00203B
:101E10002F00205400202F0020423A00202F005491
:101E20003A0058595A2063616C6962726174696F33
:101E30006E20616C6C2072696768742E20536B652C
:101E4000772077696C6C20626520636F72726563BE
:101E5000746564206175746F6D61746963616C6C25
:101E6000792E0058595A2063616C696272617469F5
:101E70006F6E20616C6C2072696768742E20582F19
:101E80005920617865732061726520736C69676899
:101E9000746C7920736B657765642E20476F6F646F
:101EA000206A6F62210058595A2063616C6962721E
:101EB0006174696F6E206F6B2E20582F59206178E6
:101EC0006573206172652070657270656E64696308
:101ED000756C61722E20436F6E67726174756C61F0
:101EE00074696F6E73210058595A2063616C69627E
:101EF000726174696F6E206661696C65642E205230
:101F0000696768742066726F6E742063616C6962C1
:101F1000726174696F6E20706F696E74206E6F7479
:101F200020726561636861626C652E0058595A20A1
:101F300063616C6962726174696F6E206661696C5D
:101F400065642E2046726F6E742063616C696272E4
:101F50006174696F6E20706F696E7473206E6F7438
:101F600020726561636861626C652E0058595A2061
:101F700063616C6962726174696F6E206661696C1D
:101F800065642E20506C6561736520636F6E737598
:101F90006C7420746865206D616E75616C2E0058DC
:101FA000595A2063616C6962726174696F6E206353
:101FB0006F6D70726F6D697365642E20526967680A
:101FC000742066726F6E742063616C6962726174F2
:101FD000696F6E20706F696E74206E6F7420726509
:101FE00061636861626C652E0058595A2063616CA8
:101FF0006962726174696F6E20636F6D70726F6D6C
:10200000697365642E2046726F6E742063616C691B
:1020100062726174696F6E20706F696E7473206E86
:102020006F7420726561636861626C652E00585937
:102030005A2063616C6962726174696F6E206661B7
:10204000696C65642E204265642063616C6962720C
:102050006174696F6E20706F696E74207761732090
:102060006E6F7420666F756E642E00506C656173C0
:102070006520706C61636520737465656C2073689E
:10208000656574206F6E20686561746265642E00FA
:1020900044697374616E6365206265747765656E0B
:1020A00020746970206F6620746865206E6F7A7A7C
:1020B0006C6520616E6420746865206265642073BD
:1020C00075726661636520686173206E6F7420624B
:1020D00065656E20736574207965742E20506C657B
:1020E00061736520666F6C6C6F7720746865206D16
:1020F000616E75616C2C2063686170746572204636
:10210000697273742073746570732C2073656374C3
:10211000696F6E204669727374206C6179657220F4
:1021200063616C6962726174696F6E2E00506C61DC
:1021300063652061207368656574206F6620706137
:1021400070657220756E64657220746865206E6FAC
:102150007A7A6C6520647572696E67207468652090
:1021600063616C6962726174696F6E206F6620666C
:1021700069727374203420706F696E74732E2049F5
:102180006620746865206E6F7A7A6C65206361746E
:1021900063686573207468652070617065722C20B7
:1021A000706F776572206F66662074686520707244
:1021B000696E74657220696D6D6564696174656CC2
:1021C000792E00506C656173652072656D6F766560
:1021D00020737465656C2073686565742066726F22
:1021E0006D20686561746265642E004973207374A4
:1021F00065656C207368656574206F6E2068656125
:10220000746265643F00536561726368696E67203C
:102210006265642063616C6962726174696F6E20CB
:10222000706F696E74004D6561737572696E6720B9
:102230007265666572656E63652068656967687456
:10224000206F662063616C6962726174696F6E20D1
:10225000706F696E7400506C6561736520636C65A6
:10226000616E20746865206E6F7A7A6C6520666F87
:10227000722063616C6962726174696F6E2E2043B3
:102280006C69636B207768656E20646F6E652E00E5
:102290004175746F20686F6D65004D65617375726F
:1022A000656420736B6577733A2025662025660A7E
:1022B0000046697474696E67206661696C656420A4
:1022C0003D3E2063616C6962726174696F6E206665
:1022D00061696C65642E0A0043616C6962726174A5
:1022E000696F6E20737563636573732E0A00416CAA
:1022F0006C20342063616C6962726174696F6E2056
:10230000706F696E747320666F756E642E0A00318B
:102310002F3400312F3400312F390078797A6361FE
:102320006C5F6D656173737572655F656E74657200
:102330000A0078797A63616C5F73706972616C38D6
:102340002063783D25642063793D2564207A303D03
:10235000256420647A3D2564207261646975733D4B
:1023600025642061643D25640A0078797A63616C94
:102370005F7365617263685A206E6F207369676E60
:10238000616C0A20783D256C6420793D256C6420C1
:102390007A3D256C640A00204F4E2D5349474E412B
:1023A0004C20617420783D256420793D2564207A95
:1023B0003D25642061643D25640A0078797A636173
:1023C0006C5F7365617263685A20783D256C642088
:1023D000793D256C64207A3D256C640A0025640AE9
:1023E000005363616E20636F756E74646F776E3A2D
:1023F00020000A002530327800205B256620256603
:102400005D206D6D207061747465726E2063656E01
:102410007465720A00205B25662025665D5B256673
:102420005D206D6D20646976657267656E63650A0F
:10243000000000F000F801FC03FE07FE07FE07FEA7
:1024400007FC03F801F000000000000000F000F8B5
:1024500001FC03FC03FC03FC03F801F00000000096
:102460000078797A63616C5F6D656173737572650D
:102470005F6C656176650A00203C20005741524E32
:10248000494E473A2046726F6E7420706F696E74C1
:10249000206E6F7420726561636861626C652E20C6
:1024A0005920636F6F7264696E6174653A00000051
:1024B0000040410000804000005C4300008040007C
:1024C000005C4300004443000040410000444325B9
:1024D000642F3400497465726174696F6E3A20002C
:1024E00043616C6962726174696F6E206661696CC8
:1024F00065642120436865636B207468652061789A
:10250000657320616E642072756E20616761696E0B
:102510002E004D4D55206C6F6164206661696C65BD
:10252000640020746F6F206C6F6E67206578747222
:102530007573696F6E2070726576656E7465640080
:1025400020636F6C6420657874727573696F6E2098
:1025500070726576656E74656400000E1315110E59
:1025600000000004120912040000001C1F11111FBA
:1025700000000006191803130C00040E1F041C00B1
:102580000000040A0A0A0A11110E001F1511151F76
:102590000000000103161C0800000000110A0411CD
:1025A0000A040C12120C000000002563252D31389E
:1025B0002E313853256300252E31305320002563FA
:1025C000252D31382E3138732563002563252D31B3
:1025D000382E3138732563002563252D2E3136536F
:1025E00020005B25735D2563005B25535D2563003B
:1025F0002563252D31382E313853002563252E31A2
:1026000035533A257325336400252D32302E323070
:10261000530A00457872656D65207370616E206F96
:102620006620746865205A2076616C756573210098
:1026300025642F39006F6B0A00426564206C657653
:10264000656C696E67206661696C65642E205365F0
:102650006E736F72206469646E2774207472696788
:102660006765722E20446562726973206F6E206EFA
:102670006F7A7A6C653F2057616974696E6720666E
:102680006F722072657365742E00312F390022201D
:102690006661696C65643A2042756666657220669B
:1026A000756C6C21002200256920686F757273209B
:1026B0002569206D696E757465730054494D454FE9
:1026C00055543A004D3131300046756C6C205258EB
:1026D0002042756666657200437573746F6D0053B2
:1026E0006174696E200054657874757200536D6F63
:1026F0006F74680047312059252D2E3266204525FC
:102700002D2E3366004731205825642059252D2E63
:1027100032662045252D2E3366006673656E736F15
:10272000725F636865636B706F696E745F70726906
:102730006E7400312E3000312E3500554E4B4E4F09
:10274000574E004C413130433A204C696E656172FE
:1027500020416476616E6365206D6F64653A200088
:102760004C413130433A2041646A7573746564208A
:10277000452D4A65726B3A2000656E717565696E0C
:1027800067202200446F6E65207072696E74696EF6
:10279000672066696C65004D3131322063616C6C75
:1027A00065642E20456D657267656E63792053748C
:1027B0006F702E005072696E7465722073746F7042
:1027C0007065642064756520746F206572726F7225
:1027D000732E2046697820746865206572726F7266
:1027E00020616E6420757365204D39393920746F0E
:1027F00020726573746172742E202854656D706543
:102800007261747572652069732072657365742EC8
:102810002053657420697420616674657220726546
:102820007374617274696E6729004E6F204C696E13
:1028300065204E756D6265722077697468206368E3
:1028400065636B73756D2C204C617374204C696EDD
:10285000653A20004E6F20436865636B73756D2089
:1028600077697468206C696E65206E756D6265723B
:102870002C204C617374204C696E653A20006368AB
:1028800065636B73756D206D69736D617463682C1E
:10289000204C617374204C696E653A20004C696E5F
:1028A00065204E756D626572206973206E6F7420AD
:1028B0004C617374204C696E65204E756D62657253
:1028C0002B312C204C617374204C696E653A2000CA
:1028D00053544F505045442E001000C90210012C93
:1028E000014001220170011801B0010E01F0010444
:1028F000015002FA00B002F0003003E600D003DC21
:10290000009004D2007005C800A006BE000008B404
:1029100000B009AA00D00BA000600E960060118CD8
:10292000000015820020197800C01D6E00A02264EE
:1029300000B0275A00902C500000314600E0343C93
:102940000010383200903A2800603C1E00A03D1470
:1029500000803E0A00203F0000457874727564656F
:10296000722066616E207370656564206973206CE7
:102970006F776572207468616E2065787065637426
:102980006564005072696E742066616E20737065B4
:102990006564206973206C6F776572207468616E5E
:1029A000206578706563746564004D494E54454DEB
:1029B00050004D494E54454D5020424544004D4134
:1029C0005854454D50004D415854454D50204245B6
:1029D0004400202D20496E76616C6964206578740E
:1029E0007275646572206E756D626572202100706B
:1029F000012C0190012701B0012201C0011D01F04D
:102A00000118011002130130020E01600209019049
:102A1000020401C002FF000003FA004003F5008039
:102A200003F000D003EB002004E6007004E100E0B6
:102A300004DC004005D700C005D2004006CD00D020
:102A400006C8008007C3003008BE00F008B900C007
:102A500009B400B00AAF00B00BAA00D00CA500006A
:102A60000EA000500F9B00C0109600501291000065
:102A7000148C00C0158700B0178200B0197D00D0FB
:102A80001B7800001E730040206E0090226900F049
:102A900024640040275F0090295A00E02B55001065
:102AA0002E500020304B0010324600E033410090A1
:102AB000353C001037370070383200A0392D00B097
:102AC0003A2800A03B2300603C1E00103D190090F6
:102AD0003D1400103E0F00703E0A00C03E0500008D
:102AE0003F000020484F54454E4420544845524D25
:102AF000414C2052554E41574159002048454154C0
:102B000042454420544845524D414C2052554E4177
:102B100057415900544845524D414C2052554E4161
:102B20005741590042454420544845524D414C209C
:102B300052554E415741590020544845524D414C41
:102B40002052554E41574159202820505245484562
:102B5000415420484F54454E442900205448455282
:102B60004D414C2052554E4157415920282050523A
:102B70004548454154204845415442454429005068
:102B8000524548454154204552524F520042454417
:102B90002050524548454154204552524F5200451D
:102BA00072723A20002074726967676572656421E9
:102BB0000048656174657273207377697463686532
:102BC00064206F66662E20003A2000506C656173A9
:102BD000652072657374617274004572723A205098
:102BE00052494E542046414E204552524F52007396
:102BF000746172740A004D4D5532206669726D77AA
:102C00006172652076657273696F6E20696E766198
:102C10006C69642E205265717569726564207665F1
:102C20007273696F6E3A206275696C64206E756D9F
:102C3000626572202564206F72206869676865721A
:102C40002E004D4D55203D3E20276F6B270A004D2D
:102C50004D55203D3E20276F6B270A002564004D0F
:102C60004D55203D3E20276F6B272C2072657375D4
:102C70006D65207072696E740A004D4D5520726545
:102C800074727920617474656D7074206E722E2078
:102C900025640A004D4D55203D3E20276F6B270AC5
:102CA00000410A004D4D55203C3D202741270A0098
:102CB0004D363030004D363030204155544F0025D0
:102CC00068687500410A004D4D55203C3D20274164
:102CD000270A0050300A004D25640A004D4D55204A
:102CE0003C3D20274D2564270A0057300A004D4DF2
:102CF00055203C3D20275730270A0053330A004D0A
:102D00004D55203C3D20275333270A0052300A00FE
:102D10004D4D55203C3D20275230270A004B25645D
:102D20000A004D4D55203C3D20274B2564270A00C5
:102D30004525640A004D4D55203C3D20274525641E
:102D4000270A0055300A004D4D55203C3D2027559F
:102D500030270A0043300A004D4D55203C3D2027C6
:102D60004330270A004C25640A004D4D55203C3D58
:102D700020274C2564270A005425640A004D4D5530
:102D8000203C3D2027542564270A004D4D55202D19
:102D900020454E41424C454400256868750050303E
:102DA0000A004D310A004D4D55203C3D20274D3144
:102DB00027004D4D552076657273696F6E207661E0
:102DC0006C6964004D4D55203D3E202725646F6B96
:102DD000270A0025750053320A004D4D55203C3D11
:102DE0002027533227004D4D55203D3E2027256496
:102DF0006F6B270A002575004D4D55206E6F7420AE
:102E0000726573706F6E64696E67202D204449533C
:102E100041424C45440053310A004D4D55203C3D44
:102E20002027533127004D4D55203D3E20277374F8
:102E300061727427006572726F723A20756E6B6EE4
:102E40006F776E206D6F7665006E6F206D6F7665A3
:102E500000542D636F646500756E6C6F6164006C67
:102E60006F6164006D6D755F6765745F7265737027
:102E70006F6E7365202D20626567696E206D6F76B9
:102E8000653A20006D6D755F6765745F726573707C
:102E90006F6E736528292072657475726E696E672E
:102EA0003A2025640A00556E6C6F6164696E672074
:102EB00066696E6973686564203200556E6C6F6177
:102EC00064203200556E6C6F6164696E67206669BC
:102ED0006E6973686564203100556E6C6F616420A3
:102EE00031004D4D55207374617274732072657397
:102EF000706F6E64696E67004D4D55206E6F742063
:102F0000726573706F6E64696E670046696C616D9F
:102F1000656E74206F7574206F662072616E6765D0
:102F2000202564200A000000803F5555854100009F
:102F3000803F0000C8410000004055550542000098
:102F4000C03F000048420000204055558542000027
:102F500070C1ABAAA642000060C10000A041000001
:102F6000C0C00000204100002041ABAA3A4100004F
:102F700020C15555D540000048C2555505424D3732
:102F80003031204534004D373031204533004D3746
:102F90003031204532004D373031204531004D373A
:102FA00030312045300046696C616D656E74206E6D
:102FB00072206F7574206F662072616E67652100E4
:102FC000206661696C65642E0020737563636565B6
:102FD0006465642E004D4D552063616E5F6C6F61BA
:102FE000643A004164646974696F6E616C206C6F4F
:102FF000616420617474656D7074206E722E20257A
:10300000640A00506C656173652075706461746555
:10301000206669726D7761726520696E20796F75BF
:1030200072204D4D55322E2057616974696E6720AC
:10303000666F722072657365742E004D4D55204F7A
:103040004B2E20526573756D696E672E2E2E004DC6
:103050004D55204F4B2E20526573756D696E67205C
:10306000706F736974696F6E2E2E2E004D4D552052
:103070004F4B2E20526573756D696E672074656DB8
:1030800070657261747572652E2E2E004669782007
:1030900074686520697373756520616E6420746857
:1030A000656E20707265737320627574746F6E2024
:1030B0006F6E204D4D5520756E69742E00507265EF
:1030C000737320746865206B6E6F6220746F20725A
:1030D0006573756D65206E6F7A7A6C652074656DA9
:1030E00070657261747572652E004D4D55206E6568
:1030F000656473207573657220617474656E74699C
:103100006F6E2E0043757474696E672066696C611A
:103110006D656E7400506C656173652072656D6FCE
:1031200076652066696C616D656E7420616E6420E1
:103130007468656E20707265737320746865206BA7
:103140006E6F622E00456A656374696E67206669FA
:103150006C616D656E740025632533642F256425CD
:103160006300546F74616C206661696C757265737D
:103170000046696C2E2072756E6F757473004C6119
:103180007374207072696E74206661696C75726503
:10319000730054656D706572617475726573005368
:1031A000656E736F7220696E666F00457874727514
:1031B00064657220696E666F0058595A2063616CAD
:1031C0002E2064657461696C7300756E6B6E6F7729
:1031D0006E004D4D553220636F6E6E65637465648D
:1031E00000446174653A0055706461746520464D11
:1031F00020465700464D2046572074797065205B65
:1032000064656275675D00464D204657207479708D
:1032100065205B737461626C655D00746F20756E10
:103220006C6F61642066696C616D656E7400746FAB
:10323000206C6F61642066696C616D656E7400500E
:103240007265737320746865206B6E6F62005072D4
:103250006568656174696E6720746F2063757400BA
:1032600050726568656174696E6720746F20656A65
:103270006563740050726568656174696E67207477
:103280006F20756E6C6F6164005072656865617463
:10329000696E6720746F206C6F616400436F6F6CA0
:1032A000646F776E0050726568656174207468653C
:1032B000206E6F7A7A6C6521004552524F523A0067
:1032C00046696C616D656E742065787472756469A9
:1032D0006E672026207769746820636F7272656359
:1032E0007420636F6C6F723F004175746F6C6F6117
:1032F00064696E672066696C616D656E74206973C0
:10330000206163746976652C206A7573742070720D
:1033100065737320746865206B6E6F6220616E64E4
:1033200020696E736572742066696C616D656E7478
:103330002E2E2E005072696E742074696D650046E1
:10334000696C616D656E74207573656400546F748B
:10335000616C207072696E742074696D6500546FC1
:1033600074616C2066696C616D656E74005269678A
:103370006874004C65667400592064697374616EEA
:1033800063652066726F6D206D696E0053657665AA
:10339000726520736B657700536C6967687420737E
:1033A0006B6577004D6561737572656420736B653D
:1033B00077005B303B305D20706F696E74206F6604
:1033C000667365740025530A20252D31362E31365B
:1033D00053252D33640A25530A20252D31362E31ED
:1033E0003653252D33640A002025732533640120CC
:1033F0000A0025752E25752E25752E257500257339
:103400000020005072696E7465722049502041643A
:1034100064723A002573002000466C61736841694C
:103420007220495020416464723A004D4D5532205B
:103430002020202020204E2F410025642E25642EA0
:1034400025642D2564002046573A004A616E2031DC
:1034500032203230323200453344763666756C6C39
:103460000052414D426F31336100315F37356D6D30
:103470005F4D4B3235002D2D2D2D2D2D2D2D2D2D2C
:103480002D2D00207265706F20556E6B6E6F776EFC
:103490000020332E31302E302D343438310046693F
:1034A000726D776172653A00464D20766572736978
:1034B0006F6E3A2000464D2049503A20004D37307B
:1034C00032004D373031004D373032004D3730311A
:1034D00000464C4558202D20203234302F35300006
:1034E00050502020202D20203235342F3130300014
:1034F00048495053202D20203232302F31303000B7
:1035000041425320202D20203235352F31303000DC
:1035100050564220202D20203231352F3735005093
:10352000432020202D20203237352F3130350041E7
:10353000534120202D20203236302F31303500509D
:10354000455420202D20203233302F383500504C68
:103550004120202D20203231352F3630006E6F7AF9
:103560007A6C65202D20203235302F300066617254
:103570006D2020202D20203235302F383000252D91
:1035800031322E313253252B382E31660045787476
:1035900072756465723A006D6D0059005800686F6D
:1035A00077746F2E707275736133642E636F6D0064
:1035B000666F72756D2E707275736133642E636FF2
:1035C0006D00707275736133642E636F6D002553E7
:1035D0003A0A2531382E32666D200A25533A0A25DB
:1035E00031306C6468202530326868646D20253085
:1035F00032686864730025533A0A2531382E3266E2
:103600006D200A25533A0A2531306C646420253038
:103610003268686468202530326868646D00253639
:103620002E32666D6D0025530A25530A25533A0A3A
:1036300025533A0025332E32660100252D31342ED4
:103640003134533A0A25530A252D31342E3134535F
:103650003A25332E3266010A252D31342E3134536A
:103660003A25332E326601007B5B50524E3A39398F
:103670005D007B5B50524E3A355D007B5B50524E95
:103680003A305D007B5B50524E3A395D007B5B50B7
:10369000524E3A385D007B5B5245533A305D5B4693
:1036A000494C3A007B5B5245533A315D5B46494C8D
:1036B0003A005B50524E3A005B50464E3A305D0045
:1036C0005B4449413A005D5B4154423A005D5B41D5
:1036D00054303A005D5B5354423A005B5354303AE5
:1036E00000473830004D3435004D3435205A0047FE
:1036F00037360057697A6172642073746174653A71
:103700002025640A004578747275646572004D6FF7
:103710007665205A004D6F76652059004D6F7665AD
:103720002058004175746F6C6F6164696E67206624
:10373000696C616D656E7420617661696C61626C43
:1037400065206F6E6C79207768656E2066696C61A4
:103750006D656E742073656E736F7220697320746B
:1037600075726E6564206F6E2E2E2E004552524F7C
:10377000523A2046696C616D656E742073656E7394
:103780006F72206973206E6F7420726573706F6E34
:1037900064696E672C20706C656173652063686571
:1037A000636B20636F6E6E656374696F6E2E00438A
:1037B000616C696272617465005368656574202587
:1037C0002E37730A5A206F66667365743A20252B6C
:1037D000312E3366206D6D0A2563436F6E74696EFA
:1037E00075650A256353746172742066726F6D206B
:1037F0007A65726F00506C65617365206C6F6164EF
:103800002066696C616D656E742066697273742ED2
:10381000003E43616E63656C0046696C616D656E68
:10382000740053656C6563742066696C616D656EC8
:10383000743A0052756E6E696E672057697A6172CC
:10384000642077696C6C2064656C657465206375B1
:103850007272656E742063616C6962726174696F03
:103860006E20726573756C747320616E642073745E
:103870006172742066726F6D20746865206265677E
:10388000696E6E696E672E20436F6E74696E756522
:103890003F0050726568656174696E67206E6F7A6B
:1038A0007A6C652E20506C65617365207761697450
:1038B0002E004C6F6164696E672066696C616D658E
:1038C0006E7400506C6561736520696E7365727407
:1038D0002066696C616D656E7420696E746F20740A
:1038E00068652065787472756465722C20746865EB
:1038F0006E20707265737320746865206B6E6F62E2
:1039000020746F206C6F61642069742E00506C65A8
:1039100061736520696E736572742066696C616D90
:10392000656E7420696E746F2074686520666972B4
:1039300073742074756265206F6620746865204D0D
:103940004D552C207468656E2070726573732074F9
:103950006865206B6E6F6220746F206C6F616420ED
:1039600069742E00546865207072696E74657220E7
:1039700077696C6C207374617274207072696E74F4
:10398000696E672061207A69672D7A6167206C69AA
:103990006E652E20526F7461746520746865206BAB
:1039A0006E6F6220756E74696C20796F7520726518
:1039B00061636820746865206F7074696D616C2044
:1039C0006865696768742E20436865636B20746856
:1039D0006520706963747572657320696E20746800
:1039E000652068616E64626F6F6B202843616C694B
:1039F00062726174696F6E206368617074657229A8
:103A00002E0053656C6563742074656D706572611A
:103A100074757265207768696368206D6174636886
:103A2000657320796F7572206D6174657269616C60
:103A30002E0043686F6F736520612066696C616D4D
:103A4000656E7420666F72207468652046697273B3
:103A500074204C617965722043616C696272617493
:103A6000696F6E20616E642073656C656374206994
:103A70007420696E20746865206F6E2D73637265A3
:103A8000656E206D656E752E004E6F77204920772C
:103A9000696C6C2063616C69627261746520646931
:103AA0007374616E6365206265747765656E2074FA
:103AB0006970206F6620746865206E6F7A7A6C6515
:103AC00020616E642068656174626564207375723C
:103AD000666163652E00596F752063616E20616CAD
:103AE0007761797320726573756D652074686520E0
:103AF00057697A6172642066726F6D2043616C69E8
:103B000062726174696F6E202D3E2057697A61720E
:103B1000642E00506C6561736520636865636B207B
:103B20006F75722068616E64626F6F6B20616E6486
:103B300020666978207468652070726F626C656DAC
:103B40002E205468656E20726573756D65207468EB
:103B5000652057697A617264206279207265626FAC
:103B60006F74696E6720746865207072696E746521
:103B7000722E00416C6C20697320646F6E652E207C
:103B80004861707079207072696E74696E67210087
:103B9000496620796F752068617665206164646983
:103BA00074696F6E616C20737465656C20736865F1
:103BB0006574732C2063616C696272617465207432
:103BC00068656972207072657365747320696E2010
:103BD00053657474696E6773202D204857205365B0
:103BE000747570202D20537465656C20736865654D
:103BF00074732E00506C6561736520636C65616E33
:103C0000206865617462656420616E642074686513
:103C10006E20707265737320746865206B6E6F62BE
:103C20002E00446F20796F752077616E7420746F59
:103C300020726570656174206C61737420737465A3
:103C40007020746F20726561646A75737420646992
:103C50007374616E6365206265747765656E206E4E
:103C60006F7A7A6C6520616E642068656174626544
:103C7000643F0053656C656374206E6F7A7A6C657F
:103C800020707265686561742074656D706572611D
:103C900074757265207768696368206D6174636804
:103CA000657320796F7572206D6174657269616CDE
:103CB0002E0049732066696C616D656E74206C6FAF
:103CC000616465643F004E6F7720492077696C6CB2
:103CD0002070726568656174206E6F7A7A6C6520F9
:103CE000666F7220504C412E00492077696C6C2021
:103CF00072756E207A2063616C6962726174696F9B
:103D00006E206E6F772E004E6F772072656D6F7626
:103D100065207468652074657374207072696E74B0
:103D20002066726F6D20737465656C2073686565BD
:103D3000742E00506C656173652072656D6F7665D9
:103D4000207368697070696E672068656C70657251
:103D5000732066697273742E00492077696C6C2039
:103D600072756E2078797A2063616C696272617411
:103D7000696F6E206E6F772E2049742077696C6CA6
:103D80002074616B6520617070726F782E20313203
:103D9000206D696E732E0046697273742C20492061
:103DA00077696C6C2072756E207468652073656C21
:103DB000667465737420746F20636865636B206D2F
:103DC0006F737420636F6D6D6F6E20617373656DBB
:103DD000626C792070726F626C656D732E00486939
:103DE0002C204920616D20796F7572204F726967B0
:103DF000696E616C20507275736120693320707236
:103E0000696E7465722E20576F756C6420796F75BA
:103E1000206C696B65206D6520746F20677569641F
:103E20006520796F75207468726F75676820746893
:103E3000652073657475702070726F636573733F6E
:103E40000048692C204920616D20796F7572204FE0
:103E5000726967696E616C20507275736120693395
:103E6000207072696E7465722E20492077696C6CBF
:103E700020677569646520796F75207468726F7545
:103E8000676820612073686F727420736574757041
:103E90002070726F636573732C20696E2077686978
:103EA000636820746865205A2D617869732077698A
:103EB0006C6C2062652063616C6962726174656418
:103EC0002E205468656E2C20796F752077696C6C94
:103ED00020626520726561647920746F2070726958
:103EE0006E742E0057697A61726420656E64207367
:103EF000746174653A2025640A004D203834004D01
:103F00003834004D3234004D323320257300052EF5
:103F10002E00457874722066616E2073706565644A
:103F20003A2025640A005072696E742066616E2022
:103F300073706565643A2025640A005465737420C3
:103F4000313A004D383400436865636B696E672011
:103F500066696C650046696C6520696E636F6D709B
:103F60006C6574652E20436F6E74696E7565206193
:103F70006E797761793F00045265667265736800F7
:103F80004D61696E0057616974696E6720666F7272
:103F9000206E6F7A7A6C6520616E642062656420A1
:103FA000636F6F6C696E670053656C662074657330
:103FB00074204F4B0053656C6620746573742073D6
:103FC0007461727400583A00593A005A3A002563F5
:103FD000252D31332E313353252B352E33660054A6
:103FE000656D70657261747572652063616C69627C
:103FF000726174696F6E206661696C65642E20431E
:104000006F6E74696E75652077697468207072656B
:104010007373696E6720746865206B6E6F622E0023
:1040200054656D70657261747572652063616C6949
:1040300062726174696F6E20646F6E652E20436FCB
:104040006E74696E75652077697468207072657327
:1040500073696E6720746865206B6E6F622E005AFC
:1040600030005A3100593000593100583000583171
:1040700000456E642073746F70732064696167001B
:104080007B5B4552523A005D5B4657523A005D5B9E
:1040900054494D3A005D5B464E4D3A005D5B4645E6
:1040A0004D3A005D5B5043443A005B5446553A003C
:1040B00041646A757374696E67205A3A005265618B
:1040C000722073696465205B756D5D0046726F6E6A
:1040D0007420736964655B756D5D0052696768740F
:1040E00020736964655B756D5D004C656674207353
:1040F000696465205B756D5D005365742074656D42
:1041000070657261747572653A00417265206C6504
:10411000667420616E64207269676874205A7E63D9
:10412000617272696167657320616C6C2075703FA4
:104130000043616C6962726174696E672058595AF4
:104140002E20526F7461746520746865206B6E6FE9
:104150006220746F206D6F766520746865205A2028
:10416000636172726961676520757020746F207475
:10417000686520656E642073746F70706572732E4D
:1041800020436C69636B207768656E20646F6E6591
:104190002E0043616C6962726174696E67205A2EE9
:1041A00020526F7461746520746865206B6E6F6255
:1041B00020746F206D6F766520746865205A2063C7
:1041C0006172726961676520757020746F20746810
:1041D0006520656E642073746F70706572732E2035
:1041E000436C69636B207768656E20646F6E652E23
:1041F0000054656D70657261747572652063616CE1
:104200006962726174696F6E206661696C656400D1
:1042100054656D70657261747572652063616C6957
:1042200062726174696F6E2069732066696E69736A
:1042300068656420616E64206163746976652E2010
:1042400054656D702E2063616C6962726174696F70
:104250006E2063616E2062652064697361626C65C3
:104260006420696E206D656E752053657474696E87
:1042700067732D3E54656D702E2063616C2E004671
:10428000696C2E2073656E736F72002020300020E1
:1042900020310046494E44410050494E4441006C93
:1042A00063645F73656C66636865636B5F6178699F
:1042B000732025642C2025640A00486F74656E64A1
:1042C00000426564005A00590058002D2D2D2D2DF7
:1042D0002D2D2D2D2D2D2D2D2D2D2D2D2D2D2D003B
:1042E0004F4B000000000000110A04537570657206
:1042F00050494E44413A002573206C6576656C2028
:1043000065787065637465640046616C73652074DC
:10431000726967676572696E67005377617070656F
:10432000640046726F6E742F6C6566742066616EF1
:104330007300417869730041786973206C656E671A
:104340007468004C6F6F73652070756C6C657900D4
:10435000456E6473746F70206E6F742068697400AA
:10436000456E6473746F70004D6F746F7200456EAC
:104370006473746F707300576972696E6720657239
:10438000726F72004265642F486561746572004EF9
:104390006F7420636F6E6E65637465640048656159
:1043A0007465722F546865726D6973746F72005012
:1043B0006C6561736520636865636B3A0053656C77
:1043C0006674657374206572726F72210046696C41
:1043D000616D656E742073656E736F7200507269E3
:1043E0006E742066616E3A00457874727564657209
:1043F0002066616E3A0043616C6962726174696E35
:104400006720686F6D650053656C66746573742012
:104410006661696C656400416C6C20636F727265E3
:10442000637400436865636B696E672073656E73C0
:104430006F727300436865636B696E6720686F74A1
:10444000656E6400436865636B696E6720626564CE
:1044500000436865636B696E67205A2061786973F1
:1044600000436865636B696E6720592061786973E2
:1044700000436865636B696E6720582061786973D3
:1044800000436865636B696E6720656E6473746F63
:104490007073004572726F72202D2073746174699D
:1044A00063206D656D6F7279206861732062656548
:1044B0006E206F7665727772697474656E00436101
:1044C00072642072656D6F766564004261636B0093
:1044D0004C434420737461747573206368616E6724
:1044E000656400534420636172642072656C656189
:1044F000736564005072757361206933204D4B32CF
:104500002E3553204F4B2E007C3C3E3F2F2A225C01
:10451000004B494C4C45442E20005072696E746526
:10452000722068616C7465642E206B696C6C28293C
:104530002063616C6C656421004B494C4C3A20252A
:10454000640A004D32323120496E76616C69642014
:10455000657874727564657220004D323138204977
:104560006E76616C6964206578747275646572201A
:10457000004D31303920496E76616C696420657870
:1045800074727564657220004D31303520496E7645
:10459000616C696420657874727564657220004D81
:1045A00031303420496E76616C69642065787472AC
:1045B00075646572200020573A0020453A00543A4D
:1045C000005A206C6976652061646A757374206F87
:1045D0007574206F662072616E67652E2053657456
:1045E00074696E6720746F20302E20436C69636B92
:1045F00020746F20636F6E74696E75652E005A208B
:104600006C6976652061646A757374206F757420B7
:104610006F662072616E67652E2053657474696ED3
:104620006720746F20300020423A0020453A005441
:104630003A0000002110422063308440A550C6603B
:10464000E770088129914AA16BB18CC1ADD1CEE14F
:10465000EFF13112100273325222B5529442F772C6
:10466000D662399318837BB35AA3BDD39CC3FFF39F
:10467000DEE36224433420040114E664C774A444D6
:1046800085546AA54BB528850995EEE5CFF5ACC5EF
:104690008DD55336722611163006D776F6669556A6
:1046A000B4465BB77AA719973887DFF7FEE79DD73F
:1046B000BCC7C448E5588668A77840086118022836
:1046C0002338CCC9EDD98EE9AFF9488969990AA98F
:1046D0002BB9F55AD44AB77A966A711A500A333A06
:1046E000122AFDDBDCCBBFFB9EEB799B588B3BBBDF
:1046F0001AABA66C877CE44CC55C222C033C600C96
:10470000411CAEED8FFDECCDCDDD2AAD0BBD688D2E
:10471000499D977EB66ED55EF44E133E322E511EE5
:10472000700E9FFFBEEFDDDFFCCF1BBF3AAF599F7E
:10473000788F8891A981CAB1EBA10CD12DC14EF11E
:104740006FE18010A100C230E32004502540467084
:104750006760B9839893FBA3DAB33DC31CD37FE3AF
:104760005EF3B1029012F322D232354214527762D4
:104770005672EAB5CBA5A89589856EF54FE52CD57F
:104780000DC5E234C324A014810466744764245424
:104790000544DBA7FAB79987B8975FE77EF71DC78F
:1047A0003CD7D326F2369106B01657667676154674
:1047B00034564CD96DC90EF92FE9C899E9898AB9DF
:1047C000ABA94458654806782768C018E1088238C4
:1047D000A3287DCB5CDB3FEB1EFBF98BD89BBBABEF
:1047E0009ABB754A545A376A167AF10AD01AB32A14
:1047F000923A2EFD0FED6CDD4DCDAABD8BADE89D3F
:10480000C98D267C076C645C454CA23C832CE01C63
:10481000C10C1FEF3EFF5DCF7CDF9BAFBABFD98FCE
:10482000F89F176E367E554E745E932EB23ED10EB3
:10483000F01E506C65617365207761697400507279
:10484000696E746572206E6F7A7A6C652064696136
:104850006D65746572206469666665727320667240
:104860006F6D2074686520472D636F64652E20503E
:104870006C6561736520636865636B20746865208F
:1048800076616C756520696E2073657474696E67F6
:10489000732E205072696E742063616E63656C6C58
:1048A00065642E005072696E746572206E6F7A7A3C
:1048B0006C65206469616D65746572206469666603
:1048C0006572732066726F6D2074686520472D6372
:1048D0006F64652E20436F6E74696E75653F0000CE
:1048E000002100240027002A002D003000330001A1
:1048F000010000040107010A010000220025002830
:10490000002B002E003100340002010000050108D8
:10491000010B01000020002300260029002C002F9D
:104920000032000001000003010601090105050530
:1049300005070508080808020202020A0A08080416
:104940000404040101010101010101030303030344
:10495000030303040707070C0C0C0C0C0C0C0C02D3
:1049600002020206060606060606060B0B0B0B0BDA
:104970000B0B0B07070A0A0A0A0A0A0505050404B5
:1049800004080801021020200808102040102040D0
:104990008002010201080402010102040810204003
:1049A0008080402010080402018004020180402021
:1049B000100804020108040201010204081020404A
:1049C0008001020408102040801008040880102094
:1049D00040044080102040048000000A0B02090CB3
:1049E0000D0E080703040100000000000000000095
:1049F00000000000000000000000000000000000B7
:104A00000000000000121110000000000000000073
:104A10000000000000000000000000000000000096
:104A20000000000000000000000000000000005333
:104A3000706F6F6C4A6F696E004669726D77617254
:104A40006500537570657250494E444100466C6173
:104A5000736841697200437574746572004D6F64C8
:104A6000656C00537472696374005761726E004321
:104A70006865636B73004E6F7A7A6C6520642E00F4
:104A80004E6F6E6500416C706861626574005469B8
:104A90006D6500536F7274004E6F726D616C0053E0
:104AA0004420636172640054656D702E2063616CF4
:104AB0002E00485720536574757000462E2061758E
:104AC000746F6C6F61640044697361626C6520731C
:104AD00074657070657273004D6F766520617869DA
:104AE000730054656D70657261747572650054650C
:104AF0006D702E2063616C6962726174696F6E0003
:104B000052657365742058595A2063616C696272EA
:104B10002E0053686F7720656E642073746F707316
:104B2000005049442063616C6962726174696F6E00
:104B300000426564206C6576656C20636F727265F7
:104B40006374004D65736820426564204C6576652A
:104B50006C696E670043616C696272617465205AAA
:104B60000043616C6962726174652058595A005340
:104B7000656C66746573740057697A617264004588
:104B800078706572696D656E74616C0044697361FB
:104B9000626C65206661726D206D6F6465004D38D2
:104BA00034004D343400473238205700200A200AA0
:104BB000200024F4D43050C38E20C2A24017828B30
:104BC0007011127A910D816CD90AA861E108C75859
:104BD0006607615143061E4B5D05C145A7041A4196
:104BE0001104093D9803713931034036DB02653306
:104BF0009102D4305402802E1D02632CEE01752ADE
:104C0000C501B028A001102781018F2564012B2444
:104C10004B01E0223401AC211F018D200D01801FCA
:104C2000FC00841EED00971DDF00B81CD200E61BBF
:104C3000C600201BBC00641AB200B219A8000A19F1
:104C4000A0006A189900D117910040178B00B51683
:104C5000840031167E00B31579003A157300C7142D
:104C60006F0058146A00EE13660088136300251362
:104C70005E00C7125B006C12570015125400C11180
:104C8000510070114F0021114B00D61049008D10BA
:104C900047004610440002104200C00F4000800F41
:104CA0003E00420F3C00060F3B00CB0E3800930E37
:104CB00037005C0E3500270E3400F30D3200C10DB5
:104CC0003100900D3000600D2E00320D2D00050DCD
:104CD0002C00D90C2B00AE0C2900850C29005C0C93
:104CE0002700350C27000E0C2600E80B2400C40B0F
:104CF0002400A00B23007D0B23005A0B2100390B4D
:104D00002100180B2000F80A1F00D90A1E00BB0A58
:104D10001E009D0A1D00800A1D00630A1C00470A30
:104D20001B002C0A1B00110A1A00F7091A00DD09E2
:104D30001900C4091900AB091900920917007B0971
:104D40001800630917004C091600360916002009DF
:104D500016000A091500F5081500E0081400CC0833
:104D60001400B8081400A4081400900813007D086B
:104D700012006B081300580812004608120034088D
:104D80001100230811001208110001081100F0079A
:104D90001000E0071000D0071000C0071000B00797
:104DA0000F00A107100091070E0083070F00740782
:104DB0000F0065070E0057070E0049070E003B075E
:104DC0000D002E070E0020070D0013070D0006072B
:104DD0000D00F9060C00ED060D00E0060C00D406EF
:104DE0000C00C8060C00BC060C00B0060C00A406A3
:104DF0000B0099060C008D060B0082060B0077064F
:104E00000B006C060B0061060A0057060B004C06EF
:104E10000A0042060A0038060A002E060A00240686
:104E20000A001A060A001006090007060A00FD0516
:104E30000900F4050900EB050900E2050900D905A0
:104E40000900D0050900C7050900BE050900B50520
:104E50000800AD050800A50509009C05080094059B
:104E600008008C050800840508007C05080074050E
:104E700008006C050700650508005D05070056057C
:104E800008004E05070047050700400508003805E3
:104E90000700310507002A050700230507001C0548
:104EA0000600160507000F050700080506000205A5
:104EB0000700FB040600F5040700EE040600E80402
:104EC0000600E2040700DB040600D5040600CF0458
:104ED0000600C9040600C3040600BD040600B704AA
:104EE0000600B1040500AC040600A6040600A004F8
:104EF00005009B04060095040500900406008A0442
:104F0000050085040500800406007A040500750488
:104F10000500700405006B040500660405006104CB
:104F200005005C04050057040500520405004D040B
:104F3000050048040500430405003E0404003A044B
:104F4000050035040500300404002C040500270486
:104F50000400230405001E0404001A0404001604BF
:104F60000500110404000D040400090405000404F4
:104F7000040000040400FC030400F8030400F4032C
:104F80000400F0030400EC030400E8030400E4035D
:104F90000400E0030400DC030400D8030400D4038D
:104FA0000400D0030400CC030400C8030300C503BD
:104FB000030024F404D9201BC40C5C0E9804C4091B
:104FC0005F0265077101F405F900FB04B3004804B2
:104FD0008700C10369005803550003034500BE0262
:104FE0003A008402310053022A00290225000402FB
:104FF0002000E4011C00C8011900AF01170098014E
:1050000014008401130071011000610110005101AE
:105010000E0043010D0036010B002B010B00200197
:105020000B00150109000C01090003010800FB0039
:105030000800F3000800EB000700E4000600DE00B3
:105040000600D8000600D2000600CC000500C7000C
:105050000500C2000500BD000400B9000400B50051
:105060000400B1000400AD000400A9000400A50084
:105070000300A20003009F0004009B0003009800AF
:1050800003009500020093000300900003008D00D0
:1050900002008B00030088000200860002008400EA
:1050A0000300810002007F0002007D0002007B00FF
:1050B000020079000200770001007600020074000F
:1050C000020072000100710002006F0002006D001A
:1050D00001006C0002006A00010069000200670024
:1050E000010066000100650001006400020062002A
:1050F000010061000100600001005F0002005D002E
:1051000001005C0001005B0001005A000100590031
:105110000100580001005700010056000100550031
:105120000100540001005300000053000100520030
:10513000010051000100500001004F0001004E002D
:1051400000004E0001004D0001004C0001004B002A
:1051500000004B0001004A00010049000100480026
:105160000000480001004700010046000000460022
:10517000010045000000450001004400010043001B
:105180000000430001004200000042000100410015
:10519000000041000100400001003F0000003F000E
:1051A00001003E0000003E0001003D0000003D0007
:1051B00001003C0000003C0000003C0001003B00FE
:1051C00000003B0001003A0000003A0001003900F5
:1051D00000003900010038000000380000003800ED
:1051E00001003700000037000100360000003600E3
:1051F00000003600010035000000350000003500D9
:1052000001003400000034000000340001003300CD
:1052100000003300000033000100320000003200C3
:1052200000003200010031000000310000003100B8
:1052300001003000000030000000300001002F00AD
:1052400000002F0000002F0000002F0001002E00A2
:1052500000002E0000002E0001002D0000002D0097
:1052600000002D0000002D0001002C0000002C008B
:1052700000002C0000002C0001002B0000002B007F
:1052800000002B0000002B0001002A0000002A0073
:1052900000002A0000002A00010029000000290067
:1052A000000029000000290000002900010028005A
:1052B000000028000000280000002800000028004E
:1052C0000100270000002700000027000000270041
:1052D0000000270001002600000026000000260034
:1052E0000000260000002600010025000000250027
:1052F000000025000000250000002500000025001A
:10530000010024000000240000002400000024000C
:1053100000002400010023000000230000002300FF
:1053200000002300000023000000230000002300F1
:1053300001002200000022000000220000002200E4
:1053400000002200000022000100210000002100D6
:1053500000002100000021000000210000002100C9
:1053600000002100010020000000200000002000BB
:1053700000002000000020000000200000002000AD
:105380000000200001001F0000001F0000001F009F
:1053900000001F0000001F0000001F0000001F0091
:1053A00001001E0000001E0000001E0000001E0084
:1053B00000004739390044697361626C6520666199
:1053C000726D206D6F64653F004C6F616420616C8D
:1053D0006C00506C656173652070756C6C206F7526
:1053E000742066696C616D656E7420696D6D6564AD
:1053F000696174656C7900556E6C6F6164696E6784
:105400002066696C616D656E740052657365740029
:1054100052656E616D65004669727374206C6179C6
:1054200065722063616C2E0053656C656374005374
:105430007465656C2073686565747300537570706E
:105440006F7274004661696C207374617473204DCF
:105450004D55004661696C20737461747300537418
:1054600061746973746963730043616C696272612A
:1054700074696F6E004175746F4C6F61642066696A
:105480006C616D656E74004375742066696C616D46
:10549000656E7400456A6563742066696C616D654C
:1054A0006E7400556E6C6F61642066696C616D6529
:1054B0006E74004C6F616420746F206E6F7A7A6C2A
:1054C00065004C6F61642066696C616D656E740087
:1054D0004E6F2053442063617264005072696E7491
:1054E0002066726F6D20534400526573756D6520A0
:1054F0007072696E74005061757365207072696EA8
:105500007400507265686561740054756E65004C76
:105510006976652061646A757374205A00496E6605
:105520006F2073637265656E004572723A2045584C
:1055300054522E2046414E204552524F52002F2F9A
:1055400020616374696F6E3A706175736564002FD2
:105550002F20616374696F6E3A726573756D65644F
:10556000002F2F20616374696F6E3A726573756DD9
:10557000650025632533642F25642563005A25368D
:105580002E32662563005A2020202D2D2D20002547
:10559000632533642525002D2D2D0025336868648F
:1055A0000025335325337325250055534200202011
:1055B0002000205344002025753E257500203F3EE5
:1055C000257500204625750020463F002046524D97
:1055D000200025632D2D3A2D2D2020002563253315
:1055E00075682025632563002563253032753A25CB
:1055F0003032752563256300252D3773003A20006E
:1056000025642F3600252D32305300203A20002506
:105610002D32307300526573756D696E672070723C
:10562000696E740050494E44412048656174696E4A
:10563000670043616C6962726174696F6E20646FA8
:105640006E650043616C6962726174696E67205AAD
:105650000042656420646F6E6500426564204865A1
:105660006174696E670048656174696E6720646F74
:105670006E652E0048656174696E67004D323400B6
:105680004D3233202573006175746F25692E6700D4
:1056900047312045252D302E3366204632373030B5
:1056A000004D38330022206661696C65643A2042FF
:1056B00075666665722066756C6C2100456E717545
:1056C00065696E6720746F207468652066726F6EFE
:1056D000743A2022004572726F723A002200456EC1
:1056E000717565696E6720746F20746865206672D5
:1056F0006F6E743A2022006563686F3A004545502A
:10570000524F4D204572726F72004D494E54454DB7
:105710005020424544206669786564004D494E54E6
:10572000454D5020484F54454E4420666978656485
:10573000002022257322002025236C780044495242
:105740005F45584954004449525F454E5445523ACA
:1057500020257320222573220A00536F7274696E0C
:10576000672066696C657300536F6D652066696CB0
:1057700065732077696C6C206E6F7420626520738E
:105780006F727465642E204D61782E204E6F2E202E
:105790006F662066696C657320696E203120666FC4
:1057A0006C64657220666F7220736F7274696E67C5
:1057B000206973203130302E0043616E6E6F74208B
:1057C000656E746572207375626469723A20005365
:1057D00068656574004E6F74207370696E6E696ED3
:1057E00067005370696E6E696E67004C6566742061
:1057F000686F74656E642066616E3F0046726F6EFE
:1058000074207072696E742066616E3F0046616E2E
:105810002074657374004E6F0059657300252D392F
:105820002E39535B002563252D31382E31387325F1
:105830006300332E31302E30007263006265746174
:1058400000616C70686100646576000000A0400033
:1058500000A0400000004000007A43000056439A38
:10586000D95143FFFFFF57726974696E6720746FE7
:105870002066696C653A200046696C6520616C722F
:1058800065616479206F70656E6564004E6F2030CD
:105890007846462072656365697665640053656E77
:1058A00064696E6720307846460046696C652073EF
:1058B000656C6563746564002053697A653A2000FD
:1058C00046696C65206F70656E65643A20004E6FA6
:1058D000772066726573682066696C653A20004EB1
:1058E0006F7720646F696E672066696C653A200087
:1058F0002220706F73002220706172656E743A22EC
:1059000000535542524F5554494E452043414C4C4B
:10591000207461726765743A2200747279696E67E7
:1059200020746F2063616C6C207375622D67636FE8
:1059300064652066696C6573207769746820746F8C
:105940006F206D616E79206C6576656C732E0053E7
:10595000442063617264206F6B006F70656E526FDC
:105960006F74206661696C656400766F6C756D6537
:105970002E696E6974206661696C65640053442009
:10598000696E6974206661696C006F70656E20666F
:1059900061696C65642C2046696C653A200052652B
:1059A00073656E640025533A20256C640A25530AFA
:1059B00000496E61637469766974792053687574FF
:1059C000646F776E004D363030006673656E736FAE
:1059D000725F757064617465202D204D3630300023
:1059E00048656174696E672064697361626C65649F
:1059F000206279207361666574792074696D6572BF
:105A00002E0045303A20005A3A2000593A200058DA
:105A10003A20004D53312C4D53322050696E730A99
:105A20000047312058352E302045342E3020463165
:105A30003030302E30004731205A302E3230204660
:105A4000313030302E30004731205835352E30205F
:105A50004532352046313430302E30004731205920
:105A60002D322E302046313030302E30004731205C
:105A7000583234302E30204532352E3020204632F8
:105A80003230302E30004739322045302E3000473A
:105A900031205A302E332046313030302E300047FE
:105AA00031205835352E302045382E3020463230C2
:105AB00030302E300047312058352E3020453332DB
:105AC0002E302046313830302E30004731205835C6
:105AD000352E30204533322E302046313037332EAC
